{
	"data": {
		"bytecode": {
			"linkReferences": {},
			"object": "60806040526040518060600160405280600164ffffffffff16815260200164e8d4a5100064ffffffffff16815260200164e8d4a5100064ffffffffff16815250600390600361004f929190610094565b5034801561005b575f80fd5b50604051612417380380612417833981810160405281019061007d9190610319565b805f90600361008d9291906100dd565b5050610344565b82600381019282156100cc579160200282015b828111156100cb578251829064ffffffffff169055916020019190600101906100a7565b5b5090506100d99190610159565b5090565b8260038101928215610148579160200282015b82811115610147578251825f6101000a81548173ffffffffffffffffffffffffffffffffffffffff021916908373ffffffffffffffffffffffffffffffffffffffff160217905550916020019190600101906100f0565b5b5090506101559190610159565b5090565b5b80821115610170575f815f90555060010161015a565b5090565b5f604051905090565b5f80fd5b5f80fd5b5f601f19601f8301169050919050565b7f4e487b71000000000000000000000000000000000000000000000000000000005f52604160045260245ffd5b6101cb82610185565b810181811067ffffffffffffffff821117156101ea576101e9610195565b5b80604052505050565b5f6101fc610174565b905061020882826101c2565b919050565b5f67ffffffffffffffff82111561022757610226610195565b5b602082029050919050565b5f80fd5b5f73ffffffffffffffffffffffffffffffffffffffff82169050919050565b5f61025f82610236565b9050919050565b61026f81610255565b8114610279575f80fd5b50565b5f8151905061028a81610266565b92915050565b5f6102a261029d8461020d565b6101f3565b905080602084028301858111156102bc576102bb610232565b5b835b818110156102e557806102d1888261027c565b8452602084019350506020810190506102be565b5050509392505050565b5f82601f83011261030357610302610181565b5b6003610310848285610290565b91505092915050565b5f6060828403121561032e5761032d61017d565b5b5f61033b848285016102ef565b91505092915050565b6120c6806103515f395ff3fe608060405234801561000f575f80fd5b506004361061009c575f3560e01c806370a082311161006457806370a082311461017e578063a4bf0446146101ae578063a60dc3b1146101de578063d035862c1461020f578063e25aa5fa1461023f5761009c565b806318160ddd146100a05780634903b0d1146100be5780634f64b2be146100ee5780635673b02d1461011e5780637066b5b21461014e575b5f80fd5b6100a861025d565b6040516100b5919061167e565b60405180910390f35b6100d860048036038101906100d391906116c5565b610263565b6040516100e5919061167e565b60405180910390f35b610108600480360381019061010391906116c5565b61027c565b604051610115919061172f565b60405180910390f35b61013860048036038101906101339190611748565b6102af565b604051610145919061167e565b60405180910390f35b610168600480360381019061016391906117ac565b6105da565b604051610175919061167e565b60405180910390f35b61019860048036038101906101939190611826565b610718565b6040516101a5919061167e565b60405180910390f35b6101c860048036038101906101c39190611876565b61072d565b6040516101d5919061167e565b60405180910390f35b6101f860048036038101906101f391906118b4565b610b18565b6040516102069291906118f2565b60405180910390f35b61022960048036038101906102249190611919565b610b2f565b60405161023691906119fc565b60405180910390f35b610247610ce6565b604051610254919061167e565b60405180910390f35b60095481565b60068160038110610272575f80fd5b015f915090505481565b5f816003811061028a575f80fd5b015f915054906101000a900473ffffffffffffffffffffffffffffffffffffffff1681565b5f8385036102f2576040517f08c379a00000000000000000000000000000000000000000000000000000000081526004016102e990611a6f565b60405180910390fd5b5f856003811061030557610304611a8d565b5b015f9054906101000a900473ffffffffffffffffffffffffffffffffffffffff1673ffffffffffffffffffffffffffffffffffffffff166323b872dd3330866040518463ffffffff1660e01b815260040161036293929190611aba565b6020604051808303815f875af115801561037e573d5f803e3d5ffd5b505050506040513d601f19601f820116820180604052508101906103a29190611b24565b505f6103ac610d3e565b90505f600387600381106103c3576103c2611a8d565b5b0154856103d09190611b7c565b8288600381106103e3576103e2611a8d565b5b60200201516103f29190611bbd565b90505f82876003811061040857610407611a8d565b5b602002015190505f61041c89898587610db2565b90506003886003811061043257610431611a8d565b5b0154600182846104429190611bf0565b61044c9190611bf0565b6104569190611c50565b94505f620f424061012c8761046b9190611b7c565b6104759190611c50565b905080866104839190611bf0565b9550868610156104c8576040517f08c379a00000000000000000000000000000000000000000000000000000000081526004016104bf90611cca565b60405180910390fd5b8760068b600381106104dd576104dc611a8d565b5b015f8282546104ec9190611bbd565b925050819055508560068a6003811061050857610507611a8d565b5b015f8282546105179190611bf0565b925050819055505f896003811061053157610530611a8d565b5b015f9054906101000a900473ffffffffffffffffffffffffffffffffffffffff1673ffffffffffffffffffffffffffffffffffffffff1663a9059cbb33886040518363ffffffff1660e01b815260040161058c929190611ce8565b6020604051808303815f875af11580156105a8573d5f803e3d5ffd5b505050506040513d601f19601f820116820180604052508101906105cc9190611b24565b505050505050949350505050565b5f6105e58484610f81565b50809150508181101561062d576040517f08c379a000000000000000000000000000000000000000000000000000000000815260040161062490611d59565b60405180910390fd5b806006846003811061064257610641611a8d565b5b015f8282546106519190611bf0565b9250508190555061066233856111be565b5f836003811061067557610674611a8d565b5b015f9054906101000a900473ffffffffffffffffffffffffffffffffffffffff1673ffffffffffffffffffffffffffffffffffffffff1663a9059cbb33836040518363ffffffff1660e01b81526004016106d0929190611ce8565b6020604051808303815f875af11580156106ec573d5f803e3d5ffd5b505050506040513d601f19601f820116820180604052508101906107109190611b24565b509392505050565b600a602052805f5260405f205f915090505481565b5f8060095490505f8061073e610d3e565b90505f831115610754576107518161122d565b91505b61075c611644565b5f5b60038110156108e0575f88826003811061077b5761077a611a8d565b5b602002013590505f81111561089f575f826003811061079d5761079c611a8d565b5b015f9054906101000a900473ffffffffffffffffffffffffffffffffffffffff1673ffffffffffffffffffffffffffffffffffffffff166323b872dd3330846040518463ffffffff1660e01b81526004016107fa93929190611aba565b6020604051808303815f875af1158015610816573d5f803e3d5ffd5b505050506040513d601f19601f8201168201806040525081019061083a9190611b24565b506003826003811061084f5761084e611a8d565b5b01548161085c9190611b7c565b84836003811061086f5761086e611a8d565b5b602002015161087e9190611bbd565b83836003811061089157610890611a8d565b5b6020020181815250506108d4565b8382600381106108b2576108b1611a8d565b5b60200201518383600381106108ca576108c9611a8d565b5b6020020181815250505b5080600101905061075e565b505f6108eb8261122d565b905083811161092f576040517f08c379a000000000000000000000000000000000000000000000000000000000815260040161092690611dc1565b60405180910390fd5b5f80861115610a2d575f5b6003811015610a1c575f868487846003811061095957610958611a8d565b5b60200201516109689190611b7c565b6109729190611c50565b90505f61099686846003811061098b5761098a611a8d565b5b6020020151836113ec565b9050620f424081600160036109ab9190611bf0565b60046109b79190611b7c565b600361012c6109c69190611b7c565b6109d09190611c50565b6109da9190611b7c565b6109e49190611c50565b8684600381106109f7576109f6611a8d565b5b60200201818151610a089190611bf0565b91508181525050505080600101905061093a565b50610a268361122d565b9050610a31565b8190505b5f5b6003811015610a8957898160038110610a4f57610a4e611a8d565b5b602002013560068260038110610a6857610a67611a8d565b5b015f828254610a779190611bbd565b92505081905550806001019050610a33565b505f861115610abb5784868683610aa09190611bf0565b610aaa9190611b7c565b610ab49190611c50565b9650610abf565b8096505b87871015610b02576040517f08c379a0000000000000000000000000000000000000000000000000000000008152600401610af990611e29565b60405180910390fd5b610b0c338861141b565b50505050505092915050565b5f80610b248484610f81565b915091509250929050565b610b37611644565b5f60095490505f5b6003811015610cd4575f828660068460038110610b5f57610b5e611a8d565b5b0154610b6b9190611b7c565b610b759190611c50565b9050848260038110610b8a57610b89611a8d565b5b6020020135811015610bd1576040517f08c379a0000000000000000000000000000000000000000000000000000000008152600401610bc890611d59565b60405180910390fd5b8060068360038110610be657610be5611a8d565b5b015f828254610bf59190611bf0565b9250508190555080848360038110610c1057610c0f611a8d565b5b6020020181815250505f8260038110610c2c57610c2b611a8d565b5b015f9054906101000a900473ffffffffffffffffffffffffffffffffffffffff1673ffffffffffffffffffffffffffffffffffffffff1663a9059cbb33836040518363ffffffff1660e01b8152600401610c87929190611ce8565b6020604051808303815f875af1158015610ca3573d5f803e3d5ffd5b505050506040513d601f19601f82011682018060405250810190610cc79190611b24565b5050806001019050610b3f565b50610cdf33856111be565b5092915050565b5f80610cf8610cf3610d3e565b61122d565b90505f60095490505f811115610d3557806012600a610d179190611f76565b83610d229190611b7c565b610d2c9190611c50565b92505050610d3b565b5f925050505b90565b610d46611644565b5f5b6003811015610dae5760038160038110610d6557610d64611a8d565b5b015460068260038110610d7b57610d7a611a8d565b5b0154610d879190611b7c565b828260038110610d9a57610d99611a8d565b5b602002018181525050806001019050610d48565b5090565b5f80600360016003610dc49190611bf0565b6003610dd09190611f76565b6103e8610ddd9190611b7c565b610de79190611b7c565b90505f610df38461122d565b90505f808290505f805b6003811015610e77578a8103610e1557889150610e38565b89810315610e6c57878160038110610e3057610e2f611a8d565b5b602002015191505b8184610e449190611bbd565b9350816003610e539190611b7c565b8584610e5f9190611b7c565b610e699190611c50565b92505b806001019050610dfd565b50846003610e859190611b7c565b8483610e919190611b7c565b610e9b9190611c50565b91505f8585610eaa9190611c50565b84610eb59190611bbd565b90505f808690505f5b60ff811015610f3d578192508784836002610ed99190611b7c565b610ee39190611bbd565b610eed9190611bf0565b868384610efa9190611b7c565b610f049190611bbd565b610f0e9190611c50565b91506001610f1c83856113ec565b11610f3257819950505050505050505050610f79565b806001019050610ebe565b506040517f08c379a0000000000000000000000000000000000000000000000000000000008152600401610f709061200a565b60405180910390fd5b949350505050565b5f805f60095490505f610f92610d3e565b90505f610f9e8261122d565b90505f838883610fae9190611b7c565b610fb89190611c50565b82610fc39190611bf0565b90505f610fd188858461148a565b90505f60038960038110610fe857610fe7611a8d565b5b015482868b60038110610ffe57610ffd611a8d565b5b602002015161100d9190611bf0565b6110179190611c50565b90505f805b6003811015611141578a810361106c5783868689846003811061104257611041611a8d565b5b60200201516110519190611b7c565b61105b9190611c50565b6110659190611bf0565b91506110bf565b858588836003811061108157611080611a8d565b5b60200201516110909190611b7c565b61109a9190611c50565b8782600381106110ad576110ac611a8d565b5b60200201516110bc9190611bf0565b91505b620f424082600160036110d29190611bf0565b60046110de9190611b7c565b600361012c6110ed9190611b7c565b6110f79190611c50565b6111019190611b7c565b61110b9190611c50565b87826003811061111e5761111d611a8d565b5b6020020181815161112f9190611bf0565b9150818152505080600101905061101c565b505f61114e8b888761148a565b905060038b6003811061116457611163611a8d565b5b0154600182898e6003811061117c5761117b611a8d565b5b602002015161118b9190611bf0565b6111959190611bf0565b61119f9190611c50565b995089836111ad9190611bf0565b985050505050505050509250929050565b80600a5f8473ffffffffffffffffffffffffffffffffffffffff1673ffffffffffffffffffffffffffffffffffffffff1681526020019081526020015f205f82825461120a9190611bf0565b925050819055508060095f8282546112229190611bf0565b925050819055505050565b5f8060036001600361123f9190611bf0565b600361124b9190611f76565b6103e86112589190611b7c565b6112629190611b7c565b90505f805b60038110156112a05784816003811061128357611282611a8d565b5b6020020151826112939190611bbd565b9150806001019050611267565b505f8190505f805b60ff8110156113ab575f8390505f5b6003811015611307578881600381106112d3576112d2611a8d565b5b602002015160036112e49190611b7c565b85836112f09190611b7c565b6112fa9190611c50565b91508060010190506112b7565b50839250806001600361131a9190611bbd565b6113249190611b7c565b846001886113329190611bf0565b61133c9190611b7c565b6113469190611bbd565b848260036113549190611b7c565b87896113609190611b7c565b61136a9190611bbd565b6113749190611b7c565b61137e9190611c50565b9350600161138c85856113ec565b1161139f578396505050505050506113e7565b508060010190506112a8565b506040517f08c379a00000000000000000000000000000000000000000000000000000000081526004016113de90612072565b60405180910390fd5b919050565b5f818310156114065782826114019190611bf0565b611413565b81836114129190611bf0565b5b905092915050565b80600a5f8473ffffffffffffffffffffffffffffffffffffffff1673ffffffffffffffffffffffffffffffffffffffff1681526020019081526020015f205f8282546114679190611bbd565b925050819055508060095f82825461147f9190611bbd565b925050819055505050565b5f8060036001600361149c9190611bf0565b60036114a89190611f76565b6103e86114b59190611b7c565b6114bf9190611b7c565b90505f808490505f805b600381101561153c578881146114f8578781600381106114ec576114eb611a8d565b5b602002015191506114fd565b611531565b81846115099190611bbd565b93508160036115189190611b7c565b87846115249190611b7c565b61152e9190611c50565b92505b8060010190506114c9565b5083600361154a9190611b7c565b86836115569190611b7c565b6115609190611c50565b91505f848761156f9190611c50565b8461157a9190611bbd565b90505f808890505f5b60ff81101561160157819250898483600261159e9190611b7c565b6115a89190611bbd565b6115b29190611bf0565b8683846115bf9190611b7c565b6115c99190611bbd565b6115d39190611c50565b915060016115e183856113ec565b116115f657819850505050505050505061163d565b806001019050611583565b506040517f08c379a00000000000000000000000000000000000000000000000000000000081526004016116349061200a565b60405180910390fd5b9392505050565b6040518060600160405280600390602082028036833780820191505090505090565b5f819050919050565b61167881611666565b82525050565b5f6020820190506116915f83018461166f565b92915050565b5f80fd5b6116a481611666565b81146116ae575f80fd5b50565b5f813590506116bf8161169b565b92915050565b5f602082840312156116da576116d9611697565b5b5f6116e7848285016116b1565b91505092915050565b5f73ffffffffffffffffffffffffffffffffffffffff82169050919050565b5f611719826116f0565b9050919050565b6117298161170f565b82525050565b5f6020820190506117425f830184611720565b92915050565b5f805f80608085870312156117605761175f611697565b5b5f61176d878288016116b1565b945050602061177e878288016116b1565b935050604061178f878288016116b1565b92505060606117a0878288016116b1565b91505092959194509250565b5f805f606084860312156117c3576117c2611697565b5b5f6117d0868287016116b1565b93505060206117e1868287016116b1565b92505060406117f2868287016116b1565b9150509250925092565b6118058161170f565b811461180f575f80fd5b50565b5f81359050611820816117fc565b92915050565b5f6020828403121561183b5761183a611697565b5b5f61184884828501611812565b91505092915050565b5f80fd5b5f819050826020600302820111156118705761186f611851565b5b92915050565b5f806080838503121561188c5761188b611697565b5b5f61189985828601611855565b92505060606118aa858286016116b1565b9150509250929050565b5f80604083850312156118ca576118c9611697565b5b5f6118d7858286016116b1565b92505060206118e8858286016116b1565b9150509250929050565b5f6040820190506119055f83018561166f565b611912602083018461166f565b9392505050565b5f806080838503121561192f5761192e611697565b5b5f61193c858286016116b1565b925050602061194d85828601611855565b9150509250929050565b5f60039050919050565b5f81905092915050565b5f819050919050565b61197d81611666565b82525050565b5f61198e8383611974565b60208301905092915050565b5f602082019050919050565b6119af81611957565b6119b98184611961565b92506119c48261196b565b805f5b838110156119f45781516119db8782611983565b96506119e68361199a565b9250506001810190506119c7565b505050505050565b5f606082019050611a0f5f8301846119a6565b92915050565b5f82825260208201905092915050565b7f69203d206a0000000000000000000000000000000000000000000000000000005f82015250565b5f611a59600583611a15565b9150611a6482611a25565b602082019050919050565b5f6020820190508181035f830152611a8681611a4d565b9050919050565b7f4e487b71000000000000000000000000000000000000000000000000000000005f52603260045260245ffd5b5f606082019050611acd5f830186611720565b611ada6020830185611720565b611ae7604083018461166f565b949350505050565b5f8115159050919050565b611b0381611aef565b8114611b0d575f80fd5b50565b5f81519050611b1e81611afa565b92915050565b5f60208284031215611b3957611b38611697565b5b5f611b4684828501611b10565b91505092915050565b7f4e487b71000000000000000000000000000000000000000000000000000000005f52601160045260245ffd5b5f611b8682611666565b9150611b9183611666565b9250828202611b9f81611666565b91508282048414831517611bb657611bb5611b4f565b5b5092915050565b5f611bc782611666565b9150611bd283611666565b9250828201905080821115611bea57611be9611b4f565b5b92915050565b5f611bfa82611666565b9150611c0583611666565b9250828203905081811115611c1d57611c1c611b4f565b5b92915050565b7f4e487b71000000000000000000000000000000000000000000000000000000005f52601260045260245ffd5b5f611c5a82611666565b9150611c6583611666565b925082611c7557611c74611c23565b5b828204905092915050565b7f6479203c206d696e0000000000000000000000000000000000000000000000005f82015250565b5f611cb4600883611a15565b9150611cbf82611c80565b602082019050919050565b5f6020820190508181035f830152611ce181611ca8565b9050919050565b5f604082019050611cfb5f830185611720565b611d08602083018461166f565b9392505050565b7f6f7574203c206d696e00000000000000000000000000000000000000000000005f82015250565b5f611d43600983611a15565b9150611d4e82611d0f565b602082019050919050565b5f6020820190508181035f830152611d7081611d37565b9050919050565b7f6c6971756964697479206469646e277420696e637265617365000000000000005f82015250565b5f611dab601983611a15565b9150611db682611d77565b602082019050919050565b5f6020820190508181035f830152611dd881611d9f565b9050919050565b7f736861726573203c206d696e00000000000000000000000000000000000000005f82015250565b5f611e13600c83611a15565b9150611e1e82611ddf565b602082019050919050565b5f6020820190508181035f830152611e4081611e07565b9050919050565b5f8160011c9050919050565b5f808291508390505b6001851115611e9c57808604811115611e7857611e77611b4f565b5b6001851615611e875780820291505b8081029050611e9585611e47565b9450611e5c565b94509492505050565b5f82611eb45760019050611f6f565b81611ec1575f9050611f6f565b8160018114611ed75760028114611ee157611f10565b6001915050611f6f565b60ff841115611ef357611ef2611b4f565b5b8360020a915084821115611f0a57611f09611b4f565b5b50611f6f565b5060208310610133831016604e8410600b8410161715611f455782820a905083811115611f4057611f3f611b4f565b5b611f6f565b611f528484846001611e53565b92509050818404811115611f6957611f68611b4f565b5b81810290505b9392505050565b5f611f8082611666565b9150611f8b83611666565b9250611fb87fffffffffffffffffffffffffffffffffffffffffffffffffffffffffffffffff8484611ea5565b905092915050565b7f79206469646e277420636f6e76657267650000000000000000000000000000005f82015250565b5f611ff4601183611a15565b9150611fff82611fc0565b602082019050919050565b5f6020820190508181035f83015261202181611fe8565b9050919050565b7f44206469646e277420636f6e76657267650000000000000000000000000000005f82015250565b5f61205c601183611a15565b915061206782612028565b602082019050919050565b5f6020820190508181035f83015261208981612050565b905091905056fea2646970667358221220e6cf6bb105be9e37fb50064c77cd74ecdb6b6854205902845c90b0a7923216e364736f6c634300081a0033",
			"opcodes": "PUSH1 0x80 PUSH1 0x40 MSTORE PUSH1 0x40 MLOAD DUP1 PUSH1 0x60 ADD PUSH1 0x40 MSTORE DUP1 PUSH1 0x1 PUSH5 0xFFFFFFFFFF AND DUP2 MSTORE PUSH1 0x20 ADD PUSH5 0xE8D4A51000 PUSH5 0xFFFFFFFFFF AND DUP2 MSTORE PUSH1 0x20 ADD PUSH5 0xE8D4A51000 PUSH5 0xFFFFFFFFFF AND DUP2 MSTORE POP PUSH1 0x3 SWAP1 PUSH1 0x3 PUSH2 0x4F SWAP3 SWAP2 SWAP1 PUSH2 0x94 JUMP JUMPDEST POP CALLVALUE DUP1 ISZERO PUSH2 0x5B JUMPI PUSH0 DUP1 REVERT JUMPDEST POP PUSH1 0x40 MLOAD PUSH2 0x2417 CODESIZE SUB DUP1 PUSH2 0x2417 DUP4 CODECOPY DUP2 DUP2 ADD PUSH1 0x40 MSTORE DUP2 ADD SWAP1 PUSH2 0x7D SWAP2 SWAP1 PUSH2 0x319 JUMP JUMPDEST DUP1 PUSH0 SWAP1 PUSH1 0x3 PUSH2 0x8D SWAP3 SWAP2 SWAP1 PUSH2 0xDD JUMP JUMPDEST POP POP PUSH2 0x344 JUMP JUMPDEST DUP3 PUSH1 0x3 DUP2 ADD SWAP3 DUP3 ISZERO PUSH2 0xCC JUMPI SWAP2 PUSH1 0x20 MUL DUP3 ADD JUMPDEST DUP3 DUP2 GT ISZERO PUSH2 0xCB JUMPI DUP3 MLOAD DUP3 SWAP1 PUSH5 0xFFFFFFFFFF AND SWAP1 SSTORE SWAP2 PUSH1 0x20 ADD SWAP2 SWAP1 PUSH1 0x1 ADD SWAP1 PUSH2 0xA7 JUMP JUMPDEST JUMPDEST POP SWAP1 POP PUSH2 0xD9 SWAP2 SWAP1 PUSH2 0x159 JUMP JUMPDEST POP SWAP1 JUMP JUMPDEST DUP3 PUSH1 0x3 DUP2 ADD SWAP3 DUP3 ISZERO PUSH2 0x148 JUMPI SWAP2 PUSH1 0x20 MUL DUP3 ADD JUMPDEST DUP3 DUP2 GT ISZERO PUSH2 0x147 JUMPI DUP3 MLOAD DUP3 PUSH0 PUSH2 0x100 EXP DUP2 SLOAD DUP2 PUSH20 0xFFFFFFFFFFFFFFFFFFFFFFFFFFFFFFFFFFFFFFFF MUL NOT AND SWAP1 DUP4 PUSH20 0xFFFFFFFFFFFFFFFFFFFFFFFFFFFFFFFFFFFFFFFF AND MUL OR SWAP1 SSTORE POP SWAP2 PUSH1 0x20 ADD SWAP2 SWAP1 PUSH1 0x1 ADD SWAP1 PUSH2 0xF0 JUMP JUMPDEST JUMPDEST POP SWAP1 POP PUSH2 0x155 SWAP2 SWAP1 PUSH2 0x159 JUMP JUMPDEST POP SWAP1 JUMP JUMPDEST JUMPDEST DUP1 DUP3 GT ISZERO PUSH2 0x170 JUMPI PUSH0 DUP2 PUSH0 SWAP1 SSTORE POP PUSH1 0x1 ADD PUSH2 0x15A JUMP JUMPDEST POP SWAP1 JUMP JUMPDEST PUSH0 PUSH1 0x40 MLOAD SWAP1 POP SWAP1 JUMP JUMPDEST PUSH0 DUP1 REVERT JUMPDEST PUSH0 DUP1 REVERT JUMPDEST PUSH0 PUSH1 0x1F NOT PUSH1 0x1F DUP4 ADD AND SWAP1 POP SWAP2 SWAP1 POP JUMP JUMPDEST PUSH32 0x4E487B7100000000000000000000000000000000000000000000000000000000 PUSH0 MSTORE PUSH1 0x41 PUSH1 0x4 MSTORE PUSH1 0x24 PUSH0 REVERT JUMPDEST PUSH2 0x1CB DUP3 PUSH2 0x185 JUMP JUMPDEST DUP2 ADD DUP2 DUP2 LT PUSH8 0xFFFFFFFFFFFFFFFF DUP3 GT OR ISZERO PUSH2 0x1EA JUMPI PUSH2 0x1E9 PUSH2 0x195 JUMP JUMPDEST JUMPDEST DUP1 PUSH1 0x40 MSTORE POP POP POP JUMP JUMPDEST PUSH0 PUSH2 0x1FC PUSH2 0x174 JUMP JUMPDEST SWAP1 POP PUSH2 0x208 DUP3 DUP3 PUSH2 0x1C2 JUMP JUMPDEST SWAP2 SWAP1 POP JUMP JUMPDEST PUSH0 PUSH8 0xFFFFFFFFFFFFFFFF DUP3 GT ISZERO PUSH2 0x227 JUMPI PUSH2 0x226 PUSH2 0x195 JUMP JUMPDEST JUMPDEST PUSH1 0x20 DUP3 MUL SWAP1 POP SWAP2 SWAP1 POP JUMP JUMPDEST PUSH0 DUP1 REVERT JUMPDEST PUSH0 PUSH20 0xFFFFFFFFFFFFFFFFFFFFFFFFFFFFFFFFFFFFFFFF DUP3 AND SWAP1 POP SWAP2 SWAP1 POP JUMP JUMPDEST PUSH0 PUSH2 0x25F DUP3 PUSH2 0x236 JUMP JUMPDEST SWAP1 POP SWAP2 SWAP1 POP JUMP JUMPDEST PUSH2 0x26F DUP2 PUSH2 0x255 JUMP JUMPDEST DUP2 EQ PUSH2 0x279 JUMPI PUSH0 DUP1 REVERT JUMPDEST POP JUMP JUMPDEST PUSH0 DUP2 MLOAD SWAP1 POP PUSH2 0x28A DUP2 PUSH2 0x266 JUMP JUMPDEST SWAP3 SWAP2 POP POP JUMP JUMPDEST PUSH0 PUSH2 0x2A2 PUSH2 0x29D DUP5 PUSH2 0x20D JUMP JUMPDEST PUSH2 0x1F3 JUMP JUMPDEST SWAP1 POP DUP1 PUSH1 0x20 DUP5 MUL DUP4 ADD DUP6 DUP2 GT ISZERO PUSH2 0x2BC JUMPI PUSH2 0x2BB PUSH2 0x232 JUMP JUMPDEST JUMPDEST DUP4 JUMPDEST DUP2 DUP2 LT ISZERO PUSH2 0x2E5 JUMPI DUP1 PUSH2 0x2D1 DUP9 DUP3 PUSH2 0x27C JUMP JUMPDEST DUP5 MSTORE PUSH1 0x20 DUP5 ADD SWAP4 POP POP PUSH1 0x20 DUP2 ADD SWAP1 POP PUSH2 0x2BE JUMP JUMPDEST POP POP POP SWAP4 SWAP3 POP POP POP JUMP JUMPDEST PUSH0 DUP3 PUSH1 0x1F DUP4 ADD SLT PUSH2 0x303 JUMPI PUSH2 0x302 PUSH2 0x181 JUMP JUMPDEST JUMPDEST PUSH1 0x3 PUSH2 0x310 DUP5 DUP3 DUP6 PUSH2 0x290 JUMP JUMPDEST SWAP2 POP POP SWAP3 SWAP2 POP POP JUMP JUMPDEST PUSH0 PUSH1 0x60 DUP3 DUP5 SUB SLT ISZERO PUSH2 0x32E JUMPI PUSH2 0x32D PUSH2 0x17D JUMP JUMPDEST JUMPDEST PUSH0 PUSH2 0x33B DUP5 DUP3 DUP6 ADD PUSH2 0x2EF JUMP JUMPDEST SWAP2 POP POP SWAP3 SWAP2 POP POP JUMP JUMPDEST PUSH2 0x20C6 DUP1 PUSH2 0x351 PUSH0 CODECOPY PUSH0 RETURN INVALID PUSH1 0x80 PUSH1 0x40 MSTORE CALLVALUE DUP1 ISZERO PUSH2 0xF JUMPI PUSH0 DUP1 REVERT JUMPDEST POP PUSH1 0x4 CALLDATASIZE LT PUSH2 0x9C JUMPI PUSH0 CALLDATALOAD PUSH1 0xE0 SHR DUP1 PUSH4 0x70A08231 GT PUSH2 0x64 JUMPI DUP1 PUSH4 0x70A08231 EQ PUSH2 0x17E JUMPI DUP1 PUSH4 0xA4BF0446 EQ PUSH2 0x1AE JUMPI DUP1 PUSH4 0xA60DC3B1 EQ PUSH2 0x1DE JUMPI DUP1 PUSH4 0xD035862C EQ PUSH2 0x20F JUMPI DUP1 PUSH4 0xE25AA5FA EQ PUSH2 0x23F JUMPI PUSH2 0x9C JUMP JUMPDEST DUP1 PUSH4 0x18160DDD EQ PUSH2 0xA0 JUMPI DUP1 PUSH4 0x4903B0D1 EQ PUSH2 0xBE JUMPI DUP1 PUSH4 0x4F64B2BE EQ PUSH2 0xEE JUMPI DUP1 PUSH4 0x5673B02D EQ PUSH2 0x11E JUMPI DUP1 PUSH4 0x7066B5B2 EQ PUSH2 0x14E JUMPI JUMPDEST PUSH0 DUP1 REVERT JUMPDEST PUSH2 0xA8 PUSH2 0x25D JUMP JUMPDEST PUSH1 0x40 MLOAD PUSH2 0xB5 SWAP2 SWAP1 PUSH2 0x167E JUMP JUMPDEST PUSH1 0x40 MLOAD DUP1 SWAP2 SUB SWAP1 RETURN JUMPDEST PUSH2 0xD8 PUSH1 0x4 DUP1 CALLDATASIZE SUB DUP2 ADD SWAP1 PUSH2 0xD3 SWAP2 SWAP1 PUSH2 0x16C5 JUMP JUMPDEST PUSH2 0x263 JUMP JUMPDEST PUSH1 0x40 MLOAD PUSH2 0xE5 SWAP2 SWAP1 PUSH2 0x167E JUMP JUMPDEST PUSH1 0x40 MLOAD DUP1 SWAP2 SUB SWAP1 RETURN JUMPDEST PUSH2 0x108 PUSH1 0x4 DUP1 CALLDATASIZE SUB DUP2 ADD SWAP1 PUSH2 0x103 SWAP2 SWAP1 PUSH2 0x16C5 JUMP JUMPDEST PUSH2 0x27C JUMP JUMPDEST PUSH1 0x40 MLOAD PUSH2 0x115 SWAP2 SWAP1 PUSH2 0x172F JUMP JUMPDEST PUSH1 0x40 MLOAD DUP1 SWAP2 SUB SWAP1 RETURN JUMPDEST PUSH2 0x138 PUSH1 0x4 DUP1 CALLDATASIZE SUB DUP2 ADD SWAP1 PUSH2 0x133 SWAP2 SWAP1 PUSH2 0x1748 JUMP JUMPDEST PUSH2 0x2AF JUMP JUMPDEST PUSH1 0x40 MLOAD PUSH2 0x145 SWAP2 SWAP1 PUSH2 0x167E JUMP JUMPDEST PUSH1 0x40 MLOAD DUP1 SWAP2 SUB SWAP1 RETURN JUMPDEST PUSH2 0x168 PUSH1 0x4 DUP1 CALLDATASIZE SUB DUP2 ADD SWAP1 PUSH2 0x163 SWAP2 SWAP1 PUSH2 0x17AC JUMP JUMPDEST PUSH2 0x5DA JUMP JUMPDEST PUSH1 0x40 MLOAD PUSH2 0x175 SWAP2 SWAP1 PUSH2 0x167E JUMP JUMPDEST PUSH1 0x40 MLOAD DUP1 SWAP2 SUB SWAP1 RETURN JUMPDEST PUSH2 0x198 PUSH1 0x4 DUP1 CALLDATASIZE SUB DUP2 ADD SWAP1 PUSH2 0x193 SWAP2 SWAP1 PUSH2 0x1826 JUMP JUMPDEST PUSH2 0x718 JUMP JUMPDEST PUSH1 0x40 MLOAD PUSH2 0x1A5 SWAP2 SWAP1 PUSH2 0x167E JUMP JUMPDEST PUSH1 0x40 MLOAD DUP1 SWAP2 SUB SWAP1 RETURN JUMPDEST PUSH2 0x1C8 PUSH1 0x4 DUP1 CALLDATASIZE SUB DUP2 ADD SWAP1 PUSH2 0x1C3 SWAP2 SWAP1 PUSH2 0x1876 JUMP JUMPDEST PUSH2 0x72D JUMP JUMPDEST PUSH1 0x40 MLOAD PUSH2 0x1D5 SWAP2 SWAP1 PUSH2 0x167E JUMP JUMPDEST PUSH1 0x40 MLOAD DUP1 SWAP2 SUB SWAP1 RETURN JUMPDEST PUSH2 0x1F8 PUSH1 0x4 DUP1 CALLDATASIZE SUB DUP2 ADD SWAP1 PUSH2 0x1F3 SWAP2 SWAP1 PUSH2 0x18B4 JUMP JUMPDEST PUSH2 0xB18 JUMP JUMPDEST PUSH1 0x40 MLOAD PUSH2 0x206 SWAP3 SWAP2 SWAP1 PUSH2 0x18F2 JUMP JUMPDEST PUSH1 0x40 MLOAD DUP1 SWAP2 SUB SWAP1 RETURN JUMPDEST PUSH2 0x229 PUSH1 0x4 DUP1 CALLDATASIZE SUB DUP2 ADD SWAP1 PUSH2 0x224 SWAP2 SWAP1 PUSH2 0x1919 JUMP JUMPDEST PUSH2 0xB2F JUMP JUMPDEST PUSH1 0x40 MLOAD PUSH2 0x236 SWAP2 SWAP1 PUSH2 0x19FC JUMP JUMPDEST PUSH1 0x40 MLOAD DUP1 SWAP2 SUB SWAP1 RETURN JUMPDEST PUSH2 0x247 PUSH2 0xCE6 JUMP JUMPDEST PUSH1 0x40 MLOAD PUSH2 0x254 SWAP2 SWAP1 PUSH2 0x167E JUMP JUMPDEST PUSH1 0x40 MLOAD DUP1 SWAP2 SUB SWAP1 RETURN JUMPDEST PUSH1 0x9 SLOAD DUP2 JUMP JUMPDEST PUSH1 0x6 DUP2 PUSH1 0x3 DUP2 LT PUSH2 0x272 JUMPI PUSH0 DUP1 REVERT JUMPDEST ADD PUSH0 SWAP2 POP SWAP1 POP SLOAD DUP2 JUMP JUMPDEST PUSH0 DUP2 PUSH1 0x3 DUP2 LT PUSH2 0x28A JUMPI PUSH0 DUP1 REVERT JUMPDEST ADD PUSH0 SWAP2 POP SLOAD SWAP1 PUSH2 0x100 EXP SWAP1 DIV PUSH20 0xFFFFFFFFFFFFFFFFFFFFFFFFFFFFFFFFFFFFFFFF AND DUP2 JUMP JUMPDEST PUSH0 DUP4 DUP6 SUB PUSH2 0x2F2 JUMPI PUSH1 0x40 MLOAD PUSH32 0x8C379A000000000000000000000000000000000000000000000000000000000 DUP2 MSTORE PUSH1 0x4 ADD PUSH2 0x2E9 SWAP1 PUSH2 0x1A6F JUMP JUMPDEST PUSH1 0x40 MLOAD DUP1 SWAP2 SUB SWAP1 REVERT JUMPDEST PUSH0 DUP6 PUSH1 0x3 DUP2 LT PUSH2 0x305 JUMPI PUSH2 0x304 PUSH2 0x1A8D JUMP JUMPDEST JUMPDEST ADD PUSH0 SWAP1 SLOAD SWAP1 PUSH2 0x100 EXP SWAP1 DIV PUSH20 0xFFFFFFFFFFFFFFFFFFFFFFFFFFFFFFFFFFFFFFFF AND PUSH20 0xFFFFFFFFFFFFFFFFFFFFFFFFFFFFFFFFFFFFFFFF AND PUSH4 0x23B872DD CALLER ADDRESS DUP7 PUSH1 0x40 MLOAD DUP5 PUSH4 0xFFFFFFFF AND PUSH1 0xE0 SHL DUP2 MSTORE PUSH1 0x4 ADD PUSH2 0x362 SWAP4 SWAP3 SWAP2 SWAP1 PUSH2 0x1ABA JUMP JUMPDEST PUSH1 0x20 PUSH1 0x40 MLOAD DUP1 DUP4 SUB DUP2 PUSH0 DUP8 GAS CALL ISZERO DUP1 ISZERO PUSH2 0x37E JUMPI RETURNDATASIZE PUSH0 DUP1 RETURNDATACOPY RETURNDATASIZE PUSH0 REVERT JUMPDEST POP POP POP POP PUSH1 0x40 MLOAD RETURNDATASIZE PUSH1 0x1F NOT PUSH1 0x1F DUP3 ADD AND DUP3 ADD DUP1 PUSH1 0x40 MSTORE POP DUP2 ADD SWAP1 PUSH2 0x3A2 SWAP2 SWAP1 PUSH2 0x1B24 JUMP JUMPDEST POP PUSH0 PUSH2 0x3AC PUSH2 0xD3E JUMP JUMPDEST SWAP1 POP PUSH0 PUSH1 0x3 DUP8 PUSH1 0x3 DUP2 LT PUSH2 0x3C3 JUMPI PUSH2 0x3C2 PUSH2 0x1A8D JUMP JUMPDEST JUMPDEST ADD SLOAD DUP6 PUSH2 0x3D0 SWAP2 SWAP1 PUSH2 0x1B7C JUMP JUMPDEST DUP3 DUP9 PUSH1 0x3 DUP2 LT PUSH2 0x3E3 JUMPI PUSH2 0x3E2 PUSH2 0x1A8D JUMP JUMPDEST JUMPDEST PUSH1 0x20 MUL ADD MLOAD PUSH2 0x3F2 SWAP2 SWAP1 PUSH2 0x1BBD JUMP JUMPDEST SWAP1 POP PUSH0 DUP3 DUP8 PUSH1 0x3 DUP2 LT PUSH2 0x408 JUMPI PUSH2 0x407 PUSH2 0x1A8D JUMP JUMPDEST JUMPDEST PUSH1 0x20 MUL ADD MLOAD SWAP1 POP PUSH0 PUSH2 0x41C DUP10 DUP10 DUP6 DUP8 PUSH2 0xDB2 JUMP JUMPDEST SWAP1 POP PUSH1 0x3 DUP9 PUSH1 0x3 DUP2 LT PUSH2 0x432 JUMPI PUSH2 0x431 PUSH2 0x1A8D JUMP JUMPDEST JUMPDEST ADD SLOAD PUSH1 0x1 DUP3 DUP5 PUSH2 0x442 SWAP2 SWAP1 PUSH2 0x1BF0 JUMP JUMPDEST PUSH2 0x44C SWAP2 SWAP1 PUSH2 0x1BF0 JUMP JUMPDEST PUSH2 0x456 SWAP2 SWAP1 PUSH2 0x1C50 JUMP JUMPDEST SWAP5 POP PUSH0 PUSH3 0xF4240 PUSH2 0x12C DUP8 PUSH2 0x46B SWAP2 SWAP1 PUSH2 0x1B7C JUMP JUMPDEST PUSH2 0x475 SWAP2 SWAP1 PUSH2 0x1C50 JUMP JUMPDEST SWAP1 POP DUP1 DUP7 PUSH2 0x483 SWAP2 SWAP1 PUSH2 0x1BF0 JUMP JUMPDEST SWAP6 POP DUP7 DUP7 LT ISZERO PUSH2 0x4C8 JUMPI PUSH1 0x40 MLOAD PUSH32 0x8C379A000000000000000000000000000000000000000000000000000000000 DUP2 MSTORE PUSH1 0x4 ADD PUSH2 0x4BF SWAP1 PUSH2 0x1CCA JUMP JUMPDEST PUSH1 0x40 MLOAD DUP1 SWAP2 SUB SWAP1 REVERT JUMPDEST DUP8 PUSH1 0x6 DUP12 PUSH1 0x3 DUP2 LT PUSH2 0x4DD JUMPI PUSH2 0x4DC PUSH2 0x1A8D JUMP JUMPDEST JUMPDEST ADD PUSH0 DUP3 DUP3 SLOAD PUSH2 0x4EC SWAP2 SWAP1 PUSH2 0x1BBD JUMP JUMPDEST SWAP3 POP POP DUP2 SWAP1 SSTORE POP DUP6 PUSH1 0x6 DUP11 PUSH1 0x3 DUP2 LT PUSH2 0x508 JUMPI PUSH2 0x507 PUSH2 0x1A8D JUMP JUMPDEST JUMPDEST ADD PUSH0 DUP3 DUP3 SLOAD PUSH2 0x517 SWAP2 SWAP1 PUSH2 0x1BF0 JUMP JUMPDEST SWAP3 POP POP DUP2 SWAP1 SSTORE POP PUSH0 DUP10 PUSH1 0x3 DUP2 LT PUSH2 0x531 JUMPI PUSH2 0x530 PUSH2 0x1A8D JUMP JUMPDEST JUMPDEST ADD PUSH0 SWAP1 SLOAD SWAP1 PUSH2 0x100 EXP SWAP1 DIV PUSH20 0xFFFFFFFFFFFFFFFFFFFFFFFFFFFFFFFFFFFFFFFF AND PUSH20 0xFFFFFFFFFFFFFFFFFFFFFFFFFFFFFFFFFFFFFFFF AND PUSH4 0xA9059CBB CALLER DUP9 PUSH1 0x40 MLOAD DUP4 PUSH4 0xFFFFFFFF AND PUSH1 0xE0 SHL DUP2 MSTORE PUSH1 0x4 ADD PUSH2 0x58C SWAP3 SWAP2 SWAP1 PUSH2 0x1CE8 JUMP JUMPDEST PUSH1 0x20 PUSH1 0x40 MLOAD DUP1 DUP4 SUB DUP2 PUSH0 DUP8 GAS CALL ISZERO DUP1 ISZERO PUSH2 0x5A8 JUMPI RETURNDATASIZE PUSH0 DUP1 RETURNDATACOPY RETURNDATASIZE PUSH0 REVERT JUMPDEST POP POP POP POP PUSH1 0x40 MLOAD RETURNDATASIZE PUSH1 0x1F NOT PUSH1 0x1F DUP3 ADD AND DUP3 ADD DUP1 PUSH1 0x40 MSTORE POP DUP2 ADD SWAP1 PUSH2 0x5CC SWAP2 SWAP1 PUSH2 0x1B24 JUMP JUMPDEST POP POP POP POP POP POP SWAP5 SWAP4 POP POP POP POP JUMP JUMPDEST PUSH0 PUSH2 0x5E5 DUP5 DUP5 PUSH2 0xF81 JUMP JUMPDEST POP DUP1 SWAP2 POP POP DUP2 DUP2 LT ISZERO PUSH2 0x62D JUMPI PUSH1 0x40 MLOAD PUSH32 0x8C379A000000000000000000000000000000000000000000000000000000000 DUP2 MSTORE PUSH1 0x4 ADD PUSH2 0x624 SWAP1 PUSH2 0x1D59 JUMP JUMPDEST PUSH1 0x40 MLOAD DUP1 SWAP2 SUB SWAP1 REVERT JUMPDEST DUP1 PUSH1 0x6 DUP5 PUSH1 0x3 DUP2 LT PUSH2 0x642 JUMPI PUSH2 0x641 PUSH2 0x1A8D JUMP JUMPDEST JUMPDEST ADD PUSH0 DUP3 DUP3 SLOAD PUSH2 0x651 SWAP2 SWAP1 PUSH2 0x1BF0 JUMP JUMPDEST SWAP3 POP POP DUP2 SWAP1 SSTORE POP PUSH2 0x662 CALLER DUP6 PUSH2 0x11BE JUMP JUMPDEST PUSH0 DUP4 PUSH1 0x3 DUP2 LT PUSH2 0x675 JUMPI PUSH2 0x674 PUSH2 0x1A8D JUMP JUMPDEST JUMPDEST ADD PUSH0 SWAP1 SLOAD SWAP1 PUSH2 0x100 EXP SWAP1 DIV PUSH20 0xFFFFFFFFFFFFFFFFFFFFFFFFFFFFFFFFFFFFFFFF AND PUSH20 0xFFFFFFFFFFFFFFFFFFFFFFFFFFFFFFFFFFFFFFFF AND PUSH4 0xA9059CBB CALLER DUP4 PUSH1 0x40 MLOAD DUP4 PUSH4 0xFFFFFFFF AND PUSH1 0xE0 SHL DUP2 MSTORE PUSH1 0x4 ADD PUSH2 0x6D0 SWAP3 SWAP2 SWAP1 PUSH2 0x1CE8 JUMP JUMPDEST PUSH1 0x20 PUSH1 0x40 MLOAD DUP1 DUP4 SUB DUP2 PUSH0 DUP8 GAS CALL ISZERO DUP1 ISZERO PUSH2 0x6EC JUMPI RETURNDATASIZE PUSH0 DUP1 RETURNDATACOPY RETURNDATASIZE PUSH0 REVERT JUMPDEST POP POP POP POP PUSH1 0x40 MLOAD RETURNDATASIZE PUSH1 0x1F NOT PUSH1 0x1F DUP3 ADD AND DUP3 ADD DUP1 PUSH1 0x40 MSTORE POP DUP2 ADD SWAP1 PUSH2 0x710 SWAP2 SWAP1 PUSH2 0x1B24 JUMP JUMPDEST POP SWAP4 SWAP3 POP POP POP JUMP JUMPDEST PUSH1 0xA PUSH1 0x20 MSTORE DUP1 PUSH0 MSTORE PUSH1 0x40 PUSH0 KECCAK256 PUSH0 SWAP2 POP SWAP1 POP SLOAD DUP2 JUMP JUMPDEST PUSH0 DUP1 PUSH1 0x9 SLOAD SWAP1 POP PUSH0 DUP1 PUSH2 0x73E PUSH2 0xD3E JUMP JUMPDEST SWAP1 POP PUSH0 DUP4 GT ISZERO PUSH2 0x754 JUMPI PUSH2 0x751 DUP2 PUSH2 0x122D JUMP JUMPDEST SWAP2 POP JUMPDEST PUSH2 0x75C PUSH2 0x1644 JUMP JUMPDEST PUSH0 JUMPDEST PUSH1 0x3 DUP2 LT ISZERO PUSH2 0x8E0 JUMPI PUSH0 DUP9 DUP3 PUSH1 0x3 DUP2 LT PUSH2 0x77B JUMPI PUSH2 0x77A PUSH2 0x1A8D JUMP JUMPDEST JUMPDEST PUSH1 0x20 MUL ADD CALLDATALOAD SWAP1 POP PUSH0 DUP2 GT ISZERO PUSH2 0x89F JUMPI PUSH0 DUP3 PUSH1 0x3 DUP2 LT PUSH2 0x79D JUMPI PUSH2 0x79C PUSH2 0x1A8D JUMP JUMPDEST JUMPDEST ADD PUSH0 SWAP1 SLOAD SWAP1 PUSH2 0x100 EXP SWAP1 DIV PUSH20 0xFFFFFFFFFFFFFFFFFFFFFFFFFFFFFFFFFFFFFFFF AND PUSH20 0xFFFFFFFFFFFFFFFFFFFFFFFFFFFFFFFFFFFFFFFF AND PUSH4 0x23B872DD CALLER ADDRESS DUP5 PUSH1 0x40 MLOAD DUP5 PUSH4 0xFFFFFFFF AND PUSH1 0xE0 SHL DUP2 MSTORE PUSH1 0x4 ADD PUSH2 0x7FA SWAP4 SWAP3 SWAP2 SWAP1 PUSH2 0x1ABA JUMP JUMPDEST PUSH1 0x20 PUSH1 0x40 MLOAD DUP1 DUP4 SUB DUP2 PUSH0 DUP8 GAS CALL ISZERO DUP1 ISZERO PUSH2 0x816 JUMPI RETURNDATASIZE PUSH0 DUP1 RETURNDATACOPY RETURNDATASIZE PUSH0 REVERT JUMPDEST POP POP POP POP PUSH1 0x40 MLOAD RETURNDATASIZE PUSH1 0x1F NOT PUSH1 0x1F DUP3 ADD AND DUP3 ADD DUP1 PUSH1 0x40 MSTORE POP DUP2 ADD SWAP1 PUSH2 0x83A SWAP2 SWAP1 PUSH2 0x1B24 JUMP JUMPDEST POP PUSH1 0x3 DUP3 PUSH1 0x3 DUP2 LT PUSH2 0x84F JUMPI PUSH2 0x84E PUSH2 0x1A8D JUMP JUMPDEST JUMPDEST ADD SLOAD DUP2 PUSH2 0x85C SWAP2 SWAP1 PUSH2 0x1B7C JUMP JUMPDEST DUP5 DUP4 PUSH1 0x3 DUP2 LT PUSH2 0x86F JUMPI PUSH2 0x86E PUSH2 0x1A8D JUMP JUMPDEST JUMPDEST PUSH1 0x20 MUL ADD MLOAD PUSH2 0x87E SWAP2 SWAP1 PUSH2 0x1BBD JUMP JUMPDEST DUP4 DUP4 PUSH1 0x3 DUP2 LT PUSH2 0x891 JUMPI PUSH2 0x890 PUSH2 0x1A8D JUMP JUMPDEST JUMPDEST PUSH1 0x20 MUL ADD DUP2 DUP2 MSTORE POP POP PUSH2 0x8D4 JUMP JUMPDEST DUP4 DUP3 PUSH1 0x3 DUP2 LT PUSH2 0x8B2 JUMPI PUSH2 0x8B1 PUSH2 0x1A8D JUMP JUMPDEST JUMPDEST PUSH1 0x20 MUL ADD MLOAD DUP4 DUP4 PUSH1 0x3 DUP2 LT PUSH2 0x8CA JUMPI PUSH2 0x8C9 PUSH2 0x1A8D JUMP JUMPDEST JUMPDEST PUSH1 0x20 MUL ADD DUP2 DUP2 MSTORE POP POP JUMPDEST POP DUP1 PUSH1 0x1 ADD SWAP1 POP PUSH2 0x75E JUMP JUMPDEST POP PUSH0 PUSH2 0x8EB DUP3 PUSH2 0x122D JUMP JUMPDEST SWAP1 POP DUP4 DUP2 GT PUSH2 0x92F JUMPI PUSH1 0x40 MLOAD PUSH32 0x8C379A000000000000000000000000000000000000000000000000000000000 DUP2 MSTORE PUSH1 0x4 ADD PUSH2 0x926 SWAP1 PUSH2 0x1DC1 JUMP JUMPDEST PUSH1 0x40 MLOAD DUP1 SWAP2 SUB SWAP1 REVERT JUMPDEST PUSH0 DUP1 DUP7 GT ISZERO PUSH2 0xA2D JUMPI PUSH0 JUMPDEST PUSH1 0x3 DUP2 LT ISZERO PUSH2 0xA1C JUMPI PUSH0 DUP7 DUP5 DUP8 DUP5 PUSH1 0x3 DUP2 LT PUSH2 0x959 JUMPI PUSH2 0x958 PUSH2 0x1A8D JUMP JUMPDEST JUMPDEST PUSH1 0x20 MUL ADD MLOAD PUSH2 0x968 SWAP2 SWAP1 PUSH2 0x1B7C JUMP JUMPDEST PUSH2 0x972 SWAP2 SWAP1 PUSH2 0x1C50 JUMP JUMPDEST SWAP1 POP PUSH0 PUSH2 0x996 DUP7 DUP5 PUSH1 0x3 DUP2 LT PUSH2 0x98B JUMPI PUSH2 0x98A PUSH2 0x1A8D JUMP JUMPDEST JUMPDEST PUSH1 0x20 MUL ADD MLOAD DUP4 PUSH2 0x13EC JUMP JUMPDEST SWAP1 POP PUSH3 0xF4240 DUP2 PUSH1 0x1 PUSH1 0x3 PUSH2 0x9AB SWAP2 SWAP1 PUSH2 0x1BF0 JUMP JUMPDEST PUSH1 0x4 PUSH2 0x9B7 SWAP2 SWAP1 PUSH2 0x1B7C JUMP JUMPDEST PUSH1 0x3 PUSH2 0x12C PUSH2 0x9C6 SWAP2 SWAP1 PUSH2 0x1B7C JUMP JUMPDEST PUSH2 0x9D0 SWAP2 SWAP1 PUSH2 0x1C50 JUMP JUMPDEST PUSH2 0x9DA SWAP2 SWAP1 PUSH2 0x1B7C JUMP JUMPDEST PUSH2 0x9E4 SWAP2 SWAP1 PUSH2 0x1C50 JUMP JUMPDEST DUP7 DUP5 PUSH1 0x3 DUP2 LT PUSH2 0x9F7 JUMPI PUSH2 0x9F6 PUSH2 0x1A8D JUMP JUMPDEST JUMPDEST PUSH1 0x20 MUL ADD DUP2 DUP2 MLOAD PUSH2 0xA08 SWAP2 SWAP1 PUSH2 0x1BF0 JUMP JUMPDEST SWAP2 POP DUP2 DUP2 MSTORE POP POP POP POP DUP1 PUSH1 0x1 ADD SWAP1 POP PUSH2 0x93A JUMP JUMPDEST POP PUSH2 0xA26 DUP4 PUSH2 0x122D JUMP JUMPDEST SWAP1 POP PUSH2 0xA31 JUMP JUMPDEST DUP2 SWAP1 POP JUMPDEST PUSH0 JUMPDEST PUSH1 0x3 DUP2 LT ISZERO PUSH2 0xA89 JUMPI DUP10 DUP2 PUSH1 0x3 DUP2 LT PUSH2 0xA4F JUMPI PUSH2 0xA4E PUSH2 0x1A8D JUMP JUMPDEST JUMPDEST PUSH1 0x20 MUL ADD CALLDATALOAD PUSH1 0x6 DUP3 PUSH1 0x3 DUP2 LT PUSH2 0xA68 JUMPI PUSH2 0xA67 PUSH2 0x1A8D JUMP JUMPDEST JUMPDEST ADD PUSH0 DUP3 DUP3 SLOAD PUSH2 0xA77 SWAP2 SWAP1 PUSH2 0x1BBD JUMP JUMPDEST SWAP3 POP POP DUP2 SWAP1 SSTORE POP DUP1 PUSH1 0x1 ADD SWAP1 POP PUSH2 0xA33 JUMP JUMPDEST POP PUSH0 DUP7 GT ISZERO PUSH2 0xABB JUMPI DUP5 DUP7 DUP7 DUP4 PUSH2 0xAA0 SWAP2 SWAP1 PUSH2 0x1BF0 JUMP JUMPDEST PUSH2 0xAAA SWAP2 SWAP1 PUSH2 0x1B7C JUMP JUMPDEST PUSH2 0xAB4 SWAP2 SWAP1 PUSH2 0x1C50 JUMP JUMPDEST SWAP7 POP PUSH2 0xABF JUMP JUMPDEST DUP1 SWAP7 POP JUMPDEST DUP8 DUP8 LT ISZERO PUSH2 0xB02 JUMPI PUSH1 0x40 MLOAD PUSH32 0x8C379A000000000000000000000000000000000000000000000000000000000 DUP2 MSTORE PUSH1 0x4 ADD PUSH2 0xAF9 SWAP1 PUSH2 0x1E29 JUMP JUMPDEST PUSH1 0x40 MLOAD DUP1 SWAP2 SUB SWAP1 REVERT JUMPDEST PUSH2 0xB0C CALLER DUP9 PUSH2 0x141B JUMP JUMPDEST POP POP POP POP POP POP SWAP3 SWAP2 POP POP JUMP JUMPDEST PUSH0 DUP1 PUSH2 0xB24 DUP5 DUP5 PUSH2 0xF81 JUMP JUMPDEST SWAP2 POP SWAP2 POP SWAP3 POP SWAP3 SWAP1 POP JUMP JUMPDEST PUSH2 0xB37 PUSH2 0x1644 JUMP JUMPDEST PUSH0 PUSH1 0x9 SLOAD SWAP1 POP PUSH0 JUMPDEST PUSH1 0x3 DUP2 LT ISZERO PUSH2 0xCD4 JUMPI PUSH0 DUP3 DUP7 PUSH1 0x6 DUP5 PUSH1 0x3 DUP2 LT PUSH2 0xB5F JUMPI PUSH2 0xB5E PUSH2 0x1A8D JUMP JUMPDEST JUMPDEST ADD SLOAD PUSH2 0xB6B SWAP2 SWAP1 PUSH2 0x1B7C JUMP JUMPDEST PUSH2 0xB75 SWAP2 SWAP1 PUSH2 0x1C50 JUMP JUMPDEST SWAP1 POP DUP5 DUP3 PUSH1 0x3 DUP2 LT PUSH2 0xB8A JUMPI PUSH2 0xB89 PUSH2 0x1A8D JUMP JUMPDEST JUMPDEST PUSH1 0x20 MUL ADD CALLDATALOAD DUP2 LT ISZERO PUSH2 0xBD1 JUMPI PUSH1 0x40 MLOAD PUSH32 0x8C379A000000000000000000000000000000000000000000000000000000000 DUP2 MSTORE PUSH1 0x4 ADD PUSH2 0xBC8 SWAP1 PUSH2 0x1D59 JUMP JUMPDEST PUSH1 0x40 MLOAD DUP1 SWAP2 SUB SWAP1 REVERT JUMPDEST DUP1 PUSH1 0x6 DUP4 PUSH1 0x3 DUP2 LT PUSH2 0xBE6 JUMPI PUSH2 0xBE5 PUSH2 0x1A8D JUMP JUMPDEST JUMPDEST ADD PUSH0 DUP3 DUP3 SLOAD PUSH2 0xBF5 SWAP2 SWAP1 PUSH2 0x1BF0 JUMP JUMPDEST SWAP3 POP POP DUP2 SWAP1 SSTORE POP DUP1 DUP5 DUP4 PUSH1 0x3 DUP2 LT PUSH2 0xC10 JUMPI PUSH2 0xC0F PUSH2 0x1A8D JUMP JUMPDEST JUMPDEST PUSH1 0x20 MUL ADD DUP2 DUP2 MSTORE POP POP PUSH0 DUP3 PUSH1 0x3 DUP2 LT PUSH2 0xC2C JUMPI PUSH2 0xC2B PUSH2 0x1A8D JUMP JUMPDEST JUMPDEST ADD PUSH0 SWAP1 SLOAD SWAP1 PUSH2 0x100 EXP SWAP1 DIV PUSH20 0xFFFFFFFFFFFFFFFFFFFFFFFFFFFFFFFFFFFFFFFF AND PUSH20 0xFFFFFFFFFFFFFFFFFFFFFFFFFFFFFFFFFFFFFFFF AND PUSH4 0xA9059CBB CALLER DUP4 PUSH1 0x40 MLOAD DUP4 PUSH4 0xFFFFFFFF AND PUSH1 0xE0 SHL DUP2 MSTORE PUSH1 0x4 ADD PUSH2 0xC87 SWAP3 SWAP2 SWAP1 PUSH2 0x1CE8 JUMP JUMPDEST PUSH1 0x20 PUSH1 0x40 MLOAD DUP1 DUP4 SUB DUP2 PUSH0 DUP8 GAS CALL ISZERO DUP1 ISZERO PUSH2 0xCA3 JUMPI RETURNDATASIZE PUSH0 DUP1 RETURNDATACOPY RETURNDATASIZE PUSH0 REVERT JUMPDEST POP POP POP POP PUSH1 0x40 MLOAD RETURNDATASIZE PUSH1 0x1F NOT PUSH1 0x1F DUP3 ADD AND DUP3 ADD DUP1 PUSH1 0x40 MSTORE POP DUP2 ADD SWAP1 PUSH2 0xCC7 SWAP2 SWAP1 PUSH2 0x1B24 JUMP JUMPDEST POP POP DUP1 PUSH1 0x1 ADD SWAP1 POP PUSH2 0xB3F JUMP JUMPDEST POP PUSH2 0xCDF CALLER DUP6 PUSH2 0x11BE JUMP JUMPDEST POP SWAP3 SWAP2 POP POP JUMP JUMPDEST PUSH0 DUP1 PUSH2 0xCF8 PUSH2 0xCF3 PUSH2 0xD3E JUMP JUMPDEST PUSH2 0x122D JUMP JUMPDEST SWAP1 POP PUSH0 PUSH1 0x9 SLOAD SWAP1 POP PUSH0 DUP2 GT ISZERO PUSH2 0xD35 JUMPI DUP1 PUSH1 0x12 PUSH1 0xA PUSH2 0xD17 SWAP2 SWAP1 PUSH2 0x1F76 JUMP JUMPDEST DUP4 PUSH2 0xD22 SWAP2 SWAP1 PUSH2 0x1B7C JUMP JUMPDEST PUSH2 0xD2C SWAP2 SWAP1 PUSH2 0x1C50 JUMP JUMPDEST SWAP3 POP POP POP PUSH2 0xD3B JUMP JUMPDEST PUSH0 SWAP3 POP POP POP JUMPDEST SWAP1 JUMP JUMPDEST PUSH2 0xD46 PUSH2 0x1644 JUMP JUMPDEST PUSH0 JUMPDEST PUSH1 0x3 DUP2 LT ISZERO PUSH2 0xDAE JUMPI PUSH1 0x3 DUP2 PUSH1 0x3 DUP2 LT PUSH2 0xD65 JUMPI PUSH2 0xD64 PUSH2 0x1A8D JUMP JUMPDEST JUMPDEST ADD SLOAD PUSH1 0x6 DUP3 PUSH1 0x3 DUP2 LT PUSH2 0xD7B JUMPI PUSH2 0xD7A PUSH2 0x1A8D JUMP JUMPDEST JUMPDEST ADD SLOAD PUSH2 0xD87 SWAP2 SWAP1 PUSH2 0x1B7C JUMP JUMPDEST DUP3 DUP3 PUSH1 0x3 DUP2 LT PUSH2 0xD9A JUMPI PUSH2 0xD99 PUSH2 0x1A8D JUMP JUMPDEST JUMPDEST PUSH1 0x20 MUL ADD DUP2 DUP2 MSTORE POP POP DUP1 PUSH1 0x1 ADD SWAP1 POP PUSH2 0xD48 JUMP JUMPDEST POP SWAP1 JUMP JUMPDEST PUSH0 DUP1 PUSH1 0x3 PUSH1 0x1 PUSH1 0x3 PUSH2 0xDC4 SWAP2 SWAP1 PUSH2 0x1BF0 JUMP JUMPDEST PUSH1 0x3 PUSH2 0xDD0 SWAP2 SWAP1 PUSH2 0x1F76 JUMP JUMPDEST PUSH2 0x3E8 PUSH2 0xDDD SWAP2 SWAP1 PUSH2 0x1B7C JUMP JUMPDEST PUSH2 0xDE7 SWAP2 SWAP1 PUSH2 0x1B7C JUMP JUMPDEST SWAP1 POP PUSH0 PUSH2 0xDF3 DUP5 PUSH2 0x122D JUMP JUMPDEST SWAP1 POP PUSH0 DUP1 DUP3 SWAP1 POP PUSH0 DUP1 JUMPDEST PUSH1 0x3 DUP2 LT ISZERO PUSH2 0xE77 JUMPI DUP11 DUP2 SUB PUSH2 0xE15 JUMPI DUP9 SWAP2 POP PUSH2 0xE38 JUMP JUMPDEST DUP10 DUP2 SUB ISZERO PUSH2 0xE6C JUMPI DUP8 DUP2 PUSH1 0x3 DUP2 LT PUSH2 0xE30 JUMPI PUSH2 0xE2F PUSH2 0x1A8D JUMP JUMPDEST JUMPDEST PUSH1 0x20 MUL ADD MLOAD SWAP2 POP JUMPDEST DUP2 DUP5 PUSH2 0xE44 SWAP2 SWAP1 PUSH2 0x1BBD JUMP JUMPDEST SWAP4 POP DUP2 PUSH1 0x3 PUSH2 0xE53 SWAP2 SWAP1 PUSH2 0x1B7C JUMP JUMPDEST DUP6 DUP5 PUSH2 0xE5F SWAP2 SWAP1 PUSH2 0x1B7C JUMP JUMPDEST PUSH2 0xE69 SWAP2 SWAP1 PUSH2 0x1C50 JUMP JUMPDEST SWAP3 POP JUMPDEST DUP1 PUSH1 0x1 ADD SWAP1 POP PUSH2 0xDFD JUMP JUMPDEST POP DUP5 PUSH1 0x3 PUSH2 0xE85 SWAP2 SWAP1 PUSH2 0x1B7C JUMP JUMPDEST DUP5 DUP4 PUSH2 0xE91 SWAP2 SWAP1 PUSH2 0x1B7C JUMP JUMPDEST PUSH2 0xE9B SWAP2 SWAP1 PUSH2 0x1C50 JUMP JUMPDEST SWAP2 POP PUSH0 DUP6 DUP6 PUSH2 0xEAA SWAP2 SWAP1 PUSH2 0x1C50 JUMP JUMPDEST DUP5 PUSH2 0xEB5 SWAP2 SWAP1 PUSH2 0x1BBD JUMP JUMPDEST SWAP1 POP PUSH0 DUP1 DUP7 SWAP1 POP PUSH0 JUMPDEST PUSH1 0xFF DUP2 LT ISZERO PUSH2 0xF3D JUMPI DUP2 SWAP3 POP DUP8 DUP5 DUP4 PUSH1 0x2 PUSH2 0xED9 SWAP2 SWAP1 PUSH2 0x1B7C JUMP JUMPDEST PUSH2 0xEE3 SWAP2 SWAP1 PUSH2 0x1BBD JUMP JUMPDEST PUSH2 0xEED SWAP2 SWAP1 PUSH2 0x1BF0 JUMP JUMPDEST DUP7 DUP4 DUP5 PUSH2 0xEFA SWAP2 SWAP1 PUSH2 0x1B7C JUMP JUMPDEST PUSH2 0xF04 SWAP2 SWAP1 PUSH2 0x1BBD JUMP JUMPDEST PUSH2 0xF0E SWAP2 SWAP1 PUSH2 0x1C50 JUMP JUMPDEST SWAP2 POP PUSH1 0x1 PUSH2 0xF1C DUP4 DUP6 PUSH2 0x13EC JUMP JUMPDEST GT PUSH2 0xF32 JUMPI DUP2 SWAP10 POP POP POP POP POP POP POP POP POP POP PUSH2 0xF79 JUMP JUMPDEST DUP1 PUSH1 0x1 ADD SWAP1 POP PUSH2 0xEBE JUMP JUMPDEST POP PUSH1 0x40 MLOAD PUSH32 0x8C379A000000000000000000000000000000000000000000000000000000000 DUP2 MSTORE PUSH1 0x4 ADD PUSH2 0xF70 SWAP1 PUSH2 0x200A JUMP JUMPDEST PUSH1 0x40 MLOAD DUP1 SWAP2 SUB SWAP1 REVERT JUMPDEST SWAP5 SWAP4 POP POP POP POP JUMP JUMPDEST PUSH0 DUP1 PUSH0 PUSH1 0x9 SLOAD SWAP1 POP PUSH0 PUSH2 0xF92 PUSH2 0xD3E JUMP JUMPDEST SWAP1 POP PUSH0 PUSH2 0xF9E DUP3 PUSH2 0x122D JUMP JUMPDEST SWAP1 POP PUSH0 DUP4 DUP9 DUP4 PUSH2 0xFAE SWAP2 SWAP1 PUSH2 0x1B7C JUMP JUMPDEST PUSH2 0xFB8 SWAP2 SWAP1 PUSH2 0x1C50 JUMP JUMPDEST DUP3 PUSH2 0xFC3 SWAP2 SWAP1 PUSH2 0x1BF0 JUMP JUMPDEST SWAP1 POP PUSH0 PUSH2 0xFD1 DUP9 DUP6 DUP5 PUSH2 0x148A JUMP JUMPDEST SWAP1 POP PUSH0 PUSH1 0x3 DUP10 PUSH1 0x3 DUP2 LT PUSH2 0xFE8 JUMPI PUSH2 0xFE7 PUSH2 0x1A8D JUMP JUMPDEST JUMPDEST ADD SLOAD DUP3 DUP7 DUP12 PUSH1 0x3 DUP2 LT PUSH2 0xFFE JUMPI PUSH2 0xFFD PUSH2 0x1A8D JUMP JUMPDEST JUMPDEST PUSH1 0x20 MUL ADD MLOAD PUSH2 0x100D SWAP2 SWAP1 PUSH2 0x1BF0 JUMP JUMPDEST PUSH2 0x1017 SWAP2 SWAP1 PUSH2 0x1C50 JUMP JUMPDEST SWAP1 POP PUSH0 DUP1 JUMPDEST PUSH1 0x3 DUP2 LT ISZERO PUSH2 0x1141 JUMPI DUP11 DUP2 SUB PUSH2 0x106C JUMPI DUP4 DUP7 DUP7 DUP10 DUP5 PUSH1 0x3 DUP2 LT PUSH2 0x1042 JUMPI PUSH2 0x1041 PUSH2 0x1A8D JUMP JUMPDEST JUMPDEST PUSH1 0x20 MUL ADD MLOAD PUSH2 0x1051 SWAP2 SWAP1 PUSH2 0x1B7C JUMP JUMPDEST PUSH2 0x105B SWAP2 SWAP1 PUSH2 0x1C50 JUMP JUMPDEST PUSH2 0x1065 SWAP2 SWAP1 PUSH2 0x1BF0 JUMP JUMPDEST SWAP2 POP PUSH2 0x10BF JUMP JUMPDEST DUP6 DUP6 DUP9 DUP4 PUSH1 0x3 DUP2 LT PUSH2 0x1081 JUMPI PUSH2 0x1080 PUSH2 0x1A8D JUMP JUMPDEST JUMPDEST PUSH1 0x20 MUL ADD MLOAD PUSH2 0x1090 SWAP2 SWAP1 PUSH2 0x1B7C JUMP JUMPDEST PUSH2 0x109A SWAP2 SWAP1 PUSH2 0x1C50 JUMP JUMPDEST DUP8 DUP3 PUSH1 0x3 DUP2 LT PUSH2 0x10AD JUMPI PUSH2 0x10AC PUSH2 0x1A8D JUMP JUMPDEST JUMPDEST PUSH1 0x20 MUL ADD MLOAD PUSH2 0x10BC SWAP2 SWAP1 PUSH2 0x1BF0 JUMP JUMPDEST SWAP2 POP JUMPDEST PUSH3 0xF4240 DUP3 PUSH1 0x1 PUSH1 0x3 PUSH2 0x10D2 SWAP2 SWAP1 PUSH2 0x1BF0 JUMP JUMPDEST PUSH1 0x4 PUSH2 0x10DE SWAP2 SWAP1 PUSH2 0x1B7C JUMP JUMPDEST PUSH1 0x3 PUSH2 0x12C PUSH2 0x10ED SWAP2 SWAP1 PUSH2 0x1B7C JUMP JUMPDEST PUSH2 0x10F7 SWAP2 SWAP1 PUSH2 0x1C50 JUMP JUMPDEST PUSH2 0x1101 SWAP2 SWAP1 PUSH2 0x1B7C JUMP JUMPDEST PUSH2 0x110B SWAP2 SWAP1 PUSH2 0x1C50 JUMP JUMPDEST DUP8 DUP3 PUSH1 0x3 DUP2 LT PUSH2 0x111E JUMPI PUSH2 0x111D PUSH2 0x1A8D JUMP JUMPDEST JUMPDEST PUSH1 0x20 MUL ADD DUP2 DUP2 MLOAD PUSH2 0x112F SWAP2 SWAP1 PUSH2 0x1BF0 JUMP JUMPDEST SWAP2 POP DUP2 DUP2 MSTORE POP POP DUP1 PUSH1 0x1 ADD SWAP1 POP PUSH2 0x101C JUMP JUMPDEST POP PUSH0 PUSH2 0x114E DUP12 DUP9 DUP8 PUSH2 0x148A JUMP JUMPDEST SWAP1 POP PUSH1 0x3 DUP12 PUSH1 0x3 DUP2 LT PUSH2 0x1164 JUMPI PUSH2 0x1163 PUSH2 0x1A8D JUMP JUMPDEST JUMPDEST ADD SLOAD PUSH1 0x1 DUP3 DUP10 DUP15 PUSH1 0x3 DUP2 LT PUSH2 0x117C JUMPI PUSH2 0x117B PUSH2 0x1A8D JUMP JUMPDEST JUMPDEST PUSH1 0x20 MUL ADD MLOAD PUSH2 0x118B SWAP2 SWAP1 PUSH2 0x1BF0 JUMP JUMPDEST PUSH2 0x1195 SWAP2 SWAP1 PUSH2 0x1BF0 JUMP JUMPDEST PUSH2 0x119F SWAP2 SWAP1 PUSH2 0x1C50 JUMP JUMPDEST SWAP10 POP DUP10 DUP4 PUSH2 0x11AD SWAP2 SWAP1 PUSH2 0x1BF0 JUMP JUMPDEST SWAP9 POP POP POP POP POP POP POP POP POP SWAP3 POP SWAP3 SWAP1 POP JUMP JUMPDEST DUP1 PUSH1 0xA PUSH0 DUP5 PUSH20 0xFFFFFFFFFFFFFFFFFFFFFFFFFFFFFFFFFFFFFFFF AND PUSH20 0xFFFFFFFFFFFFFFFFFFFFFFFFFFFFFFFFFFFFFFFF AND DUP2 MSTORE PUSH1 0x20 ADD SWAP1 DUP2 MSTORE PUSH1 0x20 ADD PUSH0 KECCAK256 PUSH0 DUP3 DUP3 SLOAD PUSH2 0x120A SWAP2 SWAP1 PUSH2 0x1BF0 JUMP JUMPDEST SWAP3 POP POP DUP2 SWAP1 SSTORE POP DUP1 PUSH1 0x9 PUSH0 DUP3 DUP3 SLOAD PUSH2 0x1222 SWAP2 SWAP1 PUSH2 0x1BF0 JUMP JUMPDEST SWAP3 POP POP DUP2 SWAP1 SSTORE POP POP POP JUMP JUMPDEST PUSH0 DUP1 PUSH1 0x3 PUSH1 0x1 PUSH1 0x3 PUSH2 0x123F SWAP2 SWAP1 PUSH2 0x1BF0 JUMP JUMPDEST PUSH1 0x3 PUSH2 0x124B SWAP2 SWAP1 PUSH2 0x1F76 JUMP JUMPDEST PUSH2 0x3E8 PUSH2 0x1258 SWAP2 SWAP1 PUSH2 0x1B7C JUMP JUMPDEST PUSH2 0x1262 SWAP2 SWAP1 PUSH2 0x1B7C JUMP JUMPDEST SWAP1 POP PUSH0 DUP1 JUMPDEST PUSH1 0x3 DUP2 LT ISZERO PUSH2 0x12A0 JUMPI DUP5 DUP2 PUSH1 0x3 DUP2 LT PUSH2 0x1283 JUMPI PUSH2 0x1282 PUSH2 0x1A8D JUMP JUMPDEST JUMPDEST PUSH1 0x20 MUL ADD MLOAD DUP3 PUSH2 0x1293 SWAP2 SWAP1 PUSH2 0x1BBD JUMP JUMPDEST SWAP2 POP DUP1 PUSH1 0x1 ADD SWAP1 POP PUSH2 0x1267 JUMP JUMPDEST POP PUSH0 DUP2 SWAP1 POP PUSH0 DUP1 JUMPDEST PUSH1 0xFF DUP2 LT ISZERO PUSH2 0x13AB JUMPI PUSH0 DUP4 SWAP1 POP PUSH0 JUMPDEST PUSH1 0x3 DUP2 LT ISZERO PUSH2 0x1307 JUMPI DUP9 DUP2 PUSH1 0x3 DUP2 LT PUSH2 0x12D3 JUMPI PUSH2 0x12D2 PUSH2 0x1A8D JUMP JUMPDEST JUMPDEST PUSH1 0x20 MUL ADD MLOAD PUSH1 0x3 PUSH2 0x12E4 SWAP2 SWAP1 PUSH2 0x1B7C JUMP JUMPDEST DUP6 DUP4 PUSH2 0x12F0 SWAP2 SWAP1 PUSH2 0x1B7C JUMP JUMPDEST PUSH2 0x12FA SWAP2 SWAP1 PUSH2 0x1C50 JUMP JUMPDEST SWAP2 POP DUP1 PUSH1 0x1 ADD SWAP1 POP PUSH2 0x12B7 JUMP JUMPDEST POP DUP4 SWAP3 POP DUP1 PUSH1 0x1 PUSH1 0x3 PUSH2 0x131A SWAP2 SWAP1 PUSH2 0x1BBD JUMP JUMPDEST PUSH2 0x1324 SWAP2 SWAP1 PUSH2 0x1B7C JUMP JUMPDEST DUP5 PUSH1 0x1 DUP9 PUSH2 0x1332 SWAP2 SWAP1 PUSH2 0x1BF0 JUMP JUMPDEST PUSH2 0x133C SWAP2 SWAP1 PUSH2 0x1B7C JUMP JUMPDEST PUSH2 0x1346 SWAP2 SWAP1 PUSH2 0x1BBD JUMP JUMPDEST DUP5 DUP3 PUSH1 0x3 PUSH2 0x1354 SWAP2 SWAP1 PUSH2 0x1B7C JUMP JUMPDEST DUP8 DUP10 PUSH2 0x1360 SWAP2 SWAP1 PUSH2 0x1B7C JUMP JUMPDEST PUSH2 0x136A SWAP2 SWAP1 PUSH2 0x1BBD JUMP JUMPDEST PUSH2 0x1374 SWAP2 SWAP1 PUSH2 0x1B7C JUMP JUMPDEST PUSH2 0x137E SWAP2 SWAP1 PUSH2 0x1C50 JUMP JUMPDEST SWAP4 POP PUSH1 0x1 PUSH2 0x138C DUP6 DUP6 PUSH2 0x13EC JUMP JUMPDEST GT PUSH2 0x139F JUMPI DUP4 SWAP7 POP POP POP POP POP POP POP PUSH2 0x13E7 JUMP JUMPDEST POP DUP1 PUSH1 0x1 ADD SWAP1 POP PUSH2 0x12A8 JUMP JUMPDEST POP PUSH1 0x40 MLOAD PUSH32 0x8C379A000000000000000000000000000000000000000000000000000000000 DUP2 MSTORE PUSH1 0x4 ADD PUSH2 0x13DE SWAP1 PUSH2 0x2072 JUMP JUMPDEST PUSH1 0x40 MLOAD DUP1 SWAP2 SUB SWAP1 REVERT JUMPDEST SWAP2 SWAP1 POP JUMP JUMPDEST PUSH0 DUP2 DUP4 LT ISZERO PUSH2 0x1406 JUMPI DUP3 DUP3 PUSH2 0x1401 SWAP2 SWAP1 PUSH2 0x1BF0 JUMP JUMPDEST PUSH2 0x1413 JUMP JUMPDEST DUP2 DUP4 PUSH2 0x1412 SWAP2 SWAP1 PUSH2 0x1BF0 JUMP JUMPDEST JUMPDEST SWAP1 POP SWAP3 SWAP2 POP POP JUMP JUMPDEST DUP1 PUSH1 0xA PUSH0 DUP5 PUSH20 0xFFFFFFFFFFFFFFFFFFFFFFFFFFFFFFFFFFFFFFFF AND PUSH20 0xFFFFFFFFFFFFFFFFFFFFFFFFFFFFFFFFFFFFFFFF AND DUP2 MSTORE PUSH1 0x20 ADD SWAP1 DUP2 MSTORE PUSH1 0x20 ADD PUSH0 KECCAK256 PUSH0 DUP3 DUP3 SLOAD PUSH2 0x1467 SWAP2 SWAP1 PUSH2 0x1BBD JUMP JUMPDEST SWAP3 POP POP DUP2 SWAP1 SSTORE POP DUP1 PUSH1 0x9 PUSH0 DUP3 DUP3 SLOAD PUSH2 0x147F SWAP2 SWAP1 PUSH2 0x1BBD JUMP JUMPDEST SWAP3 POP POP DUP2 SWAP1 SSTORE POP POP POP JUMP JUMPDEST PUSH0 DUP1 PUSH1 0x3 PUSH1 0x1 PUSH1 0x3 PUSH2 0x149C SWAP2 SWAP1 PUSH2 0x1BF0 JUMP JUMPDEST PUSH1 0x3 PUSH2 0x14A8 SWAP2 SWAP1 PUSH2 0x1F76 JUMP JUMPDEST PUSH2 0x3E8 PUSH2 0x14B5 SWAP2 SWAP1 PUSH2 0x1B7C JUMP JUMPDEST PUSH2 0x14BF SWAP2 SWAP1 PUSH2 0x1B7C JUMP JUMPDEST SWAP1 POP PUSH0 DUP1 DUP5 SWAP1 POP PUSH0 DUP1 JUMPDEST PUSH1 0x3 DUP2 LT ISZERO PUSH2 0x153C JUMPI DUP9 DUP2 EQ PUSH2 0x14F8 JUMPI DUP8 DUP2 PUSH1 0x3 DUP2 LT PUSH2 0x14EC JUMPI PUSH2 0x14EB PUSH2 0x1A8D JUMP JUMPDEST JUMPDEST PUSH1 0x20 MUL ADD MLOAD SWAP2 POP PUSH2 0x14FD JUMP JUMPDEST PUSH2 0x1531 JUMP JUMPDEST DUP2 DUP5 PUSH2 0x1509 SWAP2 SWAP1 PUSH2 0x1BBD JUMP JUMPDEST SWAP4 POP DUP2 PUSH1 0x3 PUSH2 0x1518 SWAP2 SWAP1 PUSH2 0x1B7C JUMP JUMPDEST DUP8 DUP5 PUSH2 0x1524 SWAP2 SWAP1 PUSH2 0x1B7C JUMP JUMPDEST PUSH2 0x152E SWAP2 SWAP1 PUSH2 0x1C50 JUMP JUMPDEST SWAP3 POP JUMPDEST DUP1 PUSH1 0x1 ADD SWAP1 POP PUSH2 0x14C9 JUMP JUMPDEST POP DUP4 PUSH1 0x3 PUSH2 0x154A SWAP2 SWAP1 PUSH2 0x1B7C JUMP JUMPDEST DUP7 DUP4 PUSH2 0x1556 SWAP2 SWAP1 PUSH2 0x1B7C JUMP JUMPDEST PUSH2 0x1560 SWAP2 SWAP1 PUSH2 0x1C50 JUMP JUMPDEST SWAP2 POP PUSH0 DUP5 DUP8 PUSH2 0x156F SWAP2 SWAP1 PUSH2 0x1C50 JUMP JUMPDEST DUP5 PUSH2 0x157A SWAP2 SWAP1 PUSH2 0x1BBD JUMP JUMPDEST SWAP1 POP PUSH0 DUP1 DUP9 SWAP1 POP PUSH0 JUMPDEST PUSH1 0xFF DUP2 LT ISZERO PUSH2 0x1601 JUMPI DUP2 SWAP3 POP DUP10 DUP5 DUP4 PUSH1 0x2 PUSH2 0x159E SWAP2 SWAP1 PUSH2 0x1B7C JUMP JUMPDEST PUSH2 0x15A8 SWAP2 SWAP1 PUSH2 0x1BBD JUMP JUMPDEST PUSH2 0x15B2 SWAP2 SWAP1 PUSH2 0x1BF0 JUMP JUMPDEST DUP7 DUP4 DUP5 PUSH2 0x15BF SWAP2 SWAP1 PUSH2 0x1B7C JUMP JUMPDEST PUSH2 0x15C9 SWAP2 SWAP1 PUSH2 0x1BBD JUMP JUMPDEST PUSH2 0x15D3 SWAP2 SWAP1 PUSH2 0x1C50 JUMP JUMPDEST SWAP2 POP PUSH1 0x1 PUSH2 0x15E1 DUP4 DUP6 PUSH2 0x13EC JUMP JUMPDEST GT PUSH2 0x15F6 JUMPI DUP2 SWAP9 POP POP POP POP POP POP POP POP POP PUSH2 0x163D JUMP JUMPDEST DUP1 PUSH1 0x1 ADD SWAP1 POP PUSH2 0x1583 JUMP JUMPDEST POP PUSH1 0x40 MLOAD PUSH32 0x8C379A000000000000000000000000000000000000000000000000000000000 DUP2 MSTORE PUSH1 0x4 ADD PUSH2 0x1634 SWAP1 PUSH2 0x200A JUMP JUMPDEST PUSH1 0x40 MLOAD DUP1 SWAP2 SUB SWAP1 REVERT JUMPDEST SWAP4 SWAP3 POP POP POP JUMP JUMPDEST PUSH1 0x40 MLOAD DUP1 PUSH1 0x60 ADD PUSH1 0x40 MSTORE DUP1 PUSH1 0x3 SWAP1 PUSH1 0x20 DUP3 MUL DUP1 CALLDATASIZE DUP4 CALLDATACOPY DUP1 DUP3 ADD SWAP2 POP POP SWAP1 POP POP SWAP1 JUMP JUMPDEST PUSH0 DUP2 SWAP1 POP SWAP2 SWAP1 POP JUMP JUMPDEST PUSH2 0x1678 DUP2 PUSH2 0x1666 JUMP JUMPDEST DUP3 MSTORE POP POP JUMP JUMPDEST PUSH0 PUSH1 0x20 DUP3 ADD SWAP1 POP PUSH2 0x1691 PUSH0 DUP4 ADD DUP5 PUSH2 0x166F JUMP JUMPDEST SWAP3 SWAP2 POP POP JUMP JUMPDEST PUSH0 DUP1 REVERT JUMPDEST PUSH2 0x16A4 DUP2 PUSH2 0x1666 JUMP JUMPDEST DUP2 EQ PUSH2 0x16AE JUMPI PUSH0 DUP1 REVERT JUMPDEST POP JUMP JUMPDEST PUSH0 DUP2 CALLDATALOAD SWAP1 POP PUSH2 0x16BF DUP2 PUSH2 0x169B JUMP JUMPDEST SWAP3 SWAP2 POP POP JUMP JUMPDEST PUSH0 PUSH1 0x20 DUP3 DUP5 SUB SLT ISZERO PUSH2 0x16DA JUMPI PUSH2 0x16D9 PUSH2 0x1697 JUMP JUMPDEST JUMPDEST PUSH0 PUSH2 0x16E7 DUP5 DUP3 DUP6 ADD PUSH2 0x16B1 JUMP JUMPDEST SWAP2 POP POP SWAP3 SWAP2 POP POP JUMP JUMPDEST PUSH0 PUSH20 0xFFFFFFFFFFFFFFFFFFFFFFFFFFFFFFFFFFFFFFFF DUP3 AND SWAP1 POP SWAP2 SWAP1 POP JUMP JUMPDEST PUSH0 PUSH2 0x1719 DUP3 PUSH2 0x16F0 JUMP JUMPDEST SWAP1 POP SWAP2 SWAP1 POP JUMP JUMPDEST PUSH2 0x1729 DUP2 PUSH2 0x170F JUMP JUMPDEST DUP3 MSTORE POP POP JUMP JUMPDEST PUSH0 PUSH1 0x20 DUP3 ADD SWAP1 POP PUSH2 0x1742 PUSH0 DUP4 ADD DUP5 PUSH2 0x1720 JUMP JUMPDEST SWAP3 SWAP2 POP POP JUMP JUMPDEST PUSH0 DUP1 PUSH0 DUP1 PUSH1 0x80 DUP6 DUP8 SUB SLT ISZERO PUSH2 0x1760 JUMPI PUSH2 0x175F PUSH2 0x1697 JUMP JUMPDEST JUMPDEST PUSH0 PUSH2 0x176D DUP8 DUP3 DUP9 ADD PUSH2 0x16B1 JUMP JUMPDEST SWAP5 POP POP PUSH1 0x20 PUSH2 0x177E DUP8 DUP3 DUP9 ADD PUSH2 0x16B1 JUMP JUMPDEST SWAP4 POP POP PUSH1 0x40 PUSH2 0x178F DUP8 DUP3 DUP9 ADD PUSH2 0x16B1 JUMP JUMPDEST SWAP3 POP POP PUSH1 0x60 PUSH2 0x17A0 DUP8 DUP3 DUP9 ADD PUSH2 0x16B1 JUMP JUMPDEST SWAP2 POP POP SWAP3 SWAP6 SWAP2 SWAP5 POP SWAP3 POP JUMP JUMPDEST PUSH0 DUP1 PUSH0 PUSH1 0x60 DUP5 DUP7 SUB SLT ISZERO PUSH2 0x17C3 JUMPI PUSH2 0x17C2 PUSH2 0x1697 JUMP JUMPDEST JUMPDEST PUSH0 PUSH2 0x17D0 DUP7 DUP3 DUP8 ADD PUSH2 0x16B1 JUMP JUMPDEST SWAP4 POP POP PUSH1 0x20 PUSH2 0x17E1 DUP7 DUP3 DUP8 ADD PUSH2 0x16B1 JUMP JUMPDEST SWAP3 POP POP PUSH1 0x40 PUSH2 0x17F2 DUP7 DUP3 DUP8 ADD PUSH2 0x16B1 JUMP JUMPDEST SWAP2 POP POP SWAP3 POP SWAP3 POP SWAP3 JUMP JUMPDEST PUSH2 0x1805 DUP2 PUSH2 0x170F JUMP JUMPDEST DUP2 EQ PUSH2 0x180F JUMPI PUSH0 DUP1 REVERT JUMPDEST POP JUMP JUMPDEST PUSH0 DUP2 CALLDATALOAD SWAP1 POP PUSH2 0x1820 DUP2 PUSH2 0x17FC JUMP JUMPDEST SWAP3 SWAP2 POP POP JUMP JUMPDEST PUSH0 PUSH1 0x20 DUP3 DUP5 SUB SLT ISZERO PUSH2 0x183B JUMPI PUSH2 0x183A PUSH2 0x1697 JUMP JUMPDEST JUMPDEST PUSH0 PUSH2 0x1848 DUP5 DUP3 DUP6 ADD PUSH2 0x1812 JUMP JUMPDEST SWAP2 POP POP SWAP3 SWAP2 POP POP JUMP JUMPDEST PUSH0 DUP1 REVERT JUMPDEST PUSH0 DUP2 SWAP1 POP DUP3 PUSH1 0x20 PUSH1 0x3 MUL DUP3 ADD GT ISZERO PUSH2 0x1870 JUMPI PUSH2 0x186F PUSH2 0x1851 JUMP JUMPDEST JUMPDEST SWAP3 SWAP2 POP POP JUMP JUMPDEST PUSH0 DUP1 PUSH1 0x80 DUP4 DUP6 SUB SLT ISZERO PUSH2 0x188C JUMPI PUSH2 0x188B PUSH2 0x1697 JUMP JUMPDEST JUMPDEST PUSH0 PUSH2 0x1899 DUP6 DUP3 DUP7 ADD PUSH2 0x1855 JUMP JUMPDEST SWAP3 POP POP PUSH1 0x60 PUSH2 0x18AA DUP6 DUP3 DUP7 ADD PUSH2 0x16B1 JUMP JUMPDEST SWAP2 POP POP SWAP3 POP SWAP3 SWAP1 POP JUMP JUMPDEST PUSH0 DUP1 PUSH1 0x40 DUP4 DUP6 SUB SLT ISZERO PUSH2 0x18CA JUMPI PUSH2 0x18C9 PUSH2 0x1697 JUMP JUMPDEST JUMPDEST PUSH0 PUSH2 0x18D7 DUP6 DUP3 DUP7 ADD PUSH2 0x16B1 JUMP JUMPDEST SWAP3 POP POP PUSH1 0x20 PUSH2 0x18E8 DUP6 DUP3 DUP7 ADD PUSH2 0x16B1 JUMP JUMPDEST SWAP2 POP POP SWAP3 POP SWAP3 SWAP1 POP JUMP JUMPDEST PUSH0 PUSH1 0x40 DUP3 ADD SWAP1 POP PUSH2 0x1905 PUSH0 DUP4 ADD DUP6 PUSH2 0x166F JUMP JUMPDEST PUSH2 0x1912 PUSH1 0x20 DUP4 ADD DUP5 PUSH2 0x166F JUMP JUMPDEST SWAP4 SWAP3 POP POP POP JUMP JUMPDEST PUSH0 DUP1 PUSH1 0x80 DUP4 DUP6 SUB SLT ISZERO PUSH2 0x192F JUMPI PUSH2 0x192E PUSH2 0x1697 JUMP JUMPDEST JUMPDEST PUSH0 PUSH2 0x193C DUP6 DUP3 DUP7 ADD PUSH2 0x16B1 JUMP JUMPDEST SWAP3 POP POP PUSH1 0x20 PUSH2 0x194D DUP6 DUP3 DUP7 ADD PUSH2 0x1855 JUMP JUMPDEST SWAP2 POP POP SWAP3 POP SWAP3 SWAP1 POP JUMP JUMPDEST PUSH0 PUSH1 0x3 SWAP1 POP SWAP2 SWAP1 POP JUMP JUMPDEST PUSH0 DUP2 SWAP1 POP SWAP3 SWAP2 POP POP JUMP JUMPDEST PUSH0 DUP2 SWAP1 POP SWAP2 SWAP1 POP JUMP JUMPDEST PUSH2 0x197D DUP2 PUSH2 0x1666 JUMP JUMPDEST DUP3 MSTORE POP POP JUMP JUMPDEST PUSH0 PUSH2 0x198E DUP4 DUP4 PUSH2 0x1974 JUMP JUMPDEST PUSH1 0x20 DUP4 ADD SWAP1 POP SWAP3 SWAP2 POP POP JUMP JUMPDEST PUSH0 PUSH1 0x20 DUP3 ADD SWAP1 POP SWAP2 SWAP1 POP JUMP JUMPDEST PUSH2 0x19AF DUP2 PUSH2 0x1957 JUMP JUMPDEST PUSH2 0x19B9 DUP2 DUP5 PUSH2 0x1961 JUMP JUMPDEST SWAP3 POP PUSH2 0x19C4 DUP3 PUSH2 0x196B JUMP JUMPDEST DUP1 PUSH0 JUMPDEST DUP4 DUP2 LT ISZERO PUSH2 0x19F4 JUMPI DUP2 MLOAD PUSH2 0x19DB DUP8 DUP3 PUSH2 0x1983 JUMP JUMPDEST SWAP7 POP PUSH2 0x19E6 DUP4 PUSH2 0x199A JUMP JUMPDEST SWAP3 POP POP PUSH1 0x1 DUP2 ADD SWAP1 POP PUSH2 0x19C7 JUMP JUMPDEST POP POP POP POP POP POP JUMP JUMPDEST PUSH0 PUSH1 0x60 DUP3 ADD SWAP1 POP PUSH2 0x1A0F PUSH0 DUP4 ADD DUP5 PUSH2 0x19A6 JUMP JUMPDEST SWAP3 SWAP2 POP POP JUMP JUMPDEST PUSH0 DUP3 DUP3 MSTORE PUSH1 0x20 DUP3 ADD SWAP1 POP SWAP3 SWAP2 POP POP JUMP JUMPDEST PUSH32 0x69203D206A000000000000000000000000000000000000000000000000000000 PUSH0 DUP3 ADD MSTORE POP JUMP JUMPDEST PUSH0 PUSH2 0x1A59 PUSH1 0x5 DUP4 PUSH2 0x1A15 JUMP JUMPDEST SWAP2 POP PUSH2 0x1A64 DUP3 PUSH2 0x1A25 JUMP JUMPDEST PUSH1 0x20 DUP3 ADD SWAP1 POP SWAP2 SWAP1 POP JUMP JUMPDEST PUSH0 PUSH1 0x20 DUP3 ADD SWAP1 POP DUP2 DUP2 SUB PUSH0 DUP4 ADD MSTORE PUSH2 0x1A86 DUP2 PUSH2 0x1A4D JUMP JUMPDEST SWAP1 POP SWAP2 SWAP1 POP JUMP JUMPDEST PUSH32 0x4E487B7100000000000000000000000000000000000000000000000000000000 PUSH0 MSTORE PUSH1 0x32 PUSH1 0x4 MSTORE PUSH1 0x24 PUSH0 REVERT JUMPDEST PUSH0 PUSH1 0x60 DUP3 ADD SWAP1 POP PUSH2 0x1ACD PUSH0 DUP4 ADD DUP7 PUSH2 0x1720 JUMP JUMPDEST PUSH2 0x1ADA PUSH1 0x20 DUP4 ADD DUP6 PUSH2 0x1720 JUMP JUMPDEST PUSH2 0x1AE7 PUSH1 0x40 DUP4 ADD DUP5 PUSH2 0x166F JUMP JUMPDEST SWAP5 SWAP4 POP POP POP POP JUMP JUMPDEST PUSH0 DUP2 ISZERO ISZERO SWAP1 POP SWAP2 SWAP1 POP JUMP JUMPDEST PUSH2 0x1B03 DUP2 PUSH2 0x1AEF JUMP JUMPDEST DUP2 EQ PUSH2 0x1B0D JUMPI PUSH0 DUP1 REVERT JUMPDEST POP JUMP JUMPDEST PUSH0 DUP2 MLOAD SWAP1 POP PUSH2 0x1B1E DUP2 PUSH2 0x1AFA JUMP JUMPDEST SWAP3 SWAP2 POP POP JUMP JUMPDEST PUSH0 PUSH1 0x20 DUP3 DUP5 SUB SLT ISZERO PUSH2 0x1B39 JUMPI PUSH2 0x1B38 PUSH2 0x1697 JUMP JUMPDEST JUMPDEST PUSH0 PUSH2 0x1B46 DUP5 DUP3 DUP6 ADD PUSH2 0x1B10 JUMP JUMPDEST SWAP2 POP POP SWAP3 SWAP2 POP POP JUMP JUMPDEST PUSH32 0x4E487B7100000000000000000000000000000000000000000000000000000000 PUSH0 MSTORE PUSH1 0x11 PUSH1 0x4 MSTORE PUSH1 0x24 PUSH0 REVERT JUMPDEST PUSH0 PUSH2 0x1B86 DUP3 PUSH2 0x1666 JUMP JUMPDEST SWAP2 POP PUSH2 0x1B91 DUP4 PUSH2 0x1666 JUMP JUMPDEST SWAP3 POP DUP3 DUP3 MUL PUSH2 0x1B9F DUP2 PUSH2 0x1666 JUMP JUMPDEST SWAP2 POP DUP3 DUP3 DIV DUP5 EQ DUP4 ISZERO OR PUSH2 0x1BB6 JUMPI PUSH2 0x1BB5 PUSH2 0x1B4F JUMP JUMPDEST JUMPDEST POP SWAP3 SWAP2 POP POP JUMP JUMPDEST PUSH0 PUSH2 0x1BC7 DUP3 PUSH2 0x1666 JUMP JUMPDEST SWAP2 POP PUSH2 0x1BD2 DUP4 PUSH2 0x1666 JUMP JUMPDEST SWAP3 POP DUP3 DUP3 ADD SWAP1 POP DUP1 DUP3 GT ISZERO PUSH2 0x1BEA JUMPI PUSH2 0x1BE9 PUSH2 0x1B4F JUMP JUMPDEST JUMPDEST SWAP3 SWAP2 POP POP JUMP JUMPDEST PUSH0 PUSH2 0x1BFA DUP3 PUSH2 0x1666 JUMP JUMPDEST SWAP2 POP PUSH2 0x1C05 DUP4 PUSH2 0x1666 JUMP JUMPDEST SWAP3 POP DUP3 DUP3 SUB SWAP1 POP DUP2 DUP2 GT ISZERO PUSH2 0x1C1D JUMPI PUSH2 0x1C1C PUSH2 0x1B4F JUMP JUMPDEST JUMPDEST SWAP3 SWAP2 POP POP JUMP JUMPDEST PUSH32 0x4E487B7100000000000000000000000000000000000000000000000000000000 PUSH0 MSTORE PUSH1 0x12 PUSH1 0x4 MSTORE PUSH1 0x24 PUSH0 REVERT JUMPDEST PUSH0 PUSH2 0x1C5A DUP3 PUSH2 0x1666 JUMP JUMPDEST SWAP2 POP PUSH2 0x1C65 DUP4 PUSH2 0x1666 JUMP JUMPDEST SWAP3 POP DUP3 PUSH2 0x1C75 JUMPI PUSH2 0x1C74 PUSH2 0x1C23 JUMP JUMPDEST JUMPDEST DUP3 DUP3 DIV SWAP1 POP SWAP3 SWAP2 POP POP JUMP JUMPDEST PUSH32 0x6479203C206D696E000000000000000000000000000000000000000000000000 PUSH0 DUP3 ADD MSTORE POP JUMP JUMPDEST PUSH0 PUSH2 0x1CB4 PUSH1 0x8 DUP4 PUSH2 0x1A15 JUMP JUMPDEST SWAP2 POP PUSH2 0x1CBF DUP3 PUSH2 0x1C80 JUMP JUMPDEST PUSH1 0x20 DUP3 ADD SWAP1 POP SWAP2 SWAP1 POP JUMP JUMPDEST PUSH0 PUSH1 0x20 DUP3 ADD SWAP1 POP DUP2 DUP2 SUB PUSH0 DUP4 ADD MSTORE PUSH2 0x1CE1 DUP2 PUSH2 0x1CA8 JUMP JUMPDEST SWAP1 POP SWAP2 SWAP1 POP JUMP JUMPDEST PUSH0 PUSH1 0x40 DUP3 ADD SWAP1 POP PUSH2 0x1CFB PUSH0 DUP4 ADD DUP6 PUSH2 0x1720 JUMP JUMPDEST PUSH2 0x1D08 PUSH1 0x20 DUP4 ADD DUP5 PUSH2 0x166F JUMP JUMPDEST SWAP4 SWAP3 POP POP POP JUMP JUMPDEST PUSH32 0x6F7574203C206D696E0000000000000000000000000000000000000000000000 PUSH0 DUP3 ADD MSTORE POP JUMP JUMPDEST PUSH0 PUSH2 0x1D43 PUSH1 0x9 DUP4 PUSH2 0x1A15 JUMP JUMPDEST SWAP2 POP PUSH2 0x1D4E DUP3 PUSH2 0x1D0F JUMP JUMPDEST PUSH1 0x20 DUP3 ADD SWAP1 POP SWAP2 SWAP1 POP JUMP JUMPDEST PUSH0 PUSH1 0x20 DUP3 ADD SWAP1 POP DUP2 DUP2 SUB PUSH0 DUP4 ADD MSTORE PUSH2 0x1D70 DUP2 PUSH2 0x1D37 JUMP JUMPDEST SWAP1 POP SWAP2 SWAP1 POP JUMP JUMPDEST PUSH32 0x6C6971756964697479206469646E277420696E63726561736500000000000000 PUSH0 DUP3 ADD MSTORE POP JUMP JUMPDEST PUSH0 PUSH2 0x1DAB PUSH1 0x19 DUP4 PUSH2 0x1A15 JUMP JUMPDEST SWAP2 POP PUSH2 0x1DB6 DUP3 PUSH2 0x1D77 JUMP JUMPDEST PUSH1 0x20 DUP3 ADD SWAP1 POP SWAP2 SWAP1 POP JUMP JUMPDEST PUSH0 PUSH1 0x20 DUP3 ADD SWAP1 POP DUP2 DUP2 SUB PUSH0 DUP4 ADD MSTORE PUSH2 0x1DD8 DUP2 PUSH2 0x1D9F JUMP JUMPDEST SWAP1 POP SWAP2 SWAP1 POP JUMP JUMPDEST PUSH32 0x736861726573203C206D696E0000000000000000000000000000000000000000 PUSH0 DUP3 ADD MSTORE POP JUMP JUMPDEST PUSH0 PUSH2 0x1E13 PUSH1 0xC DUP4 PUSH2 0x1A15 JUMP JUMPDEST SWAP2 POP PUSH2 0x1E1E DUP3 PUSH2 0x1DDF JUMP JUMPDEST PUSH1 0x20 DUP3 ADD SWAP1 POP SWAP2 SWAP1 POP JUMP JUMPDEST PUSH0 PUSH1 0x20 DUP3 ADD SWAP1 POP DUP2 DUP2 SUB PUSH0 DUP4 ADD MSTORE PUSH2 0x1E40 DUP2 PUSH2 0x1E07 JUMP JUMPDEST SWAP1 POP SWAP2 SWAP1 POP JUMP JUMPDEST PUSH0 DUP2 PUSH1 0x1 SHR SWAP1 POP SWAP2 SWAP1 POP JUMP JUMPDEST PUSH0 DUP1 DUP3 SWAP2 POP DUP4 SWAP1 POP JUMPDEST PUSH1 0x1 DUP6 GT ISZERO PUSH2 0x1E9C JUMPI DUP1 DUP7 DIV DUP2 GT ISZERO PUSH2 0x1E78 JUMPI PUSH2 0x1E77 PUSH2 0x1B4F JUMP JUMPDEST JUMPDEST PUSH1 0x1 DUP6 AND ISZERO PUSH2 0x1E87 JUMPI DUP1 DUP3 MUL SWAP2 POP JUMPDEST DUP1 DUP2 MUL SWAP1 POP PUSH2 0x1E95 DUP6 PUSH2 0x1E47 JUMP JUMPDEST SWAP5 POP PUSH2 0x1E5C JUMP JUMPDEST SWAP5 POP SWAP5 SWAP3 POP POP POP JUMP JUMPDEST PUSH0 DUP3 PUSH2 0x1EB4 JUMPI PUSH1 0x1 SWAP1 POP PUSH2 0x1F6F JUMP JUMPDEST DUP2 PUSH2 0x1EC1 JUMPI PUSH0 SWAP1 POP PUSH2 0x1F6F JUMP JUMPDEST DUP2 PUSH1 0x1 DUP2 EQ PUSH2 0x1ED7 JUMPI PUSH1 0x2 DUP2 EQ PUSH2 0x1EE1 JUMPI PUSH2 0x1F10 JUMP JUMPDEST PUSH1 0x1 SWAP2 POP POP PUSH2 0x1F6F JUMP JUMPDEST PUSH1 0xFF DUP5 GT ISZERO PUSH2 0x1EF3 JUMPI PUSH2 0x1EF2 PUSH2 0x1B4F JUMP JUMPDEST JUMPDEST DUP4 PUSH1 0x2 EXP SWAP2 POP DUP5 DUP3 GT ISZERO PUSH2 0x1F0A JUMPI PUSH2 0x1F09 PUSH2 0x1B4F JUMP JUMPDEST JUMPDEST POP PUSH2 0x1F6F JUMP JUMPDEST POP PUSH1 0x20 DUP4 LT PUSH2 0x133 DUP4 LT AND PUSH1 0x4E DUP5 LT PUSH1 0xB DUP5 LT AND OR ISZERO PUSH2 0x1F45 JUMPI DUP3 DUP3 EXP SWAP1 POP DUP4 DUP2 GT ISZERO PUSH2 0x1F40 JUMPI PUSH2 0x1F3F PUSH2 0x1B4F JUMP JUMPDEST JUMPDEST PUSH2 0x1F6F JUMP JUMPDEST PUSH2 0x1F52 DUP5 DUP5 DUP5 PUSH1 0x1 PUSH2 0x1E53 JUMP JUMPDEST SWAP3 POP SWAP1 POP DUP2 DUP5 DIV DUP2 GT ISZERO PUSH2 0x1F69 JUMPI PUSH2 0x1F68 PUSH2 0x1B4F JUMP JUMPDEST JUMPDEST DUP2 DUP2 MUL SWAP1 POP JUMPDEST SWAP4 SWAP3 POP POP POP JUMP JUMPDEST PUSH0 PUSH2 0x1F80 DUP3 PUSH2 0x1666 JUMP JUMPDEST SWAP2 POP PUSH2 0x1F8B DUP4 PUSH2 0x1666 JUMP JUMPDEST SWAP3 POP PUSH2 0x1FB8 PUSH32 0xFFFFFFFFFFFFFFFFFFFFFFFFFFFFFFFFFFFFFFFFFFFFFFFFFFFFFFFFFFFFFFFF DUP5 DUP5 PUSH2 0x1EA5 JUMP JUMPDEST SWAP1 POP SWAP3 SWAP2 POP POP JUMP JUMPDEST PUSH32 0x79206469646E277420636F6E7665726765000000000000000000000000000000 PUSH0 DUP3 ADD MSTORE POP JUMP JUMPDEST PUSH0 PUSH2 0x1FF4 PUSH1 0x11 DUP4 PUSH2 0x1A15 JUMP JUMPDEST SWAP2 POP PUSH2 0x1FFF DUP3 PUSH2 0x1FC0 JUMP JUMPDEST PUSH1 0x20 DUP3 ADD SWAP1 POP SWAP2 SWAP1 POP JUMP JUMPDEST PUSH0 PUSH1 0x20 DUP3 ADD SWAP1 POP DUP2 DUP2 SUB PUSH0 DUP4 ADD MSTORE PUSH2 0x2021 DUP2 PUSH2 0x1FE8 JUMP JUMPDEST SWAP1 POP SWAP2 SWAP1 POP JUMP JUMPDEST PUSH32 0x44206469646E277420636F6E7665726765000000000000000000000000000000 PUSH0 DUP3 ADD MSTORE POP JUMP JUMPDEST PUSH0 PUSH2 0x205C PUSH1 0x11 DUP4 PUSH2 0x1A15 JUMP JUMPDEST SWAP2 POP PUSH2 0x2067 DUP3 PUSH2 0x2028 JUMP JUMPDEST PUSH1 0x20 DUP3 ADD SWAP1 POP SWAP2 SWAP1 POP JUMP JUMPDEST PUSH0 PUSH1 0x20 DUP3 ADD SWAP1 POP DUP2 DUP2 SUB PUSH0 DUP4 ADD MSTORE PUSH2 0x2089 DUP2 PUSH2 0x2050 JUMP JUMPDEST SWAP1 POP SWAP2 SWAP1 POP JUMP INVALID LOG2 PUSH5 0x6970667358 0x22 SLT KECCAK256 0xE6 0xCF PUSH12 0xB105BE9E37FB50064C77CD74 0xEC 0xDB PUSH12 0x6854205902845C90B0A79232 AND 0xE3 PUSH5 0x736F6C6343 STOP ADDMOD BYTE STOP CALLER "
		},
		"gasEstimates": {
			"creation": {
				"codeDepositCost": "1678000",
				"executionCost": "infinite",
				"totalCost": "infinite"
			},
			"external": {
				"addLiquidity(uint256[3],uint256)": "infinite",
				"balanceOf(address)": "2802",
				"balances(uint256)": "infinite",
				"calcWithdrawOneToken(uint256,uint256)": "infinite",
				"getVirtualPrice()": "infinite",
				"removeLiquidity(uint256,uint256[3])": "infinite",
				"removeLiquidityOneToken(uint256,uint256,uint256)": "infinite",
				"swap(uint256,uint256,uint256,uint256)": "infinite",
				"tokens(uint256)": "2839",
				"totalSupply()": "2426"
			},
			"internal": {
				"_burn(address,uint256)": "infinite",
				"_calcWithdrawOneToken(uint256,uint256)": "infinite",
				"_getD(uint256[3] memory)": "infinite",
				"_getY(uint256,uint256,uint256,uint256[3] memory)": "infinite",
				"_getYD(uint256,uint256[3] memory,uint256)": "infinite",
				"_mint(address,uint256)": "infinite",
				"_xp()": "infinite"
			}
		},
		"methodIdentifiers": {
			"addLiquidity(uint256[3],uint256)": "a4bf0446",
			"balanceOf(address)": "70a08231",
			"balances(uint256)": "4903b0d1",
			"calcWithdrawOneToken(uint256,uint256)": "a60dc3b1",
			"getVirtualPrice()": "e25aa5fa",
			"removeLiquidity(uint256,uint256[3])": "d035862c",
			"removeLiquidityOneToken(uint256,uint256,uint256)": "7066b5b2",
			"swap(uint256,uint256,uint256,uint256)": "5673b02d",
			"tokens(uint256)": "4f64b2be",
			"totalSupply()": "18160ddd"
		}
	},
	"abi": [
		{
			"inputs": [
				{
					"internalType": "address[3]",
					"name": "_tokens",
					"type": "address[3]"
				}
			],
			"stateMutability": "nonpayable",
			"type": "constructor"
		},
		{
			"inputs": [
				{
					"internalType": "uint256[3]",
					"name": "amounts",
					"type": "uint256[3]"
				},
				{
					"internalType": "uint256",
					"name": "minShares",
					"type": "uint256"
				}
			],
			"name": "addLiquidity",
			"outputs": [
				{
					"internalType": "uint256",
					"name": "shares",
					"type": "uint256"
				}
			],
			"stateMutability": "nonpayable",
			"type": "function"
		},
		{
			"inputs": [
				{
					"internalType": "address",
					"name": "",
					"type": "address"
				}
			],
			"name": "balanceOf",
			"outputs": [
				{
					"internalType": "uint256",
					"name": "",
					"type": "uint256"
				}
			],
			"stateMutability": "view",
			"type": "function"
		},
		{
			"inputs": [
				{
					"internalType": "uint256",
					"name": "",
					"type": "uint256"
				}
			],
			"name": "balances",
			"outputs": [
				{
					"internalType": "uint256",
					"name": "",
					"type": "uint256"
				}
			],
			"stateMutability": "view",
			"type": "function"
		},
		{
			"inputs": [
				{
					"internalType": "uint256",
					"name": "shares",
					"type": "uint256"
				},
				{
					"internalType": "uint256",
					"name": "i",
					"type": "uint256"
				}
			],
			"name": "calcWithdrawOneToken",
			"outputs": [
				{
					"internalType": "uint256",
					"name": "dy",
					"type": "uint256"
				},
				{
					"internalType": "uint256",
					"name": "fee",
					"type": "uint256"
				}
			],
			"stateMutability": "view",
			"type": "function"
		},
		{
			"inputs": [],
			"name": "getVirtualPrice",
			"outputs": [
				{
					"internalType": "uint256",
					"name": "",
					"type": "uint256"
				}
			],
			"stateMutability": "view",
			"type": "function"
		},
		{
			"inputs": [
				{
					"internalType": "uint256",
					"name": "shares",
					"type": "uint256"
				},
				{
					"internalType": "uint256[3]",
					"name": "minAmountsOut",
					"type": "uint256[3]"
				}
			],
			"name": "removeLiquidity",
			"outputs": [
				{
					"internalType": "uint256[3]",
					"name": "amountsOut",
					"type": "uint256[3]"
				}
			],
			"stateMutability": "nonpayable",
			"type": "function"
		},
		{
			"inputs": [
				{
					"internalType": "uint256",
					"name": "shares",
					"type": "uint256"
				},
				{
					"internalType": "uint256",
					"name": "i",
					"type": "uint256"
				},
				{
					"internalType": "uint256",
					"name": "minAmountOut",
					"type": "uint256"
				}
			],
			"name": "removeLiquidityOneToken",
			"outputs": [
				{
					"internalType": "uint256",
					"name": "amountOut",
					"type": "uint256"
				}
			],
			"stateMutability": "nonpayable",
			"type": "function"
		},
		{
			"inputs": [
				{
					"internalType": "uint256",
					"name": "i",
					"type": "uint256"
				},
				{
					"internalType": "uint256",
					"name": "j",
					"type": "uint256"
				},
				{
					"internalType": "uint256",
					"name": "dx",
					"type": "uint256"
				},
				{
					"internalType": "uint256",
					"name": "minDy",
					"type": "uint256"
				}
			],
			"name": "swap",
			"outputs": [
				{
					"internalType": "uint256",
					"name": "dy",
					"type": "uint256"
				}
			],
			"stateMutability": "nonpayable",
			"type": "function"
		},
		{
			"inputs": [
				{
					"internalType": "uint256",
					"name": "",
					"type": "uint256"
				}
			],
			"name": "tokens",
			"outputs": [
				{
					"internalType": "address",
					"name": "",
					"type": "address"
				}
			],
			"stateMutability": "view",
			"type": "function"
		},
		{
			"inputs": [],
			"name": "totalSupply",
			"outputs": [
				{
					"internalType": "uint256",
					"name": "",
					"type": "uint256"
				}
			],
			"stateMutability": "view",
			"type": "function"
		}
	]
}