{
	"contracts/Donations.sol": {
		"Donations": {
			"abi": [
				{
					"inputs": [],
					"stateMutability": "nonpayable",
					"type": "constructor"
				},
				{
					"inputs": [],
					"name": "donate",
					"outputs": [],
					"stateMutability": "payable",
					"type": "function"
				},
				{
					"inputs": [],
					"name": "owner",
					"outputs": [
						{
							"internalType": "address",
							"name": "",
							"type": "address"
						}
					],
					"stateMutability": "view",
					"type": "function"
				},
				{
					"inputs": [],
					"name": "withdraw",
					"outputs": [],
					"stateMutability": "payable",
					"type": "function"
				}
			],
			"devdoc": {
				"kind": "dev",
				"methods": {},
				"version": 1
			},
			"evm": {
				"assembly": "    /* \"contracts/Donations.sol\":57:618  contract Donations {... */\n  mstore(0x40, 0x80)\n    /* \"contracts/Donations.sol\":105:148  constructor() {... */\n  callvalue\n  dup1\n  iszero\n  tag_1\n  jumpi\n  0x00\n  dup1\n  revert\ntag_1:\n  pop\n    /* \"contracts/Donations.sol\":133:143  msg.sender */\n  caller\n    /* \"contracts/Donations.sol\":125:130  owner */\n  0x00\n  dup1\n    /* \"contracts/Donations.sol\":125:143  owner = msg.sender */\n  0x0100\n  exp\n  dup2\n  sload\n  dup2\n  0xffffffffffffffffffffffffffffffffffffffff\n  mul\n  not\n  and\n  swap1\n  dup4\n  0xffffffffffffffffffffffffffffffffffffffff\n  and\n  mul\n  or\n  swap1\n  sstore\n  pop\n    /* \"contracts/Donations.sol\":57:618  contract Donations {... */\n  dataSize(sub_0)\n  dup1\n  dataOffset(sub_0)\n  0x00\n  codecopy\n  0x00\n  return\nstop\n\nsub_0: assembly {\n        /* \"contracts/Donations.sol\":57:618  contract Donations {... */\n      mstore(0x40, 0x80)\n      jumpi(tag_1, lt(calldatasize, 0x04))\n      shr(0xe0, calldataload(0x00))\n      dup1\n      0x3ccfd60b\n      eq\n      tag_2\n      jumpi\n      dup1\n      0x8da5cb5b\n      eq\n      tag_3\n      jumpi\n      dup1\n      0xed88c68e\n      eq\n      tag_4\n      jumpi\n    tag_1:\n      0x00\n      dup1\n      revert\n        /* \"contracts/Donations.sol\":307:616  function withdraw() public payable {... */\n    tag_2:\n      tag_5\n      tag_6\n      jump\t// in\n    tag_5:\n      stop\n        /* \"contracts/Donations.sol\":80:100  address public owner */\n    tag_3:\n      callvalue\n      dup1\n      iszero\n      tag_7\n      jumpi\n      0x00\n      dup1\n      revert\n    tag_7:\n      pop\n      tag_8\n      tag_9\n      jump\t// in\n    tag_8:\n      mload(0x40)\n      tag_10\n      swap2\n      swap1\n      tag_11\n      jump\t// in\n    tag_10:\n      mload(0x40)\n      dup1\n      swap2\n      sub\n      swap1\n      return\n        /* \"contracts/Donations.sol\":176:283  function donate() public payable {... */\n    tag_4:\n      tag_12\n      tag_13\n      jump\t// in\n    tag_12:\n      stop\n        /* \"contracts/Donations.sol\":307:616  function withdraw() public payable {... */\n    tag_6:\n        /* \"contracts/Donations.sol\":370:375  owner */\n      0x00\n      dup1\n      sload\n      swap1\n      0x0100\n      exp\n      swap1\n      div\n      0xffffffffffffffffffffffffffffffffffffffff\n      and\n        /* \"contracts/Donations.sol\":356:375  msg.sender == owner */\n      0xffffffffffffffffffffffffffffffffffffffff\n      and\n        /* \"contracts/Donations.sol\":356:366  msg.sender */\n      caller\n        /* \"contracts/Donations.sol\":356:375  msg.sender == owner */\n      0xffffffffffffffffffffffffffffffffffffffff\n      and\n      eq\n        /* \"contracts/Donations.sol\":348:408  require(msg.sender == owner, \"Only the owner can withdraw!\") */\n      tag_15\n      jumpi\n      mload(0x40)\n      0x08c379a000000000000000000000000000000000000000000000000000000000\n      dup2\n      mstore\n      0x04\n      add\n      tag_16\n      swap1\n      tag_17\n      jump\t// in\n    tag_16:\n      mload(0x40)\n      dup1\n      swap2\n      sub\n      swap1\n      revert\n    tag_15:\n        /* \"contracts/Donations.sol\":415:427  uint balance */\n      0x00\n        /* \"contracts/Donations.sol\":430:451  address(this).balance */\n      selfbalance\n        /* \"contracts/Donations.sol\":415:451  uint balance = address(this).balance */\n      swap1\n      pop\n        /* \"contracts/Donations.sol\":475:476  0 */\n      0x00\n        /* \"contracts/Donations.sol\":465:472  balance */\n      dup2\n        /* \"contracts/Donations.sol\":465:476  balance > 0 */\n      gt\n        /* \"contracts/Donations.sol\":457:506  require(balance > 0, \"No ether left to withdraw\") */\n      tag_18\n      jumpi\n      mload(0x40)\n      0x08c379a000000000000000000000000000000000000000000000000000000000\n      dup2\n      mstore\n      0x04\n      add\n      tag_19\n      swap1\n      tag_20\n      jump\t// in\n    tag_19:\n      mload(0x40)\n      dup1\n      swap2\n      sub\n      swap1\n      revert\n    tag_18:\n        /* \"contracts/Donations.sol\":514:526  bool success */\n      0x00\n        /* \"contracts/Donations.sol\":533:543  msg.sender */\n      caller\n        /* \"contracts/Donations.sol\":532:549  (msg.sender).call */\n      0xffffffffffffffffffffffffffffffffffffffff\n      and\n        /* \"contracts/Donations.sol\":557:564  balance */\n      dup3\n        /* \"contracts/Donations.sol\":532:569  (msg.sender).call{value: balance}(\"\") */\n      mload(0x40)\n      tag_21\n      swap1\n      tag_22\n      jump\t// in\n    tag_21:\n      0x00\n      mload(0x40)\n      dup1\n      dup4\n      sub\n      dup2\n      dup6\n      dup8\n      gas\n      call\n      swap3\n      pop\n      pop\n      pop\n      returndatasize\n      dup1\n      0x00\n      dup2\n      eq\n      tag_25\n      jumpi\n      mload(0x40)\n      swap2\n      pop\n      and(add(returndatasize, 0x3f), not(0x1f))\n      dup3\n      add\n      0x40\n      mstore\n      returndatasize\n      dup3\n      mstore\n      returndatasize\n      0x00\n      0x20\n      dup5\n      add\n      returndatacopy\n      jump(tag_24)\n    tag_25:\n      0x60\n      swap2\n      pop\n    tag_24:\n      pop\n        /* \"contracts/Donations.sol\":513:569  (bool success, ) = (msg.sender).call{value: balance}(\"\") */\n      pop\n      swap1\n      pop\n        /* \"contracts/Donations.sol\":583:590  success */\n      dup1\n        /* \"contracts/Donations.sol\":575:611  require(success, \"Transfer failed.\") */\n      tag_26\n      jumpi\n      mload(0x40)\n      0x08c379a000000000000000000000000000000000000000000000000000000000\n      dup2\n      mstore\n      0x04\n      add\n      tag_27\n      swap1\n      tag_28\n      jump\t// in\n    tag_27:\n      mload(0x40)\n      dup1\n      swap2\n      sub\n      swap1\n      revert\n    tag_26:\n        /* \"contracts/Donations.sol\":342:616  {... */\n      pop\n      pop\n        /* \"contracts/Donations.sol\":307:616  function withdraw() public payable {... */\n      jump\t// out\n        /* \"contracts/Donations.sol\":80:100  address public owner */\n    tag_9:\n      0x00\n      dup1\n      sload\n      swap1\n      0x0100\n      exp\n      swap1\n      div\n      0xffffffffffffffffffffffffffffffffffffffff\n      and\n      dup2\n      jump\t// out\n        /* \"contracts/Donations.sol\":176:283  function donate() public payable {... */\n    tag_13:\n        /* \"contracts/Donations.sol\":235:236  0 */\n      0x00\n        /* \"contracts/Donations.sol\":223:232  msg.value */\n      callvalue\n        /* \"contracts/Donations.sol\":223:236  msg.value > 0 */\n      gt\n        /* \"contracts/Donations.sol\":215:278  require(msg.value > 0, \"Donation needs to be a positive value\") */\n      tag_30\n      jumpi\n      mload(0x40)\n      0x08c379a000000000000000000000000000000000000000000000000000000000\n      dup2\n      mstore\n      0x04\n      add\n      tag_31\n      swap1\n      tag_32\n      jump\t// in\n    tag_31:\n      mload(0x40)\n      dup1\n      swap2\n      sub\n      swap1\n      revert\n    tag_30:\n        /* \"contracts/Donations.sol\":176:283  function donate() public payable {... */\n      jump\t// out\n        /* \"#utility.yul\":7:133   */\n    tag_33:\n        /* \"#utility.yul\":44:51   */\n      0x00\n        /* \"#utility.yul\":84:126   */\n      0xffffffffffffffffffffffffffffffffffffffff\n        /* \"#utility.yul\":77:82   */\n      dup3\n        /* \"#utility.yul\":73:127   */\n      and\n        /* \"#utility.yul\":62:127   */\n      swap1\n      pop\n        /* \"#utility.yul\":7:133   */\n      swap2\n      swap1\n      pop\n      jump\t// out\n        /* \"#utility.yul\":139:235   */\n    tag_34:\n        /* \"#utility.yul\":176:183   */\n      0x00\n        /* \"#utility.yul\":205:229   */\n      tag_51\n        /* \"#utility.yul\":223:228   */\n      dup3\n        /* \"#utility.yul\":205:229   */\n      tag_33\n      jump\t// in\n    tag_51:\n        /* \"#utility.yul\":194:229   */\n      swap1\n      pop\n        /* \"#utility.yul\":139:235   */\n      swap2\n      swap1\n      pop\n      jump\t// out\n        /* \"#utility.yul\":241:359   */\n    tag_35:\n        /* \"#utility.yul\":328:352   */\n      tag_53\n        /* \"#utility.yul\":346:351   */\n      dup2\n        /* \"#utility.yul\":328:352   */\n      tag_34\n      jump\t// in\n    tag_53:\n        /* \"#utility.yul\":323:326   */\n      dup3\n        /* \"#utility.yul\":316:353   */\n      mstore\n        /* \"#utility.yul\":241:359   */\n      pop\n      pop\n      jump\t// out\n        /* \"#utility.yul\":365:587   */\n    tag_11:\n        /* \"#utility.yul\":458:462   */\n      0x00\n        /* \"#utility.yul\":496:498   */\n      0x20\n        /* \"#utility.yul\":485:494   */\n      dup3\n        /* \"#utility.yul\":481:499   */\n      add\n        /* \"#utility.yul\":473:499   */\n      swap1\n      pop\n        /* \"#utility.yul\":509:580   */\n      tag_55\n        /* \"#utility.yul\":577:578   */\n      0x00\n        /* \"#utility.yul\":566:575   */\n      dup4\n        /* \"#utility.yul\":562:579   */\n      add\n        /* \"#utility.yul\":553:559   */\n      dup5\n        /* \"#utility.yul\":509:580   */\n      tag_35\n      jump\t// in\n    tag_55:\n        /* \"#utility.yul\":365:587   */\n      swap3\n      swap2\n      pop\n      pop\n      jump\t// out\n        /* \"#utility.yul\":593:762   */\n    tag_36:\n        /* \"#utility.yul\":677:688   */\n      0x00\n        /* \"#utility.yul\":711:717   */\n      dup3\n        /* \"#utility.yul\":706:709   */\n      dup3\n        /* \"#utility.yul\":699:718   */\n      mstore\n        /* \"#utility.yul\":751:755   */\n      0x20\n        /* \"#utility.yul\":746:749   */\n      dup3\n        /* \"#utility.yul\":742:756   */\n      add\n        /* \"#utility.yul\":727:756   */\n      swap1\n      pop\n        /* \"#utility.yul\":593:762   */\n      swap3\n      swap2\n      pop\n      pop\n      jump\t// out\n        /* \"#utility.yul\":768:946   */\n    tag_37:\n        /* \"#utility.yul\":908:938   */\n      0x4f6e6c7920746865206f776e65722063616e2077697468647261772100000000\n        /* \"#utility.yul\":904:905   */\n      0x00\n        /* \"#utility.yul\":896:902   */\n      dup3\n        /* \"#utility.yul\":892:906   */\n      add\n        /* \"#utility.yul\":885:939   */\n      mstore\n        /* \"#utility.yul\":768:946   */\n      pop\n      jump\t// out\n        /* \"#utility.yul\":952:1318   */\n    tag_38:\n        /* \"#utility.yul\":1094:1097   */\n      0x00\n        /* \"#utility.yul\":1115:1182   */\n      tag_59\n        /* \"#utility.yul\":1179:1181   */\n      0x1c\n        /* \"#utility.yul\":1174:1177   */\n      dup4\n        /* \"#utility.yul\":1115:1182   */\n      tag_36\n      jump\t// in\n    tag_59:\n        /* \"#utility.yul\":1108:1182   */\n      swap2\n      pop\n        /* \"#utility.yul\":1191:1284   */\n      tag_60\n        /* \"#utility.yul\":1280:1283   */\n      dup3\n        /* \"#utility.yul\":1191:1284   */\n      tag_37\n      jump\t// in\n    tag_60:\n        /* \"#utility.yul\":1309:1311   */\n      0x20\n        /* \"#utility.yul\":1304:1307   */\n      dup3\n        /* \"#utility.yul\":1300:1312   */\n      add\n        /* \"#utility.yul\":1293:1312   */\n      swap1\n      pop\n        /* \"#utility.yul\":952:1318   */\n      swap2\n      swap1\n      pop\n      jump\t// out\n        /* \"#utility.yul\":1324:1743   */\n    tag_17:\n        /* \"#utility.yul\":1490:1494   */\n      0x00\n        /* \"#utility.yul\":1528:1530   */\n      0x20\n        /* \"#utility.yul\":1517:1526   */\n      dup3\n        /* \"#utility.yul\":1513:1531   */\n      add\n        /* \"#utility.yul\":1505:1531   */\n      swap1\n      pop\n        /* \"#utility.yul\":1577:1586   */\n      dup2\n        /* \"#utility.yul\":1571:1575   */\n      dup2\n        /* \"#utility.yul\":1567:1587   */\n      sub\n        /* \"#utility.yul\":1563:1564   */\n      0x00\n        /* \"#utility.yul\":1552:1561   */\n      dup4\n        /* \"#utility.yul\":1548:1565   */\n      add\n        /* \"#utility.yul\":1541:1588   */\n      mstore\n        /* \"#utility.yul\":1605:1736   */\n      tag_62\n        /* \"#utility.yul\":1731:1735   */\n      dup2\n        /* \"#utility.yul\":1605:1736   */\n      tag_38\n      jump\t// in\n    tag_62:\n        /* \"#utility.yul\":1597:1736   */\n      swap1\n      pop\n        /* \"#utility.yul\":1324:1743   */\n      swap2\n      swap1\n      pop\n      jump\t// out\n        /* \"#utility.yul\":1749:1924   */\n    tag_39:\n        /* \"#utility.yul\":1889:1916   */\n      0x4e6f206574686572206c65667420746f20776974686472617700000000000000\n        /* \"#utility.yul\":1885:1886   */\n      0x00\n        /* \"#utility.yul\":1877:1883   */\n      dup3\n        /* \"#utility.yul\":1873:1887   */\n      add\n        /* \"#utility.yul\":1866:1917   */\n      mstore\n        /* \"#utility.yul\":1749:1924   */\n      pop\n      jump\t// out\n        /* \"#utility.yul\":1930:2296   */\n    tag_40:\n        /* \"#utility.yul\":2072:2075   */\n      0x00\n        /* \"#utility.yul\":2093:2160   */\n      tag_65\n        /* \"#utility.yul\":2157:2159   */\n      0x19\n        /* \"#utility.yul\":2152:2155   */\n      dup4\n        /* \"#utility.yul\":2093:2160   */\n      tag_36\n      jump\t// in\n    tag_65:\n        /* \"#utility.yul\":2086:2160   */\n      swap2\n      pop\n        /* \"#utility.yul\":2169:2262   */\n      tag_66\n        /* \"#utility.yul\":2258:2261   */\n      dup3\n        /* \"#utility.yul\":2169:2262   */\n      tag_39\n      jump\t// in\n    tag_66:\n        /* \"#utility.yul\":2287:2289   */\n      0x20\n        /* \"#utility.yul\":2282:2285   */\n      dup3\n        /* \"#utility.yul\":2278:2290   */\n      add\n        /* \"#utility.yul\":2271:2290   */\n      swap1\n      pop\n        /* \"#utility.yul\":1930:2296   */\n      swap2\n      swap1\n      pop\n      jump\t// out\n        /* \"#utility.yul\":2302:2721   */\n    tag_20:\n        /* \"#utility.yul\":2468:2472   */\n      0x00\n        /* \"#utility.yul\":2506:2508   */\n      0x20\n        /* \"#utility.yul\":2495:2504   */\n      dup3\n        /* \"#utility.yul\":2491:2509   */\n      add\n        /* \"#utility.yul\":2483:2509   */\n      swap1\n      pop\n        /* \"#utility.yul\":2555:2564   */\n      dup2\n        /* \"#utility.yul\":2549:2553   */\n      dup2\n        /* \"#utility.yul\":2545:2565   */\n      sub\n        /* \"#utility.yul\":2541:2542   */\n      0x00\n        /* \"#utility.yul\":2530:2539   */\n      dup4\n        /* \"#utility.yul\":2526:2543   */\n      add\n        /* \"#utility.yul\":2519:2566   */\n      mstore\n        /* \"#utility.yul\":2583:2714   */\n      tag_68\n        /* \"#utility.yul\":2709:2713   */\n      dup2\n        /* \"#utility.yul\":2583:2714   */\n      tag_40\n      jump\t// in\n    tag_68:\n        /* \"#utility.yul\":2575:2714   */\n      swap1\n      pop\n        /* \"#utility.yul\":2302:2721   */\n      swap2\n      swap1\n      pop\n      jump\t// out\n        /* \"#utility.yul\":2727:2874   */\n    tag_41:\n        /* \"#utility.yul\":2828:2839   */\n      0x00\n        /* \"#utility.yul\":2865:2868   */\n      dup2\n        /* \"#utility.yul\":2850:2868   */\n      swap1\n      pop\n        /* \"#utility.yul\":2727:2874   */\n      swap3\n      swap2\n      pop\n      pop\n      jump\t// out\n        /* \"#utility.yul\":2880:2994   */\n    tag_42:\n      pop\n      jump\t// out\n        /* \"#utility.yul\":3000:3398   */\n    tag_43:\n        /* \"#utility.yul\":3159:3162   */\n      0x00\n        /* \"#utility.yul\":3180:3263   */\n      tag_72\n        /* \"#utility.yul\":3261:3262   */\n      0x00\n        /* \"#utility.yul\":3256:3259   */\n      dup4\n        /* \"#utility.yul\":3180:3263   */\n      tag_41\n      jump\t// in\n    tag_72:\n        /* \"#utility.yul\":3173:3263   */\n      swap2\n      pop\n        /* \"#utility.yul\":3272:3365   */\n      tag_73\n        /* \"#utility.yul\":3361:3364   */\n      dup3\n        /* \"#utility.yul\":3272:3365   */\n      tag_42\n      jump\t// in\n    tag_73:\n        /* \"#utility.yul\":3390:3391   */\n      0x00\n        /* \"#utility.yul\":3385:3388   */\n      dup3\n        /* \"#utility.yul\":3381:3392   */\n      add\n        /* \"#utility.yul\":3374:3392   */\n      swap1\n      pop\n        /* \"#utility.yul\":3000:3398   */\n      swap2\n      swap1\n      pop\n      jump\t// out\n        /* \"#utility.yul\":3404:3783   */\n    tag_22:\n        /* \"#utility.yul\":3588:3591   */\n      0x00\n        /* \"#utility.yul\":3610:3757   */\n      tag_75\n        /* \"#utility.yul\":3753:3756   */\n      dup3\n        /* \"#utility.yul\":3610:3757   */\n      tag_43\n      jump\t// in\n    tag_75:\n        /* \"#utility.yul\":3603:3757   */\n      swap2\n      pop\n        /* \"#utility.yul\":3774:3777   */\n      dup2\n        /* \"#utility.yul\":3767:3777   */\n      swap1\n      pop\n        /* \"#utility.yul\":3404:3783   */\n      swap2\n      swap1\n      pop\n      jump\t// out\n        /* \"#utility.yul\":3789:3955   */\n    tag_44:\n        /* \"#utility.yul\":3929:3947   */\n      0x5472616e73666572206661696c65642e00000000000000000000000000000000\n        /* \"#utility.yul\":3925:3926   */\n      0x00\n        /* \"#utility.yul\":3917:3923   */\n      dup3\n        /* \"#utility.yul\":3913:3927   */\n      add\n        /* \"#utility.yul\":3906:3948   */\n      mstore\n        /* \"#utility.yul\":3789:3955   */\n      pop\n      jump\t// out\n        /* \"#utility.yul\":3961:4327   */\n    tag_45:\n        /* \"#utility.yul\":4103:4106   */\n      0x00\n        /* \"#utility.yul\":4124:4191   */\n      tag_78\n        /* \"#utility.yul\":4188:4190   */\n      0x10\n        /* \"#utility.yul\":4183:4186   */\n      dup4\n        /* \"#utility.yul\":4124:4191   */\n      tag_36\n      jump\t// in\n    tag_78:\n        /* \"#utility.yul\":4117:4191   */\n      swap2\n      pop\n        /* \"#utility.yul\":4200:4293   */\n      tag_79\n        /* \"#utility.yul\":4289:4292   */\n      dup3\n        /* \"#utility.yul\":4200:4293   */\n      tag_44\n      jump\t// in\n    tag_79:\n        /* \"#utility.yul\":4318:4320   */\n      0x20\n        /* \"#utility.yul\":4313:4316   */\n      dup3\n        /* \"#utility.yul\":4309:4321   */\n      add\n        /* \"#utility.yul\":4302:4321   */\n      swap1\n      pop\n        /* \"#utility.yul\":3961:4327   */\n      swap2\n      swap1\n      pop\n      jump\t// out\n        /* \"#utility.yul\":4333:4752   */\n    tag_28:\n        /* \"#utility.yul\":4499:4503   */\n      0x00\n        /* \"#utility.yul\":4537:4539   */\n      0x20\n        /* \"#utility.yul\":4526:4535   */\n      dup3\n        /* \"#utility.yul\":4522:4540   */\n      add\n        /* \"#utility.yul\":4514:4540   */\n      swap1\n      pop\n        /* \"#utility.yul\":4586:4595   */\n      dup2\n        /* \"#utility.yul\":4580:4584   */\n      dup2\n        /* \"#utility.yul\":4576:4596   */\n      sub\n        /* \"#utility.yul\":4572:4573   */\n      0x00\n        /* \"#utility.yul\":4561:4570   */\n      dup4\n        /* \"#utility.yul\":4557:4574   */\n      add\n        /* \"#utility.yul\":4550:4597   */\n      mstore\n        /* \"#utility.yul\":4614:4745   */\n      tag_81\n        /* \"#utility.yul\":4740:4744   */\n      dup2\n        /* \"#utility.yul\":4614:4745   */\n      tag_45\n      jump\t// in\n    tag_81:\n        /* \"#utility.yul\":4606:4745   */\n      swap1\n      pop\n        /* \"#utility.yul\":4333:4752   */\n      swap2\n      swap1\n      pop\n      jump\t// out\n        /* \"#utility.yul\":4758:4982   */\n    tag_46:\n        /* \"#utility.yul\":4898:4932   */\n      0x446f6e6174696f6e206e6565647320746f206265206120706f73697469766520\n        /* \"#utility.yul\":4894:4895   */\n      0x00\n        /* \"#utility.yul\":4886:4892   */\n      dup3\n        /* \"#utility.yul\":4882:4896   */\n      add\n        /* \"#utility.yul\":4875:4933   */\n      mstore\n        /* \"#utility.yul\":4967:4974   */\n      0x76616c7565000000000000000000000000000000000000000000000000000000\n        /* \"#utility.yul\":4962:4964   */\n      0x20\n        /* \"#utility.yul\":4954:4960   */\n      dup3\n        /* \"#utility.yul\":4950:4965   */\n      add\n        /* \"#utility.yul\":4943:4975   */\n      mstore\n        /* \"#utility.yul\":4758:4982   */\n      pop\n      jump\t// out\n        /* \"#utility.yul\":4988:5354   */\n    tag_47:\n        /* \"#utility.yul\":5130:5133   */\n      0x00\n        /* \"#utility.yul\":5151:5218   */\n      tag_84\n        /* \"#utility.yul\":5215:5217   */\n      0x25\n        /* \"#utility.yul\":5210:5213   */\n      dup4\n        /* \"#utility.yul\":5151:5218   */\n      tag_36\n      jump\t// in\n    tag_84:\n        /* \"#utility.yul\":5144:5218   */\n      swap2\n      pop\n        /* \"#utility.yul\":5227:5320   */\n      tag_85\n        /* \"#utility.yul\":5316:5319   */\n      dup3\n        /* \"#utility.yul\":5227:5320   */\n      tag_46\n      jump\t// in\n    tag_85:\n        /* \"#utility.yul\":5345:5347   */\n      0x40\n        /* \"#utility.yul\":5340:5343   */\n      dup3\n        /* \"#utility.yul\":5336:5348   */\n      add\n        /* \"#utility.yul\":5329:5348   */\n      swap1\n      pop\n        /* \"#utility.yul\":4988:5354   */\n      swap2\n      swap1\n      pop\n      jump\t// out\n        /* \"#utility.yul\":5360:5779   */\n    tag_32:\n        /* \"#utility.yul\":5526:5530   */\n      0x00\n        /* \"#utility.yul\":5564:5566   */\n      0x20\n        /* \"#utility.yul\":5553:5562   */\n      dup3\n        /* \"#utility.yul\":5549:5567   */\n      add\n        /* \"#utility.yul\":5541:5567   */\n      swap1\n      pop\n        /* \"#utility.yul\":5613:5622   */\n      dup2\n        /* \"#utility.yul\":5607:5611   */\n      dup2\n        /* \"#utility.yul\":5603:5623   */\n      sub\n        /* \"#utility.yul\":5599:5600   */\n      0x00\n        /* \"#utility.yul\":5588:5597   */\n      dup4\n        /* \"#utility.yul\":5584:5601   */\n      add\n        /* \"#utility.yul\":5577:5624   */\n      mstore\n        /* \"#utility.yul\":5641:5772   */\n      tag_87\n        /* \"#utility.yul\":5767:5771   */\n      dup2\n        /* \"#utility.yul\":5641:5772   */\n      tag_47\n      jump\t// in\n    tag_87:\n        /* \"#utility.yul\":5633:5772   */\n      swap1\n      pop\n        /* \"#utility.yul\":5360:5779   */\n      swap2\n      swap1\n      pop\n      jump\t// out\n\n    auxdata: 0xa26469706673582212208ad846bd178e4e343d8e1480e062133791c168bb0c1cd5a24c3ee2e749168d1264736f6c634300081a0033\n}\n",
				"bytecode": {
					"linkReferences": {},
					"object": "6080604052348015600e575f80fd5b50335f806101000a81548173ffffffffffffffffffffffffffffffffffffffff021916908373ffffffffffffffffffffffffffffffffffffffff1602179055506105008061005b5f395ff3fe608060405260043610610033575f3560e01c80633ccfd60b146100375780638da5cb5b14610041578063ed88c68e1461006b575b5f80fd5b61003f610075565b005b34801561004c575f80fd5b506100556101f4565b604051610062919061029a565b60405180910390f35b610073610217565b005b5f8054906101000a900473ffffffffffffffffffffffffffffffffffffffff1673ffffffffffffffffffffffffffffffffffffffff163373ffffffffffffffffffffffffffffffffffffffff1614610102576040517f08c379a00000000000000000000000000000000000000000000000000000000081526004016100f99061030d565b60405180910390fd5b5f4790505f8111610148576040517f08c379a000000000000000000000000000000000000000000000000000000000815260040161013f90610375565b60405180910390fd5b5f3373ffffffffffffffffffffffffffffffffffffffff168260405161016d906103c0565b5f6040518083038185875af1925050503d805f81146101a7576040519150601f19603f3d011682016040523d82523d5f602084013e6101ac565b606091505b50509050806101f0576040517f08c379a00000000000000000000000000000000000000000000000000000000081526004016101e79061041e565b60405180910390fd5b5050565b5f8054906101000a900473ffffffffffffffffffffffffffffffffffffffff1681565b5f3411610259576040517f08c379a0000000000000000000000000000000000000000000000000000000008152600401610250906104ac565b60405180910390fd5b565b5f73ffffffffffffffffffffffffffffffffffffffff82169050919050565b5f6102848261025b565b9050919050565b6102948161027a565b82525050565b5f6020820190506102ad5f83018461028b565b92915050565b5f82825260208201905092915050565b7f4f6e6c7920746865206f776e65722063616e20776974686472617721000000005f82015250565b5f6102f7601c836102b3565b9150610302826102c3565b602082019050919050565b5f6020820190508181035f830152610324816102eb565b9050919050565b7f4e6f206574686572206c65667420746f207769746864726177000000000000005f82015250565b5f61035f6019836102b3565b915061036a8261032b565b602082019050919050565b5f6020820190508181035f83015261038c81610353565b9050919050565b5f81905092915050565b50565b5f6103ab5f83610393565b91506103b68261039d565b5f82019050919050565b5f6103ca826103a0565b9150819050919050565b7f5472616e73666572206661696c65642e000000000000000000000000000000005f82015250565b5f6104086010836102b3565b9150610413826103d4565b602082019050919050565b5f6020820190508181035f830152610435816103fc565b9050919050565b7f446f6e6174696f6e206e6565647320746f206265206120706f736974697665205f8201527f76616c7565000000000000000000000000000000000000000000000000000000602082015250565b5f6104966025836102b3565b91506104a18261043c565b604082019050919050565b5f6020820190508181035f8301526104c38161048a565b905091905056fea26469706673582212208ad846bd178e4e343d8e1480e062133791c168bb0c1cd5a24c3ee2e749168d1264736f6c634300081a0033",
					"opcodes": "PUSH1 0x80 PUSH1 0x40 MSTORE CALLVALUE DUP1 ISZERO PUSH1 0xE JUMPI PUSH0 DUP1 REVERT JUMPDEST POP CALLER PUSH0 DUP1 PUSH2 0x100 EXP DUP2 SLOAD DUP2 PUSH20 0xFFFFFFFFFFFFFFFFFFFFFFFFFFFFFFFFFFFFFFFF MUL NOT AND SWAP1 DUP4 PUSH20 0xFFFFFFFFFFFFFFFFFFFFFFFFFFFFFFFFFFFFFFFF AND MUL OR SWAP1 SSTORE POP PUSH2 0x500 DUP1 PUSH2 0x5B PUSH0 CODECOPY PUSH0 RETURN INVALID PUSH1 0x80 PUSH1 0x40 MSTORE PUSH1 0x4 CALLDATASIZE LT PUSH2 0x33 JUMPI PUSH0 CALLDATALOAD PUSH1 0xE0 SHR DUP1 PUSH4 0x3CCFD60B EQ PUSH2 0x37 JUMPI DUP1 PUSH4 0x8DA5CB5B EQ PUSH2 0x41 JUMPI DUP1 PUSH4 0xED88C68E EQ PUSH2 0x6B JUMPI JUMPDEST PUSH0 DUP1 REVERT JUMPDEST PUSH2 0x3F PUSH2 0x75 JUMP JUMPDEST STOP JUMPDEST CALLVALUE DUP1 ISZERO PUSH2 0x4C JUMPI PUSH0 DUP1 REVERT JUMPDEST POP PUSH2 0x55 PUSH2 0x1F4 JUMP JUMPDEST PUSH1 0x40 MLOAD PUSH2 0x62 SWAP2 SWAP1 PUSH2 0x29A JUMP JUMPDEST PUSH1 0x40 MLOAD DUP1 SWAP2 SUB SWAP1 RETURN JUMPDEST PUSH2 0x73 PUSH2 0x217 JUMP JUMPDEST STOP JUMPDEST PUSH0 DUP1 SLOAD SWAP1 PUSH2 0x100 EXP SWAP1 DIV PUSH20 0xFFFFFFFFFFFFFFFFFFFFFFFFFFFFFFFFFFFFFFFF AND PUSH20 0xFFFFFFFFFFFFFFFFFFFFFFFFFFFFFFFFFFFFFFFF AND CALLER PUSH20 0xFFFFFFFFFFFFFFFFFFFFFFFFFFFFFFFFFFFFFFFF AND EQ PUSH2 0x102 JUMPI PUSH1 0x40 MLOAD PUSH32 0x8C379A000000000000000000000000000000000000000000000000000000000 DUP2 MSTORE PUSH1 0x4 ADD PUSH2 0xF9 SWAP1 PUSH2 0x30D JUMP JUMPDEST PUSH1 0x40 MLOAD DUP1 SWAP2 SUB SWAP1 REVERT JUMPDEST PUSH0 SELFBALANCE SWAP1 POP PUSH0 DUP2 GT PUSH2 0x148 JUMPI PUSH1 0x40 MLOAD PUSH32 0x8C379A000000000000000000000000000000000000000000000000000000000 DUP2 MSTORE PUSH1 0x4 ADD PUSH2 0x13F SWAP1 PUSH2 0x375 JUMP JUMPDEST PUSH1 0x40 MLOAD DUP1 SWAP2 SUB SWAP1 REVERT JUMPDEST PUSH0 CALLER PUSH20 0xFFFFFFFFFFFFFFFFFFFFFFFFFFFFFFFFFFFFFFFF AND DUP3 PUSH1 0x40 MLOAD PUSH2 0x16D SWAP1 PUSH2 0x3C0 JUMP JUMPDEST PUSH0 PUSH1 0x40 MLOAD DUP1 DUP4 SUB DUP2 DUP6 DUP8 GAS CALL SWAP3 POP POP POP RETURNDATASIZE DUP1 PUSH0 DUP2 EQ PUSH2 0x1A7 JUMPI PUSH1 0x40 MLOAD SWAP2 POP PUSH1 0x1F NOT PUSH1 0x3F RETURNDATASIZE ADD AND DUP3 ADD PUSH1 0x40 MSTORE RETURNDATASIZE DUP3 MSTORE RETURNDATASIZE PUSH0 PUSH1 0x20 DUP5 ADD RETURNDATACOPY PUSH2 0x1AC JUMP JUMPDEST PUSH1 0x60 SWAP2 POP JUMPDEST POP POP SWAP1 POP DUP1 PUSH2 0x1F0 JUMPI PUSH1 0x40 MLOAD PUSH32 0x8C379A000000000000000000000000000000000000000000000000000000000 DUP2 MSTORE PUSH1 0x4 ADD PUSH2 0x1E7 SWAP1 PUSH2 0x41E JUMP JUMPDEST PUSH1 0x40 MLOAD DUP1 SWAP2 SUB SWAP1 REVERT JUMPDEST POP POP JUMP JUMPDEST PUSH0 DUP1 SLOAD SWAP1 PUSH2 0x100 EXP SWAP1 DIV PUSH20 0xFFFFFFFFFFFFFFFFFFFFFFFFFFFFFFFFFFFFFFFF AND DUP2 JUMP JUMPDEST PUSH0 CALLVALUE GT PUSH2 0x259 JUMPI PUSH1 0x40 MLOAD PUSH32 0x8C379A000000000000000000000000000000000000000000000000000000000 DUP2 MSTORE PUSH1 0x4 ADD PUSH2 0x250 SWAP1 PUSH2 0x4AC JUMP JUMPDEST PUSH1 0x40 MLOAD DUP1 SWAP2 SUB SWAP1 REVERT JUMPDEST JUMP JUMPDEST PUSH0 PUSH20 0xFFFFFFFFFFFFFFFFFFFFFFFFFFFFFFFFFFFFFFFF DUP3 AND SWAP1 POP SWAP2 SWAP1 POP JUMP JUMPDEST PUSH0 PUSH2 0x284 DUP3 PUSH2 0x25B JUMP JUMPDEST SWAP1 POP SWAP2 SWAP1 POP JUMP JUMPDEST PUSH2 0x294 DUP2 PUSH2 0x27A JUMP JUMPDEST DUP3 MSTORE POP POP JUMP JUMPDEST PUSH0 PUSH1 0x20 DUP3 ADD SWAP1 POP PUSH2 0x2AD PUSH0 DUP4 ADD DUP5 PUSH2 0x28B JUMP JUMPDEST SWAP3 SWAP2 POP POP JUMP JUMPDEST PUSH0 DUP3 DUP3 MSTORE PUSH1 0x20 DUP3 ADD SWAP1 POP SWAP3 SWAP2 POP POP JUMP JUMPDEST PUSH32 0x4F6E6C7920746865206F776E65722063616E2077697468647261772100000000 PUSH0 DUP3 ADD MSTORE POP JUMP JUMPDEST PUSH0 PUSH2 0x2F7 PUSH1 0x1C DUP4 PUSH2 0x2B3 JUMP JUMPDEST SWAP2 POP PUSH2 0x302 DUP3 PUSH2 0x2C3 JUMP JUMPDEST PUSH1 0x20 DUP3 ADD SWAP1 POP SWAP2 SWAP1 POP JUMP JUMPDEST PUSH0 PUSH1 0x20 DUP3 ADD SWAP1 POP DUP2 DUP2 SUB PUSH0 DUP4 ADD MSTORE PUSH2 0x324 DUP2 PUSH2 0x2EB JUMP JUMPDEST SWAP1 POP SWAP2 SWAP1 POP JUMP JUMPDEST PUSH32 0x4E6F206574686572206C65667420746F20776974686472617700000000000000 PUSH0 DUP3 ADD MSTORE POP JUMP JUMPDEST PUSH0 PUSH2 0x35F PUSH1 0x19 DUP4 PUSH2 0x2B3 JUMP JUMPDEST SWAP2 POP PUSH2 0x36A DUP3 PUSH2 0x32B JUMP JUMPDEST PUSH1 0x20 DUP3 ADD SWAP1 POP SWAP2 SWAP1 POP JUMP JUMPDEST PUSH0 PUSH1 0x20 DUP3 ADD SWAP1 POP DUP2 DUP2 SUB PUSH0 DUP4 ADD MSTORE PUSH2 0x38C DUP2 PUSH2 0x353 JUMP JUMPDEST SWAP1 POP SWAP2 SWAP1 POP JUMP JUMPDEST PUSH0 DUP2 SWAP1 POP SWAP3 SWAP2 POP POP JUMP JUMPDEST POP JUMP JUMPDEST PUSH0 PUSH2 0x3AB PUSH0 DUP4 PUSH2 0x393 JUMP JUMPDEST SWAP2 POP PUSH2 0x3B6 DUP3 PUSH2 0x39D JUMP JUMPDEST PUSH0 DUP3 ADD SWAP1 POP SWAP2 SWAP1 POP JUMP JUMPDEST PUSH0 PUSH2 0x3CA DUP3 PUSH2 0x3A0 JUMP JUMPDEST SWAP2 POP DUP2 SWAP1 POP SWAP2 SWAP1 POP JUMP JUMPDEST PUSH32 0x5472616E73666572206661696C65642E00000000000000000000000000000000 PUSH0 DUP3 ADD MSTORE POP JUMP JUMPDEST PUSH0 PUSH2 0x408 PUSH1 0x10 DUP4 PUSH2 0x2B3 JUMP JUMPDEST SWAP2 POP PUSH2 0x413 DUP3 PUSH2 0x3D4 JUMP JUMPDEST PUSH1 0x20 DUP3 ADD SWAP1 POP SWAP2 SWAP1 POP JUMP JUMPDEST PUSH0 PUSH1 0x20 DUP3 ADD SWAP1 POP DUP2 DUP2 SUB PUSH0 DUP4 ADD MSTORE PUSH2 0x435 DUP2 PUSH2 0x3FC JUMP JUMPDEST SWAP1 POP SWAP2 SWAP1 POP JUMP JUMPDEST PUSH32 0x446F6E6174696F6E206E6565647320746F206265206120706F73697469766520 PUSH0 DUP3 ADD MSTORE PUSH32 0x76616C7565000000000000000000000000000000000000000000000000000000 PUSH1 0x20 DUP3 ADD MSTORE POP JUMP JUMPDEST PUSH0 PUSH2 0x496 PUSH1 0x25 DUP4 PUSH2 0x2B3 JUMP JUMPDEST SWAP2 POP PUSH2 0x4A1 DUP3 PUSH2 0x43C JUMP JUMPDEST PUSH1 0x40 DUP3 ADD SWAP1 POP SWAP2 SWAP1 POP JUMP JUMPDEST PUSH0 PUSH1 0x20 DUP3 ADD SWAP1 POP DUP2 DUP2 SUB PUSH0 DUP4 ADD MSTORE PUSH2 0x4C3 DUP2 PUSH2 0x48A JUMP JUMPDEST SWAP1 POP SWAP2 SWAP1 POP JUMP INVALID LOG2 PUSH5 0x6970667358 0x22 SLT KECCAK256 DUP11 0xD8 CHAINID 0xBD OR DUP15 0x4E CALLVALUE RETURNDATASIZE DUP15 EQ DUP1 0xE0 PUSH3 0x133791 0xC1 PUSH9 0xBB0C1CD5A24C3EE2E7 BLOBHASH AND DUP14 SLT PUSH5 0x736F6C6343 STOP ADDMOD BYTE STOP CALLER "
				},
				"gasEstimates": {
					"creation": {
						"codeDepositCost": "256000",
						"executionCost": "24557",
						"totalCost": "280557"
					},
					"external": {
						"donate()": "464",
						"owner()": "2505",
						"withdraw()": "infinite"
					}
				},
				"methodIdentifiers": {
					"donate()": "ed88c68e",
					"owner()": "8da5cb5b",
					"withdraw()": "3ccfd60b"
				}
			},
			"storageLayout": {
				"storage": [
					{
						"astId": 3,
						"contract": "contracts/Donations.sol:Donations",
						"label": "owner",
						"offset": 0,
						"slot": "0",
						"type": "t_address"
					}
				],
				"types": {
					"t_address": {
						"encoding": "inplace",
						"label": "address",
						"numberOfBytes": "20"
					}
				}
			},
			"userdoc": {
				"kind": "user",
				"methods": {},
				"version": 1
			}
		}
	}
}