{
	"contracts/StableSwapAMM.sol": {
		"StableSwapAMM": {
			"abi": [
				{
					"inputs": [
						{
							"internalType": "uint256",
							"name": "_A",
							"type": "uint256"
						}
					],
					"stateMutability": "nonpayable",
					"type": "constructor"
				},
				{
					"inputs": [],
					"name": "A",
					"outputs": [
						{
							"internalType": "uint256",
							"name": "",
							"type": "uint256"
						}
					],
					"stateMutability": "view",
					"type": "function"
				},
				{
					"inputs": [],
					"name": "D",
					"outputs": [
						{
							"internalType": "uint256",
							"name": "",
							"type": "uint256"
						}
					],
					"stateMutability": "view",
					"type": "function"
				},
				{
					"inputs": [
						{
							"internalType": "uint256[]",
							"name": "amounts",
							"type": "uint256[]"
						}
					],
					"name": "calculateInvariant",
					"outputs": [
						{
							"internalType": "uint256",
							"name": "",
							"type": "uint256"
						}
					],
					"stateMutability": "view",
					"type": "function"
				},
				{
					"inputs": [
						{
							"internalType": "address",
							"name": "token",
							"type": "address"
						},
						{
							"internalType": "uint256",
							"name": "amount",
							"type": "uint256"
						}
					],
					"name": "deposit",
					"outputs": [],
					"stateMutability": "nonpayable",
					"type": "function"
				},
				{
					"inputs": [
						{
							"internalType": "address",
							"name": "fromToken",
							"type": "address"
						},
						{
							"internalType": "address",
							"name": "toToken",
							"type": "address"
						},
						{
							"internalType": "uint256",
							"name": "amount",
							"type": "uint256"
						}
					],
					"name": "swap",
					"outputs": [],
					"stateMutability": "nonpayable",
					"type": "function"
				},
				{
					"inputs": [
						{
							"internalType": "address",
							"name": "",
							"type": "address"
						}
					],
					"name": "tokenBalances",
					"outputs": [
						{
							"internalType": "uint256",
							"name": "",
							"type": "uint256"
						}
					],
					"stateMutability": "view",
					"type": "function"
				},
				{
					"inputs": [
						{
							"internalType": "address",
							"name": "token",
							"type": "address"
						},
						{
							"internalType": "uint256",
							"name": "amount",
							"type": "uint256"
						}
					],
					"name": "withdraw",
					"outputs": [],
					"stateMutability": "nonpayable",
					"type": "function"
				}
			],
			"devdoc": {
				"kind": "dev",
				"methods": {},
				"version": 1
			},
			"evm": {
				"assembly": "    /* \"contracts/StableSwapAMM.sol\":115:1609  contract StableSwapAMM {... */\n  mstore(0x40, 0x80)\n    /* \"contracts/StableSwapAMM.sol\":243:305  constructor(uint256 _A) {... */\n  callvalue\n  dup1\n  iszero\n  tag_1\n  jumpi\n  0x00\n  dup1\n  revert\ntag_1:\n  pop\n  mload(0x40)\n  sub(codesize, bytecodeSize)\n  dup1\n  bytecodeSize\n  dup4\n  codecopy\n  dup2\n  dup2\n  add\n  0x40\n  mstore\n  dup2\n  add\n  swap1\n  tag_2\n  swap2\n  swap1\n  tag_3\n  jump\t// in\ntag_2:\n    /* \"contracts/StableSwapAMM.sol\":281:283  _A */\n  dup1\n    /* \"contracts/StableSwapAMM.sol\":277:278  A */\n  0x00\n    /* \"contracts/StableSwapAMM.sol\":277:283  A = _A */\n  dup2\n  swap1\n  sstore\n  pop\n    /* \"contracts/StableSwapAMM.sol\":297:298  0 */\n  0x00\n    /* \"contracts/StableSwapAMM.sol\":293:294  D */\n  0x01\n    /* \"contracts/StableSwapAMM.sol\":293:298  D = 0 */\n  dup2\n  swap1\n  sstore\n  pop\n    /* \"contracts/StableSwapAMM.sol\":243:305  constructor(uint256 _A) {... */\n  pop\n    /* \"contracts/StableSwapAMM.sol\":115:1609  contract StableSwapAMM {... */\n  jump(tag_6)\n    /* \"#utility.yul\":88:205   */\ntag_8:\n    /* \"#utility.yul\":197:198   */\n  0x00\n    /* \"#utility.yul\":194:195   */\n  dup1\n    /* \"#utility.yul\":187:199   */\n  revert\n    /* \"#utility.yul\":334:411   */\ntag_10:\n    /* \"#utility.yul\":371:378   */\n  0x00\n    /* \"#utility.yul\":400:405   */\n  dup2\n    /* \"#utility.yul\":389:405   */\n  swap1\n  pop\n    /* \"#utility.yul\":334:411   */\n  swap2\n  swap1\n  pop\n  jump\t// out\n    /* \"#utility.yul\":417:539   */\ntag_11:\n    /* \"#utility.yul\":490:514   */\n  tag_19\n    /* \"#utility.yul\":508:513   */\n  dup2\n    /* \"#utility.yul\":490:514   */\n  tag_10\n  jump\t// in\ntag_19:\n    /* \"#utility.yul\":483:488   */\n  dup2\n    /* \"#utility.yul\":480:515   */\n  eq\n    /* \"#utility.yul\":470:533   */\n  tag_20\n  jumpi\n    /* \"#utility.yul\":529:530   */\n  0x00\n    /* \"#utility.yul\":526:527   */\n  dup1\n    /* \"#utility.yul\":519:531   */\n  revert\n    /* \"#utility.yul\":470:533   */\ntag_20:\n    /* \"#utility.yul\":417:539   */\n  pop\n  jump\t// out\n    /* \"#utility.yul\":545:688   */\ntag_12:\n    /* \"#utility.yul\":602:607   */\n  0x00\n    /* \"#utility.yul\":633:639   */\n  dup2\n    /* \"#utility.yul\":627:640   */\n  mload\n    /* \"#utility.yul\":618:640   */\n  swap1\n  pop\n    /* \"#utility.yul\":649:682   */\n  tag_22\n    /* \"#utility.yul\":676:681   */\n  dup2\n    /* \"#utility.yul\":649:682   */\n  tag_11\n  jump\t// in\ntag_22:\n    /* \"#utility.yul\":545:688   */\n  swap3\n  swap2\n  pop\n  pop\n  jump\t// out\n    /* \"#utility.yul\":694:1045   */\ntag_3:\n    /* \"#utility.yul\":764:770   */\n  0x00\n    /* \"#utility.yul\":813:815   */\n  0x20\n    /* \"#utility.yul\":801:810   */\n  dup3\n    /* \"#utility.yul\":792:799   */\n  dup5\n    /* \"#utility.yul\":788:811   */\n  sub\n    /* \"#utility.yul\":784:816   */\n  slt\n    /* \"#utility.yul\":781:900   */\n  iszero\n  tag_24\n  jumpi\n    /* \"#utility.yul\":819:898   */\n  tag_25\n  tag_8\n  jump\t// in\ntag_25:\n    /* \"#utility.yul\":781:900   */\ntag_24:\n    /* \"#utility.yul\":939:940   */\n  0x00\n    /* \"#utility.yul\":964:1028   */\n  tag_26\n    /* \"#utility.yul\":1020:1027   */\n  dup5\n    /* \"#utility.yul\":1011:1017   */\n  dup3\n    /* \"#utility.yul\":1000:1009   */\n  dup6\n    /* \"#utility.yul\":996:1018   */\n  add\n    /* \"#utility.yul\":964:1028   */\n  tag_12\n  jump\t// in\ntag_26:\n    /* \"#utility.yul\":954:1028   */\n  swap2\n  pop\n    /* \"#utility.yul\":910:1038   */\n  pop\n    /* \"#utility.yul\":694:1045   */\n  swap3\n  swap2\n  pop\n  pop\n  jump\t// out\n    /* \"contracts/StableSwapAMM.sol\":115:1609  contract StableSwapAMM {... */\ntag_6:\n  dataSize(sub_0)\n  dup1\n  dataOffset(sub_0)\n  0x00\n  codecopy\n  0x00\n  return\nstop\n\nsub_0: assembly {\n        /* \"contracts/StableSwapAMM.sol\":115:1609  contract StableSwapAMM {... */\n      mstore(0x40, 0x80)\n      callvalue\n      dup1\n      iszero\n      tag_1\n      jumpi\n      0x00\n      dup1\n      revert\n    tag_1:\n      pop\n      jumpi(tag_2, lt(calldatasize, 0x04))\n      shr(0xe0, calldataload(0x00))\n      dup1\n      0x5cd1d31d\n      gt\n      tag_10\n      jumpi\n      dup1\n      0x5cd1d31d\n      eq\n      tag_6\n      jumpi\n      dup1\n      0xdf791e50\n      eq\n      tag_7\n      jumpi\n      dup1\n      0xf3fef3a3\n      eq\n      tag_8\n      jumpi\n      dup1\n      0xf446c1d0\n      eq\n      tag_9\n      jumpi\n      jump(tag_2)\n    tag_10:\n      dup1\n      0x0f529ba2\n      eq\n      tag_3\n      jumpi\n      dup1\n      0x47e7ef24\n      eq\n      tag_4\n      jumpi\n      dup1\n      0x523fba7f\n      eq\n      tag_5\n      jumpi\n    tag_2:\n      0x00\n      dup1\n      revert\n        /* \"contracts/StableSwapAMM.sol\":166:182  uint256 public D */\n    tag_3:\n      tag_11\n      tag_12\n      jump\t// in\n    tag_11:\n      mload(0x40)\n      tag_13\n      swap2\n      swap1\n      tag_14\n      jump\t// in\n    tag_13:\n      mload(0x40)\n      dup1\n      swap2\n      sub\n      swap1\n      return\n        /* \"contracts/StableSwapAMM.sol\":311:527  function deposit(address token, uint256 amount) external {... */\n    tag_4:\n      tag_15\n      0x04\n      dup1\n      calldatasize\n      sub\n      dup2\n      add\n      swap1\n      tag_16\n      swap2\n      swap1\n      tag_17\n      jump\t// in\n    tag_16:\n      tag_18\n      jump\t// in\n    tag_15:\n      stop\n        /* \"contracts/StableSwapAMM.sol\":188:236  mapping(address => uint256) public tokenBalances */\n    tag_5:\n      tag_19\n      0x04\n      dup1\n      calldatasize\n      sub\n      dup2\n      add\n      swap1\n      tag_20\n      swap2\n      swap1\n      tag_21\n      jump\t// in\n    tag_20:\n      tag_22\n      jump\t// in\n    tag_19:\n      mload(0x40)\n      tag_23\n      swap2\n      swap1\n      tag_14\n      jump\t// in\n    tag_23:\n      mload(0x40)\n      dup1\n      swap2\n      sub\n      swap1\n      return\n        /* \"contracts/StableSwapAMM.sol\":764:1132  function calculateInvariant(uint256[] memory amounts) public view returns (uint256) {... */\n    tag_6:\n      tag_24\n      0x04\n      dup1\n      calldatasize\n      sub\n      dup2\n      add\n      swap1\n      tag_25\n      swap2\n      swap1\n      tag_26\n      jump\t// in\n    tag_25:\n      tag_27\n      jump\t// in\n    tag_24:\n      mload(0x40)\n      tag_28\n      swap2\n      swap1\n      tag_14\n      jump\t// in\n    tag_28:\n      mload(0x40)\n      dup1\n      swap2\n      sub\n      swap1\n      return\n        /* \"contracts/StableSwapAMM.sol\":1138:1445  function swap(address fromToken, address toToken, uint256 amount) external {... */\n    tag_7:\n      tag_29\n      0x04\n      dup1\n      calldatasize\n      sub\n      dup2\n      add\n      swap1\n      tag_30\n      swap2\n      swap1\n      tag_31\n      jump\t// in\n    tag_30:\n      tag_32\n      jump\t// in\n    tag_29:\n      stop\n        /* \"contracts/StableSwapAMM.sol\":533:758  function withdraw(address token, uint256 amount) external {... */\n    tag_8:\n      tag_33\n      0x04\n      dup1\n      calldatasize\n      sub\n      dup2\n      add\n      swap1\n      tag_34\n      swap2\n      swap1\n      tag_17\n      jump\t// in\n    tag_34:\n      tag_35\n      jump\t// in\n    tag_33:\n      stop\n        /* \"contracts/StableSwapAMM.sol\":144:160  uint256 public A */\n    tag_9:\n      tag_36\n      tag_37\n      jump\t// in\n    tag_36:\n      mload(0x40)\n      tag_38\n      swap2\n      swap1\n      tag_14\n      jump\t// in\n    tag_38:\n      mload(0x40)\n      dup1\n      swap2\n      sub\n      swap1\n      return\n        /* \"contracts/StableSwapAMM.sol\":166:182  uint256 public D */\n    tag_12:\n      sload(0x01)\n      dup2\n      jump\t// out\n        /* \"contracts/StableSwapAMM.sol\":311:527  function deposit(address token, uint256 amount) external {... */\n    tag_18:\n        /* \"contracts/StableSwapAMM.sol\":395:396  0 */\n      0x00\n        /* \"contracts/StableSwapAMM.sol\":386:392  amount */\n      dup2\n        /* \"contracts/StableSwapAMM.sol\":386:396  amount > 0 */\n      gt\n        /* \"contracts/StableSwapAMM.sol\":378:433  require(amount > 0, \"Amount must be greater than zero\") */\n      tag_40\n      jumpi\n      mload(0x40)\n      0x08c379a000000000000000000000000000000000000000000000000000000000\n      dup2\n      mstore\n      0x04\n      add\n      tag_41\n      swap1\n      tag_42\n      jump\t// in\n    tag_41:\n      mload(0x40)\n      dup1\n      swap2\n      sub\n      swap1\n      revert\n    tag_40:\n        /* \"contracts/StableSwapAMM.sol\":467:473  amount */\n      dup1\n        /* \"contracts/StableSwapAMM.sol\":443:456  tokenBalances */\n      0x02\n        /* \"contracts/StableSwapAMM.sol\":443:463  tokenBalances[token] */\n      0x00\n        /* \"contracts/StableSwapAMM.sol\":457:462  token */\n      dup5\n        /* \"contracts/StableSwapAMM.sol\":443:463  tokenBalances[token] */\n      0xffffffffffffffffffffffffffffffffffffffff\n      and\n      0xffffffffffffffffffffffffffffffffffffffff\n      and\n      dup2\n      mstore\n      0x20\n      add\n      swap1\n      dup2\n      mstore\n      0x20\n      add\n      0x00\n      keccak256\n      0x00\n        /* \"contracts/StableSwapAMM.sol\":443:473  tokenBalances[token] += amount */\n      dup3\n      dup3\n      sload\n      tag_43\n      swap2\n      swap1\n      tag_44\n      jump\t// in\n    tag_43:\n      swap3\n      pop\n      pop\n      dup2\n      swap1\n      sstore\n      pop\n        /* \"contracts/StableSwapAMM.sol\":488:494  amount */\n      dup1\n        /* \"contracts/StableSwapAMM.sol\":483:484  D */\n      0x01\n      0x00\n        /* \"contracts/StableSwapAMM.sol\":483:494  D += amount */\n      dup3\n      dup3\n      sload\n      tag_45\n      swap2\n      swap1\n      tag_44\n      jump\t// in\n    tag_45:\n      swap3\n      pop\n      pop\n      dup2\n      swap1\n      sstore\n      pop\n        /* \"contracts/StableSwapAMM.sol\":311:527  function deposit(address token, uint256 amount) external {... */\n      pop\n      pop\n      jump\t// out\n        /* \"contracts/StableSwapAMM.sol\":188:236  mapping(address => uint256) public tokenBalances */\n    tag_22:\n      mstore(0x20, 0x02)\n      dup1\n      0x00\n      mstore\n      keccak256(0x00, 0x40)\n      0x00\n      swap2\n      pop\n      swap1\n      pop\n      sload\n      dup2\n      jump\t// out\n        /* \"contracts/StableSwapAMM.sol\":764:1132  function calculateInvariant(uint256[] memory amounts) public view returns (uint256) {... */\n    tag_27:\n        /* \"contracts/StableSwapAMM.sol\":839:846  uint256 */\n      0x00\n        /* \"contracts/StableSwapAMM.sol\":858:871  uint256 sumXi */\n      dup1\n        /* \"contracts/StableSwapAMM.sol\":874:875  0 */\n      0x00\n        /* \"contracts/StableSwapAMM.sol\":858:875  uint256 sumXi = 0 */\n      swap1\n      pop\n        /* \"contracts/StableSwapAMM.sol\":885:899  uint256 prodXi */\n      0x00\n        /* \"contracts/StableSwapAMM.sol\":902:903  1 */\n      0x01\n        /* \"contracts/StableSwapAMM.sol\":885:903  uint256 prodXi = 1 */\n      swap1\n      pop\n        /* \"contracts/StableSwapAMM.sol\":919:928  uint256 i */\n      0x00\n        /* \"contracts/StableSwapAMM.sol\":914:1037  for (uint256 i = 0; i < amounts.length; i++) {... */\n    tag_47:\n        /* \"contracts/StableSwapAMM.sol\":938:945  amounts */\n      dup5\n        /* \"contracts/StableSwapAMM.sol\":938:952  amounts.length */\n      mload\n        /* \"contracts/StableSwapAMM.sol\":934:935  i */\n      dup2\n        /* \"contracts/StableSwapAMM.sol\":934:952  i < amounts.length */\n      lt\n        /* \"contracts/StableSwapAMM.sol\":914:1037  for (uint256 i = 0; i < amounts.length; i++) {... */\n      iszero\n      tag_48\n      jumpi\n        /* \"contracts/StableSwapAMM.sol\":982:989  amounts */\n      dup5\n        /* \"contracts/StableSwapAMM.sol\":990:991  i */\n      dup2\n        /* \"contracts/StableSwapAMM.sol\":982:992  amounts[i] */\n      dup2\n      mload\n      dup2\n      lt\n      tag_50\n      jumpi\n      tag_51\n      tag_52\n      jump\t// in\n    tag_51:\n    tag_50:\n      0x20\n      mul\n      0x20\n      add\n      add\n      mload\n        /* \"contracts/StableSwapAMM.sol\":973:992  sumXi += amounts[i] */\n      dup4\n      tag_53\n      swap2\n      swap1\n      tag_44\n      jump\t// in\n    tag_53:\n      swap3\n      pop\n        /* \"contracts/StableSwapAMM.sol\":1016:1023  amounts */\n      dup5\n        /* \"contracts/StableSwapAMM.sol\":1024:1025  i */\n      dup2\n        /* \"contracts/StableSwapAMM.sol\":1016:1026  amounts[i] */\n      dup2\n      mload\n      dup2\n      lt\n      tag_54\n      jumpi\n      tag_55\n      tag_52\n      jump\t// in\n    tag_55:\n    tag_54:\n      0x20\n      mul\n      0x20\n      add\n      add\n      mload\n        /* \"contracts/StableSwapAMM.sol\":1006:1026  prodXi *= amounts[i] */\n      dup3\n      tag_56\n      swap2\n      swap1\n      tag_57\n      jump\t// in\n    tag_56:\n      swap2\n      pop\n        /* \"contracts/StableSwapAMM.sol\":954:957  i++ */\n      dup1\n      dup1\n      0x01\n      add\n      swap2\n      pop\n      pop\n        /* \"contracts/StableSwapAMM.sol\":914:1037  for (uint256 i = 0; i < amounts.length; i++) {... */\n      jump(tag_47)\n    tag_48:\n      pop\n        /* \"contracts/StableSwapAMM.sol\":1047:1059  uint256 newD */\n      0x00\n        /* \"contracts/StableSwapAMM.sol\":1097:1103  prodXi */\n      dup2\n        /* \"contracts/StableSwapAMM.sol\":1093:1094  4 */\n      0x04\n        /* \"contracts/StableSwapAMM.sol\":1093:1103  4 * prodXi */\n      tag_58\n      swap2\n      swap1\n      tag_57\n      jump\t// in\n    tag_58:\n        /* \"contracts/StableSwapAMM.sol\":1083:1088  sumXi */\n      dup4\n        /* \"contracts/StableSwapAMM.sol\":1079:1080  A */\n      sload(0x00)\n        /* \"contracts/StableSwapAMM.sol\":1079:1088  A * sumXi */\n      tag_59\n      swap2\n      swap1\n      tag_57\n      jump\t// in\n    tag_59:\n        /* \"contracts/StableSwapAMM.sol\":1071:1076  sumXi */\n      dup5\n        /* \"contracts/StableSwapAMM.sol\":1067:1068  2 */\n      0x02\n        /* \"contracts/StableSwapAMM.sol\":1063:1064  A */\n      sload(0x00)\n        /* \"contracts/StableSwapAMM.sol\":1063:1068  A * 2 */\n      tag_60\n      swap2\n      swap1\n      tag_57\n      jump\t// in\n    tag_60:\n        /* \"contracts/StableSwapAMM.sol\":1063:1076  A * 2 * sumXi */\n      tag_61\n      swap2\n      swap1\n      tag_57\n      jump\t// in\n    tag_61:\n        /* \"contracts/StableSwapAMM.sol\":1063:1088  A * 2 * sumXi + A * sumXi */\n      tag_62\n      swap2\n      swap1\n      tag_44\n      jump\t// in\n    tag_62:\n        /* \"contracts/StableSwapAMM.sol\":1062:1104  (A * 2 * sumXi + A * sumXi) / (4 * prodXi) */\n      tag_63\n      swap2\n      swap1\n      tag_64\n      jump\t// in\n    tag_63:\n        /* \"contracts/StableSwapAMM.sol\":1047:1104  uint256 newD = (A * 2 * sumXi + A * sumXi) / (4 * prodXi) */\n      swap1\n      pop\n        /* \"contracts/StableSwapAMM.sol\":1121:1125  newD */\n      dup1\n        /* \"contracts/StableSwapAMM.sol\":1114:1125  return newD */\n      swap4\n      pop\n      pop\n      pop\n      pop\n        /* \"contracts/StableSwapAMM.sol\":764:1132  function calculateInvariant(uint256[] memory amounts) public view returns (uint256) {... */\n      swap2\n      swap1\n      pop\n      jump\t// out\n        /* \"contracts/StableSwapAMM.sol\":1138:1445  function swap(address fromToken, address toToken, uint256 amount) external {... */\n    tag_32:\n        /* \"contracts/StableSwapAMM.sol\":1240:1241  0 */\n      0x00\n        /* \"contracts/StableSwapAMM.sol\":1231:1237  amount */\n      dup2\n        /* \"contracts/StableSwapAMM.sol\":1231:1241  amount > 0 */\n      gt\n        /* \"contracts/StableSwapAMM.sol\":1223:1278  require(amount > 0, \"Amount must be greater than zero\") */\n      tag_66\n      jumpi\n      mload(0x40)\n      0x08c379a000000000000000000000000000000000000000000000000000000000\n      dup2\n      mstore\n      0x04\n      add\n      tag_67\n      swap1\n      tag_42\n      jump\t// in\n    tag_67:\n      mload(0x40)\n      dup1\n      swap2\n      sub\n      swap1\n      revert\n    tag_66:\n        /* \"contracts/StableSwapAMM.sol\":1288:1307  uint256 priceImpact */\n      0x00\n        /* \"contracts/StableSwapAMM.sol\":1310:1338  calculatePriceImpact(amount) */\n      tag_68\n        /* \"contracts/StableSwapAMM.sol\":1331:1337  amount */\n      dup3\n        /* \"contracts/StableSwapAMM.sol\":1310:1330  calculatePriceImpact */\n      tag_69\n        /* \"contracts/StableSwapAMM.sol\":1310:1338  calculatePriceImpact(amount) */\n      jump\t// in\n    tag_68:\n        /* \"contracts/StableSwapAMM.sol\":1288:1338  uint256 priceImpact = calculatePriceImpact(amount) */\n      swap1\n      pop\n        /* \"contracts/StableSwapAMM.sol\":1385:1391  amount */\n      dup2\n        /* \"contracts/StableSwapAMM.sol\":1357:1370  tokenBalances */\n      0x02\n        /* \"contracts/StableSwapAMM.sol\":1357:1381  tokenBalances[fromToken] */\n      0x00\n        /* \"contracts/StableSwapAMM.sol\":1371:1380  fromToken */\n      dup7\n        /* \"contracts/StableSwapAMM.sol\":1357:1381  tokenBalances[fromToken] */\n      0xffffffffffffffffffffffffffffffffffffffff\n      and\n      0xffffffffffffffffffffffffffffffffffffffff\n      and\n      dup2\n      mstore\n      0x20\n      add\n      swap1\n      dup2\n      mstore\n      0x20\n      add\n      0x00\n      keccak256\n      0x00\n        /* \"contracts/StableSwapAMM.sol\":1357:1391  tokenBalances[fromToken] += amount */\n      dup3\n      dup3\n      sload\n      tag_70\n      swap2\n      swap1\n      tag_44\n      jump\t// in\n    tag_70:\n      swap3\n      pop\n      pop\n      dup2\n      swap1\n      sstore\n      pop\n        /* \"contracts/StableSwapAMM.sol\":1427:1438  priceImpact */\n      dup1\n        /* \"contracts/StableSwapAMM.sol\":1401:1414  tokenBalances */\n      0x02\n        /* \"contracts/StableSwapAMM.sol\":1401:1423  tokenBalances[toToken] */\n      0x00\n        /* \"contracts/StableSwapAMM.sol\":1415:1422  toToken */\n      dup6\n        /* \"contracts/StableSwapAMM.sol\":1401:1423  tokenBalances[toToken] */\n      0xffffffffffffffffffffffffffffffffffffffff\n      and\n      0xffffffffffffffffffffffffffffffffffffffff\n      and\n      dup2\n      mstore\n      0x20\n      add\n      swap1\n      dup2\n      mstore\n      0x20\n      add\n      0x00\n      keccak256\n      0x00\n        /* \"contracts/StableSwapAMM.sol\":1401:1438  tokenBalances[toToken] -= priceImpact */\n      dup3\n      dup3\n      sload\n      tag_71\n      swap2\n      swap1\n      tag_72\n      jump\t// in\n    tag_71:\n      swap3\n      pop\n      pop\n      dup2\n      swap1\n      sstore\n      pop\n        /* \"contracts/StableSwapAMM.sol\":1213:1445  {... */\n      pop\n        /* \"contracts/StableSwapAMM.sol\":1138:1445  function swap(address fromToken, address toToken, uint256 amount) external {... */\n      pop\n      pop\n      pop\n      jump\t// out\n        /* \"contracts/StableSwapAMM.sol\":533:758  function withdraw(address token, uint256 amount) external {... */\n    tag_35:\n        /* \"contracts/StableSwapAMM.sol\":619:632  tokenBalances */\n      0x02\n        /* \"contracts/StableSwapAMM.sol\":619:639  tokenBalances[token] */\n      0x00\n        /* \"contracts/StableSwapAMM.sol\":633:638  token */\n      dup4\n        /* \"contracts/StableSwapAMM.sol\":619:639  tokenBalances[token] */\n      0xffffffffffffffffffffffffffffffffffffffff\n      and\n      0xffffffffffffffffffffffffffffffffffffffff\n      and\n      dup2\n      mstore\n      0x20\n      add\n      swap1\n      dup2\n      mstore\n      0x20\n      add\n      0x00\n      keccak256\n      sload\n        /* \"contracts/StableSwapAMM.sol\":609:615  amount */\n      dup2\n        /* \"contracts/StableSwapAMM.sol\":609:639  amount <= tokenBalances[token] */\n      gt\n      iszero\n        /* \"contracts/StableSwapAMM.sol\":601:664  require(amount <= tokenBalances[token], \"Insufficient balance\") */\n      tag_74\n      jumpi\n      mload(0x40)\n      0x08c379a000000000000000000000000000000000000000000000000000000000\n      dup2\n      mstore\n      0x04\n      add\n      tag_75\n      swap1\n      tag_76\n      jump\t// in\n    tag_75:\n      mload(0x40)\n      dup1\n      swap2\n      sub\n      swap1\n      revert\n    tag_74:\n        /* \"contracts/StableSwapAMM.sol\":698:704  amount */\n      dup1\n        /* \"contracts/StableSwapAMM.sol\":674:687  tokenBalances */\n      0x02\n        /* \"contracts/StableSwapAMM.sol\":674:694  tokenBalances[token] */\n      0x00\n        /* \"contracts/StableSwapAMM.sol\":688:693  token */\n      dup5\n        /* \"contracts/StableSwapAMM.sol\":674:694  tokenBalances[token] */\n      0xffffffffffffffffffffffffffffffffffffffff\n      and\n      0xffffffffffffffffffffffffffffffffffffffff\n      and\n      dup2\n      mstore\n      0x20\n      add\n      swap1\n      dup2\n      mstore\n      0x20\n      add\n      0x00\n      keccak256\n      0x00\n        /* \"contracts/StableSwapAMM.sol\":674:704  tokenBalances[token] -= amount */\n      dup3\n      dup3\n      sload\n      tag_77\n      swap2\n      swap1\n      tag_72\n      jump\t// in\n    tag_77:\n      swap3\n      pop\n      pop\n      dup2\n      swap1\n      sstore\n      pop\n        /* \"contracts/StableSwapAMM.sol\":719:725  amount */\n      dup1\n        /* \"contracts/StableSwapAMM.sol\":714:715  D */\n      0x01\n      0x00\n        /* \"contracts/StableSwapAMM.sol\":714:725  D -= amount */\n      dup3\n      dup3\n      sload\n      tag_78\n      swap2\n      swap1\n      tag_72\n      jump\t// in\n    tag_78:\n      swap3\n      pop\n      pop\n      dup2\n      swap1\n      sstore\n      pop\n        /* \"contracts/StableSwapAMM.sol\":533:758  function withdraw(address token, uint256 amount) external {... */\n      pop\n      pop\n      jump\t// out\n        /* \"contracts/StableSwapAMM.sol\":144:160  uint256 public A */\n    tag_37:\n      sload(0x00)\n      dup2\n      jump\t// out\n        /* \"contracts/StableSwapAMM.sol\":1451:1607  function calculatePriceImpact(uint256 amount) private pure returns (uint256) {... */\n    tag_69:\n        /* \"contracts/StableSwapAMM.sol\":1519:1526  uint256 */\n      0x00\n        /* \"contracts/StableSwapAMM.sol\":1545:1551  amount */\n      dup2\n        /* \"contracts/StableSwapAMM.sol\":1538:1551  return amount */\n      swap1\n      pop\n        /* \"contracts/StableSwapAMM.sol\":1451:1607  function calculatePriceImpact(uint256 amount) private pure returns (uint256) {... */\n      swap2\n      swap1\n      pop\n      jump\t// out\n        /* \"#utility.yul\":7:84   */\n    tag_80:\n        /* \"#utility.yul\":44:51   */\n      0x00\n        /* \"#utility.yul\":73:78   */\n      dup2\n        /* \"#utility.yul\":62:78   */\n      swap1\n      pop\n        /* \"#utility.yul\":7:84   */\n      swap2\n      swap1\n      pop\n      jump\t// out\n        /* \"#utility.yul\":90:208   */\n    tag_81:\n        /* \"#utility.yul\":177:201   */\n      tag_110\n        /* \"#utility.yul\":195:200   */\n      dup2\n        /* \"#utility.yul\":177:201   */\n      tag_80\n      jump\t// in\n    tag_110:\n        /* \"#utility.yul\":172:175   */\n      dup3\n        /* \"#utility.yul\":165:202   */\n      mstore\n        /* \"#utility.yul\":90:208   */\n      pop\n      pop\n      jump\t// out\n        /* \"#utility.yul\":214:436   */\n    tag_14:\n        /* \"#utility.yul\":307:311   */\n      0x00\n        /* \"#utility.yul\":345:347   */\n      0x20\n        /* \"#utility.yul\":334:343   */\n      dup3\n        /* \"#utility.yul\":330:348   */\n      add\n        /* \"#utility.yul\":322:348   */\n      swap1\n      pop\n        /* \"#utility.yul\":358:429   */\n      tag_112\n        /* \"#utility.yul\":426:427   */\n      0x00\n        /* \"#utility.yul\":415:424   */\n      dup4\n        /* \"#utility.yul\":411:428   */\n      add\n        /* \"#utility.yul\":402:408   */\n      dup5\n        /* \"#utility.yul\":358:429   */\n      tag_81\n      jump\t// in\n    tag_112:\n        /* \"#utility.yul\":214:436   */\n      swap3\n      swap2\n      pop\n      pop\n      jump\t// out\n        /* \"#utility.yul\":442:517   */\n    tag_82:\n        /* \"#utility.yul\":475:481   */\n      0x00\n        /* \"#utility.yul\":508:510   */\n      0x40\n        /* \"#utility.yul\":502:511   */\n      mload\n        /* \"#utility.yul\":492:511   */\n      swap1\n      pop\n        /* \"#utility.yul\":442:517   */\n      swap1\n      jump\t// out\n        /* \"#utility.yul\":523:640   */\n    tag_83:\n        /* \"#utility.yul\":632:633   */\n      0x00\n        /* \"#utility.yul\":629:630   */\n      dup1\n        /* \"#utility.yul\":622:634   */\n      revert\n        /* \"#utility.yul\":646:763   */\n    tag_84:\n        /* \"#utility.yul\":755:756   */\n      0x00\n        /* \"#utility.yul\":752:753   */\n      dup1\n        /* \"#utility.yul\":745:757   */\n      revert\n        /* \"#utility.yul\":769:895   */\n    tag_85:\n        /* \"#utility.yul\":806:813   */\n      0x00\n        /* \"#utility.yul\":846:888   */\n      0xffffffffffffffffffffffffffffffffffffffff\n        /* \"#utility.yul\":839:844   */\n      dup3\n        /* \"#utility.yul\":835:889   */\n      and\n        /* \"#utility.yul\":824:889   */\n      swap1\n      pop\n        /* \"#utility.yul\":769:895   */\n      swap2\n      swap1\n      pop\n      jump\t// out\n        /* \"#utility.yul\":901:997   */\n    tag_86:\n        /* \"#utility.yul\":938:945   */\n      0x00\n        /* \"#utility.yul\":967:991   */\n      tag_118\n        /* \"#utility.yul\":985:990   */\n      dup3\n        /* \"#utility.yul\":967:991   */\n      tag_85\n      jump\t// in\n    tag_118:\n        /* \"#utility.yul\":956:991   */\n      swap1\n      pop\n        /* \"#utility.yul\":901:997   */\n      swap2\n      swap1\n      pop\n      jump\t// out\n        /* \"#utility.yul\":1003:1125   */\n    tag_87:\n        /* \"#utility.yul\":1076:1100   */\n      tag_120\n        /* \"#utility.yul\":1094:1099   */\n      dup2\n        /* \"#utility.yul\":1076:1100   */\n      tag_86\n      jump\t// in\n    tag_120:\n        /* \"#utility.yul\":1069:1074   */\n      dup2\n        /* \"#utility.yul\":1066:1101   */\n      eq\n        /* \"#utility.yul\":1056:1119   */\n      tag_121\n      jumpi\n        /* \"#utility.yul\":1115:1116   */\n      0x00\n        /* \"#utility.yul\":1112:1113   */\n      dup1\n        /* \"#utility.yul\":1105:1117   */\n      revert\n        /* \"#utility.yul\":1056:1119   */\n    tag_121:\n        /* \"#utility.yul\":1003:1125   */\n      pop\n      jump\t// out\n        /* \"#utility.yul\":1131:1270   */\n    tag_88:\n        /* \"#utility.yul\":1177:1182   */\n      0x00\n        /* \"#utility.yul\":1215:1221   */\n      dup2\n        /* \"#utility.yul\":1202:1222   */\n      calldataload\n        /* \"#utility.yul\":1193:1222   */\n      swap1\n      pop\n        /* \"#utility.yul\":1231:1264   */\n      tag_123\n        /* \"#utility.yul\":1258:1263   */\n      dup2\n        /* \"#utility.yul\":1231:1264   */\n      tag_87\n      jump\t// in\n    tag_123:\n        /* \"#utility.yul\":1131:1270   */\n      swap3\n      swap2\n      pop\n      pop\n      jump\t// out\n        /* \"#utility.yul\":1276:1398   */\n    tag_89:\n        /* \"#utility.yul\":1349:1373   */\n      tag_125\n        /* \"#utility.yul\":1367:1372   */\n      dup2\n        /* \"#utility.yul\":1349:1373   */\n      tag_80\n      jump\t// in\n    tag_125:\n        /* \"#utility.yul\":1342:1347   */\n      dup2\n        /* \"#utility.yul\":1339:1374   */\n      eq\n        /* \"#utility.yul\":1329:1392   */\n      tag_126\n      jumpi\n        /* \"#utility.yul\":1388:1389   */\n      0x00\n        /* \"#utility.yul\":1385:1386   */\n      dup1\n        /* \"#utility.yul\":1378:1390   */\n      revert\n        /* \"#utility.yul\":1329:1392   */\n    tag_126:\n        /* \"#utility.yul\":1276:1398   */\n      pop\n      jump\t// out\n        /* \"#utility.yul\":1404:1543   */\n    tag_90:\n        /* \"#utility.yul\":1450:1455   */\n      0x00\n        /* \"#utility.yul\":1488:1494   */\n      dup2\n        /* \"#utility.yul\":1475:1495   */\n      calldataload\n        /* \"#utility.yul\":1466:1495   */\n      swap1\n      pop\n        /* \"#utility.yul\":1504:1537   */\n      tag_128\n        /* \"#utility.yul\":1531:1536   */\n      dup2\n        /* \"#utility.yul\":1504:1537   */\n      tag_89\n      jump\t// in\n    tag_128:\n        /* \"#utility.yul\":1404:1543   */\n      swap3\n      swap2\n      pop\n      pop\n      jump\t// out\n        /* \"#utility.yul\":1549:2023   */\n    tag_17:\n        /* \"#utility.yul\":1617:1623   */\n      0x00\n        /* \"#utility.yul\":1625:1631   */\n      dup1\n        /* \"#utility.yul\":1674:1676   */\n      0x40\n        /* \"#utility.yul\":1662:1671   */\n      dup4\n        /* \"#utility.yul\":1653:1660   */\n      dup6\n        /* \"#utility.yul\":1649:1672   */\n      sub\n        /* \"#utility.yul\":1645:1677   */\n      slt\n        /* \"#utility.yul\":1642:1761   */\n      iszero\n      tag_130\n      jumpi\n        /* \"#utility.yul\":1680:1759   */\n      tag_131\n      tag_83\n      jump\t// in\n    tag_131:\n        /* \"#utility.yul\":1642:1761   */\n    tag_130:\n        /* \"#utility.yul\":1800:1801   */\n      0x00\n        /* \"#utility.yul\":1825:1878   */\n      tag_132\n        /* \"#utility.yul\":1870:1877   */\n      dup6\n        /* \"#utility.yul\":1861:1867   */\n      dup3\n        /* \"#utility.yul\":1850:1859   */\n      dup7\n        /* \"#utility.yul\":1846:1868   */\n      add\n        /* \"#utility.yul\":1825:1878   */\n      tag_88\n      jump\t// in\n    tag_132:\n        /* \"#utility.yul\":1815:1878   */\n      swap3\n      pop\n        /* \"#utility.yul\":1771:1888   */\n      pop\n        /* \"#utility.yul\":1927:1929   */\n      0x20\n        /* \"#utility.yul\":1953:2006   */\n      tag_133\n        /* \"#utility.yul\":1998:2005   */\n      dup6\n        /* \"#utility.yul\":1989:1995   */\n      dup3\n        /* \"#utility.yul\":1978:1987   */\n      dup7\n        /* \"#utility.yul\":1974:1996   */\n      add\n        /* \"#utility.yul\":1953:2006   */\n      tag_90\n      jump\t// in\n    tag_133:\n        /* \"#utility.yul\":1943:2006   */\n      swap2\n      pop\n        /* \"#utility.yul\":1898:2016   */\n      pop\n        /* \"#utility.yul\":1549:2023   */\n      swap3\n      pop\n      swap3\n      swap1\n      pop\n      jump\t// out\n        /* \"#utility.yul\":2029:2358   */\n    tag_21:\n        /* \"#utility.yul\":2088:2094   */\n      0x00\n        /* \"#utility.yul\":2137:2139   */\n      0x20\n        /* \"#utility.yul\":2125:2134   */\n      dup3\n        /* \"#utility.yul\":2116:2123   */\n      dup5\n        /* \"#utility.yul\":2112:2135   */\n      sub\n        /* \"#utility.yul\":2108:2140   */\n      slt\n        /* \"#utility.yul\":2105:2224   */\n      iszero\n      tag_135\n      jumpi\n        /* \"#utility.yul\":2143:2222   */\n      tag_136\n      tag_83\n      jump\t// in\n    tag_136:\n        /* \"#utility.yul\":2105:2224   */\n    tag_135:\n        /* \"#utility.yul\":2263:2264   */\n      0x00\n        /* \"#utility.yul\":2288:2341   */\n      tag_137\n        /* \"#utility.yul\":2333:2340   */\n      dup5\n        /* \"#utility.yul\":2324:2330   */\n      dup3\n        /* \"#utility.yul\":2313:2322   */\n      dup6\n        /* \"#utility.yul\":2309:2331   */\n      add\n        /* \"#utility.yul\":2288:2341   */\n      tag_88\n      jump\t// in\n    tag_137:\n        /* \"#utility.yul\":2278:2341   */\n      swap2\n      pop\n        /* \"#utility.yul\":2234:2351   */\n      pop\n        /* \"#utility.yul\":2029:2358   */\n      swap3\n      swap2\n      pop\n      pop\n      jump\t// out\n        /* \"#utility.yul\":2364:2481   */\n    tag_91:\n        /* \"#utility.yul\":2473:2474   */\n      0x00\n        /* \"#utility.yul\":2470:2471   */\n      dup1\n        /* \"#utility.yul\":2463:2475   */\n      revert\n        /* \"#utility.yul\":2487:2589   */\n    tag_92:\n        /* \"#utility.yul\":2528:2534   */\n      0x00\n        /* \"#utility.yul\":2579:2581   */\n      0x1f\n        /* \"#utility.yul\":2575:2582   */\n      not\n        /* \"#utility.yul\":2570:2572   */\n      0x1f\n        /* \"#utility.yul\":2563:2568   */\n      dup4\n        /* \"#utility.yul\":2559:2573   */\n      add\n        /* \"#utility.yul\":2555:2583   */\n      and\n        /* \"#utility.yul\":2545:2583   */\n      swap1\n      pop\n        /* \"#utility.yul\":2487:2589   */\n      swap2\n      swap1\n      pop\n      jump\t// out\n        /* \"#utility.yul\":2595:2775   */\n    tag_93:\n        /* \"#utility.yul\":2643:2720   */\n      0x4e487b7100000000000000000000000000000000000000000000000000000000\n        /* \"#utility.yul\":2640:2641   */\n      0x00\n        /* \"#utility.yul\":2633:2721   */\n      mstore\n        /* \"#utility.yul\":2740:2744   */\n      0x41\n        /* \"#utility.yul\":2737:2738   */\n      0x04\n        /* \"#utility.yul\":2730:2745   */\n      mstore\n        /* \"#utility.yul\":2764:2768   */\n      0x24\n        /* \"#utility.yul\":2761:2762   */\n      0x00\n        /* \"#utility.yul\":2754:2769   */\n      revert\n        /* \"#utility.yul\":2781:3062   */\n    tag_94:\n        /* \"#utility.yul\":2864:2891   */\n      tag_142\n        /* \"#utility.yul\":2886:2890   */\n      dup3\n        /* \"#utility.yul\":2864:2891   */\n      tag_92\n      jump\t// in\n    tag_142:\n        /* \"#utility.yul\":2856:2862   */\n      dup2\n        /* \"#utility.yul\":2852:2892   */\n      add\n        /* \"#utility.yul\":2994:3000   */\n      dup2\n        /* \"#utility.yul\":2982:2992   */\n      dup2\n        /* \"#utility.yul\":2979:3001   */\n      lt\n        /* \"#utility.yul\":2958:2976   */\n      0xffffffffffffffff\n        /* \"#utility.yul\":2946:2956   */\n      dup3\n        /* \"#utility.yul\":2943:2977   */\n      gt\n        /* \"#utility.yul\":2940:3002   */\n      or\n        /* \"#utility.yul\":2937:3025   */\n      iszero\n      tag_143\n      jumpi\n        /* \"#utility.yul\":3005:3023   */\n      tag_144\n      tag_93\n      jump\t// in\n    tag_144:\n        /* \"#utility.yul\":2937:3025   */\n    tag_143:\n        /* \"#utility.yul\":3045:3055   */\n      dup1\n        /* \"#utility.yul\":3041:3043   */\n      0x40\n        /* \"#utility.yul\":3034:3056   */\n      mstore\n        /* \"#utility.yul\":2824:3062   */\n      pop\n        /* \"#utility.yul\":2781:3062   */\n      pop\n      pop\n      jump\t// out\n        /* \"#utility.yul\":3068:3197   */\n    tag_95:\n        /* \"#utility.yul\":3102:3108   */\n      0x00\n        /* \"#utility.yul\":3129:3149   */\n      tag_146\n      tag_82\n      jump\t// in\n    tag_146:\n        /* \"#utility.yul\":3119:3149   */\n      swap1\n      pop\n        /* \"#utility.yul\":3158:3191   */\n      tag_147\n        /* \"#utility.yul\":3186:3190   */\n      dup3\n        /* \"#utility.yul\":3178:3184   */\n      dup3\n        /* \"#utility.yul\":3158:3191   */\n      tag_94\n      jump\t// in\n    tag_147:\n        /* \"#utility.yul\":3068:3197   */\n      swap2\n      swap1\n      pop\n      jump\t// out\n        /* \"#utility.yul\":3203:3514   */\n    tag_96:\n        /* \"#utility.yul\":3280:3284   */\n      0x00\n        /* \"#utility.yul\":3370:3388   */\n      0xffffffffffffffff\n        /* \"#utility.yul\":3362:3368   */\n      dup3\n        /* \"#utility.yul\":3359:3389   */\n      gt\n        /* \"#utility.yul\":3356:3412   */\n      iszero\n      tag_149\n      jumpi\n        /* \"#utility.yul\":3392:3410   */\n      tag_150\n      tag_93\n      jump\t// in\n    tag_150:\n        /* \"#utility.yul\":3356:3412   */\n    tag_149:\n        /* \"#utility.yul\":3442:3446   */\n      0x20\n        /* \"#utility.yul\":3434:3440   */\n      dup3\n        /* \"#utility.yul\":3430:3447   */\n      mul\n        /* \"#utility.yul\":3422:3447   */\n      swap1\n      pop\n        /* \"#utility.yul\":3502:3506   */\n      0x20\n        /* \"#utility.yul\":3496:3500   */\n      dup2\n        /* \"#utility.yul\":3492:3507   */\n      add\n        /* \"#utility.yul\":3484:3507   */\n      swap1\n      pop\n        /* \"#utility.yul\":3203:3514   */\n      swap2\n      swap1\n      pop\n      jump\t// out\n        /* \"#utility.yul\":3520:3637   */\n    tag_97:\n        /* \"#utility.yul\":3629:3630   */\n      0x00\n        /* \"#utility.yul\":3626:3627   */\n      dup1\n        /* \"#utility.yul\":3619:3631   */\n      revert\n        /* \"#utility.yul\":3660:4370   */\n    tag_98:\n        /* \"#utility.yul\":3756:3761   */\n      0x00\n        /* \"#utility.yul\":3781:3862   */\n      tag_153\n        /* \"#utility.yul\":3797:3861   */\n      tag_154\n        /* \"#utility.yul\":3854:3860   */\n      dup5\n        /* \"#utility.yul\":3797:3861   */\n      tag_96\n      jump\t// in\n    tag_154:\n        /* \"#utility.yul\":3781:3862   */\n      tag_95\n      jump\t// in\n    tag_153:\n        /* \"#utility.yul\":3772:3862   */\n      swap1\n      pop\n        /* \"#utility.yul\":3882:3887   */\n      dup1\n        /* \"#utility.yul\":3911:3917   */\n      dup4\n        /* \"#utility.yul\":3904:3909   */\n      dup3\n        /* \"#utility.yul\":3897:3918   */\n      mstore\n        /* \"#utility.yul\":3945:3949   */\n      0x20\n        /* \"#utility.yul\":3938:3943   */\n      dup3\n        /* \"#utility.yul\":3934:3950   */\n      add\n        /* \"#utility.yul\":3927:3950   */\n      swap1\n      pop\n        /* \"#utility.yul\":3998:4002   */\n      0x20\n        /* \"#utility.yul\":3990:3996   */\n      dup5\n        /* \"#utility.yul\":3986:4003   */\n      mul\n        /* \"#utility.yul\":3978:3984   */\n      dup4\n        /* \"#utility.yul\":3974:4004   */\n      add\n        /* \"#utility.yul\":4027:4030   */\n      dup6\n        /* \"#utility.yul\":4019:4025   */\n      dup2\n        /* \"#utility.yul\":4016:4031   */\n      gt\n        /* \"#utility.yul\":4013:4135   */\n      iszero\n      tag_155\n      jumpi\n        /* \"#utility.yul\":4046:4125   */\n      tag_156\n      tag_97\n      jump\t// in\n    tag_156:\n        /* \"#utility.yul\":4013:4135   */\n    tag_155:\n        /* \"#utility.yul\":4161:4167   */\n      dup4\n        /* \"#utility.yul\":4144:4364   */\n    tag_157:\n        /* \"#utility.yul\":4178:4184   */\n      dup2\n        /* \"#utility.yul\":4173:4176   */\n      dup2\n        /* \"#utility.yul\":4170:4185   */\n      lt\n        /* \"#utility.yul\":4144:4364   */\n      iszero\n      tag_159\n      jumpi\n        /* \"#utility.yul\":4253:4256   */\n      dup1\n        /* \"#utility.yul\":4282:4319   */\n      tag_160\n        /* \"#utility.yul\":4315:4318   */\n      dup9\n        /* \"#utility.yul\":4303:4313   */\n      dup3\n        /* \"#utility.yul\":4282:4319   */\n      tag_90\n      jump\t// in\n    tag_160:\n        /* \"#utility.yul\":4277:4280   */\n      dup5\n        /* \"#utility.yul\":4270:4320   */\n      mstore\n        /* \"#utility.yul\":4349:4353   */\n      0x20\n        /* \"#utility.yul\":4344:4347   */\n      dup5\n        /* \"#utility.yul\":4340:4354   */\n      add\n        /* \"#utility.yul\":4333:4354   */\n      swap4\n      pop\n        /* \"#utility.yul\":4220:4364   */\n      pop\n        /* \"#utility.yul\":4204:4208   */\n      0x20\n        /* \"#utility.yul\":4199:4202   */\n      dup2\n        /* \"#utility.yul\":4195:4209   */\n      add\n        /* \"#utility.yul\":4188:4209   */\n      swap1\n      pop\n        /* \"#utility.yul\":4144:4364   */\n      jump(tag_157)\n    tag_159:\n        /* \"#utility.yul\":4148:4169   */\n      pop\n        /* \"#utility.yul\":3762:4370   */\n      pop\n      pop\n        /* \"#utility.yul\":3660:4370   */\n      swap4\n      swap3\n      pop\n      pop\n      pop\n      jump\t// out\n        /* \"#utility.yul\":4393:4763   */\n    tag_99:\n        /* \"#utility.yul\":4464:4469   */\n      0x00\n        /* \"#utility.yul\":4513:4516   */\n      dup3\n        /* \"#utility.yul\":4506:4510   */\n      0x1f\n        /* \"#utility.yul\":4498:4504   */\n      dup4\n        /* \"#utility.yul\":4494:4511   */\n      add\n        /* \"#utility.yul\":4490:4517   */\n      slt\n        /* \"#utility.yul\":4480:4602   */\n      tag_162\n      jumpi\n        /* \"#utility.yul\":4521:4600   */\n      tag_163\n      tag_91\n      jump\t// in\n    tag_163:\n        /* \"#utility.yul\":4480:4602   */\n    tag_162:\n        /* \"#utility.yul\":4638:4644   */\n      dup2\n        /* \"#utility.yul\":4625:4645   */\n      calldataload\n        /* \"#utility.yul\":4663:4757   */\n      tag_164\n        /* \"#utility.yul\":4753:4756   */\n      dup5\n        /* \"#utility.yul\":4745:4751   */\n      dup3\n        /* \"#utility.yul\":4738:4742   */\n      0x20\n        /* \"#utility.yul\":4730:4736   */\n      dup7\n        /* \"#utility.yul\":4726:4743   */\n      add\n        /* \"#utility.yul\":4663:4757   */\n      tag_98\n      jump\t// in\n    tag_164:\n        /* \"#utility.yul\":4654:4757   */\n      swap2\n      pop\n        /* \"#utility.yul\":4470:4763   */\n      pop\n        /* \"#utility.yul\":4393:4763   */\n      swap3\n      swap2\n      pop\n      pop\n      jump\t// out\n        /* \"#utility.yul\":4769:5308   */\n    tag_26:\n        /* \"#utility.yul\":4853:4859   */\n      0x00\n        /* \"#utility.yul\":4902:4904   */\n      0x20\n        /* \"#utility.yul\":4890:4899   */\n      dup3\n        /* \"#utility.yul\":4881:4888   */\n      dup5\n        /* \"#utility.yul\":4877:4900   */\n      sub\n        /* \"#utility.yul\":4873:4905   */\n      slt\n        /* \"#utility.yul\":4870:4989   */\n      iszero\n      tag_166\n      jumpi\n        /* \"#utility.yul\":4908:4987   */\n      tag_167\n      tag_83\n      jump\t// in\n    tag_167:\n        /* \"#utility.yul\":4870:4989   */\n    tag_166:\n        /* \"#utility.yul\":5056:5057   */\n      0x00\n        /* \"#utility.yul\":5045:5054   */\n      dup3\n        /* \"#utility.yul\":5041:5058   */\n      add\n        /* \"#utility.yul\":5028:5059   */\n      calldataload\n        /* \"#utility.yul\":5086:5104   */\n      0xffffffffffffffff\n        /* \"#utility.yul\":5078:5084   */\n      dup2\n        /* \"#utility.yul\":5075:5105   */\n      gt\n        /* \"#utility.yul\":5072:5189   */\n      iszero\n      tag_168\n      jumpi\n        /* \"#utility.yul\":5108:5187   */\n      tag_169\n      tag_84\n      jump\t// in\n    tag_169:\n        /* \"#utility.yul\":5072:5189   */\n    tag_168:\n        /* \"#utility.yul\":5213:5291   */\n      tag_170\n        /* \"#utility.yul\":5283:5290   */\n      dup5\n        /* \"#utility.yul\":5274:5280   */\n      dup3\n        /* \"#utility.yul\":5263:5272   */\n      dup6\n        /* \"#utility.yul\":5259:5281   */\n      add\n        /* \"#utility.yul\":5213:5291   */\n      tag_99\n      jump\t// in\n    tag_170:\n        /* \"#utility.yul\":5203:5291   */\n      swap2\n      pop\n        /* \"#utility.yul\":4999:5301   */\n      pop\n        /* \"#utility.yul\":4769:5308   */\n      swap3\n      swap2\n      pop\n      pop\n      jump\t// out\n        /* \"#utility.yul\":5314:5933   */\n    tag_31:\n        /* \"#utility.yul\":5391:5397   */\n      0x00\n        /* \"#utility.yul\":5399:5405   */\n      dup1\n        /* \"#utility.yul\":5407:5413   */\n      0x00\n        /* \"#utility.yul\":5456:5458   */\n      0x60\n        /* \"#utility.yul\":5444:5453   */\n      dup5\n        /* \"#utility.yul\":5435:5442   */\n      dup7\n        /* \"#utility.yul\":5431:5454   */\n      sub\n        /* \"#utility.yul\":5427:5459   */\n      slt\n        /* \"#utility.yul\":5424:5543   */\n      iszero\n      tag_172\n      jumpi\n        /* \"#utility.yul\":5462:5541   */\n      tag_173\n      tag_83\n      jump\t// in\n    tag_173:\n        /* \"#utility.yul\":5424:5543   */\n    tag_172:\n        /* \"#utility.yul\":5582:5583   */\n      0x00\n        /* \"#utility.yul\":5607:5660   */\n      tag_174\n        /* \"#utility.yul\":5652:5659   */\n      dup7\n        /* \"#utility.yul\":5643:5649   */\n      dup3\n        /* \"#utility.yul\":5632:5641   */\n      dup8\n        /* \"#utility.yul\":5628:5650   */\n      add\n        /* \"#utility.yul\":5607:5660   */\n      tag_88\n      jump\t// in\n    tag_174:\n        /* \"#utility.yul\":5597:5660   */\n      swap4\n      pop\n        /* \"#utility.yul\":5553:5670   */\n      pop\n        /* \"#utility.yul\":5709:5711   */\n      0x20\n        /* \"#utility.yul\":5735:5788   */\n      tag_175\n        /* \"#utility.yul\":5780:5787   */\n      dup7\n        /* \"#utility.yul\":5771:5777   */\n      dup3\n        /* \"#utility.yul\":5760:5769   */\n      dup8\n        /* \"#utility.yul\":5756:5778   */\n      add\n        /* \"#utility.yul\":5735:5788   */\n      tag_88\n      jump\t// in\n    tag_175:\n        /* \"#utility.yul\":5725:5788   */\n      swap3\n      pop\n        /* \"#utility.yul\":5680:5798   */\n      pop\n        /* \"#utility.yul\":5837:5839   */\n      0x40\n        /* \"#utility.yul\":5863:5916   */\n      tag_176\n        /* \"#utility.yul\":5908:5915   */\n      dup7\n        /* \"#utility.yul\":5899:5905   */\n      dup3\n        /* \"#utility.yul\":5888:5897   */\n      dup8\n        /* \"#utility.yul\":5884:5906   */\n      add\n        /* \"#utility.yul\":5863:5916   */\n      tag_90\n      jump\t// in\n    tag_176:\n        /* \"#utility.yul\":5853:5916   */\n      swap2\n      pop\n        /* \"#utility.yul\":5808:5926   */\n      pop\n        /* \"#utility.yul\":5314:5933   */\n      swap3\n      pop\n      swap3\n      pop\n      swap3\n      jump\t// out\n        /* \"#utility.yul\":5939:6108   */\n    tag_100:\n        /* \"#utility.yul\":6023:6034   */\n      0x00\n        /* \"#utility.yul\":6057:6063   */\n      dup3\n        /* \"#utility.yul\":6052:6055   */\n      dup3\n        /* \"#utility.yul\":6045:6064   */\n      mstore\n        /* \"#utility.yul\":6097:6101   */\n      0x20\n        /* \"#utility.yul\":6092:6095   */\n      dup3\n        /* \"#utility.yul\":6088:6102   */\n      add\n        /* \"#utility.yul\":6073:6102   */\n      swap1\n      pop\n        /* \"#utility.yul\":5939:6108   */\n      swap3\n      swap2\n      pop\n      pop\n      jump\t// out\n        /* \"#utility.yul\":6114:6296   */\n    tag_101:\n        /* \"#utility.yul\":6254:6288   */\n      0x416d6f756e74206d7573742062652067726561746572207468616e207a65726f\n        /* \"#utility.yul\":6250:6251   */\n      0x00\n        /* \"#utility.yul\":6242:6248   */\n      dup3\n        /* \"#utility.yul\":6238:6252   */\n      add\n        /* \"#utility.yul\":6231:6289   */\n      mstore\n        /* \"#utility.yul\":6114:6296   */\n      pop\n      jump\t// out\n        /* \"#utility.yul\":6302:6668   */\n    tag_102:\n        /* \"#utility.yul\":6444:6447   */\n      0x00\n        /* \"#utility.yul\":6465:6532   */\n      tag_180\n        /* \"#utility.yul\":6529:6531   */\n      0x20\n        /* \"#utility.yul\":6524:6527   */\n      dup4\n        /* \"#utility.yul\":6465:6532   */\n      tag_100\n      jump\t// in\n    tag_180:\n        /* \"#utility.yul\":6458:6532   */\n      swap2\n      pop\n        /* \"#utility.yul\":6541:6634   */\n      tag_181\n        /* \"#utility.yul\":6630:6633   */\n      dup3\n        /* \"#utility.yul\":6541:6634   */\n      tag_101\n      jump\t// in\n    tag_181:\n        /* \"#utility.yul\":6659:6661   */\n      0x20\n        /* \"#utility.yul\":6654:6657   */\n      dup3\n        /* \"#utility.yul\":6650:6662   */\n      add\n        /* \"#utility.yul\":6643:6662   */\n      swap1\n      pop\n        /* \"#utility.yul\":6302:6668   */\n      swap2\n      swap1\n      pop\n      jump\t// out\n        /* \"#utility.yul\":6674:7093   */\n    tag_42:\n        /* \"#utility.yul\":6840:6844   */\n      0x00\n        /* \"#utility.yul\":6878:6880   */\n      0x20\n        /* \"#utility.yul\":6867:6876   */\n      dup3\n        /* \"#utility.yul\":6863:6881   */\n      add\n        /* \"#utility.yul\":6855:6881   */\n      swap1\n      pop\n        /* \"#utility.yul\":6927:6936   */\n      dup2\n        /* \"#utility.yul\":6921:6925   */\n      dup2\n        /* \"#utility.yul\":6917:6937   */\n      sub\n        /* \"#utility.yul\":6913:6914   */\n      0x00\n        /* \"#utility.yul\":6902:6911   */\n      dup4\n        /* \"#utility.yul\":6898:6915   */\n      add\n        /* \"#utility.yul\":6891:6938   */\n      mstore\n        /* \"#utility.yul\":6955:7086   */\n      tag_183\n        /* \"#utility.yul\":7081:7085   */\n      dup2\n        /* \"#utility.yul\":6955:7086   */\n      tag_102\n      jump\t// in\n    tag_183:\n        /* \"#utility.yul\":6947:7086   */\n      swap1\n      pop\n        /* \"#utility.yul\":6674:7093   */\n      swap2\n      swap1\n      pop\n      jump\t// out\n        /* \"#utility.yul\":7099:7279   */\n    tag_103:\n        /* \"#utility.yul\":7147:7224   */\n      0x4e487b7100000000000000000000000000000000000000000000000000000000\n        /* \"#utility.yul\":7144:7145   */\n      0x00\n        /* \"#utility.yul\":7137:7225   */\n      mstore\n        /* \"#utility.yul\":7244:7248   */\n      0x11\n        /* \"#utility.yul\":7241:7242   */\n      0x04\n        /* \"#utility.yul\":7234:7249   */\n      mstore\n        /* \"#utility.yul\":7268:7272   */\n      0x24\n        /* \"#utility.yul\":7265:7266   */\n      0x00\n        /* \"#utility.yul\":7258:7273   */\n      revert\n        /* \"#utility.yul\":7285:7476   */\n    tag_44:\n        /* \"#utility.yul\":7325:7328   */\n      0x00\n        /* \"#utility.yul\":7344:7364   */\n      tag_186\n        /* \"#utility.yul\":7362:7363   */\n      dup3\n        /* \"#utility.yul\":7344:7364   */\n      tag_80\n      jump\t// in\n    tag_186:\n        /* \"#utility.yul\":7339:7364   */\n      swap2\n      pop\n        /* \"#utility.yul\":7378:7398   */\n      tag_187\n        /* \"#utility.yul\":7396:7397   */\n      dup4\n        /* \"#utility.yul\":7378:7398   */\n      tag_80\n      jump\t// in\n    tag_187:\n        /* \"#utility.yul\":7373:7398   */\n      swap3\n      pop\n        /* \"#utility.yul\":7421:7422   */\n      dup3\n        /* \"#utility.yul\":7418:7419   */\n      dup3\n        /* \"#utility.yul\":7414:7423   */\n      add\n        /* \"#utility.yul\":7407:7423   */\n      swap1\n      pop\n        /* \"#utility.yul\":7442:7445   */\n      dup1\n        /* \"#utility.yul\":7439:7440   */\n      dup3\n        /* \"#utility.yul\":7436:7446   */\n      gt\n        /* \"#utility.yul\":7433:7469   */\n      iszero\n      tag_188\n      jumpi\n        /* \"#utility.yul\":7449:7467   */\n      tag_189\n      tag_103\n      jump\t// in\n    tag_189:\n        /* \"#utility.yul\":7433:7469   */\n    tag_188:\n        /* \"#utility.yul\":7285:7476   */\n      swap3\n      swap2\n      pop\n      pop\n      jump\t// out\n        /* \"#utility.yul\":7482:7662   */\n    tag_52:\n        /* \"#utility.yul\":7530:7607   */\n      0x4e487b7100000000000000000000000000000000000000000000000000000000\n        /* \"#utility.yul\":7527:7528   */\n      0x00\n        /* \"#utility.yul\":7520:7608   */\n      mstore\n        /* \"#utility.yul\":7627:7631   */\n      0x32\n        /* \"#utility.yul\":7624:7625   */\n      0x04\n        /* \"#utility.yul\":7617:7632   */\n      mstore\n        /* \"#utility.yul\":7651:7655   */\n      0x24\n        /* \"#utility.yul\":7648:7649   */\n      0x00\n        /* \"#utility.yul\":7641:7656   */\n      revert\n        /* \"#utility.yul\":7668:8078   */\n    tag_57:\n        /* \"#utility.yul\":7708:7715   */\n      0x00\n        /* \"#utility.yul\":7731:7751   */\n      tag_192\n        /* \"#utility.yul\":7749:7750   */\n      dup3\n        /* \"#utility.yul\":7731:7751   */\n      tag_80\n      jump\t// in\n    tag_192:\n        /* \"#utility.yul\":7726:7751   */\n      swap2\n      pop\n        /* \"#utility.yul\":7765:7785   */\n      tag_193\n        /* \"#utility.yul\":7783:7784   */\n      dup4\n        /* \"#utility.yul\":7765:7785   */\n      tag_80\n      jump\t// in\n    tag_193:\n        /* \"#utility.yul\":7760:7785   */\n      swap3\n      pop\n        /* \"#utility.yul\":7820:7821   */\n      dup3\n        /* \"#utility.yul\":7817:7818   */\n      dup3\n        /* \"#utility.yul\":7813:7822   */\n      mul\n        /* \"#utility.yul\":7842:7872   */\n      tag_194\n        /* \"#utility.yul\":7860:7871   */\n      dup2\n        /* \"#utility.yul\":7842:7872   */\n      tag_80\n      jump\t// in\n    tag_194:\n        /* \"#utility.yul\":7831:7872   */\n      swap2\n      pop\n        /* \"#utility.yul\":8021:8022   */\n      dup3\n        /* \"#utility.yul\":8012:8019   */\n      dup3\n        /* \"#utility.yul\":8008:8023   */\n      div\n        /* \"#utility.yul\":8005:8006   */\n      dup5\n        /* \"#utility.yul\":8002:8024   */\n      eq\n        /* \"#utility.yul\":7982:7983   */\n      dup4\n        /* \"#utility.yul\":7975:7984   */\n      iszero\n        /* \"#utility.yul\":7955:8038   */\n      or\n        /* \"#utility.yul\":7932:8071   */\n      tag_195\n      jumpi\n        /* \"#utility.yul\":8051:8069   */\n      tag_196\n      tag_103\n      jump\t// in\n    tag_196:\n        /* \"#utility.yul\":7932:8071   */\n    tag_195:\n        /* \"#utility.yul\":7716:8078   */\n      pop\n        /* \"#utility.yul\":7668:8078   */\n      swap3\n      swap2\n      pop\n      pop\n      jump\t// out\n        /* \"#utility.yul\":8084:8264   */\n    tag_104:\n        /* \"#utility.yul\":8132:8209   */\n      0x4e487b7100000000000000000000000000000000000000000000000000000000\n        /* \"#utility.yul\":8129:8130   */\n      0x00\n        /* \"#utility.yul\":8122:8210   */\n      mstore\n        /* \"#utility.yul\":8229:8233   */\n      0x12\n        /* \"#utility.yul\":8226:8227   */\n      0x04\n        /* \"#utility.yul\":8219:8234   */\n      mstore\n        /* \"#utility.yul\":8253:8257   */\n      0x24\n        /* \"#utility.yul\":8250:8251   */\n      0x00\n        /* \"#utility.yul\":8243:8258   */\n      revert\n        /* \"#utility.yul\":8270:8455   */\n    tag_64:\n        /* \"#utility.yul\":8310:8311   */\n      0x00\n        /* \"#utility.yul\":8327:8347   */\n      tag_199\n        /* \"#utility.yul\":8345:8346   */\n      dup3\n        /* \"#utility.yul\":8327:8347   */\n      tag_80\n      jump\t// in\n    tag_199:\n        /* \"#utility.yul\":8322:8347   */\n      swap2\n      pop\n        /* \"#utility.yul\":8361:8381   */\n      tag_200\n        /* \"#utility.yul\":8379:8380   */\n      dup4\n        /* \"#utility.yul\":8361:8381   */\n      tag_80\n      jump\t// in\n    tag_200:\n        /* \"#utility.yul\":8356:8381   */\n      swap3\n      pop\n        /* \"#utility.yul\":8400:8401   */\n      dup3\n        /* \"#utility.yul\":8390:8425   */\n      tag_201\n      jumpi\n        /* \"#utility.yul\":8405:8423   */\n      tag_202\n      tag_104\n      jump\t// in\n    tag_202:\n        /* \"#utility.yul\":8390:8425   */\n    tag_201:\n        /* \"#utility.yul\":8447:8448   */\n      dup3\n        /* \"#utility.yul\":8444:8445   */\n      dup3\n        /* \"#utility.yul\":8440:8449   */\n      div\n        /* \"#utility.yul\":8435:8449   */\n      swap1\n      pop\n        /* \"#utility.yul\":8270:8455   */\n      swap3\n      swap2\n      pop\n      pop\n      jump\t// out\n        /* \"#utility.yul\":8461:8655   */\n    tag_72:\n        /* \"#utility.yul\":8501:8505   */\n      0x00\n        /* \"#utility.yul\":8521:8541   */\n      tag_204\n        /* \"#utility.yul\":8539:8540   */\n      dup3\n        /* \"#utility.yul\":8521:8541   */\n      tag_80\n      jump\t// in\n    tag_204:\n        /* \"#utility.yul\":8516:8541   */\n      swap2\n      pop\n        /* \"#utility.yul\":8555:8575   */\n      tag_205\n        /* \"#utility.yul\":8573:8574   */\n      dup4\n        /* \"#utility.yul\":8555:8575   */\n      tag_80\n      jump\t// in\n    tag_205:\n        /* \"#utility.yul\":8550:8575   */\n      swap3\n      pop\n        /* \"#utility.yul\":8599:8600   */\n      dup3\n        /* \"#utility.yul\":8596:8597   */\n      dup3\n        /* \"#utility.yul\":8592:8601   */\n      sub\n        /* \"#utility.yul\":8584:8601   */\n      swap1\n      pop\n        /* \"#utility.yul\":8623:8624   */\n      dup2\n        /* \"#utility.yul\":8617:8621   */\n      dup2\n        /* \"#utility.yul\":8614:8625   */\n      gt\n        /* \"#utility.yul\":8611:8648   */\n      iszero\n      tag_206\n      jumpi\n        /* \"#utility.yul\":8628:8646   */\n      tag_207\n      tag_103\n      jump\t// in\n    tag_207:\n        /* \"#utility.yul\":8611:8648   */\n    tag_206:\n        /* \"#utility.yul\":8461:8655   */\n      swap3\n      swap2\n      pop\n      pop\n      jump\t// out\n        /* \"#utility.yul\":8661:8831   */\n    tag_105:\n        /* \"#utility.yul\":8801:8823   */\n      0x496e73756666696369656e742062616c616e6365000000000000000000000000\n        /* \"#utility.yul\":8797:8798   */\n      0x00\n        /* \"#utility.yul\":8789:8795   */\n      dup3\n        /* \"#utility.yul\":8785:8799   */\n      add\n        /* \"#utility.yul\":8778:8824   */\n      mstore\n        /* \"#utility.yul\":8661:8831   */\n      pop\n      jump\t// out\n        /* \"#utility.yul\":8837:9203   */\n    tag_106:\n        /* \"#utility.yul\":8979:8982   */\n      0x00\n        /* \"#utility.yul\":9000:9067   */\n      tag_210\n        /* \"#utility.yul\":9064:9066   */\n      0x14\n        /* \"#utility.yul\":9059:9062   */\n      dup4\n        /* \"#utility.yul\":9000:9067   */\n      tag_100\n      jump\t// in\n    tag_210:\n        /* \"#utility.yul\":8993:9067   */\n      swap2\n      pop\n        /* \"#utility.yul\":9076:9169   */\n      tag_211\n        /* \"#utility.yul\":9165:9168   */\n      dup3\n        /* \"#utility.yul\":9076:9169   */\n      tag_105\n      jump\t// in\n    tag_211:\n        /* \"#utility.yul\":9194:9196   */\n      0x20\n        /* \"#utility.yul\":9189:9192   */\n      dup3\n        /* \"#utility.yul\":9185:9197   */\n      add\n        /* \"#utility.yul\":9178:9197   */\n      swap1\n      pop\n        /* \"#utility.yul\":8837:9203   */\n      swap2\n      swap1\n      pop\n      jump\t// out\n        /* \"#utility.yul\":9209:9628   */\n    tag_76:\n        /* \"#utility.yul\":9375:9379   */\n      0x00\n        /* \"#utility.yul\":9413:9415   */\n      0x20\n        /* \"#utility.yul\":9402:9411   */\n      dup3\n        /* \"#utility.yul\":9398:9416   */\n      add\n        /* \"#utility.yul\":9390:9416   */\n      swap1\n      pop\n        /* \"#utility.yul\":9462:9471   */\n      dup2\n        /* \"#utility.yul\":9456:9460   */\n      dup2\n        /* \"#utility.yul\":9452:9472   */\n      sub\n        /* \"#utility.yul\":9448:9449   */\n      0x00\n        /* \"#utility.yul\":9437:9446   */\n      dup4\n        /* \"#utility.yul\":9433:9450   */\n      add\n        /* \"#utility.yul\":9426:9473   */\n      mstore\n        /* \"#utility.yul\":9490:9621   */\n      tag_213\n        /* \"#utility.yul\":9616:9620   */\n      dup2\n        /* \"#utility.yul\":9490:9621   */\n      tag_106\n      jump\t// in\n    tag_213:\n        /* \"#utility.yul\":9482:9621   */\n      swap1\n      pop\n        /* \"#utility.yul\":9209:9628   */\n      swap2\n      swap1\n      pop\n      jump\t// out\n\n    auxdata: 0xa2646970667358221220effd03aff9c007f1dd51e8370850ab75a5f3bfde05cdd551612d70eeb1faa65364736f6c634300081a0033\n}\n",
				"bytecode": {
					"linkReferences": {},
					"object": "6080604052348015600e575f80fd5b50604051610b29380380610b298339818101604052810190602e91906072565b805f819055505f600181905550506098565b5f80fd5b5f819050919050565b6054816044565b8114605d575f80fd5b50565b5f81519050606c81604d565b92915050565b5f6020828403121560845760836040565b5b5f608f848285016060565b91505092915050565b610a84806100a55f395ff3fe608060405234801561000f575f80fd5b506004361061007b575f3560e01c80635cd1d31d116100595780635cd1d31d146100e9578063df791e5014610119578063f3fef3a314610135578063f446c1d0146101515761007b565b80630f529ba21461007f57806347e7ef241461009d578063523fba7f146100b9575b5f80fd5b61008761016f565b6040516100949190610512565b60405180910390f35b6100b760048036038101906100b291906105c0565b610175565b005b6100d360048036038101906100ce91906105fe565b610226565b6040516100e09190610512565b60405180910390f35b61010360048036038101906100fe9190610779565b61023b565b6040516101109190610512565b60405180910390f35b610133600480360381019061012e91906107c0565b610303565b005b61014f600480360381019061014a91906105c0565b6103fd565b005b6101596104ec565b6040516101669190610512565b60405180910390f35b60015481565b5f81116101b7576040517f08c379a00000000000000000000000000000000000000000000000000000000081526004016101ae9061086a565b60405180910390fd5b8060025f8473ffffffffffffffffffffffffffffffffffffffff1673ffffffffffffffffffffffffffffffffffffffff1681526020019081526020015f205f82825461020391906108b5565b925050819055508060015f82825461021b91906108b5565b925050819055505050565b6002602052805f5260405f205f915090505481565b5f805f90505f600190505f5b84518110156102ad57848181518110610263576102626108e8565b5b60200260200101518361027691906108b5565b925084818151811061028b5761028a6108e8565b5b60200260200101518261029e9190610915565b91508080600101915050610247565b505f8160046102bc9190610915565b835f546102c99190610915565b8460025f546102d89190610915565b6102e29190610915565b6102ec91906108b5565b6102f69190610983565b9050809350505050919050565b5f8111610345576040517f08c379a000000000000000000000000000000000000000000000000000000000815260040161033c9061086a565b60405180910390fd5b5f61034f826104f1565b90508160025f8673ffffffffffffffffffffffffffffffffffffffff1673ffffffffffffffffffffffffffffffffffffffff1681526020019081526020015f205f82825461039d91906108b5565b925050819055508060025f8573ffffffffffffffffffffffffffffffffffffffff1673ffffffffffffffffffffffffffffffffffffffff1681526020019081526020015f205f8282546103f091906109b3565b9250508190555050505050565b60025f8373ffffffffffffffffffffffffffffffffffffffff1673ffffffffffffffffffffffffffffffffffffffff1681526020019081526020015f205481111561047d576040517f08c379a000000000000000000000000000000000000000000000000000000000815260040161047490610a30565b60405180910390fd5b8060025f8473ffffffffffffffffffffffffffffffffffffffff1673ffffffffffffffffffffffffffffffffffffffff1681526020019081526020015f205f8282546104c991906109b3565b925050819055508060015f8282546104e191906109b3565b925050819055505050565b5f5481565b5f819050919050565b5f819050919050565b61050c816104fa565b82525050565b5f6020820190506105255f830184610503565b92915050565b5f604051905090565b5f80fd5b5f80fd5b5f73ffffffffffffffffffffffffffffffffffffffff82169050919050565b5f6105658261053c565b9050919050565b6105758161055b565b811461057f575f80fd5b50565b5f813590506105908161056c565b92915050565b61059f816104fa565b81146105a9575f80fd5b50565b5f813590506105ba81610596565b92915050565b5f80604083850312156105d6576105d5610534565b5b5f6105e385828601610582565b92505060206105f4858286016105ac565b9150509250929050565b5f6020828403121561061357610612610534565b5b5f61062084828501610582565b91505092915050565b5f80fd5b5f601f19601f8301169050919050565b7f4e487b71000000000000000000000000000000000000000000000000000000005f52604160045260245ffd5b6106738261062d565b810181811067ffffffffffffffff821117156106925761069161063d565b5b80604052505050565b5f6106a461052b565b90506106b0828261066a565b919050565b5f67ffffffffffffffff8211156106cf576106ce61063d565b5b602082029050602081019050919050565b5f80fd5b5f6106f66106f1846106b5565b61069b565b90508083825260208201905060208402830185811115610719576107186106e0565b5b835b81811015610742578061072e88826105ac565b84526020840193505060208101905061071b565b5050509392505050565b5f82601f8301126107605761075f610629565b5b81356107708482602086016106e4565b91505092915050565b5f6020828403121561078e5761078d610534565b5b5f82013567ffffffffffffffff8111156107ab576107aa610538565b5b6107b78482850161074c565b91505092915050565b5f805f606084860312156107d7576107d6610534565b5b5f6107e486828701610582565b93505060206107f586828701610582565b9250506040610806868287016105ac565b9150509250925092565b5f82825260208201905092915050565b7f416d6f756e74206d7573742062652067726561746572207468616e207a65726f5f82015250565b5f610854602083610810565b915061085f82610820565b602082019050919050565b5f6020820190508181035f83015261088181610848565b9050919050565b7f4e487b71000000000000000000000000000000000000000000000000000000005f52601160045260245ffd5b5f6108bf826104fa565b91506108ca836104fa565b92508282019050808211156108e2576108e1610888565b5b92915050565b7f4e487b71000000000000000000000000000000000000000000000000000000005f52603260045260245ffd5b5f61091f826104fa565b915061092a836104fa565b9250828202610938816104fa565b9150828204841483151761094f5761094e610888565b5b5092915050565b7f4e487b71000000000000000000000000000000000000000000000000000000005f52601260045260245ffd5b5f61098d826104fa565b9150610998836104fa565b9250826109a8576109a7610956565b5b828204905092915050565b5f6109bd826104fa565b91506109c8836104fa565b92508282039050818111156109e0576109df610888565b5b92915050565b7f496e73756666696369656e742062616c616e63650000000000000000000000005f82015250565b5f610a1a601483610810565b9150610a25826109e6565b602082019050919050565b5f6020820190508181035f830152610a4781610a0e565b905091905056fea2646970667358221220effd03aff9c007f1dd51e8370850ab75a5f3bfde05cdd551612d70eeb1faa65364736f6c634300081a0033",
					"opcodes": "PUSH1 0x80 PUSH1 0x40 MSTORE CALLVALUE DUP1 ISZERO PUSH1 0xE JUMPI PUSH0 DUP1 REVERT JUMPDEST POP PUSH1 0x40 MLOAD PUSH2 0xB29 CODESIZE SUB DUP1 PUSH2 0xB29 DUP4 CODECOPY DUP2 DUP2 ADD PUSH1 0x40 MSTORE DUP2 ADD SWAP1 PUSH1 0x2E SWAP2 SWAP1 PUSH1 0x72 JUMP JUMPDEST DUP1 PUSH0 DUP2 SWAP1 SSTORE POP PUSH0 PUSH1 0x1 DUP2 SWAP1 SSTORE POP POP PUSH1 0x98 JUMP JUMPDEST PUSH0 DUP1 REVERT JUMPDEST PUSH0 DUP2 SWAP1 POP SWAP2 SWAP1 POP JUMP JUMPDEST PUSH1 0x54 DUP2 PUSH1 0x44 JUMP JUMPDEST DUP2 EQ PUSH1 0x5D JUMPI PUSH0 DUP1 REVERT JUMPDEST POP JUMP JUMPDEST PUSH0 DUP2 MLOAD SWAP1 POP PUSH1 0x6C DUP2 PUSH1 0x4D JUMP JUMPDEST SWAP3 SWAP2 POP POP JUMP JUMPDEST PUSH0 PUSH1 0x20 DUP3 DUP5 SUB SLT ISZERO PUSH1 0x84 JUMPI PUSH1 0x83 PUSH1 0x40 JUMP JUMPDEST JUMPDEST PUSH0 PUSH1 0x8F DUP5 DUP3 DUP6 ADD PUSH1 0x60 JUMP JUMPDEST SWAP2 POP POP SWAP3 SWAP2 POP POP JUMP JUMPDEST PUSH2 0xA84 DUP1 PUSH2 0xA5 PUSH0 CODECOPY PUSH0 RETURN INVALID PUSH1 0x80 PUSH1 0x40 MSTORE CALLVALUE DUP1 ISZERO PUSH2 0xF JUMPI PUSH0 DUP1 REVERT JUMPDEST POP PUSH1 0x4 CALLDATASIZE LT PUSH2 0x7B JUMPI PUSH0 CALLDATALOAD PUSH1 0xE0 SHR DUP1 PUSH4 0x5CD1D31D GT PUSH2 0x59 JUMPI DUP1 PUSH4 0x5CD1D31D EQ PUSH2 0xE9 JUMPI DUP1 PUSH4 0xDF791E50 EQ PUSH2 0x119 JUMPI DUP1 PUSH4 0xF3FEF3A3 EQ PUSH2 0x135 JUMPI DUP1 PUSH4 0xF446C1D0 EQ PUSH2 0x151 JUMPI PUSH2 0x7B JUMP JUMPDEST DUP1 PUSH4 0xF529BA2 EQ PUSH2 0x7F JUMPI DUP1 PUSH4 0x47E7EF24 EQ PUSH2 0x9D JUMPI DUP1 PUSH4 0x523FBA7F EQ PUSH2 0xB9 JUMPI JUMPDEST PUSH0 DUP1 REVERT JUMPDEST PUSH2 0x87 PUSH2 0x16F JUMP JUMPDEST PUSH1 0x40 MLOAD PUSH2 0x94 SWAP2 SWAP1 PUSH2 0x512 JUMP JUMPDEST PUSH1 0x40 MLOAD DUP1 SWAP2 SUB SWAP1 RETURN JUMPDEST PUSH2 0xB7 PUSH1 0x4 DUP1 CALLDATASIZE SUB DUP2 ADD SWAP1 PUSH2 0xB2 SWAP2 SWAP1 PUSH2 0x5C0 JUMP JUMPDEST PUSH2 0x175 JUMP JUMPDEST STOP JUMPDEST PUSH2 0xD3 PUSH1 0x4 DUP1 CALLDATASIZE SUB DUP2 ADD SWAP1 PUSH2 0xCE SWAP2 SWAP1 PUSH2 0x5FE JUMP JUMPDEST PUSH2 0x226 JUMP JUMPDEST PUSH1 0x40 MLOAD PUSH2 0xE0 SWAP2 SWAP1 PUSH2 0x512 JUMP JUMPDEST PUSH1 0x40 MLOAD DUP1 SWAP2 SUB SWAP1 RETURN JUMPDEST PUSH2 0x103 PUSH1 0x4 DUP1 CALLDATASIZE SUB DUP2 ADD SWAP1 PUSH2 0xFE SWAP2 SWAP1 PUSH2 0x779 JUMP JUMPDEST PUSH2 0x23B JUMP JUMPDEST PUSH1 0x40 MLOAD PUSH2 0x110 SWAP2 SWAP1 PUSH2 0x512 JUMP JUMPDEST PUSH1 0x40 MLOAD DUP1 SWAP2 SUB SWAP1 RETURN JUMPDEST PUSH2 0x133 PUSH1 0x4 DUP1 CALLDATASIZE SUB DUP2 ADD SWAP1 PUSH2 0x12E SWAP2 SWAP1 PUSH2 0x7C0 JUMP JUMPDEST PUSH2 0x303 JUMP JUMPDEST STOP JUMPDEST PUSH2 0x14F PUSH1 0x4 DUP1 CALLDATASIZE SUB DUP2 ADD SWAP1 PUSH2 0x14A SWAP2 SWAP1 PUSH2 0x5C0 JUMP JUMPDEST PUSH2 0x3FD JUMP JUMPDEST STOP JUMPDEST PUSH2 0x159 PUSH2 0x4EC JUMP JUMPDEST PUSH1 0x40 MLOAD PUSH2 0x166 SWAP2 SWAP1 PUSH2 0x512 JUMP JUMPDEST PUSH1 0x40 MLOAD DUP1 SWAP2 SUB SWAP1 RETURN JUMPDEST PUSH1 0x1 SLOAD DUP2 JUMP JUMPDEST PUSH0 DUP2 GT PUSH2 0x1B7 JUMPI PUSH1 0x40 MLOAD PUSH32 0x8C379A000000000000000000000000000000000000000000000000000000000 DUP2 MSTORE PUSH1 0x4 ADD PUSH2 0x1AE SWAP1 PUSH2 0x86A JUMP JUMPDEST PUSH1 0x40 MLOAD DUP1 SWAP2 SUB SWAP1 REVERT JUMPDEST DUP1 PUSH1 0x2 PUSH0 DUP5 PUSH20 0xFFFFFFFFFFFFFFFFFFFFFFFFFFFFFFFFFFFFFFFF AND PUSH20 0xFFFFFFFFFFFFFFFFFFFFFFFFFFFFFFFFFFFFFFFF AND DUP2 MSTORE PUSH1 0x20 ADD SWAP1 DUP2 MSTORE PUSH1 0x20 ADD PUSH0 KECCAK256 PUSH0 DUP3 DUP3 SLOAD PUSH2 0x203 SWAP2 SWAP1 PUSH2 0x8B5 JUMP JUMPDEST SWAP3 POP POP DUP2 SWAP1 SSTORE POP DUP1 PUSH1 0x1 PUSH0 DUP3 DUP3 SLOAD PUSH2 0x21B SWAP2 SWAP1 PUSH2 0x8B5 JUMP JUMPDEST SWAP3 POP POP DUP2 SWAP1 SSTORE POP POP POP JUMP JUMPDEST PUSH1 0x2 PUSH1 0x20 MSTORE DUP1 PUSH0 MSTORE PUSH1 0x40 PUSH0 KECCAK256 PUSH0 SWAP2 POP SWAP1 POP SLOAD DUP2 JUMP JUMPDEST PUSH0 DUP1 PUSH0 SWAP1 POP PUSH0 PUSH1 0x1 SWAP1 POP PUSH0 JUMPDEST DUP5 MLOAD DUP2 LT ISZERO PUSH2 0x2AD JUMPI DUP5 DUP2 DUP2 MLOAD DUP2 LT PUSH2 0x263 JUMPI PUSH2 0x262 PUSH2 0x8E8 JUMP JUMPDEST JUMPDEST PUSH1 0x20 MUL PUSH1 0x20 ADD ADD MLOAD DUP4 PUSH2 0x276 SWAP2 SWAP1 PUSH2 0x8B5 JUMP JUMPDEST SWAP3 POP DUP5 DUP2 DUP2 MLOAD DUP2 LT PUSH2 0x28B JUMPI PUSH2 0x28A PUSH2 0x8E8 JUMP JUMPDEST JUMPDEST PUSH1 0x20 MUL PUSH1 0x20 ADD ADD MLOAD DUP3 PUSH2 0x29E SWAP2 SWAP1 PUSH2 0x915 JUMP JUMPDEST SWAP2 POP DUP1 DUP1 PUSH1 0x1 ADD SWAP2 POP POP PUSH2 0x247 JUMP JUMPDEST POP PUSH0 DUP2 PUSH1 0x4 PUSH2 0x2BC SWAP2 SWAP1 PUSH2 0x915 JUMP JUMPDEST DUP4 PUSH0 SLOAD PUSH2 0x2C9 SWAP2 SWAP1 PUSH2 0x915 JUMP JUMPDEST DUP5 PUSH1 0x2 PUSH0 SLOAD PUSH2 0x2D8 SWAP2 SWAP1 PUSH2 0x915 JUMP JUMPDEST PUSH2 0x2E2 SWAP2 SWAP1 PUSH2 0x915 JUMP JUMPDEST PUSH2 0x2EC SWAP2 SWAP1 PUSH2 0x8B5 JUMP JUMPDEST PUSH2 0x2F6 SWAP2 SWAP1 PUSH2 0x983 JUMP JUMPDEST SWAP1 POP DUP1 SWAP4 POP POP POP POP SWAP2 SWAP1 POP JUMP JUMPDEST PUSH0 DUP2 GT PUSH2 0x345 JUMPI PUSH1 0x40 MLOAD PUSH32 0x8C379A000000000000000000000000000000000000000000000000000000000 DUP2 MSTORE PUSH1 0x4 ADD PUSH2 0x33C SWAP1 PUSH2 0x86A JUMP JUMPDEST PUSH1 0x40 MLOAD DUP1 SWAP2 SUB SWAP1 REVERT JUMPDEST PUSH0 PUSH2 0x34F DUP3 PUSH2 0x4F1 JUMP JUMPDEST SWAP1 POP DUP2 PUSH1 0x2 PUSH0 DUP7 PUSH20 0xFFFFFFFFFFFFFFFFFFFFFFFFFFFFFFFFFFFFFFFF AND PUSH20 0xFFFFFFFFFFFFFFFFFFFFFFFFFFFFFFFFFFFFFFFF AND DUP2 MSTORE PUSH1 0x20 ADD SWAP1 DUP2 MSTORE PUSH1 0x20 ADD PUSH0 KECCAK256 PUSH0 DUP3 DUP3 SLOAD PUSH2 0x39D SWAP2 SWAP1 PUSH2 0x8B5 JUMP JUMPDEST SWAP3 POP POP DUP2 SWAP1 SSTORE POP DUP1 PUSH1 0x2 PUSH0 DUP6 PUSH20 0xFFFFFFFFFFFFFFFFFFFFFFFFFFFFFFFFFFFFFFFF AND PUSH20 0xFFFFFFFFFFFFFFFFFFFFFFFFFFFFFFFFFFFFFFFF AND DUP2 MSTORE PUSH1 0x20 ADD SWAP1 DUP2 MSTORE PUSH1 0x20 ADD PUSH0 KECCAK256 PUSH0 DUP3 DUP3 SLOAD PUSH2 0x3F0 SWAP2 SWAP1 PUSH2 0x9B3 JUMP JUMPDEST SWAP3 POP POP DUP2 SWAP1 SSTORE POP POP POP POP POP JUMP JUMPDEST PUSH1 0x2 PUSH0 DUP4 PUSH20 0xFFFFFFFFFFFFFFFFFFFFFFFFFFFFFFFFFFFFFFFF AND PUSH20 0xFFFFFFFFFFFFFFFFFFFFFFFFFFFFFFFFFFFFFFFF AND DUP2 MSTORE PUSH1 0x20 ADD SWAP1 DUP2 MSTORE PUSH1 0x20 ADD PUSH0 KECCAK256 SLOAD DUP2 GT ISZERO PUSH2 0x47D JUMPI PUSH1 0x40 MLOAD PUSH32 0x8C379A000000000000000000000000000000000000000000000000000000000 DUP2 MSTORE PUSH1 0x4 ADD PUSH2 0x474 SWAP1 PUSH2 0xA30 JUMP JUMPDEST PUSH1 0x40 MLOAD DUP1 SWAP2 SUB SWAP1 REVERT JUMPDEST DUP1 PUSH1 0x2 PUSH0 DUP5 PUSH20 0xFFFFFFFFFFFFFFFFFFFFFFFFFFFFFFFFFFFFFFFF AND PUSH20 0xFFFFFFFFFFFFFFFFFFFFFFFFFFFFFFFFFFFFFFFF AND DUP2 MSTORE PUSH1 0x20 ADD SWAP1 DUP2 MSTORE PUSH1 0x20 ADD PUSH0 KECCAK256 PUSH0 DUP3 DUP3 SLOAD PUSH2 0x4C9 SWAP2 SWAP1 PUSH2 0x9B3 JUMP JUMPDEST SWAP3 POP POP DUP2 SWAP1 SSTORE POP DUP1 PUSH1 0x1 PUSH0 DUP3 DUP3 SLOAD PUSH2 0x4E1 SWAP2 SWAP1 PUSH2 0x9B3 JUMP JUMPDEST SWAP3 POP POP DUP2 SWAP1 SSTORE POP POP POP JUMP JUMPDEST PUSH0 SLOAD DUP2 JUMP JUMPDEST PUSH0 DUP2 SWAP1 POP SWAP2 SWAP1 POP JUMP JUMPDEST PUSH0 DUP2 SWAP1 POP SWAP2 SWAP1 POP JUMP JUMPDEST PUSH2 0x50C DUP2 PUSH2 0x4FA JUMP JUMPDEST DUP3 MSTORE POP POP JUMP JUMPDEST PUSH0 PUSH1 0x20 DUP3 ADD SWAP1 POP PUSH2 0x525 PUSH0 DUP4 ADD DUP5 PUSH2 0x503 JUMP JUMPDEST SWAP3 SWAP2 POP POP JUMP JUMPDEST PUSH0 PUSH1 0x40 MLOAD SWAP1 POP SWAP1 JUMP JUMPDEST PUSH0 DUP1 REVERT JUMPDEST PUSH0 DUP1 REVERT JUMPDEST PUSH0 PUSH20 0xFFFFFFFFFFFFFFFFFFFFFFFFFFFFFFFFFFFFFFFF DUP3 AND SWAP1 POP SWAP2 SWAP1 POP JUMP JUMPDEST PUSH0 PUSH2 0x565 DUP3 PUSH2 0x53C JUMP JUMPDEST SWAP1 POP SWAP2 SWAP1 POP JUMP JUMPDEST PUSH2 0x575 DUP2 PUSH2 0x55B JUMP JUMPDEST DUP2 EQ PUSH2 0x57F JUMPI PUSH0 DUP1 REVERT JUMPDEST POP JUMP JUMPDEST PUSH0 DUP2 CALLDATALOAD SWAP1 POP PUSH2 0x590 DUP2 PUSH2 0x56C JUMP JUMPDEST SWAP3 SWAP2 POP POP JUMP JUMPDEST PUSH2 0x59F DUP2 PUSH2 0x4FA JUMP JUMPDEST DUP2 EQ PUSH2 0x5A9 JUMPI PUSH0 DUP1 REVERT JUMPDEST POP JUMP JUMPDEST PUSH0 DUP2 CALLDATALOAD SWAP1 POP PUSH2 0x5BA DUP2 PUSH2 0x596 JUMP JUMPDEST SWAP3 SWAP2 POP POP JUMP JUMPDEST PUSH0 DUP1 PUSH1 0x40 DUP4 DUP6 SUB SLT ISZERO PUSH2 0x5D6 JUMPI PUSH2 0x5D5 PUSH2 0x534 JUMP JUMPDEST JUMPDEST PUSH0 PUSH2 0x5E3 DUP6 DUP3 DUP7 ADD PUSH2 0x582 JUMP JUMPDEST SWAP3 POP POP PUSH1 0x20 PUSH2 0x5F4 DUP6 DUP3 DUP7 ADD PUSH2 0x5AC JUMP JUMPDEST SWAP2 POP POP SWAP3 POP SWAP3 SWAP1 POP JUMP JUMPDEST PUSH0 PUSH1 0x20 DUP3 DUP5 SUB SLT ISZERO PUSH2 0x613 JUMPI PUSH2 0x612 PUSH2 0x534 JUMP JUMPDEST JUMPDEST PUSH0 PUSH2 0x620 DUP5 DUP3 DUP6 ADD PUSH2 0x582 JUMP JUMPDEST SWAP2 POP POP SWAP3 SWAP2 POP POP JUMP JUMPDEST PUSH0 DUP1 REVERT JUMPDEST PUSH0 PUSH1 0x1F NOT PUSH1 0x1F DUP4 ADD AND SWAP1 POP SWAP2 SWAP1 POP JUMP JUMPDEST PUSH32 0x4E487B7100000000000000000000000000000000000000000000000000000000 PUSH0 MSTORE PUSH1 0x41 PUSH1 0x4 MSTORE PUSH1 0x24 PUSH0 REVERT JUMPDEST PUSH2 0x673 DUP3 PUSH2 0x62D JUMP JUMPDEST DUP2 ADD DUP2 DUP2 LT PUSH8 0xFFFFFFFFFFFFFFFF DUP3 GT OR ISZERO PUSH2 0x692 JUMPI PUSH2 0x691 PUSH2 0x63D JUMP JUMPDEST JUMPDEST DUP1 PUSH1 0x40 MSTORE POP POP POP JUMP JUMPDEST PUSH0 PUSH2 0x6A4 PUSH2 0x52B JUMP JUMPDEST SWAP1 POP PUSH2 0x6B0 DUP3 DUP3 PUSH2 0x66A JUMP JUMPDEST SWAP2 SWAP1 POP JUMP JUMPDEST PUSH0 PUSH8 0xFFFFFFFFFFFFFFFF DUP3 GT ISZERO PUSH2 0x6CF JUMPI PUSH2 0x6CE PUSH2 0x63D JUMP JUMPDEST JUMPDEST PUSH1 0x20 DUP3 MUL SWAP1 POP PUSH1 0x20 DUP2 ADD SWAP1 POP SWAP2 SWAP1 POP JUMP JUMPDEST PUSH0 DUP1 REVERT JUMPDEST PUSH0 PUSH2 0x6F6 PUSH2 0x6F1 DUP5 PUSH2 0x6B5 JUMP JUMPDEST PUSH2 0x69B JUMP JUMPDEST SWAP1 POP DUP1 DUP4 DUP3 MSTORE PUSH1 0x20 DUP3 ADD SWAP1 POP PUSH1 0x20 DUP5 MUL DUP4 ADD DUP6 DUP2 GT ISZERO PUSH2 0x719 JUMPI PUSH2 0x718 PUSH2 0x6E0 JUMP JUMPDEST JUMPDEST DUP4 JUMPDEST DUP2 DUP2 LT ISZERO PUSH2 0x742 JUMPI DUP1 PUSH2 0x72E DUP9 DUP3 PUSH2 0x5AC JUMP JUMPDEST DUP5 MSTORE PUSH1 0x20 DUP5 ADD SWAP4 POP POP PUSH1 0x20 DUP2 ADD SWAP1 POP PUSH2 0x71B JUMP JUMPDEST POP POP POP SWAP4 SWAP3 POP POP POP JUMP JUMPDEST PUSH0 DUP3 PUSH1 0x1F DUP4 ADD SLT PUSH2 0x760 JUMPI PUSH2 0x75F PUSH2 0x629 JUMP JUMPDEST JUMPDEST DUP2 CALLDATALOAD PUSH2 0x770 DUP5 DUP3 PUSH1 0x20 DUP7 ADD PUSH2 0x6E4 JUMP JUMPDEST SWAP2 POP POP SWAP3 SWAP2 POP POP JUMP JUMPDEST PUSH0 PUSH1 0x20 DUP3 DUP5 SUB SLT ISZERO PUSH2 0x78E JUMPI PUSH2 0x78D PUSH2 0x534 JUMP JUMPDEST JUMPDEST PUSH0 DUP3 ADD CALLDATALOAD PUSH8 0xFFFFFFFFFFFFFFFF DUP2 GT ISZERO PUSH2 0x7AB JUMPI PUSH2 0x7AA PUSH2 0x538 JUMP JUMPDEST JUMPDEST PUSH2 0x7B7 DUP5 DUP3 DUP6 ADD PUSH2 0x74C JUMP JUMPDEST SWAP2 POP POP SWAP3 SWAP2 POP POP JUMP JUMPDEST PUSH0 DUP1 PUSH0 PUSH1 0x60 DUP5 DUP7 SUB SLT ISZERO PUSH2 0x7D7 JUMPI PUSH2 0x7D6 PUSH2 0x534 JUMP JUMPDEST JUMPDEST PUSH0 PUSH2 0x7E4 DUP7 DUP3 DUP8 ADD PUSH2 0x582 JUMP JUMPDEST SWAP4 POP POP PUSH1 0x20 PUSH2 0x7F5 DUP7 DUP3 DUP8 ADD PUSH2 0x582 JUMP JUMPDEST SWAP3 POP POP PUSH1 0x40 PUSH2 0x806 DUP7 DUP3 DUP8 ADD PUSH2 0x5AC JUMP JUMPDEST SWAP2 POP POP SWAP3 POP SWAP3 POP SWAP3 JUMP JUMPDEST PUSH0 DUP3 DUP3 MSTORE PUSH1 0x20 DUP3 ADD SWAP1 POP SWAP3 SWAP2 POP POP JUMP JUMPDEST PUSH32 0x416D6F756E74206D7573742062652067726561746572207468616E207A65726F PUSH0 DUP3 ADD MSTORE POP JUMP JUMPDEST PUSH0 PUSH2 0x854 PUSH1 0x20 DUP4 PUSH2 0x810 JUMP JUMPDEST SWAP2 POP PUSH2 0x85F DUP3 PUSH2 0x820 JUMP JUMPDEST PUSH1 0x20 DUP3 ADD SWAP1 POP SWAP2 SWAP1 POP JUMP JUMPDEST PUSH0 PUSH1 0x20 DUP3 ADD SWAP1 POP DUP2 DUP2 SUB PUSH0 DUP4 ADD MSTORE PUSH2 0x881 DUP2 PUSH2 0x848 JUMP JUMPDEST SWAP1 POP SWAP2 SWAP1 POP JUMP JUMPDEST PUSH32 0x4E487B7100000000000000000000000000000000000000000000000000000000 PUSH0 MSTORE PUSH1 0x11 PUSH1 0x4 MSTORE PUSH1 0x24 PUSH0 REVERT JUMPDEST PUSH0 PUSH2 0x8BF DUP3 PUSH2 0x4FA JUMP JUMPDEST SWAP2 POP PUSH2 0x8CA DUP4 PUSH2 0x4FA JUMP JUMPDEST SWAP3 POP DUP3 DUP3 ADD SWAP1 POP DUP1 DUP3 GT ISZERO PUSH2 0x8E2 JUMPI PUSH2 0x8E1 PUSH2 0x888 JUMP JUMPDEST JUMPDEST SWAP3 SWAP2 POP POP JUMP JUMPDEST PUSH32 0x4E487B7100000000000000000000000000000000000000000000000000000000 PUSH0 MSTORE PUSH1 0x32 PUSH1 0x4 MSTORE PUSH1 0x24 PUSH0 REVERT JUMPDEST PUSH0 PUSH2 0x91F DUP3 PUSH2 0x4FA JUMP JUMPDEST SWAP2 POP PUSH2 0x92A DUP4 PUSH2 0x4FA JUMP JUMPDEST SWAP3 POP DUP3 DUP3 MUL PUSH2 0x938 DUP2 PUSH2 0x4FA JUMP JUMPDEST SWAP2 POP DUP3 DUP3 DIV DUP5 EQ DUP4 ISZERO OR PUSH2 0x94F JUMPI PUSH2 0x94E PUSH2 0x888 JUMP JUMPDEST JUMPDEST POP SWAP3 SWAP2 POP POP JUMP JUMPDEST PUSH32 0x4E487B7100000000000000000000000000000000000000000000000000000000 PUSH0 MSTORE PUSH1 0x12 PUSH1 0x4 MSTORE PUSH1 0x24 PUSH0 REVERT JUMPDEST PUSH0 PUSH2 0x98D DUP3 PUSH2 0x4FA JUMP JUMPDEST SWAP2 POP PUSH2 0x998 DUP4 PUSH2 0x4FA JUMP JUMPDEST SWAP3 POP DUP3 PUSH2 0x9A8 JUMPI PUSH2 0x9A7 PUSH2 0x956 JUMP JUMPDEST JUMPDEST DUP3 DUP3 DIV SWAP1 POP SWAP3 SWAP2 POP POP JUMP JUMPDEST PUSH0 PUSH2 0x9BD DUP3 PUSH2 0x4FA JUMP JUMPDEST SWAP2 POP PUSH2 0x9C8 DUP4 PUSH2 0x4FA JUMP JUMPDEST SWAP3 POP DUP3 DUP3 SUB SWAP1 POP DUP2 DUP2 GT ISZERO PUSH2 0x9E0 JUMPI PUSH2 0x9DF PUSH2 0x888 JUMP JUMPDEST JUMPDEST SWAP3 SWAP2 POP POP JUMP JUMPDEST PUSH32 0x496E73756666696369656E742062616C616E6365000000000000000000000000 PUSH0 DUP3 ADD MSTORE POP JUMP JUMPDEST PUSH0 PUSH2 0xA1A PUSH1 0x14 DUP4 PUSH2 0x810 JUMP JUMPDEST SWAP2 POP PUSH2 0xA25 DUP3 PUSH2 0x9E6 JUMP JUMPDEST PUSH1 0x20 DUP3 ADD SWAP1 POP SWAP2 SWAP1 POP JUMP JUMPDEST PUSH0 PUSH1 0x20 DUP3 ADD SWAP1 POP DUP2 DUP2 SUB PUSH0 DUP4 ADD MSTORE PUSH2 0xA47 DUP2 PUSH2 0xA0E JUMP JUMPDEST SWAP1 POP SWAP2 SWAP1 POP JUMP INVALID LOG2 PUSH5 0x6970667358 0x22 SLT KECCAK256 0xEF REVERT SUB 0xAF 0xF9 0xC0 SMOD CALL 0xDD MLOAD 0xE8 CALLDATACOPY ADDMOD POP 0xAB PUSH22 0xA5F3BFDE05CDD551612D70EEB1FAA65364736F6C6343 STOP ADDMOD BYTE STOP CALLER "
				},
				"gasEstimates": {
					"creation": {
						"codeDepositCost": "538400",
						"executionCost": "infinite",
						"totalCost": "infinite"
					},
					"external": {
						"A()": "2490",
						"D()": "2426",
						"calculateInvariant(uint256[])": "infinite",
						"deposit(address,uint256)": "infinite",
						"swap(address,address,uint256)": "infinite",
						"tokenBalances(address)": "2847",
						"withdraw(address,uint256)": "infinite"
					},
					"internal": {
						"calculatePriceImpact(uint256)": "27"
					}
				},
				"methodIdentifiers": {
					"A()": "f446c1d0",
					"D()": "0f529ba2",
					"calculateInvariant(uint256[])": "5cd1d31d",
					"deposit(address,uint256)": "47e7ef24",
					"swap(address,address,uint256)": "df791e50",
					"tokenBalances(address)": "523fba7f",
					"withdraw(address,uint256)": "f3fef3a3"
				}
			},
			"storageLayout": {
				"storage": [
					{
						"astId": 790,
						"contract": "contracts/StableSwapAMM.sol:StableSwapAMM",
						"label": "A",
						"offset": 0,
						"slot": "0",
						"type": "t_uint256"
					},
					{
						"astId": 792,
						"contract": "contracts/StableSwapAMM.sol:StableSwapAMM",
						"label": "D",
						"offset": 0,
						"slot": "1",
						"type": "t_uint256"
					},
					{
						"astId": 796,
						"contract": "contracts/StableSwapAMM.sol:StableSwapAMM",
						"label": "tokenBalances",
						"offset": 0,
						"slot": "2",
						"type": "t_mapping(t_address,t_uint256)"
					}
				],
				"types": {
					"t_address": {
						"encoding": "inplace",
						"label": "address",
						"numberOfBytes": "20"
					},
					"t_mapping(t_address,t_uint256)": {
						"encoding": "mapping",
						"key": "t_address",
						"label": "mapping(address => uint256)",
						"numberOfBytes": "32",
						"value": "t_uint256"
					},
					"t_uint256": {
						"encoding": "inplace",
						"label": "uint256",
						"numberOfBytes": "32"
					}
				}
			},
			"userdoc": {
				"kind": "user",
				"methods": {},
				"version": 1
			}
		}
	}
}