{
	"contracts/StableSwap_2.sol": {
		"StableSwap": {
			"abi": [
				{
					"inputs": [
						{
							"internalType": "address[3]",
							"name": "_tokens",
							"type": "address[3]"
						}
					],
					"stateMutability": "nonpayable",
					"type": "constructor"
				},
				{
					"inputs": [
						{
							"internalType": "uint256[3]",
							"name": "amounts",
							"type": "uint256[3]"
						},
						{
							"internalType": "uint256",
							"name": "minShares",
							"type": "uint256"
						}
					],
					"name": "addLiquidity",
					"outputs": [
						{
							"internalType": "uint256",
							"name": "shares",
							"type": "uint256"
						}
					],
					"stateMutability": "nonpayable",
					"type": "function"
				},
				{
					"inputs": [
						{
							"internalType": "address",
							"name": "",
							"type": "address"
						}
					],
					"name": "balanceOf",
					"outputs": [
						{
							"internalType": "uint256",
							"name": "",
							"type": "uint256"
						}
					],
					"stateMutability": "view",
					"type": "function"
				},
				{
					"inputs": [
						{
							"internalType": "uint256",
							"name": "",
							"type": "uint256"
						}
					],
					"name": "balances",
					"outputs": [
						{
							"internalType": "uint256",
							"name": "",
							"type": "uint256"
						}
					],
					"stateMutability": "view",
					"type": "function"
				},
				{
					"inputs": [
						{
							"internalType": "uint256",
							"name": "shares",
							"type": "uint256"
						},
						{
							"internalType": "uint256",
							"name": "i",
							"type": "uint256"
						}
					],
					"name": "calcWithdrawOneToken",
					"outputs": [
						{
							"internalType": "uint256",
							"name": "dy",
							"type": "uint256"
						},
						{
							"internalType": "uint256",
							"name": "fee",
							"type": "uint256"
						}
					],
					"stateMutability": "view",
					"type": "function"
				},
				{
					"inputs": [],
					"name": "getVirtualPrice",
					"outputs": [
						{
							"internalType": "uint256",
							"name": "",
							"type": "uint256"
						}
					],
					"stateMutability": "view",
					"type": "function"
				},
				{
					"inputs": [
						{
							"internalType": "uint256",
							"name": "shares",
							"type": "uint256"
						},
						{
							"internalType": "uint256[3]",
							"name": "minAmountsOut",
							"type": "uint256[3]"
						}
					],
					"name": "removeLiquidity",
					"outputs": [
						{
							"internalType": "uint256[3]",
							"name": "amountsOut",
							"type": "uint256[3]"
						}
					],
					"stateMutability": "nonpayable",
					"type": "function"
				},
				{
					"inputs": [
						{
							"internalType": "uint256",
							"name": "shares",
							"type": "uint256"
						},
						{
							"internalType": "uint256",
							"name": "i",
							"type": "uint256"
						},
						{
							"internalType": "uint256",
							"name": "minAmountOut",
							"type": "uint256"
						}
					],
					"name": "removeLiquidityOneToken",
					"outputs": [
						{
							"internalType": "uint256",
							"name": "amountOut",
							"type": "uint256"
						}
					],
					"stateMutability": "nonpayable",
					"type": "function"
				},
				{
					"inputs": [
						{
							"internalType": "uint256",
							"name": "i",
							"type": "uint256"
						},
						{
							"internalType": "uint256",
							"name": "j",
							"type": "uint256"
						},
						{
							"internalType": "uint256",
							"name": "dx",
							"type": "uint256"
						},
						{
							"internalType": "uint256",
							"name": "minDy",
							"type": "uint256"
						}
					],
					"name": "swap",
					"outputs": [
						{
							"internalType": "uint256",
							"name": "dy",
							"type": "uint256"
						}
					],
					"stateMutability": "nonpayable",
					"type": "function"
				},
				{
					"inputs": [
						{
							"internalType": "uint256",
							"name": "",
							"type": "uint256"
						}
					],
					"name": "tokens",
					"outputs": [
						{
							"internalType": "address",
							"name": "",
							"type": "address"
						}
					],
					"stateMutability": "view",
					"type": "function"
				},
				{
					"inputs": [],
					"name": "totalSupply",
					"outputs": [
						{
							"internalType": "uint256",
							"name": "",
							"type": "uint256"
						}
					],
					"stateMutability": "view",
					"type": "function"
				}
			],
			"devdoc": {
				"kind": "dev",
				"methods": {
					"swap(uint256,uint256,uint256,uint256)": {
						"params": {
							"dx": "Token in amount",
							"i": "Index of token in",
							"j": "Index of token out",
							"minDy": "Minimum token out"
						}
					}
				},
				"version": 1
			},
			"evm": {
				"assembly": "    /* \"contracts/StableSwap_2.sol\":622:10361  contract StableSwap {... */\n  mstore(0x40, 0x80)\n    /* \"contracts/StableSwap_2.sol\":1572:1620  uint256[N] private multipliers = [1, 1e12, 1e12] */\n  mload(0x40)\n  dup1\n  0x60\n  add\n  0x40\n  mstore\n  dup1\n    /* \"contracts/StableSwap_2.sol\":1606:1607  1 */\n  0x01\n    /* \"contracts/StableSwap_2.sol\":1572:1620  uint256[N] private multipliers = [1, 1e12, 1e12] */\n  0xffffffffff\n  and\n  dup2\n  mstore\n  0x20\n  add\n    /* \"contracts/StableSwap_2.sol\":1609:1613  1e12 */\n  0xe8d4a51000\n    /* \"contracts/StableSwap_2.sol\":1572:1620  uint256[N] private multipliers = [1, 1e12, 1e12] */\n  0xffffffffff\n  and\n  dup2\n  mstore\n  0x20\n  add\n    /* \"contracts/StableSwap_2.sol\":1615:1619  1e12 */\n  0xe8d4a51000\n    /* \"contracts/StableSwap_2.sol\":1572:1620  uint256[N] private multipliers = [1, 1e12, 1e12] */\n  0xffffffffff\n  and\n  dup2\n  mstore\n  pop\n  0x03\n  swap1\n  0x03\n  tag_1\n  swap3\n  swap2\n  swap1\n  tag_2\n  jump\t// in\ntag_1:\n  pop\n    /* \"contracts/StableSwap_2.sol\":1821:1893  constructor(address[N] memory _tokens) {... */\n  callvalue\n  dup1\n  iszero\n  tag_3\n  jumpi\n  0x00\n  dup1\n  revert\ntag_3:\n  pop\n  mload(0x40)\n  sub(codesize, bytecodeSize)\n  dup1\n  bytecodeSize\n  dup4\n  codecopy\n  dup2\n  dup2\n  add\n  0x40\n  mstore\n  dup2\n  add\n  swap1\n  tag_4\n  swap2\n  swap1\n  tag_5\n  jump\t// in\ntag_4:\n    /* \"contracts/StableSwap_2.sol\":1879:1886  _tokens */\n  dup1\n    /* \"contracts/StableSwap_2.sol\":1870:1876  tokens */\n  0x00\n    /* \"contracts/StableSwap_2.sol\":1870:1886  tokens = _tokens */\n  swap1\n  0x03\n  tag_8\n  swap3\n  swap2\n  swap1\n  tag_9\n  jump\t// in\ntag_8:\n  pop\n    /* \"contracts/StableSwap_2.sol\":1821:1893  constructor(address[N] memory _tokens) {... */\n  pop\n    /* \"contracts/StableSwap_2.sol\":622:10361  contract StableSwap {... */\n  jump(tag_10)\ntag_2:\n  dup3\n  0x03\n  dup2\n  add\n  swap3\n  dup3\n  iszero\n  tag_11\n  jumpi\n  swap2\n  0x20\n  mul\n  dup3\n  add\ntag_12:\n  dup3\n  dup2\n  gt\n  iszero\n  tag_13\n  jumpi\n  dup3\n  mload\n  dup3\n  swap1\n  0xffffffffff\n  and\n  swap1\n  sstore\n  swap2\n  0x20\n  add\n  swap2\n  swap1\n  0x01\n  add\n  swap1\n  jump(tag_12)\ntag_13:\ntag_11:\n  pop\n  swap1\n  pop\n  tag_14\n  swap2\n  swap1\n  tag_15\n  jump\t// in\ntag_14:\n  pop\n  swap1\n  jump\t// out\ntag_9:\n  dup3\n  0x03\n  dup2\n  add\n  swap3\n  dup3\n  iszero\n  tag_16\n  jumpi\n  swap2\n  0x20\n  mul\n  dup3\n  add\ntag_17:\n  dup3\n  dup2\n  gt\n  iszero\n  tag_18\n  jumpi\n  dup3\n  mload\n  dup3\n  exp(0x0100, 0x00)\n  dup2\n  sload\n  dup2\n  0xffffffffffffffffffffffffffffffffffffffff\n  mul\n  not\n  and\n  swap1\n  dup4\n  0xffffffffffffffffffffffffffffffffffffffff\n  and\n  mul\n  or\n  swap1\n  sstore\n  pop\n  swap2\n  0x20\n  add\n  swap2\n  swap1\n  0x01\n  add\n  swap1\n  jump(tag_17)\ntag_18:\ntag_16:\n  pop\n  swap1\n  pop\n  tag_19\n  swap2\n  swap1\n  tag_15\n  jump\t// in\ntag_19:\n  pop\n  swap1\n  jump\t// out\ntag_15:\ntag_20:\n  dup1\n  dup3\n  gt\n  iszero\n  tag_21\n  jumpi\n  0x00\n  dup2\n  0x00\n  swap1\n  sstore\n  pop\n  0x01\n  add\n  jump(tag_20)\ntag_21:\n  pop\n  swap1\n  jump\t// out\n    /* \"#utility.yul\":7:82   */\ntag_22:\n    /* \"#utility.yul\":40:46   */\n  0x00\n    /* \"#utility.yul\":73:75   */\n  0x40\n    /* \"#utility.yul\":67:76   */\n  mload\n    /* \"#utility.yul\":57:76   */\n  swap1\n  pop\n    /* \"#utility.yul\":7:82   */\n  swap1\n  jump\t// out\n    /* \"#utility.yul\":88:205   */\ntag_23:\n    /* \"#utility.yul\":197:198   */\n  0x00\n    /* \"#utility.yul\":194:195   */\n  dup1\n    /* \"#utility.yul\":187:199   */\n  revert\n    /* \"#utility.yul\":334:451   */\ntag_25:\n    /* \"#utility.yul\":443:444   */\n  0x00\n    /* \"#utility.yul\":440:441   */\n  dup1\n    /* \"#utility.yul\":433:445   */\n  revert\n    /* \"#utility.yul\":457:559   */\ntag_26:\n    /* \"#utility.yul\":498:504   */\n  0x00\n    /* \"#utility.yul\":549:551   */\n  0x1f\n    /* \"#utility.yul\":545:552   */\n  not\n    /* \"#utility.yul\":540:542   */\n  0x1f\n    /* \"#utility.yul\":533:538   */\n  dup4\n    /* \"#utility.yul\":529:543   */\n  add\n    /* \"#utility.yul\":525:553   */\n  and\n    /* \"#utility.yul\":515:553   */\n  swap1\n  pop\n    /* \"#utility.yul\":457:559   */\n  swap2\n  swap1\n  pop\n  jump\t// out\n    /* \"#utility.yul\":565:745   */\ntag_27:\n    /* \"#utility.yul\":613:690   */\n  0x4e487b7100000000000000000000000000000000000000000000000000000000\n    /* \"#utility.yul\":610:611   */\n  0x00\n    /* \"#utility.yul\":603:691   */\n  mstore\n    /* \"#utility.yul\":710:714   */\n  0x41\n    /* \"#utility.yul\":707:708   */\n  0x04\n    /* \"#utility.yul\":700:715   */\n  mstore\n    /* \"#utility.yul\":734:738   */\n  0x24\n    /* \"#utility.yul\":731:732   */\n  0x00\n    /* \"#utility.yul\":724:739   */\n  revert\n    /* \"#utility.yul\":751:1032   */\ntag_28:\n    /* \"#utility.yul\":834:861   */\n  tag_46\n    /* \"#utility.yul\":856:860   */\n  dup3\n    /* \"#utility.yul\":834:861   */\n  tag_26\n  jump\t// in\ntag_46:\n    /* \"#utility.yul\":826:832   */\n  dup2\n    /* \"#utility.yul\":822:862   */\n  add\n    /* \"#utility.yul\":964:970   */\n  dup2\n    /* \"#utility.yul\":952:962   */\n  dup2\n    /* \"#utility.yul\":949:971   */\n  lt\n    /* \"#utility.yul\":928:946   */\n  0xffffffffffffffff\n    /* \"#utility.yul\":916:926   */\n  dup3\n    /* \"#utility.yul\":913:947   */\n  gt\n    /* \"#utility.yul\":910:972   */\n  or\n    /* \"#utility.yul\":907:995   */\n  iszero\n  tag_47\n  jumpi\n    /* \"#utility.yul\":975:993   */\n  tag_48\n  tag_27\n  jump\t// in\ntag_48:\n    /* \"#utility.yul\":907:995   */\ntag_47:\n    /* \"#utility.yul\":1015:1025   */\n  dup1\n    /* \"#utility.yul\":1011:1013   */\n  0x40\n    /* \"#utility.yul\":1004:1026   */\n  mstore\n    /* \"#utility.yul\":794:1032   */\n  pop\n    /* \"#utility.yul\":751:1032   */\n  pop\n  pop\n  jump\t// out\n    /* \"#utility.yul\":1038:1167   */\ntag_29:\n    /* \"#utility.yul\":1072:1078   */\n  0x00\n    /* \"#utility.yul\":1099:1119   */\n  tag_50\n  tag_22\n  jump\t// in\ntag_50:\n    /* \"#utility.yul\":1089:1119   */\n  swap1\n  pop\n    /* \"#utility.yul\":1128:1161   */\n  tag_51\n    /* \"#utility.yul\":1156:1160   */\n  dup3\n    /* \"#utility.yul\":1148:1154   */\n  dup3\n    /* \"#utility.yul\":1128:1161   */\n  tag_28\n  jump\t// in\ntag_51:\n    /* \"#utility.yul\":1038:1167   */\n  swap2\n  swap1\n  pop\n  jump\t// out\n    /* \"#utility.yul\":1173:1422   */\ntag_30:\n    /* \"#utility.yul\":1248:1252   */\n  0x00\n    /* \"#utility.yul\":1338:1356   */\n  0xffffffffffffffff\n    /* \"#utility.yul\":1330:1336   */\n  dup3\n    /* \"#utility.yul\":1327:1357   */\n  gt\n    /* \"#utility.yul\":1324:1380   */\n  iszero\n  tag_53\n  jumpi\n    /* \"#utility.yul\":1360:1378   */\n  tag_54\n  tag_27\n  jump\t// in\ntag_54:\n    /* \"#utility.yul\":1324:1380   */\ntag_53:\n    /* \"#utility.yul\":1410:1414   */\n  0x20\n    /* \"#utility.yul\":1402:1408   */\n  dup3\n    /* \"#utility.yul\":1398:1415   */\n  mul\n    /* \"#utility.yul\":1390:1415   */\n  swap1\n  pop\n    /* \"#utility.yul\":1173:1422   */\n  swap2\n  swap1\n  pop\n  jump\t// out\n    /* \"#utility.yul\":1428:1545   */\ntag_31:\n    /* \"#utility.yul\":1537:1538   */\n  0x00\n    /* \"#utility.yul\":1534:1535   */\n  dup1\n    /* \"#utility.yul\":1527:1539   */\n  revert\n    /* \"#utility.yul\":1551:1677   */\ntag_32:\n    /* \"#utility.yul\":1588:1595   */\n  0x00\n    /* \"#utility.yul\":1628:1670   */\n  0xffffffffffffffffffffffffffffffffffffffff\n    /* \"#utility.yul\":1621:1626   */\n  dup3\n    /* \"#utility.yul\":1617:1671   */\n  and\n    /* \"#utility.yul\":1606:1671   */\n  swap1\n  pop\n    /* \"#utility.yul\":1551:1677   */\n  swap2\n  swap1\n  pop\n  jump\t// out\n    /* \"#utility.yul\":1683:1779   */\ntag_33:\n    /* \"#utility.yul\":1720:1727   */\n  0x00\n    /* \"#utility.yul\":1749:1773   */\n  tag_58\n    /* \"#utility.yul\":1767:1772   */\n  dup3\n    /* \"#utility.yul\":1749:1773   */\n  tag_32\n  jump\t// in\ntag_58:\n    /* \"#utility.yul\":1738:1773   */\n  swap1\n  pop\n    /* \"#utility.yul\":1683:1779   */\n  swap2\n  swap1\n  pop\n  jump\t// out\n    /* \"#utility.yul\":1785:1907   */\ntag_34:\n    /* \"#utility.yul\":1858:1882   */\n  tag_60\n    /* \"#utility.yul\":1876:1881   */\n  dup2\n    /* \"#utility.yul\":1858:1882   */\n  tag_33\n  jump\t// in\ntag_60:\n    /* \"#utility.yul\":1851:1856   */\n  dup2\n    /* \"#utility.yul\":1848:1883   */\n  eq\n    /* \"#utility.yul\":1838:1901   */\n  tag_61\n  jumpi\n    /* \"#utility.yul\":1897:1898   */\n  0x00\n    /* \"#utility.yul\":1894:1895   */\n  dup1\n    /* \"#utility.yul\":1887:1899   */\n  revert\n    /* \"#utility.yul\":1838:1901   */\ntag_61:\n    /* \"#utility.yul\":1785:1907   */\n  pop\n  jump\t// out\n    /* \"#utility.yul\":1913:2056   */\ntag_35:\n    /* \"#utility.yul\":1970:1975   */\n  0x00\n    /* \"#utility.yul\":2001:2007   */\n  dup2\n    /* \"#utility.yul\":1995:2008   */\n  mload\n    /* \"#utility.yul\":1986:2008   */\n  swap1\n  pop\n    /* \"#utility.yul\":2017:2050   */\n  tag_63\n    /* \"#utility.yul\":2044:2049   */\n  dup2\n    /* \"#utility.yul\":2017:2050   */\n  tag_34\n  jump\t// in\ntag_63:\n    /* \"#utility.yul\":1913:2056   */\n  swap3\n  swap2\n  pop\n  pop\n  jump\t// out\n    /* \"#utility.yul\":2080:2745   */\ntag_36:\n    /* \"#utility.yul\":2185:2190   */\n  0x00\n    /* \"#utility.yul\":2210:2289   */\n  tag_65\n    /* \"#utility.yul\":2226:2288   */\n  tag_66\n    /* \"#utility.yul\":2281:2287   */\n  dup5\n    /* \"#utility.yul\":2226:2288   */\n  tag_30\n  jump\t// in\ntag_66:\n    /* \"#utility.yul\":2210:2289   */\n  tag_29\n  jump\t// in\ntag_65:\n    /* \"#utility.yul\":2201:2289   */\n  swap1\n  pop\n    /* \"#utility.yul\":2309:2314   */\n  dup1\n    /* \"#utility.yul\":2362:2366   */\n  0x20\n    /* \"#utility.yul\":2354:2360   */\n  dup5\n    /* \"#utility.yul\":2350:2367   */\n  mul\n    /* \"#utility.yul\":2342:2348   */\n  dup4\n    /* \"#utility.yul\":2338:2368   */\n  add\n    /* \"#utility.yul\":2391:2394   */\n  dup6\n    /* \"#utility.yul\":2383:2389   */\n  dup2\n    /* \"#utility.yul\":2380:2395   */\n  gt\n    /* \"#utility.yul\":2377:2499   */\n  iszero\n  tag_67\n  jumpi\n    /* \"#utility.yul\":2410:2489   */\n  tag_68\n  tag_31\n  jump\t// in\ntag_68:\n    /* \"#utility.yul\":2377:2499   */\ntag_67:\n    /* \"#utility.yul\":2525:2531   */\n  dup4\n    /* \"#utility.yul\":2508:2739   */\ntag_69:\n    /* \"#utility.yul\":2542:2548   */\n  dup2\n    /* \"#utility.yul\":2537:2540   */\n  dup2\n    /* \"#utility.yul\":2534:2549   */\n  lt\n    /* \"#utility.yul\":2508:2739   */\n  iszero\n  tag_71\n  jumpi\n    /* \"#utility.yul\":2617:2620   */\n  dup1\n    /* \"#utility.yul\":2646:2694   */\n  tag_72\n    /* \"#utility.yul\":2690:2693   */\n  dup9\n    /* \"#utility.yul\":2678:2688   */\n  dup3\n    /* \"#utility.yul\":2646:2694   */\n  tag_35\n  jump\t// in\ntag_72:\n    /* \"#utility.yul\":2641:2644   */\n  dup5\n    /* \"#utility.yul\":2634:2695   */\n  mstore\n    /* \"#utility.yul\":2724:2728   */\n  0x20\n    /* \"#utility.yul\":2719:2722   */\n  dup5\n    /* \"#utility.yul\":2715:2729   */\n  add\n    /* \"#utility.yul\":2708:2729   */\n  swap4\n  pop\n    /* \"#utility.yul\":2584:2739   */\n  pop\n    /* \"#utility.yul\":2568:2572   */\n  0x20\n    /* \"#utility.yul\":2563:2566   */\n  dup2\n    /* \"#utility.yul\":2559:2573   */\n  add\n    /* \"#utility.yul\":2552:2573   */\n  swap1\n  pop\n    /* \"#utility.yul\":2508:2739   */\n  jump(tag_69)\ntag_71:\n    /* \"#utility.yul\":2512:2533   */\n  pop\n    /* \"#utility.yul\":2191:2745   */\n  pop\n  pop\n    /* \"#utility.yul\":2080:2745   */\n  swap4\n  swap3\n  pop\n  pop\n  pop\n  jump\t// out\n    /* \"#utility.yul\":2769:3130   */\ntag_37:\n    /* \"#utility.yul\":2849:2854   */\n  0x00\n    /* \"#utility.yul\":2898:2901   */\n  dup3\n    /* \"#utility.yul\":2891:2895   */\n  0x1f\n    /* \"#utility.yul\":2883:2889   */\n  dup4\n    /* \"#utility.yul\":2879:2896   */\n  add\n    /* \"#utility.yul\":2875:2902   */\n  slt\n    /* \"#utility.yul\":2865:2987   */\n  tag_74\n  jumpi\n    /* \"#utility.yul\":2906:2985   */\n  tag_75\n  tag_25\n  jump\t// in\ntag_75:\n    /* \"#utility.yul\":2865:2987   */\ntag_74:\n    /* \"#utility.yul\":3010:3014   */\n  0x03\n    /* \"#utility.yul\":3032:3124   */\n  tag_76\n    /* \"#utility.yul\":3120:3123   */\n  dup5\n    /* \"#utility.yul\":3112:3118   */\n  dup3\n    /* \"#utility.yul\":3104:3110   */\n  dup6\n    /* \"#utility.yul\":3032:3124   */\n  tag_36\n  jump\t// in\ntag_76:\n    /* \"#utility.yul\":3023:3124   */\n  swap2\n  pop\n    /* \"#utility.yul\":2855:3130   */\n  pop\n    /* \"#utility.yul\":2769:3130   */\n  swap3\n  swap2\n  pop\n  pop\n  jump\t// out\n    /* \"#utility.yul\":3136:3533   */\ntag_5:\n    /* \"#utility.yul\":3229:3235   */\n  0x00\n    /* \"#utility.yul\":3278:3280   */\n  0x60\n    /* \"#utility.yul\":3266:3275   */\n  dup3\n    /* \"#utility.yul\":3257:3264   */\n  dup5\n    /* \"#utility.yul\":3253:3276   */\n  sub\n    /* \"#utility.yul\":3249:3281   */\n  slt\n    /* \"#utility.yul\":3246:3365   */\n  iszero\n  tag_78\n  jumpi\n    /* \"#utility.yul\":3284:3363   */\n  tag_79\n  tag_23\n  jump\t// in\ntag_79:\n    /* \"#utility.yul\":3246:3365   */\ntag_78:\n    /* \"#utility.yul\":3404:3405   */\n  0x00\n    /* \"#utility.yul\":3429:3516   */\n  tag_80\n    /* \"#utility.yul\":3508:3515   */\n  dup5\n    /* \"#utility.yul\":3499:3505   */\n  dup3\n    /* \"#utility.yul\":3488:3497   */\n  dup6\n    /* \"#utility.yul\":3484:3506   */\n  add\n    /* \"#utility.yul\":3429:3516   */\n  tag_37\n  jump\t// in\ntag_80:\n    /* \"#utility.yul\":3419:3516   */\n  swap2\n  pop\n    /* \"#utility.yul\":3375:3526   */\n  pop\n    /* \"#utility.yul\":3136:3533   */\n  swap3\n  swap2\n  pop\n  pop\n  jump\t// out\n    /* \"contracts/StableSwap_2.sol\":622:10361  contract StableSwap {... */\ntag_10:\n  dataSize(sub_0)\n  dup1\n  dataOffset(sub_0)\n  0x00\n  codecopy\n  0x00\n  return\nstop\n\nsub_0: assembly {\n        /* \"contracts/StableSwap_2.sol\":622:10361  contract StableSwap {... */\n      mstore(0x40, 0x80)\n      callvalue\n      dup1\n      iszero\n      tag_1\n      jumpi\n      0x00\n      dup1\n      revert\n    tag_1:\n      pop\n      jumpi(tag_2, lt(calldatasize, 0x04))\n      shr(0xe0, calldataload(0x00))\n      dup1\n      0x70a08231\n      gt\n      tag_13\n      jumpi\n      dup1\n      0x70a08231\n      eq\n      tag_8\n      jumpi\n      dup1\n      0xa4bf0446\n      eq\n      tag_9\n      jumpi\n      dup1\n      0xa60dc3b1\n      eq\n      tag_10\n      jumpi\n      dup1\n      0xd035862c\n      eq\n      tag_11\n      jumpi\n      dup1\n      0xe25aa5fa\n      eq\n      tag_12\n      jumpi\n      jump(tag_2)\n    tag_13:\n      dup1\n      0x18160ddd\n      eq\n      tag_3\n      jumpi\n      dup1\n      0x4903b0d1\n      eq\n      tag_4\n      jumpi\n      dup1\n      0x4f64b2be\n      eq\n      tag_5\n      jumpi\n      dup1\n      0x5673b02d\n      eq\n      tag_6\n      jumpi\n      dup1\n      0x7066b5b2\n      eq\n      tag_7\n      jumpi\n    tag_2:\n      0x00\n      dup1\n      revert\n        /* \"contracts/StableSwap_2.sol\":1738:1764  uint256 public totalSupply */\n    tag_3:\n      tag_14\n      tag_15\n      jump\t// in\n    tag_14:\n      mload(0x40)\n      tag_16\n      swap2\n      swap1\n      tag_17\n      jump\t// in\n    tag_16:\n      mload(0x40)\n      dup1\n      swap2\n      sub\n      swap1\n      return\n        /* \"contracts/StableSwap_2.sol\":1626:1652  uint256[N] public balances */\n    tag_4:\n      tag_18\n      0x04\n      dup1\n      calldatasize\n      sub\n      dup2\n      add\n      swap1\n      tag_19\n      swap2\n      swap1\n      tag_20\n      jump\t// in\n    tag_19:\n      tag_21\n      jump\t// in\n    tag_18:\n      mload(0x40)\n      tag_22\n      swap2\n      swap1\n      tag_17\n      jump\t// in\n    tag_22:\n      mload(0x40)\n      dup1\n      swap2\n      sub\n      swap1\n      return\n        /* \"contracts/StableSwap_2.sol\":1426:1450  address[N] public tokens */\n    tag_5:\n      tag_23\n      0x04\n      dup1\n      calldatasize\n      sub\n      dup2\n      add\n      swap1\n      tag_24\n      swap2\n      swap1\n      tag_20\n      jump\t// in\n    tag_24:\n      tag_25\n      jump\t// in\n    tag_23:\n      mload(0x40)\n      tag_26\n      swap2\n      swap1\n      tag_27\n      jump\t// in\n    tag_26:\n      mload(0x40)\n      dup1\n      swap2\n      sub\n      swap1\n      return\n        /* \"contracts/StableSwap_2.sol\":6220:6876  function swap(uint256 i, uint256 j, uint256 dx, uint256 minDy)... */\n    tag_6:\n      tag_28\n      0x04\n      dup1\n      calldatasize\n      sub\n      dup2\n      add\n      swap1\n      tag_29\n      swap2\n      swap1\n      tag_30\n      jump\t// in\n    tag_29:\n      tag_31\n      jump\t// in\n    tag_28:\n      mload(0x40)\n      tag_32\n      swap2\n      swap1\n      tag_17\n      jump\t// in\n    tag_32:\n      mload(0x40)\n      dup1\n      swap2\n      sub\n      swap1\n      return\n        /* \"contracts/StableSwap_2.sol\":9959:10359  function removeLiquidityOneToken(... */\n    tag_7:\n      tag_33\n      0x04\n      dup1\n      calldatasize\n      sub\n      dup2\n      add\n      swap1\n      tag_34\n      swap2\n      swap1\n      tag_35\n      jump\t// in\n    tag_34:\n      tag_36\n      jump\t// in\n    tag_33:\n      mload(0x40)\n      tag_37\n      swap2\n      swap1\n      tag_17\n      jump\t// in\n    tag_37:\n      mload(0x40)\n      dup1\n      swap2\n      sub\n      swap1\n      return\n        /* \"contracts/StableSwap_2.sol\":1770:1814  mapping(address => uint256) public balanceOf */\n    tag_8:\n      tag_38\n      0x04\n      dup1\n      calldatasize\n      sub\n      dup2\n      add\n      swap1\n      tag_39\n      swap2\n      swap1\n      tag_40\n      jump\t// in\n    tag_39:\n      tag_41\n      jump\t// in\n    tag_38:\n      mload(0x40)\n      tag_42\n      swap2\n      swap1\n      tag_17\n      jump\t// in\n    tag_42:\n      mload(0x40)\n      dup1\n      swap2\n      sub\n      swap1\n      return\n        /* \"contracts/StableSwap_2.sol\":6882:8378  function addLiquidity(uint256[N] calldata amounts, uint256 minShares)... */\n    tag_9:\n      tag_43\n      0x04\n      dup1\n      calldatasize\n      sub\n      dup2\n      add\n      swap1\n      tag_44\n      swap2\n      swap1\n      tag_45\n      jump\t// in\n    tag_44:\n      tag_46\n      jump\t// in\n    tag_43:\n      mload(0x40)\n      tag_47\n      swap2\n      swap1\n      tag_17\n      jump\t// in\n    tag_47:\n      mload(0x40)\n      dup1\n      swap2\n      sub\n      swap1\n      return\n        /* \"contracts/StableSwap_2.sol\":9764:9953  function calcWithdrawOneToken(uint256 shares, uint256 i)... */\n    tag_10:\n      tag_48\n      0x04\n      dup1\n      calldatasize\n      sub\n      dup2\n      add\n      swap1\n      tag_49\n      swap2\n      swap1\n      tag_50\n      jump\t// in\n    tag_49:\n      tag_51\n      jump\t// in\n    tag_48:\n      mload(0x40)\n      tag_52\n      swap3\n      swap2\n      swap1\n      tag_53\n      jump\t// in\n    tag_52:\n      mload(0x40)\n      dup1\n      swap2\n      sub\n      swap1\n      return\n        /* \"contracts/StableSwap_2.sol\":8384:8946  function removeLiquidity(uint256 shares, uint256[N] calldata minAmountsOut)... */\n    tag_11:\n      tag_54\n      0x04\n      dup1\n      calldatasize\n      sub\n      dup2\n      add\n      swap1\n      tag_55\n      swap2\n      swap1\n      tag_56\n      jump\t// in\n    tag_55:\n      tag_57\n      jump\t// in\n    tag_54:\n      mload(0x40)\n      tag_58\n      swap2\n      swap1\n      tag_59\n      jump\t// in\n    tag_58:\n      mload(0x40)\n      dup1\n      swap2\n      sub\n      swap1\n      return\n        /* \"contracts/StableSwap_2.sol\":5791:6005  function getVirtualPrice() external view returns (uint256) {... */\n    tag_12:\n      tag_60\n      tag_61\n      jump\t// in\n    tag_60:\n      mload(0x40)\n      tag_62\n      swap2\n      swap1\n      tag_17\n      jump\t// in\n    tag_62:\n      mload(0x40)\n      dup1\n      swap2\n      sub\n      swap1\n      return\n        /* \"contracts/StableSwap_2.sol\":1738:1764  uint256 public totalSupply */\n    tag_15:\n      sload(0x09)\n      dup2\n      jump\t// out\n        /* \"contracts/StableSwap_2.sol\":1626:1652  uint256[N] public balances */\n    tag_21:\n      0x06\n      dup2\n      0x03\n      dup2\n      lt\n      tag_63\n      jumpi\n      0x00\n      dup1\n      revert\n    tag_63:\n      add\n      0x00\n      swap2\n      pop\n      swap1\n      pop\n      sload\n      dup2\n      jump\t// out\n        /* \"contracts/StableSwap_2.sol\":1426:1450  address[N] public tokens */\n    tag_25:\n      0x00\n      dup2\n      0x03\n      dup2\n      lt\n      tag_65\n      jumpi\n      0x00\n      dup1\n      revert\n    tag_65:\n      add\n      0x00\n      swap2\n      pop\n      sload\n      swap1\n      0x0100\n      exp\n      swap1\n      div\n      0xffffffffffffffffffffffffffffffffffffffff\n      and\n      dup2\n      jump\t// out\n        /* \"contracts/StableSwap_2.sol\":6220:6876  function swap(uint256 i, uint256 j, uint256 dx, uint256 minDy)... */\n    tag_31:\n        /* \"contracts/StableSwap_2.sol\":6317:6327  uint256 dy */\n      0x00\n        /* \"contracts/StableSwap_2.sol\":6356:6357  j */\n      dup4\n        /* \"contracts/StableSwap_2.sol\":6351:6352  i */\n      dup6\n        /* \"contracts/StableSwap_2.sol\":6351:6357  i != j */\n      sub\n        /* \"contracts/StableSwap_2.sol\":6343:6367  require(i != j, \"i = j\") */\n      tag_68\n      jumpi\n      mload(0x40)\n      0x08c379a000000000000000000000000000000000000000000000000000000000\n      dup2\n      mstore\n      0x04\n      add\n      tag_69\n      swap1\n      tag_70\n      jump\t// in\n    tag_69:\n      mload(0x40)\n      dup1\n      swap2\n      sub\n      swap1\n      revert\n    tag_68:\n        /* \"contracts/StableSwap_2.sol\":6385:6391  tokens */\n      0x00\n        /* \"contracts/StableSwap_2.sol\":6392:6393  i */\n      dup6\n        /* \"contracts/StableSwap_2.sol\":6385:6394  tokens[i] */\n      0x03\n      dup2\n      lt\n      tag_71\n      jumpi\n      tag_72\n      tag_73\n      jump\t// in\n    tag_72:\n    tag_71:\n      add\n      0x00\n      swap1\n      sload\n      swap1\n      0x0100\n      exp\n      swap1\n      div\n      0xffffffffffffffffffffffffffffffffffffffff\n      and\n        /* \"contracts/StableSwap_2.sol\":6378:6408  IERC20(tokens[i]).transferFrom */\n      0xffffffffffffffffffffffffffffffffffffffff\n      and\n      0x23b872dd\n        /* \"contracts/StableSwap_2.sol\":6409:6419  msg.sender */\n      caller\n        /* \"contracts/StableSwap_2.sol\":6429:6433  this */\n      address\n        /* \"contracts/StableSwap_2.sol\":6436:6438  dx */\n      dup7\n        /* \"contracts/StableSwap_2.sol\":6378:6439  IERC20(tokens[i]).transferFrom(msg.sender, address(this), dx) */\n      mload(0x40)\n      dup5\n      0xffffffff\n      and\n      0xe0\n      shl\n      dup2\n      mstore\n      0x04\n      add\n      tag_75\n      swap4\n      swap3\n      swap2\n      swap1\n      tag_76\n      jump\t// in\n    tag_75:\n      0x20\n      mload(0x40)\n      dup1\n      dup4\n      sub\n      dup2\n      0x00\n      dup8\n      gas\n      call\n      iszero\n      dup1\n      iszero\n      tag_78\n      jumpi\n      returndatasize\n      0x00\n      dup1\n      returndatacopy\n      revert(0x00, returndatasize)\n    tag_78:\n      pop\n      pop\n      pop\n      pop\n      mload(0x40)\n      returndatasize\n      not(0x1f)\n      0x1f\n      dup3\n      add\n      and\n      dup3\n      add\n      dup1\n      0x40\n      mstore\n      pop\n      dup2\n      add\n      swap1\n      tag_79\n      swap2\n      swap1\n      tag_80\n      jump\t// in\n    tag_79:\n      pop\n        /* \"contracts/StableSwap_2.sol\":6450:6470  uint256[N] memory xp */\n      0x00\n        /* \"contracts/StableSwap_2.sol\":6473:6478  _xp() */\n      tag_81\n        /* \"contracts/StableSwap_2.sol\":6473:6476  _xp */\n      tag_82\n        /* \"contracts/StableSwap_2.sol\":6473:6478  _xp() */\n      jump\t// in\n    tag_81:\n        /* \"contracts/StableSwap_2.sol\":6450:6478  uint256[N] memory xp = _xp() */\n      swap1\n      pop\n        /* \"contracts/StableSwap_2.sol\":6488:6497  uint256 x */\n      0x00\n        /* \"contracts/StableSwap_2.sol\":6513:6524  multipliers */\n      0x03\n        /* \"contracts/StableSwap_2.sol\":6525:6526  i */\n      dup8\n        /* \"contracts/StableSwap_2.sol\":6513:6527  multipliers[i] */\n      0x03\n      dup2\n      lt\n      tag_83\n      jumpi\n      tag_84\n      tag_73\n      jump\t// in\n    tag_84:\n    tag_83:\n      add\n      sload\n        /* \"contracts/StableSwap_2.sol\":6508:6510  dx */\n      dup6\n        /* \"contracts/StableSwap_2.sol\":6508:6527  dx * multipliers[i] */\n      tag_86\n      swap2\n      swap1\n      tag_87\n      jump\t// in\n    tag_86:\n        /* \"contracts/StableSwap_2.sol\":6500:6502  xp */\n      dup3\n        /* \"contracts/StableSwap_2.sol\":6503:6504  i */\n      dup9\n        /* \"contracts/StableSwap_2.sol\":6500:6505  xp[i] */\n      0x03\n      dup2\n      lt\n      tag_88\n      jumpi\n      tag_89\n      tag_73\n      jump\t// in\n    tag_89:\n    tag_88:\n      0x20\n      mul\n      add\n      mload\n        /* \"contracts/StableSwap_2.sol\":6500:6527  xp[i] + dx * multipliers[i] */\n      tag_90\n      swap2\n      swap1\n      tag_91\n      jump\t// in\n    tag_90:\n        /* \"contracts/StableSwap_2.sol\":6488:6527  uint256 x = xp[i] + dx * multipliers[i] */\n      swap1\n      pop\n        /* \"contracts/StableSwap_2.sol\":6538:6548  uint256 y0 */\n      0x00\n        /* \"contracts/StableSwap_2.sol\":6551:6553  xp */\n      dup3\n        /* \"contracts/StableSwap_2.sol\":6554:6555  j */\n      dup8\n        /* \"contracts/StableSwap_2.sol\":6551:6556  xp[j] */\n      0x03\n      dup2\n      lt\n      tag_92\n      jumpi\n      tag_93\n      tag_73\n      jump\t// in\n    tag_93:\n    tag_92:\n      0x20\n      mul\n      add\n      mload\n        /* \"contracts/StableSwap_2.sol\":6538:6556  uint256 y0 = xp[j] */\n      swap1\n      pop\n        /* \"contracts/StableSwap_2.sol\":6566:6576  uint256 y1 */\n      0x00\n        /* \"contracts/StableSwap_2.sol\":6579:6597  _getY(i, j, x, xp) */\n      tag_94\n        /* \"contracts/StableSwap_2.sol\":6585:6586  i */\n      dup10\n        /* \"contracts/StableSwap_2.sol\":6588:6589  j */\n      dup10\n        /* \"contracts/StableSwap_2.sol\":6591:6592  x */\n      dup6\n        /* \"contracts/StableSwap_2.sol\":6594:6596  xp */\n      dup8\n        /* \"contracts/StableSwap_2.sol\":6579:6584  _getY */\n      tag_95\n        /* \"contracts/StableSwap_2.sol\":6579:6597  _getY(i, j, x, xp) */\n      jump\t// in\n    tag_94:\n        /* \"contracts/StableSwap_2.sol\":6566:6597  uint256 y1 = _getY(i, j, x, xp) */\n      swap1\n      pop\n        /* \"contracts/StableSwap_2.sol\":6628:6639  multipliers */\n      0x03\n        /* \"contracts/StableSwap_2.sol\":6640:6641  j */\n      dup9\n        /* \"contracts/StableSwap_2.sol\":6628:6642  multipliers[j] */\n      0x03\n      dup2\n      lt\n      tag_96\n      jumpi\n      tag_97\n      tag_73\n      jump\t// in\n    tag_97:\n    tag_96:\n      add\n      sload\n        /* \"contracts/StableSwap_2.sol\":6623:6624  1 */\n      0x01\n        /* \"contracts/StableSwap_2.sol\":6618:6620  y1 */\n      dup3\n        /* \"contracts/StableSwap_2.sol\":6613:6615  y0 */\n      dup5\n        /* \"contracts/StableSwap_2.sol\":6613:6620  y0 - y1 */\n      tag_99\n      swap2\n      swap1\n      tag_100\n      jump\t// in\n    tag_99:\n        /* \"contracts/StableSwap_2.sol\":6613:6624  y0 - y1 - 1 */\n      tag_101\n      swap2\n      swap1\n      tag_100\n      jump\t// in\n    tag_101:\n        /* \"contracts/StableSwap_2.sol\":6612:6642  (y0 - y1 - 1) / multipliers[j] */\n      tag_102\n      swap2\n      swap1\n      tag_103\n      jump\t// in\n    tag_102:\n        /* \"contracts/StableSwap_2.sol\":6607:6642  dy = (y0 - y1 - 1) / multipliers[j] */\n      swap5\n      pop\n        /* \"contracts/StableSwap_2.sol\":6653:6664  uint256 fee */\n      0x00\n        /* \"contracts/StableSwap_2.sol\":1416:1419  1e6 */\n      0x0f4240\n        /* \"contracts/StableSwap_2.sol\":982:985  300 */\n      0x012c\n        /* \"contracts/StableSwap_2.sol\":6668:6670  dy */\n      dup8\n        /* \"contracts/StableSwap_2.sol\":6668:6681  dy * SWAP_FEE */\n      tag_104\n      swap2\n      swap1\n      tag_87\n      jump\t// in\n    tag_104:\n        /* \"contracts/StableSwap_2.sol\":6667:6700  (dy * SWAP_FEE) / FEE_DENOMINATOR */\n      tag_105\n      swap2\n      swap1\n      tag_103\n      jump\t// in\n    tag_105:\n        /* \"contracts/StableSwap_2.sol\":6653:6700  uint256 fee = (dy * SWAP_FEE) / FEE_DENOMINATOR */\n      swap1\n      pop\n        /* \"contracts/StableSwap_2.sol\":6716:6719  fee */\n      dup1\n        /* \"contracts/StableSwap_2.sol\":6710:6719  dy -= fee */\n      dup7\n      tag_106\n      swap2\n      swap1\n      tag_100\n      jump\t// in\n    tag_106:\n      swap6\n      pop\n        /* \"contracts/StableSwap_2.sol\":6743:6748  minDy */\n      dup7\n        /* \"contracts/StableSwap_2.sol\":6737:6739  dy */\n      dup7\n        /* \"contracts/StableSwap_2.sol\":6737:6748  dy >= minDy */\n      lt\n      iszero\n        /* \"contracts/StableSwap_2.sol\":6729:6761  require(dy >= minDy, \"dy < min\") */\n      tag_107\n      jumpi\n      mload(0x40)\n      0x08c379a000000000000000000000000000000000000000000000000000000000\n      dup2\n      mstore\n      0x04\n      add\n      tag_108\n      swap1\n      tag_109\n      jump\t// in\n    tag_108:\n      mload(0x40)\n      dup1\n      swap2\n      sub\n      swap1\n      revert\n    tag_107:\n        /* \"contracts/StableSwap_2.sol\":6787:6789  dx */\n      dup8\n        /* \"contracts/StableSwap_2.sol\":6772:6780  balances */\n      0x06\n        /* \"contracts/StableSwap_2.sol\":6781:6782  i */\n      dup12\n        /* \"contracts/StableSwap_2.sol\":6772:6783  balances[i] */\n      0x03\n      dup2\n      lt\n      tag_110\n      jumpi\n      tag_111\n      tag_73\n      jump\t// in\n    tag_111:\n    tag_110:\n      add\n      0x00\n        /* \"contracts/StableSwap_2.sol\":6772:6789  balances[i] += dx */\n      dup3\n      dup3\n      sload\n      tag_113\n      swap2\n      swap1\n      tag_91\n      jump\t// in\n    tag_113:\n      swap3\n      pop\n      pop\n      dup2\n      swap1\n      sstore\n      pop\n        /* \"contracts/StableSwap_2.sol\":6814:6816  dy */\n      dup6\n        /* \"contracts/StableSwap_2.sol\":6799:6807  balances */\n      0x06\n        /* \"contracts/StableSwap_2.sol\":6808:6809  j */\n      dup11\n        /* \"contracts/StableSwap_2.sol\":6799:6810  balances[j] */\n      0x03\n      dup2\n      lt\n      tag_114\n      jumpi\n      tag_115\n      tag_73\n      jump\t// in\n    tag_115:\n    tag_114:\n      add\n      0x00\n        /* \"contracts/StableSwap_2.sol\":6799:6816  balances[j] -= dy */\n      dup3\n      dup3\n      sload\n      tag_117\n      swap2\n      swap1\n      tag_100\n      jump\t// in\n    tag_117:\n      swap3\n      pop\n      pop\n      dup2\n      swap1\n      sstore\n      pop\n        /* \"contracts/StableSwap_2.sol\":6834:6840  tokens */\n      0x00\n        /* \"contracts/StableSwap_2.sol\":6841:6842  j */\n      dup10\n        /* \"contracts/StableSwap_2.sol\":6834:6843  tokens[j] */\n      0x03\n      dup2\n      lt\n      tag_118\n      jumpi\n      tag_119\n      tag_73\n      jump\t// in\n    tag_119:\n    tag_118:\n      add\n      0x00\n      swap1\n      sload\n      swap1\n      0x0100\n      exp\n      swap1\n      div\n      0xffffffffffffffffffffffffffffffffffffffff\n      and\n        /* \"contracts/StableSwap_2.sol\":6827:6853  IERC20(tokens[j]).transfer */\n      0xffffffffffffffffffffffffffffffffffffffff\n      and\n      0xa9059cbb\n        /* \"contracts/StableSwap_2.sol\":6854:6864  msg.sender */\n      caller\n        /* \"contracts/StableSwap_2.sol\":6866:6868  dy */\n      dup9\n        /* \"contracts/StableSwap_2.sol\":6827:6869  IERC20(tokens[j]).transfer(msg.sender, dy) */\n      mload(0x40)\n      dup4\n      0xffffffff\n      and\n      0xe0\n      shl\n      dup2\n      mstore\n      0x04\n      add\n      tag_121\n      swap3\n      swap2\n      swap1\n      tag_122\n      jump\t// in\n    tag_121:\n      0x20\n      mload(0x40)\n      dup1\n      dup4\n      sub\n      dup2\n      0x00\n      dup8\n      gas\n      call\n      iszero\n      dup1\n      iszero\n      tag_124\n      jumpi\n      returndatasize\n      0x00\n      dup1\n      returndatacopy\n      revert(0x00, returndatasize)\n    tag_124:\n      pop\n      pop\n      pop\n      pop\n      mload(0x40)\n      returndatasize\n      not(0x1f)\n      0x1f\n      dup3\n      add\n      and\n      dup3\n      add\n      dup1\n      0x40\n      mstore\n      pop\n      dup2\n      add\n      swap1\n      tag_125\n      swap2\n      swap1\n      tag_80\n      jump\t// in\n    tag_125:\n      pop\n        /* \"contracts/StableSwap_2.sol\":6333:6876  {... */\n      pop\n      pop\n      pop\n      pop\n      pop\n        /* \"contracts/StableSwap_2.sol\":6220:6876  function swap(uint256 i, uint256 j, uint256 dx, uint256 minDy)... */\n      swap5\n      swap4\n      pop\n      pop\n      pop\n      pop\n      jump\t// out\n        /* \"contracts/StableSwap_2.sol\":9959:10359  function removeLiquidityOneToken(... */\n    tag_36:\n        /* \"contracts/StableSwap_2.sol\":10089:10106  uint256 amountOut */\n      0x00\n        /* \"contracts/StableSwap_2.sol\":10133:10165  _calcWithdrawOneToken(shares, i) */\n      tag_127\n        /* \"contracts/StableSwap_2.sol\":10155:10161  shares */\n      dup5\n        /* \"contracts/StableSwap_2.sol\":10163:10164  i */\n      dup5\n        /* \"contracts/StableSwap_2.sol\":10133:10154  _calcWithdrawOneToken */\n      tag_128\n        /* \"contracts/StableSwap_2.sol\":10133:10165  _calcWithdrawOneToken(shares, i) */\n      jump\t// in\n    tag_127:\n        /* \"contracts/StableSwap_2.sol\":10118:10165  (amountOut,) = _calcWithdrawOneToken(shares, i) */\n      pop\n      dup1\n      swap2\n      pop\n      pop\n        /* \"contracts/StableSwap_2.sol\":10196:10208  minAmountOut */\n      dup2\n        /* \"contracts/StableSwap_2.sol\":10183:10192  amountOut */\n      dup2\n        /* \"contracts/StableSwap_2.sol\":10183:10208  amountOut >= minAmountOut */\n      lt\n      iszero\n        /* \"contracts/StableSwap_2.sol\":10175:10222  require(amountOut >= minAmountOut, \"out < min\") */\n      tag_129\n      jumpi\n      mload(0x40)\n      0x08c379a000000000000000000000000000000000000000000000000000000000\n      dup2\n      mstore\n      0x04\n      add\n      tag_130\n      swap1\n      tag_131\n      jump\t// in\n    tag_130:\n      mload(0x40)\n      dup1\n      swap2\n      sub\n      swap1\n      revert\n    tag_129:\n        /* \"contracts/StableSwap_2.sol\":10248:10257  amountOut */\n      dup1\n        /* \"contracts/StableSwap_2.sol\":10233:10241  balances */\n      0x06\n        /* \"contracts/StableSwap_2.sol\":10242:10243  i */\n      dup5\n        /* \"contracts/StableSwap_2.sol\":10233:10244  balances[i] */\n      0x03\n      dup2\n      lt\n      tag_132\n      jumpi\n      tag_133\n      tag_73\n      jump\t// in\n    tag_133:\n    tag_132:\n      add\n      0x00\n        /* \"contracts/StableSwap_2.sol\":10233:10257  balances[i] -= amountOut */\n      dup3\n      dup3\n      sload\n      tag_135\n      swap2\n      swap1\n      tag_100\n      jump\t// in\n    tag_135:\n      swap3\n      pop\n      pop\n      dup2\n      swap1\n      sstore\n      pop\n        /* \"contracts/StableSwap_2.sol\":10267:10292  _burn(msg.sender, shares) */\n      tag_136\n        /* \"contracts/StableSwap_2.sol\":10273:10283  msg.sender */\n      caller\n        /* \"contracts/StableSwap_2.sol\":10285:10291  shares */\n      dup6\n        /* \"contracts/StableSwap_2.sol\":10267:10272  _burn */\n      tag_137\n        /* \"contracts/StableSwap_2.sol\":10267:10292  _burn(msg.sender, shares) */\n      jump\t// in\n    tag_136:\n        /* \"contracts/StableSwap_2.sol\":10310:10316  tokens */\n      0x00\n        /* \"contracts/StableSwap_2.sol\":10317:10318  i */\n      dup4\n        /* \"contracts/StableSwap_2.sol\":10310:10319  tokens[i] */\n      0x03\n      dup2\n      lt\n      tag_138\n      jumpi\n      tag_139\n      tag_73\n      jump\t// in\n    tag_139:\n    tag_138:\n      add\n      0x00\n      swap1\n      sload\n      swap1\n      0x0100\n      exp\n      swap1\n      div\n      0xffffffffffffffffffffffffffffffffffffffff\n      and\n        /* \"contracts/StableSwap_2.sol\":10303:10329  IERC20(tokens[i]).transfer */\n      0xffffffffffffffffffffffffffffffffffffffff\n      and\n      0xa9059cbb\n        /* \"contracts/StableSwap_2.sol\":10330:10340  msg.sender */\n      caller\n        /* \"contracts/StableSwap_2.sol\":10342:10351  amountOut */\n      dup4\n        /* \"contracts/StableSwap_2.sol\":10303:10352  IERC20(tokens[i]).transfer(msg.sender, amountOut) */\n      mload(0x40)\n      dup4\n      0xffffffff\n      and\n      0xe0\n      shl\n      dup2\n      mstore\n      0x04\n      add\n      tag_141\n      swap3\n      swap2\n      swap1\n      tag_122\n      jump\t// in\n    tag_141:\n      0x20\n      mload(0x40)\n      dup1\n      dup4\n      sub\n      dup2\n      0x00\n      dup8\n      gas\n      call\n      iszero\n      dup1\n      iszero\n      tag_143\n      jumpi\n      returndatasize\n      0x00\n      dup1\n      returndatacopy\n      revert(0x00, returndatasize)\n    tag_143:\n      pop\n      pop\n      pop\n      pop\n      mload(0x40)\n      returndatasize\n      not(0x1f)\n      0x1f\n      dup3\n      add\n      and\n      dup3\n      add\n      dup1\n      0x40\n      mstore\n      pop\n      dup2\n      add\n      swap1\n      tag_144\n      swap2\n      swap1\n      tag_80\n      jump\t// in\n    tag_144:\n      pop\n        /* \"contracts/StableSwap_2.sol\":9959:10359  function removeLiquidityOneToken(... */\n      swap4\n      swap3\n      pop\n      pop\n      pop\n      jump\t// out\n        /* \"contracts/StableSwap_2.sol\":1770:1814  mapping(address => uint256) public balanceOf */\n    tag_41:\n      mstore(0x20, 0x0a)\n      dup1\n      0x00\n      mstore\n      keccak256(0x00, 0x40)\n      0x00\n      swap2\n      pop\n      swap1\n      pop\n      sload\n      dup2\n      jump\t// out\n        /* \"contracts/StableSwap_2.sol\":6882:8378  function addLiquidity(uint256[N] calldata amounts, uint256 minShares)... */\n    tag_46:\n        /* \"contracts/StableSwap_2.sol\":6986:7000  uint256 shares */\n      0x00\n        /* \"contracts/StableSwap_2.sol\":7016:7036  uint256 _totalSupply */\n      dup1\n        /* \"contracts/StableSwap_2.sol\":7039:7050  totalSupply */\n      sload(0x09)\n        /* \"contracts/StableSwap_2.sol\":7016:7050  uint256 _totalSupply = totalSupply */\n      swap1\n      pop\n        /* \"contracts/StableSwap_2.sol\":7060:7070  uint256 d0 */\n      0x00\n        /* \"contracts/StableSwap_2.sol\":7080:7104  uint256[N] memory old_xs */\n      dup1\n        /* \"contracts/StableSwap_2.sol\":7107:7112  _xp() */\n      tag_146\n        /* \"contracts/StableSwap_2.sol\":7107:7110  _xp */\n      tag_82\n        /* \"contracts/StableSwap_2.sol\":7107:7112  _xp() */\n      jump\t// in\n    tag_146:\n        /* \"contracts/StableSwap_2.sol\":7080:7112  uint256[N] memory old_xs = _xp() */\n      swap1\n      pop\n        /* \"contracts/StableSwap_2.sol\":7141:7142  0 */\n      0x00\n        /* \"contracts/StableSwap_2.sol\":7126:7138  _totalSupply */\n      dup4\n        /* \"contracts/StableSwap_2.sol\":7126:7142  _totalSupply > 0 */\n      gt\n        /* \"contracts/StableSwap_2.sol\":7122:7187  if (_totalSupply > 0) {... */\n      iszero\n      tag_147\n      jumpi\n        /* \"contracts/StableSwap_2.sol\":7163:7176  _getD(old_xs) */\n      tag_148\n        /* \"contracts/StableSwap_2.sol\":7169:7175  old_xs */\n      dup2\n        /* \"contracts/StableSwap_2.sol\":7163:7168  _getD */\n      tag_149\n        /* \"contracts/StableSwap_2.sol\":7163:7176  _getD(old_xs) */\n      jump\t// in\n    tag_148:\n        /* \"contracts/StableSwap_2.sol\":7158:7176  d0 = _getD(old_xs) */\n      swap2\n      pop\n        /* \"contracts/StableSwap_2.sol\":7122:7187  if (_totalSupply > 0) {... */\n    tag_147:\n        /* \"contracts/StableSwap_2.sol\":7197:7221  uint256[N] memory new_xs */\n      tag_150\n      tag_151\n      jump\t// in\n    tag_150:\n        /* \"contracts/StableSwap_2.sol\":7236:7245  uint256 i */\n      0x00\n        /* \"contracts/StableSwap_2.sol\":7231:7567  for (uint256 i = 0; i < N; ++i) {... */\n    tag_152:\n        /* \"contracts/StableSwap_2.sol\":701:702  3 */\n      0x03\n        /* \"contracts/StableSwap_2.sol\":7251:7252  i */\n      dup2\n        /* \"contracts/StableSwap_2.sol\":7251:7256  i < N */\n      lt\n        /* \"contracts/StableSwap_2.sol\":7231:7567  for (uint256 i = 0; i < N; ++i) {... */\n      iszero\n      tag_153\n      jumpi\n        /* \"contracts/StableSwap_2.sol\":7277:7291  uint256 amount */\n      0x00\n        /* \"contracts/StableSwap_2.sol\":7294:7301  amounts */\n      dup9\n        /* \"contracts/StableSwap_2.sol\":7302:7303  i */\n      dup3\n        /* \"contracts/StableSwap_2.sol\":7294:7304  amounts[i] */\n      0x03\n      dup2\n      lt\n      tag_155\n      jumpi\n      tag_156\n      tag_73\n      jump\t// in\n    tag_156:\n    tag_155:\n      0x20\n      mul\n      add\n      calldataload\n        /* \"contracts/StableSwap_2.sol\":7277:7304  uint256 amount = amounts[i] */\n      swap1\n      pop\n        /* \"contracts/StableSwap_2.sol\":7331:7332  0 */\n      0x00\n        /* \"contracts/StableSwap_2.sol\":7322:7328  amount */\n      dup2\n        /* \"contracts/StableSwap_2.sol\":7322:7332  amount > 0 */\n      gt\n        /* \"contracts/StableSwap_2.sol\":7318:7557  if (amount > 0) {... */\n      iszero\n      tag_157\n      jumpi\n        /* \"contracts/StableSwap_2.sol\":7359:7365  tokens */\n      0x00\n        /* \"contracts/StableSwap_2.sol\":7366:7367  i */\n      dup3\n        /* \"contracts/StableSwap_2.sol\":7359:7368  tokens[i] */\n      0x03\n      dup2\n      lt\n      tag_158\n      jumpi\n      tag_159\n      tag_73\n      jump\t// in\n    tag_159:\n    tag_158:\n      add\n      0x00\n      swap1\n      sload\n      swap1\n      0x0100\n      exp\n      swap1\n      div\n      0xffffffffffffffffffffffffffffffffffffffff\n      and\n        /* \"contracts/StableSwap_2.sol\":7352:7382  IERC20(tokens[i]).transferFrom */\n      0xffffffffffffffffffffffffffffffffffffffff\n      and\n      0x23b872dd\n        /* \"contracts/StableSwap_2.sol\":7383:7393  msg.sender */\n      caller\n        /* \"contracts/StableSwap_2.sol\":7403:7407  this */\n      address\n        /* \"contracts/StableSwap_2.sol\":7410:7416  amount */\n      dup5\n        /* \"contracts/StableSwap_2.sol\":7352:7417  IERC20(tokens[i]).transferFrom(msg.sender, address(this), amount) */\n      mload(0x40)\n      dup5\n      0xffffffff\n      and\n      0xe0\n      shl\n      dup2\n      mstore\n      0x04\n      add\n      tag_161\n      swap4\n      swap3\n      swap2\n      swap1\n      tag_76\n      jump\t// in\n    tag_161:\n      0x20\n      mload(0x40)\n      dup1\n      dup4\n      sub\n      dup2\n      0x00\n      dup8\n      gas\n      call\n      iszero\n      dup1\n      iszero\n      tag_163\n      jumpi\n      returndatasize\n      0x00\n      dup1\n      returndatacopy\n      revert(0x00, returndatasize)\n    tag_163:\n      pop\n      pop\n      pop\n      pop\n      mload(0x40)\n      returndatasize\n      not(0x1f)\n      0x1f\n      dup3\n      add\n      and\n      dup3\n      add\n      dup1\n      0x40\n      mstore\n      pop\n      dup2\n      add\n      swap1\n      tag_164\n      swap2\n      swap1\n      tag_80\n      jump\t// in\n    tag_164:\n      pop\n        /* \"contracts/StableSwap_2.sol\":7468:7479  multipliers */\n      0x03\n        /* \"contracts/StableSwap_2.sol\":7480:7481  i */\n      dup3\n        /* \"contracts/StableSwap_2.sol\":7468:7482  multipliers[i] */\n      0x03\n      dup2\n      lt\n      tag_165\n      jumpi\n      tag_166\n      tag_73\n      jump\t// in\n    tag_166:\n    tag_165:\n      add\n      sload\n        /* \"contracts/StableSwap_2.sol\":7459:7465  amount */\n      dup2\n        /* \"contracts/StableSwap_2.sol\":7459:7482  amount * multipliers[i] */\n      tag_168\n      swap2\n      swap1\n      tag_87\n      jump\t// in\n    tag_168:\n        /* \"contracts/StableSwap_2.sol\":7447:7453  old_xs */\n      dup5\n        /* \"contracts/StableSwap_2.sol\":7454:7455  i */\n      dup4\n        /* \"contracts/StableSwap_2.sol\":7447:7456  old_xs[i] */\n      0x03\n      dup2\n      lt\n      tag_169\n      jumpi\n      tag_170\n      tag_73\n      jump\t// in\n    tag_170:\n    tag_169:\n      0x20\n      mul\n      add\n      mload\n        /* \"contracts/StableSwap_2.sol\":7447:7482  old_xs[i] + amount * multipliers[i] */\n      tag_171\n      swap2\n      swap1\n      tag_91\n      jump\t// in\n    tag_171:\n        /* \"contracts/StableSwap_2.sol\":7435:7441  new_xs */\n      dup4\n        /* \"contracts/StableSwap_2.sol\":7442:7443  i */\n      dup4\n        /* \"contracts/StableSwap_2.sol\":7435:7444  new_xs[i] */\n      0x03\n      dup2\n      lt\n      tag_172\n      jumpi\n      tag_173\n      tag_73\n      jump\t// in\n    tag_173:\n    tag_172:\n      0x20\n      mul\n      add\n        /* \"contracts/StableSwap_2.sol\":7435:7482  new_xs[i] = old_xs[i] + amount * multipliers[i] */\n      dup2\n      dup2\n      mstore\n      pop\n      pop\n        /* \"contracts/StableSwap_2.sol\":7318:7557  if (amount > 0) {... */\n      jump(tag_174)\n    tag_157:\n        /* \"contracts/StableSwap_2.sol\":7533:7539  old_xs */\n      dup4\n        /* \"contracts/StableSwap_2.sol\":7540:7541  i */\n      dup3\n        /* \"contracts/StableSwap_2.sol\":7533:7542  old_xs[i] */\n      0x03\n      dup2\n      lt\n      tag_175\n      jumpi\n      tag_176\n      tag_73\n      jump\t// in\n    tag_176:\n    tag_175:\n      0x20\n      mul\n      add\n      mload\n        /* \"contracts/StableSwap_2.sol\":7521:7527  new_xs */\n      dup4\n        /* \"contracts/StableSwap_2.sol\":7528:7529  i */\n      dup4\n        /* \"contracts/StableSwap_2.sol\":7521:7530  new_xs[i] */\n      0x03\n      dup2\n      lt\n      tag_177\n      jumpi\n      tag_178\n      tag_73\n      jump\t// in\n    tag_178:\n    tag_177:\n      0x20\n      mul\n      add\n        /* \"contracts/StableSwap_2.sol\":7521:7542  new_xs[i] = old_xs[i] */\n      dup2\n      dup2\n      mstore\n      pop\n      pop\n        /* \"contracts/StableSwap_2.sol\":7318:7557  if (amount > 0) {... */\n    tag_174:\n        /* \"contracts/StableSwap_2.sol\":7263:7567  {... */\n      pop\n        /* \"contracts/StableSwap_2.sol\":7258:7261  ++i */\n      dup1\n      0x01\n      add\n      swap1\n      pop\n        /* \"contracts/StableSwap_2.sol\":7231:7567  for (uint256 i = 0; i < N; ++i) {... */\n      jump(tag_152)\n    tag_153:\n      pop\n        /* \"contracts/StableSwap_2.sol\":7577:7587  uint256 d1 */\n      0x00\n        /* \"contracts/StableSwap_2.sol\":7590:7603  _getD(new_xs) */\n      tag_179\n        /* \"contracts/StableSwap_2.sol\":7596:7602  new_xs */\n      dup3\n        /* \"contracts/StableSwap_2.sol\":7590:7595  _getD */\n      tag_149\n        /* \"contracts/StableSwap_2.sol\":7590:7603  _getD(new_xs) */\n      jump\t// in\n    tag_179:\n        /* \"contracts/StableSwap_2.sol\":7577:7603  uint256 d1 = _getD(new_xs) */\n      swap1\n      pop\n        /* \"contracts/StableSwap_2.sol\":7626:7628  d0 */\n      dup4\n        /* \"contracts/StableSwap_2.sol\":7621:7623  d1 */\n      dup2\n        /* \"contracts/StableSwap_2.sol\":7621:7628  d1 > d0 */\n      gt\n        /* \"contracts/StableSwap_2.sol\":7613:7658  require(d1 > d0, \"liquidity didn't increase\") */\n      tag_180\n      jumpi\n      mload(0x40)\n      0x08c379a000000000000000000000000000000000000000000000000000000000\n      dup2\n      mstore\n      0x04\n      add\n      tag_181\n      swap1\n      tag_182\n      jump\t// in\n    tag_181:\n      mload(0x40)\n      dup1\n      swap2\n      sub\n      swap1\n      revert\n    tag_180:\n        /* \"contracts/StableSwap_2.sol\":7669:7679  uint256 d2 */\n      0x00\n        /* \"contracts/StableSwap_2.sol\":7708:7709  0 */\n      dup1\n        /* \"contracts/StableSwap_2.sol\":7693:7705  _totalSupply */\n      dup7\n        /* \"contracts/StableSwap_2.sol\":7693:7709  _totalSupply > 0 */\n      gt\n        /* \"contracts/StableSwap_2.sol\":7689:8052  if (_totalSupply > 0) {... */\n      iszero\n      tag_183\n      jumpi\n        /* \"contracts/StableSwap_2.sol\":7730:7739  uint256 i */\n      0x00\n        /* \"contracts/StableSwap_2.sol\":7725:7971  for (uint256 i = 0; i < N; ++i) {... */\n    tag_184:\n        /* \"contracts/StableSwap_2.sol\":701:702  3 */\n      0x03\n        /* \"contracts/StableSwap_2.sol\":7745:7746  i */\n      dup2\n        /* \"contracts/StableSwap_2.sol\":7745:7750  i < N */\n      lt\n        /* \"contracts/StableSwap_2.sol\":7725:7971  for (uint256 i = 0; i < N; ++i) {... */\n      iszero\n      tag_185\n      jumpi\n        /* \"contracts/StableSwap_2.sol\":7775:7795  uint256 idealBalance */\n      0x00\n        /* \"contracts/StableSwap_2.sol\":7817:7819  d0 */\n      dup7\n        /* \"contracts/StableSwap_2.sol\":7811:7813  d1 */\n      dup5\n        /* \"contracts/StableSwap_2.sol\":7799:7805  old_xs */\n      dup8\n        /* \"contracts/StableSwap_2.sol\":7806:7807  i */\n      dup5\n        /* \"contracts/StableSwap_2.sol\":7799:7808  old_xs[i] */\n      0x03\n      dup2\n      lt\n      tag_187\n      jumpi\n      tag_188\n      tag_73\n      jump\t// in\n    tag_188:\n    tag_187:\n      0x20\n      mul\n      add\n      mload\n        /* \"contracts/StableSwap_2.sol\":7799:7813  old_xs[i] * d1 */\n      tag_189\n      swap2\n      swap1\n      tag_87\n      jump\t// in\n    tag_189:\n        /* \"contracts/StableSwap_2.sol\":7798:7819  (old_xs[i] * d1) / d0 */\n      tag_190\n      swap2\n      swap1\n      tag_103\n      jump\t// in\n    tag_190:\n        /* \"contracts/StableSwap_2.sol\":7775:7819  uint256 idealBalance = (old_xs[i] * d1) / d0 */\n      swap1\n      pop\n        /* \"contracts/StableSwap_2.sol\":7837:7849  uint256 diff */\n      0x00\n        /* \"contracts/StableSwap_2.sol\":7852:7885  Math.abs(new_xs[i], idealBalance) */\n      tag_191\n        /* \"contracts/StableSwap_2.sol\":7861:7867  new_xs */\n      dup7\n        /* \"contracts/StableSwap_2.sol\":7868:7869  i */\n      dup5\n        /* \"contracts/StableSwap_2.sol\":7861:7870  new_xs[i] */\n      0x03\n      dup2\n      lt\n      tag_192\n      jumpi\n      tag_193\n      tag_73\n      jump\t// in\n    tag_193:\n    tag_192:\n      0x20\n      mul\n      add\n      mload\n        /* \"contracts/StableSwap_2.sol\":7872:7884  idealBalance */\n      dup4\n        /* \"contracts/StableSwap_2.sol\":7852:7860  Math.abs */\n      tag_194\n        /* \"contracts/StableSwap_2.sol\":7852:7885  Math.abs(new_xs[i], idealBalance) */\n      jump\t// in\n    tag_191:\n        /* \"contracts/StableSwap_2.sol\":7837:7885  uint256 diff = Math.abs(new_xs[i], idealBalance) */\n      swap1\n      pop\n        /* \"contracts/StableSwap_2.sol\":1416:1419  1e6 */\n      0x0f4240\n        /* \"contracts/StableSwap_2.sol\":7933:7937  diff */\n      dup2\n        /* \"contracts/StableSwap_2.sol\":1364:1365  1 */\n      0x01\n        /* \"contracts/StableSwap_2.sol\":701:702  3 */\n      0x03\n        /* \"contracts/StableSwap_2.sol\":1360:1365  N - 1 */\n      tag_195\n      swap2\n      swap1\n      tag_100\n      jump\t// in\n    tag_195:\n        /* \"contracts/StableSwap_2.sol\":1355:1356  4 */\n      0x04\n        /* \"contracts/StableSwap_2.sol\":1355:1366  4 * (N - 1) */\n      tag_196\n      swap2\n      swap1\n      tag_87\n      jump\t// in\n    tag_196:\n        /* \"contracts/StableSwap_2.sol\":701:702  3 */\n      0x03\n        /* \"contracts/StableSwap_2.sol\":982:985  300 */\n      0x012c\n        /* \"contracts/StableSwap_2.sol\":1338:1350  SWAP_FEE * N */\n      tag_197\n      swap2\n      swap1\n      tag_87\n      jump\t// in\n    tag_197:\n        /* \"contracts/StableSwap_2.sol\":1337:1367  (SWAP_FEE * N) / (4 * (N - 1)) */\n      tag_198\n      swap2\n      swap1\n      tag_103\n      jump\t// in\n    tag_198:\n        /* \"contracts/StableSwap_2.sol\":7917:7937  LIQUIDITY_FEE * diff */\n      tag_199\n      swap2\n      swap1\n      tag_87\n      jump\t// in\n    tag_199:\n        /* \"contracts/StableSwap_2.sol\":7916:7956  (LIQUIDITY_FEE * diff) / FEE_DENOMINATOR */\n      tag_200\n      swap2\n      swap1\n      tag_103\n      jump\t// in\n    tag_200:\n        /* \"contracts/StableSwap_2.sol\":7903:7909  new_xs */\n      dup7\n        /* \"contracts/StableSwap_2.sol\":7910:7911  i */\n      dup5\n        /* \"contracts/StableSwap_2.sol\":7903:7912  new_xs[i] */\n      0x03\n      dup2\n      lt\n      tag_201\n      jumpi\n      tag_202\n      tag_73\n      jump\t// in\n    tag_202:\n    tag_201:\n      0x20\n      mul\n      add\n        /* \"contracts/StableSwap_2.sol\":7903:7956  new_xs[i] -= (LIQUIDITY_FEE * diff) / FEE_DENOMINATOR */\n      dup2\n      dup2\n      mload\n      tag_203\n      swap2\n      swap1\n      tag_100\n      jump\t// in\n    tag_203:\n      swap2\n      pop\n      dup2\n      dup2\n      mstore\n      pop\n      pop\n        /* \"contracts/StableSwap_2.sol\":7757:7971  {... */\n      pop\n      pop\n        /* \"contracts/StableSwap_2.sol\":7752:7755  ++i */\n      dup1\n      0x01\n      add\n      swap1\n      pop\n        /* \"contracts/StableSwap_2.sol\":7725:7971  for (uint256 i = 0; i < N; ++i) {... */\n      jump(tag_184)\n    tag_185:\n      pop\n        /* \"contracts/StableSwap_2.sol\":7990:8003  _getD(new_xs) */\n      tag_204\n        /* \"contracts/StableSwap_2.sol\":7996:8002  new_xs */\n      dup4\n        /* \"contracts/StableSwap_2.sol\":7990:7995  _getD */\n      tag_149\n        /* \"contracts/StableSwap_2.sol\":7990:8003  _getD(new_xs) */\n      jump\t// in\n    tag_204:\n        /* \"contracts/StableSwap_2.sol\":7985:8003  d2 = _getD(new_xs) */\n      swap1\n      pop\n        /* \"contracts/StableSwap_2.sol\":7689:8052  if (_totalSupply > 0) {... */\n      jump(tag_205)\n    tag_183:\n        /* \"contracts/StableSwap_2.sol\":8039:8041  d1 */\n      dup2\n        /* \"contracts/StableSwap_2.sol\":8034:8041  d2 = d1 */\n      swap1\n      pop\n        /* \"contracts/StableSwap_2.sol\":7689:8052  if (_totalSupply > 0) {... */\n    tag_205:\n        /* \"contracts/StableSwap_2.sol\":8067:8076  uint256 i */\n      0x00\n        /* \"contracts/StableSwap_2.sol\":8062:8144  for (uint256 i = 0; i < N; ++i) {... */\n    tag_206:\n        /* \"contracts/StableSwap_2.sol\":701:702  3 */\n      0x03\n        /* \"contracts/StableSwap_2.sol\":8082:8083  i */\n      dup2\n        /* \"contracts/StableSwap_2.sol\":8082:8087  i < N */\n      lt\n        /* \"contracts/StableSwap_2.sol\":8062:8144  for (uint256 i = 0; i < N; ++i) {... */\n      iszero\n      tag_207\n      jumpi\n        /* \"contracts/StableSwap_2.sol\":8123:8130  amounts */\n      dup10\n        /* \"contracts/StableSwap_2.sol\":8131:8132  i */\n      dup2\n        /* \"contracts/StableSwap_2.sol\":8123:8133  amounts[i] */\n      0x03\n      dup2\n      lt\n      tag_209\n      jumpi\n      tag_210\n      tag_73\n      jump\t// in\n    tag_210:\n    tag_209:\n      0x20\n      mul\n      add\n      calldataload\n        /* \"contracts/StableSwap_2.sol\":8108:8116  balances */\n      0x06\n        /* \"contracts/StableSwap_2.sol\":8117:8118  i */\n      dup3\n        /* \"contracts/StableSwap_2.sol\":8108:8119  balances[i] */\n      0x03\n      dup2\n      lt\n      tag_211\n      jumpi\n      tag_212\n      tag_73\n      jump\t// in\n    tag_212:\n    tag_211:\n      add\n      0x00\n        /* \"contracts/StableSwap_2.sol\":8108:8133  balances[i] += amounts[i] */\n      dup3\n      dup3\n      sload\n      tag_214\n      swap2\n      swap1\n      tag_91\n      jump\t// in\n    tag_214:\n      swap3\n      pop\n      pop\n      dup2\n      swap1\n      sstore\n      pop\n        /* \"contracts/StableSwap_2.sol\":8089:8092  ++i */\n      dup1\n      0x01\n      add\n      swap1\n      pop\n        /* \"contracts/StableSwap_2.sol\":8062:8144  for (uint256 i = 0; i < N; ++i) {... */\n      jump(tag_206)\n    tag_207:\n      pop\n        /* \"contracts/StableSwap_2.sol\":8173:8174  0 */\n      0x00\n        /* \"contracts/StableSwap_2.sol\":8158:8170  _totalSupply */\n      dup7\n        /* \"contracts/StableSwap_2.sol\":8158:8174  _totalSupply > 0 */\n      gt\n        /* \"contracts/StableSwap_2.sol\":8154:8283  if (_totalSupply > 0) {... */\n      iszero\n      tag_215\n      jumpi\n        /* \"contracts/StableSwap_2.sol\":8228:8230  d0 */\n      dup5\n        /* \"contracts/StableSwap_2.sol\":8212:8224  _totalSupply */\n      dup7\n        /* \"contracts/StableSwap_2.sol\":8206:8208  d0 */\n      dup7\n        /* \"contracts/StableSwap_2.sol\":8201:8203  d2 */\n      dup4\n        /* \"contracts/StableSwap_2.sol\":8201:8208  d2 - d0 */\n      tag_216\n      swap2\n      swap1\n      tag_100\n      jump\t// in\n    tag_216:\n        /* \"contracts/StableSwap_2.sol\":8200:8224  (d2 - d0) * _totalSupply */\n      tag_217\n      swap2\n      swap1\n      tag_87\n      jump\t// in\n    tag_217:\n        /* \"contracts/StableSwap_2.sol\":8199:8230  ((d2 - d0) * _totalSupply) / d0 */\n      tag_218\n      swap2\n      swap1\n      tag_103\n      jump\t// in\n    tag_218:\n        /* \"contracts/StableSwap_2.sol\":8190:8230  shares = ((d2 - d0) * _totalSupply) / d0 */\n      swap7\n      pop\n        /* \"contracts/StableSwap_2.sol\":8154:8283  if (_totalSupply > 0) {... */\n      jump(tag_219)\n    tag_215:\n        /* \"contracts/StableSwap_2.sol\":8270:8272  d2 */\n      dup1\n        /* \"contracts/StableSwap_2.sol\":8261:8272  shares = d2 */\n      swap7\n      pop\n        /* \"contracts/StableSwap_2.sol\":8154:8283  if (_totalSupply > 0) {... */\n    tag_219:\n        /* \"contracts/StableSwap_2.sol\":8310:8319  minShares */\n      dup8\n        /* \"contracts/StableSwap_2.sol\":8300:8306  shares */\n      dup8\n        /* \"contracts/StableSwap_2.sol\":8300:8319  shares >= minShares */\n      lt\n      iszero\n        /* \"contracts/StableSwap_2.sol\":8292:8336  require(shares >= minShares, \"shares < min\") */\n      tag_220\n      jumpi\n      mload(0x40)\n      0x08c379a000000000000000000000000000000000000000000000000000000000\n      dup2\n      mstore\n      0x04\n      add\n      tag_221\n      swap1\n      tag_222\n      jump\t// in\n    tag_221:\n      mload(0x40)\n      dup1\n      swap2\n      sub\n      swap1\n      revert\n    tag_220:\n        /* \"contracts/StableSwap_2.sol\":8346:8371  _mint(msg.sender, shares) */\n      tag_223\n        /* \"contracts/StableSwap_2.sol\":8352:8362  msg.sender */\n      caller\n        /* \"contracts/StableSwap_2.sol\":8364:8370  shares */\n      dup9\n        /* \"contracts/StableSwap_2.sol\":8346:8351  _mint */\n      tag_224\n        /* \"contracts/StableSwap_2.sol\":8346:8371  _mint(msg.sender, shares) */\n      jump\t// in\n    tag_223:\n        /* \"contracts/StableSwap_2.sol\":7006:8378  {... */\n      pop\n      pop\n      pop\n      pop\n      pop\n      pop\n        /* \"contracts/StableSwap_2.sol\":6882:8378  function addLiquidity(uint256[N] calldata amounts, uint256 minShares)... */\n      swap3\n      swap2\n      pop\n      pop\n      jump\t// out\n        /* \"contracts/StableSwap_2.sol\":9764:9953  function calcWithdrawOneToken(uint256 shares, uint256 i)... */\n    tag_51:\n        /* \"contracts/StableSwap_2.sol\":9868:9878  uint256 dy */\n      0x00\n        /* \"contracts/StableSwap_2.sol\":9880:9891  uint256 fee */\n      dup1\n        /* \"contracts/StableSwap_2.sol\":9914:9946  _calcWithdrawOneToken(shares, i) */\n      tag_226\n        /* \"contracts/StableSwap_2.sol\":9936:9942  shares */\n      dup5\n        /* \"contracts/StableSwap_2.sol\":9944:9945  i */\n      dup5\n        /* \"contracts/StableSwap_2.sol\":9914:9935  _calcWithdrawOneToken */\n      tag_128\n        /* \"contracts/StableSwap_2.sol\":9914:9946  _calcWithdrawOneToken(shares, i) */\n      jump\t// in\n    tag_226:\n        /* \"contracts/StableSwap_2.sol\":9907:9946  return _calcWithdrawOneToken(shares, i) */\n      swap2\n      pop\n      swap2\n      pop\n        /* \"contracts/StableSwap_2.sol\":9764:9953  function calcWithdrawOneToken(uint256 shares, uint256 i)... */\n      swap3\n      pop\n      swap3\n      swap1\n      pop\n      jump\t// out\n        /* \"contracts/StableSwap_2.sol\":8384:8946  function removeLiquidity(uint256 shares, uint256[N] calldata minAmountsOut)... */\n    tag_57:\n        /* \"contracts/StableSwap_2.sol\":8494:8522  uint256[N] memory amountsOut */\n      tag_227\n      tag_151\n      jump\t// in\n    tag_227:\n        /* \"contracts/StableSwap_2.sol\":8538:8558  uint256 _totalSupply */\n      0x00\n        /* \"contracts/StableSwap_2.sol\":8561:8572  totalSupply */\n      sload(0x09)\n        /* \"contracts/StableSwap_2.sol\":8538:8572  uint256 _totalSupply = totalSupply */\n      swap1\n      pop\n        /* \"contracts/StableSwap_2.sol\":8588:8597  uint256 i */\n      0x00\n        /* \"contracts/StableSwap_2.sol\":8583:8904  for (uint256 i = 0; i < N; ++i) {... */\n    tag_229:\n        /* \"contracts/StableSwap_2.sol\":701:702  3 */\n      0x03\n        /* \"contracts/StableSwap_2.sol\":8603:8604  i */\n      dup2\n        /* \"contracts/StableSwap_2.sol\":8603:8608  i < N */\n      lt\n        /* \"contracts/StableSwap_2.sol\":8583:8904  for (uint256 i = 0; i < N; ++i) {... */\n      iszero\n      tag_230\n      jumpi\n        /* \"contracts/StableSwap_2.sol\":8629:8646  uint256 amountOut */\n      0x00\n        /* \"contracts/StableSwap_2.sol\":8674:8686  _totalSupply */\n      dup3\n        /* \"contracts/StableSwap_2.sol\":8664:8670  shares */\n      dup7\n        /* \"contracts/StableSwap_2.sol\":8650:8658  balances */\n      0x06\n        /* \"contracts/StableSwap_2.sol\":8659:8660  i */\n      dup5\n        /* \"contracts/StableSwap_2.sol\":8650:8661  balances[i] */\n      0x03\n      dup2\n      lt\n      tag_232\n      jumpi\n      tag_233\n      tag_73\n      jump\t// in\n    tag_233:\n    tag_232:\n      add\n      sload\n        /* \"contracts/StableSwap_2.sol\":8650:8670  balances[i] * shares */\n      tag_235\n      swap2\n      swap1\n      tag_87\n      jump\t// in\n    tag_235:\n        /* \"contracts/StableSwap_2.sol\":8649:8686  (balances[i] * shares) / _totalSupply */\n      tag_236\n      swap2\n      swap1\n      tag_103\n      jump\t// in\n    tag_236:\n        /* \"contracts/StableSwap_2.sol\":8629:8686  uint256 amountOut = (balances[i] * shares) / _totalSupply */\n      swap1\n      pop\n        /* \"contracts/StableSwap_2.sol\":8721:8734  minAmountsOut */\n      dup5\n        /* \"contracts/StableSwap_2.sol\":8735:8736  i */\n      dup3\n        /* \"contracts/StableSwap_2.sol\":8721:8737  minAmountsOut[i] */\n      0x03\n      dup2\n      lt\n      tag_237\n      jumpi\n      tag_238\n      tag_73\n      jump\t// in\n    tag_238:\n    tag_237:\n      0x20\n      mul\n      add\n      calldataload\n        /* \"contracts/StableSwap_2.sol\":8708:8717  amountOut */\n      dup2\n        /* \"contracts/StableSwap_2.sol\":8708:8737  amountOut >= minAmountsOut[i] */\n      lt\n      iszero\n        /* \"contracts/StableSwap_2.sol\":8700:8751  require(amountOut >= minAmountsOut[i], \"out < min\") */\n      tag_239\n      jumpi\n      mload(0x40)\n      0x08c379a000000000000000000000000000000000000000000000000000000000\n      dup2\n      mstore\n      0x04\n      add\n      tag_240\n      swap1\n      tag_131\n      jump\t// in\n    tag_240:\n      mload(0x40)\n      dup1\n      swap2\n      sub\n      swap1\n      revert\n    tag_239:\n        /* \"contracts/StableSwap_2.sol\":8781:8790  amountOut */\n      dup1\n        /* \"contracts/StableSwap_2.sol\":8766:8774  balances */\n      0x06\n        /* \"contracts/StableSwap_2.sol\":8775:8776  i */\n      dup4\n        /* \"contracts/StableSwap_2.sol\":8766:8777  balances[i] */\n      0x03\n      dup2\n      lt\n      tag_241\n      jumpi\n      tag_242\n      tag_73\n      jump\t// in\n    tag_242:\n    tag_241:\n      add\n      0x00\n        /* \"contracts/StableSwap_2.sol\":8766:8790  balances[i] -= amountOut */\n      dup3\n      dup3\n      sload\n      tag_244\n      swap2\n      swap1\n      tag_100\n      jump\t// in\n    tag_244:\n      swap3\n      pop\n      pop\n      dup2\n      swap1\n      sstore\n      pop\n        /* \"contracts/StableSwap_2.sol\":8820:8829  amountOut */\n      dup1\n        /* \"contracts/StableSwap_2.sol\":8804:8814  amountsOut */\n      dup5\n        /* \"contracts/StableSwap_2.sol\":8815:8816  i */\n      dup4\n        /* \"contracts/StableSwap_2.sol\":8804:8817  amountsOut[i] */\n      0x03\n      dup2\n      lt\n      tag_245\n      jumpi\n      tag_246\n      tag_73\n      jump\t// in\n    tag_246:\n    tag_245:\n      0x20\n      mul\n      add\n        /* \"contracts/StableSwap_2.sol\":8804:8829  amountsOut[i] = amountOut */\n      dup2\n      dup2\n      mstore\n      pop\n      pop\n        /* \"contracts/StableSwap_2.sol\":8851:8857  tokens */\n      0x00\n        /* \"contracts/StableSwap_2.sol\":8858:8859  i */\n      dup3\n        /* \"contracts/StableSwap_2.sol\":8851:8860  tokens[i] */\n      0x03\n      dup2\n      lt\n      tag_247\n      jumpi\n      tag_248\n      tag_73\n      jump\t// in\n    tag_248:\n    tag_247:\n      add\n      0x00\n      swap1\n      sload\n      swap1\n      0x0100\n      exp\n      swap1\n      div\n      0xffffffffffffffffffffffffffffffffffffffff\n      and\n        /* \"contracts/StableSwap_2.sol\":8844:8870  IERC20(tokens[i]).transfer */\n      0xffffffffffffffffffffffffffffffffffffffff\n      and\n      0xa9059cbb\n        /* \"contracts/StableSwap_2.sol\":8871:8881  msg.sender */\n      caller\n        /* \"contracts/StableSwap_2.sol\":8883:8892  amountOut */\n      dup4\n        /* \"contracts/StableSwap_2.sol\":8844:8893  IERC20(tokens[i]).transfer(msg.sender, amountOut) */\n      mload(0x40)\n      dup4\n      0xffffffff\n      and\n      0xe0\n      shl\n      dup2\n      mstore\n      0x04\n      add\n      tag_250\n      swap3\n      swap2\n      swap1\n      tag_122\n      jump\t// in\n    tag_250:\n      0x20\n      mload(0x40)\n      dup1\n      dup4\n      sub\n      dup2\n      0x00\n      dup8\n      gas\n      call\n      iszero\n      dup1\n      iszero\n      tag_252\n      jumpi\n      returndatasize\n      0x00\n      dup1\n      returndatacopy\n      revert(0x00, returndatasize)\n    tag_252:\n      pop\n      pop\n      pop\n      pop\n      mload(0x40)\n      returndatasize\n      not(0x1f)\n      0x1f\n      dup3\n      add\n      and\n      dup3\n      add\n      dup1\n      0x40\n      mstore\n      pop\n      dup2\n      add\n      swap1\n      tag_253\n      swap2\n      swap1\n      tag_80\n      jump\t// in\n    tag_253:\n      pop\n        /* \"contracts/StableSwap_2.sol\":8615:8904  {... */\n      pop\n        /* \"contracts/StableSwap_2.sol\":8610:8613  ++i */\n      dup1\n      0x01\n      add\n      swap1\n      pop\n        /* \"contracts/StableSwap_2.sol\":8583:8904  for (uint256 i = 0; i < N; ++i) {... */\n      jump(tag_229)\n    tag_230:\n      pop\n        /* \"contracts/StableSwap_2.sol\":8914:8939  _burn(msg.sender, shares) */\n      tag_254\n        /* \"contracts/StableSwap_2.sol\":8920:8930  msg.sender */\n      caller\n        /* \"contracts/StableSwap_2.sol\":8932:8938  shares */\n      dup6\n        /* \"contracts/StableSwap_2.sol\":8914:8919  _burn */\n      tag_137\n        /* \"contracts/StableSwap_2.sol\":8914:8939  _burn(msg.sender, shares) */\n      jump\t// in\n    tag_254:\n        /* \"contracts/StableSwap_2.sol\":8528:8946  {... */\n      pop\n        /* \"contracts/StableSwap_2.sol\":8384:8946  function removeLiquidity(uint256 shares, uint256[N] calldata minAmountsOut)... */\n      swap3\n      swap2\n      pop\n      pop\n      jump\t// out\n        /* \"contracts/StableSwap_2.sol\":5791:6005  function getVirtualPrice() external view returns (uint256) {... */\n    tag_61:\n        /* \"contracts/StableSwap_2.sol\":5841:5848  uint256 */\n      0x00\n        /* \"contracts/StableSwap_2.sol\":5860:5869  uint256 d */\n      dup1\n        /* \"contracts/StableSwap_2.sol\":5872:5884  _getD(_xp()) */\n      tag_256\n        /* \"contracts/StableSwap_2.sol\":5878:5883  _xp() */\n      tag_257\n        /* \"contracts/StableSwap_2.sol\":5878:5881  _xp */\n      tag_82\n        /* \"contracts/StableSwap_2.sol\":5878:5883  _xp() */\n      jump\t// in\n    tag_257:\n        /* \"contracts/StableSwap_2.sol\":5872:5877  _getD */\n      tag_149\n        /* \"contracts/StableSwap_2.sol\":5872:5884  _getD(_xp()) */\n      jump\t// in\n    tag_256:\n        /* \"contracts/StableSwap_2.sol\":5860:5884  uint256 d = _getD(_xp()) */\n      swap1\n      pop\n        /* \"contracts/StableSwap_2.sol\":5912:5913  0 */\n      0x00\n        /* \"contracts/StableSwap_2.sol\":5898:5909  totalSupply */\n      sload(0x09)\n        /* \"contracts/StableSwap_2.sol\":5898:5913  totalSupply > 0 */\n      gt\n        /* \"contracts/StableSwap_2.sol\":5894:5981  if (totalSupply > 0) {... */\n      iszero\n      tag_258\n      jumpi\n        /* \"contracts/StableSwap_2.sol\":5959:5970  totalSupply */\n      sload(0x09)\n        /* \"contracts/StableSwap_2.sol\":1730:1732  18 */\n      0x12\n        /* \"contracts/StableSwap_2.sol\":5941:5943  10 */\n      0x0a\n        /* \"contracts/StableSwap_2.sol\":5941:5955  10 ** DECIMALS */\n      tag_259\n      swap2\n      swap1\n      tag_260\n      jump\t// in\n    tag_259:\n        /* \"contracts/StableSwap_2.sol\":5937:5938  d */\n      dup3\n        /* \"contracts/StableSwap_2.sol\":5937:5955  d * 10 ** DECIMALS */\n      tag_261\n      swap2\n      swap1\n      tag_87\n      jump\t// in\n    tag_261:\n        /* \"contracts/StableSwap_2.sol\":5936:5970  (d * 10 ** DECIMALS) / totalSupply */\n      tag_262\n      swap2\n      swap1\n      tag_103\n      jump\t// in\n    tag_262:\n        /* \"contracts/StableSwap_2.sol\":5929:5970  return (d * 10 ** DECIMALS) / totalSupply */\n      swap2\n      pop\n      pop\n      jump(tag_255)\n        /* \"contracts/StableSwap_2.sol\":5894:5981  if (totalSupply > 0) {... */\n    tag_258:\n        /* \"contracts/StableSwap_2.sol\":5997:5998  0 */\n      0x00\n        /* \"contracts/StableSwap_2.sol\":5990:5998  return 0 */\n      swap2\n      pop\n      pop\n        /* \"contracts/StableSwap_2.sol\":5791:6005  function getVirtualPrice() external view returns (uint256) {... */\n    tag_255:\n      swap1\n      jump\t// out\n        /* \"contracts/StableSwap_2.sol\":2236:2404  function _xp() private view returns (uint256[N] memory xp) {... */\n    tag_82:\n        /* \"contracts/StableSwap_2.sol\":2273:2293  uint256[N] memory xp */\n      tag_263\n      tag_151\n      jump\t// in\n    tag_263:\n        /* \"contracts/StableSwap_2.sol\":2310:2319  uint256 i */\n      0x00\n        /* \"contracts/StableSwap_2.sol\":2305:2398  for (uint256 i = 0; i < N; ++i) {... */\n    tag_265:\n        /* \"contracts/StableSwap_2.sol\":701:702  3 */\n      0x03\n        /* \"contracts/StableSwap_2.sol\":2325:2326  i */\n      dup2\n        /* \"contracts/StableSwap_2.sol\":2325:2330  i < N */\n      lt\n        /* \"contracts/StableSwap_2.sol\":2305:2398  for (uint256 i = 0; i < N; ++i) {... */\n      iszero\n      tag_266\n      jumpi\n        /* \"contracts/StableSwap_2.sol\":2373:2384  multipliers */\n      0x03\n        /* \"contracts/StableSwap_2.sol\":2385:2386  i */\n      dup2\n        /* \"contracts/StableSwap_2.sol\":2373:2387  multipliers[i] */\n      0x03\n      dup2\n      lt\n      tag_268\n      jumpi\n      tag_269\n      tag_73\n      jump\t// in\n    tag_269:\n    tag_268:\n      add\n      sload\n        /* \"contracts/StableSwap_2.sol\":2359:2367  balances */\n      0x06\n        /* \"contracts/StableSwap_2.sol\":2368:2369  i */\n      dup3\n        /* \"contracts/StableSwap_2.sol\":2359:2370  balances[i] */\n      0x03\n      dup2\n      lt\n      tag_271\n      jumpi\n      tag_272\n      tag_73\n      jump\t// in\n    tag_272:\n    tag_271:\n      add\n      sload\n        /* \"contracts/StableSwap_2.sol\":2359:2387  balances[i] * multipliers[i] */\n      tag_274\n      swap2\n      swap1\n      tag_87\n      jump\t// in\n    tag_274:\n        /* \"contracts/StableSwap_2.sol\":2351:2353  xp */\n      dup3\n        /* \"contracts/StableSwap_2.sol\":2354:2355  i */\n      dup3\n        /* \"contracts/StableSwap_2.sol\":2351:2356  xp[i] */\n      0x03\n      dup2\n      lt\n      tag_275\n      jumpi\n      tag_276\n      tag_73\n      jump\t// in\n    tag_276:\n    tag_275:\n      0x20\n      mul\n      add\n        /* \"contracts/StableSwap_2.sol\":2351:2387  xp[i] = balances[i] * multipliers[i] */\n      dup2\n      dup2\n      mstore\n      pop\n      pop\n        /* \"contracts/StableSwap_2.sol\":2332:2335  ++i */\n      dup1\n      0x01\n      add\n      swap1\n      pop\n        /* \"contracts/StableSwap_2.sol\":2305:2398  for (uint256 i = 0; i < N; ++i) {... */\n      jump(tag_265)\n    tag_266:\n      pop\n        /* \"contracts/StableSwap_2.sol\":2236:2404  function _xp() private view returns (uint256[N] memory xp) {... */\n      swap1\n      jump\t// out\n        /* \"contracts/StableSwap_2.sol\":3599:4524  function _getY(uint256 i, uint256 j, uint256 x, uint256[N] memory xp)... */\n    tag_95:\n        /* \"contracts/StableSwap_2.sol\":3715:3722  uint256 */\n      0x00\n        /* \"contracts/StableSwap_2.sol\":3738:3747  uint256 a */\n      dup1\n        /* \"contracts/StableSwap_2.sol\":701:702  3 */\n      0x03\n        /* \"contracts/StableSwap_2.sol\":924:925  1 */\n      0x01\n        /* \"contracts/StableSwap_2.sol\":701:702  3 */\n      0x03\n        /* \"contracts/StableSwap_2.sol\":920:925  N - 1 */\n      tag_278\n      swap2\n      swap1\n      tag_100\n      jump\t// in\n    tag_278:\n        /* \"contracts/StableSwap_2.sol\":701:702  3 */\n      0x03\n        /* \"contracts/StableSwap_2.sol\":914:926  N ** (N - 1) */\n      tag_279\n      swap2\n      swap1\n      tag_260\n      jump\t// in\n    tag_279:\n        /* \"contracts/StableSwap_2.sol\":906:910  1000 */\n      0x03e8\n        /* \"contracts/StableSwap_2.sol\":906:927  1000 * (N ** (N - 1)) */\n      tag_280\n      swap2\n      swap1\n      tag_87\n      jump\t// in\n    tag_280:\n        /* \"contracts/StableSwap_2.sol\":3750:3755  A * N */\n      tag_281\n      swap2\n      swap1\n      tag_87\n      jump\t// in\n    tag_281:\n        /* \"contracts/StableSwap_2.sol\":3738:3755  uint256 a = A * N */\n      swap1\n      pop\n        /* \"contracts/StableSwap_2.sol\":3765:3774  uint256 d */\n      0x00\n        /* \"contracts/StableSwap_2.sol\":3777:3786  _getD(xp) */\n      tag_282\n        /* \"contracts/StableSwap_2.sol\":3783:3785  xp */\n      dup5\n        /* \"contracts/StableSwap_2.sol\":3777:3782  _getD */\n      tag_149\n        /* \"contracts/StableSwap_2.sol\":3777:3786  _getD(xp) */\n      jump\t// in\n    tag_282:\n        /* \"contracts/StableSwap_2.sol\":3765:3786  uint256 d = _getD(xp) */\n      swap1\n      pop\n        /* \"contracts/StableSwap_2.sol\":3796:3805  uint256 s */\n      0x00\n        /* \"contracts/StableSwap_2.sol\":3815:3824  uint256 c */\n      dup1\n        /* \"contracts/StableSwap_2.sol\":3827:3828  d */\n      dup3\n        /* \"contracts/StableSwap_2.sol\":3815:3828  uint256 c = d */\n      swap1\n      pop\n        /* \"contracts/StableSwap_2.sol\":3839:3849  uint256 _x */\n      0x00\n        /* \"contracts/StableSwap_2.sol\":3864:3873  uint256 k */\n      dup1\n        /* \"contracts/StableSwap_2.sol\":3876:3877  0 */\n      0x00\n        /* \"contracts/StableSwap_2.sol\":3864:3877  uint256 k = 0 */\n      swap1\n      pop\n        /* \"contracts/StableSwap_2.sol\":3859:4132  for (uint256 k = 0; k < N; ++k) {... */\n    tag_283:\n        /* \"contracts/StableSwap_2.sol\":701:702  3 */\n      0x03\n        /* \"contracts/StableSwap_2.sol\":3879:3880  k */\n      dup2\n        /* \"contracts/StableSwap_2.sol\":3879:3884  k < N */\n      lt\n        /* \"contracts/StableSwap_2.sol\":3859:4132  for (uint256 k = 0; k < N; ++k) {... */\n      iszero\n      tag_284\n      jumpi\n        /* \"contracts/StableSwap_2.sol\":3914:3915  i */\n      dup11\n        /* \"contracts/StableSwap_2.sol\":3909:3910  k */\n      dup2\n        /* \"contracts/StableSwap_2.sol\":3909:3915  k == i */\n      sub\n        /* \"contracts/StableSwap_2.sol\":3905:4064  if (k == i) {... */\n      tag_286\n      jumpi\n        /* \"contracts/StableSwap_2.sol\":3940:3941  x */\n      dup9\n        /* \"contracts/StableSwap_2.sol\":3935:3941  _x = x */\n      swap2\n      pop\n        /* \"contracts/StableSwap_2.sol\":3905:4064  if (k == i) {... */\n      jump(tag_287)\n    tag_286:\n        /* \"contracts/StableSwap_2.sol\":3971:3972  j */\n      dup10\n        /* \"contracts/StableSwap_2.sol\":3966:3967  k */\n      dup2\n        /* \"contracts/StableSwap_2.sol\":3966:3972  k == j */\n      sub\n        /* \"contracts/StableSwap_2.sol\":3962:4064  if (k == j) {... */\n      iszero\n        /* \"contracts/StableSwap_2.sol\":3992:4000  continue */\n      tag_285\n        /* \"contracts/StableSwap_2.sol\":3962:4064  if (k == j) {... */\n      jumpi\n        /* \"contracts/StableSwap_2.sol\":4044:4046  xp */\n      dup8\n        /* \"contracts/StableSwap_2.sol\":4047:4048  k */\n      dup2\n        /* \"contracts/StableSwap_2.sol\":4044:4049  xp[k] */\n      0x03\n      dup2\n      lt\n      tag_290\n      jumpi\n      tag_291\n      tag_73\n      jump\t// in\n    tag_291:\n    tag_290:\n      0x20\n      mul\n      add\n      mload\n        /* \"contracts/StableSwap_2.sol\":4039:4049  _x = xp[k] */\n      swap2\n      pop\n        /* \"contracts/StableSwap_2.sol\":3905:4064  if (k == i) {... */\n    tag_287:\n        /* \"contracts/StableSwap_2.sol\":4083:4085  _x */\n      dup2\n        /* \"contracts/StableSwap_2.sol\":4078:4085  s += _x */\n      dup5\n      tag_292\n      swap2\n      swap1\n      tag_91\n      jump\t// in\n    tag_292:\n      swap4\n      pop\n        /* \"contracts/StableSwap_2.sol\":4118:4120  _x */\n      dup2\n        /* \"contracts/StableSwap_2.sol\":701:702  3 */\n      0x03\n        /* \"contracts/StableSwap_2.sol\":4114:4120  N * _x */\n      tag_293\n      swap2\n      swap1\n      tag_87\n      jump\t// in\n    tag_293:\n        /* \"contracts/StableSwap_2.sol\":4108:4109  d */\n      dup6\n        /* \"contracts/StableSwap_2.sol\":4104:4105  c */\n      dup5\n        /* \"contracts/StableSwap_2.sol\":4104:4109  c * d */\n      tag_294\n      swap2\n      swap1\n      tag_87\n      jump\t// in\n    tag_294:\n        /* \"contracts/StableSwap_2.sol\":4103:4121  (c * d) / (N * _x) */\n      tag_295\n      swap2\n      swap1\n      tag_103\n      jump\t// in\n    tag_295:\n        /* \"contracts/StableSwap_2.sol\":4099:4121  c = (c * d) / (N * _x) */\n      swap3\n      pop\n        /* \"contracts/StableSwap_2.sol\":3859:4132  for (uint256 k = 0; k < N; ++k) {... */\n    tag_285:\n        /* \"contracts/StableSwap_2.sol\":3886:3889  ++k */\n      dup1\n      0x01\n      add\n      swap1\n      pop\n        /* \"contracts/StableSwap_2.sol\":3859:4132  for (uint256 k = 0; k < N; ++k) {... */\n      jump(tag_283)\n    tag_284:\n      pop\n        /* \"contracts/StableSwap_2.sol\":4160:4161  a */\n      dup5\n        /* \"contracts/StableSwap_2.sol\":701:702  3 */\n      0x03\n        /* \"contracts/StableSwap_2.sol\":4156:4161  N * a */\n      tag_296\n      swap2\n      swap1\n      tag_87\n      jump\t// in\n    tag_296:\n        /* \"contracts/StableSwap_2.sol\":4150:4151  d */\n      dup5\n        /* \"contracts/StableSwap_2.sol\":4146:4147  c */\n      dup4\n        /* \"contracts/StableSwap_2.sol\":4146:4151  c * d */\n      tag_297\n      swap2\n      swap1\n      tag_87\n      jump\t// in\n    tag_297:\n        /* \"contracts/StableSwap_2.sol\":4145:4162  (c * d) / (N * a) */\n      tag_298\n      swap2\n      swap1\n      tag_103\n      jump\t// in\n    tag_298:\n        /* \"contracts/StableSwap_2.sol\":4141:4162  c = (c * d) / (N * a) */\n      swap2\n      pop\n        /* \"contracts/StableSwap_2.sol\":4172:4181  uint256 b */\n      0x00\n        /* \"contracts/StableSwap_2.sol\":4192:4193  a */\n      dup6\n        /* \"contracts/StableSwap_2.sol\":4188:4189  d */\n      dup6\n        /* \"contracts/StableSwap_2.sol\":4188:4193  d / a */\n      tag_299\n      swap2\n      swap1\n      tag_103\n      jump\t// in\n    tag_299:\n        /* \"contracts/StableSwap_2.sol\":4184:4185  s */\n      dup5\n        /* \"contracts/StableSwap_2.sol\":4184:4193  s + d / a */\n      tag_300\n      swap2\n      swap1\n      tag_91\n      jump\t// in\n    tag_300:\n        /* \"contracts/StableSwap_2.sol\":4172:4193  uint256 b = s + d / a */\n      swap1\n      pop\n        /* \"contracts/StableSwap_2.sol\":4231:4245  uint256 y_prev */\n      0x00\n        /* \"contracts/StableSwap_2.sol\":4255:4264  uint256 y */\n      dup1\n        /* \"contracts/StableSwap_2.sol\":4267:4268  d */\n      dup7\n        /* \"contracts/StableSwap_2.sol\":4255:4268  uint256 y = d */\n      swap1\n      pop\n        /* \"contracts/StableSwap_2.sol\":4283:4293  uint256 _i */\n      0x00\n        /* \"contracts/StableSwap_2.sol\":4278:4481  for (uint256 _i = 0; _i < 255; ++_i) {... */\n    tag_301:\n        /* \"contracts/StableSwap_2.sol\":4304:4307  255 */\n      0xff\n        /* \"contracts/StableSwap_2.sol\":4299:4301  _i */\n      dup2\n        /* \"contracts/StableSwap_2.sol\":4299:4307  _i < 255 */\n      lt\n        /* \"contracts/StableSwap_2.sol\":4278:4481  for (uint256 _i = 0; _i < 255; ++_i) {... */\n      iszero\n      tag_302\n      jumpi\n        /* \"contracts/StableSwap_2.sol\":4338:4339  y */\n      dup2\n        /* \"contracts/StableSwap_2.sol\":4329:4339  y_prev = y */\n      swap3\n      pop\n        /* \"contracts/StableSwap_2.sol\":4384:4385  d */\n      dup8\n        /* \"contracts/StableSwap_2.sol\":4380:4381  b */\n      dup5\n        /* \"contracts/StableSwap_2.sol\":4376:4377  y */\n      dup4\n        /* \"contracts/StableSwap_2.sol\":4372:4373  2 */\n      0x02\n        /* \"contracts/StableSwap_2.sol\":4372:4377  2 * y */\n      tag_304\n      swap2\n      swap1\n      tag_87\n      jump\t// in\n    tag_304:\n        /* \"contracts/StableSwap_2.sol\":4372:4381  2 * y + b */\n      tag_305\n      swap2\n      swap1\n      tag_91\n      jump\t// in\n    tag_305:\n        /* \"contracts/StableSwap_2.sol\":4372:4385  2 * y + b - d */\n      tag_306\n      swap2\n      swap1\n      tag_100\n      jump\t// in\n    tag_306:\n        /* \"contracts/StableSwap_2.sol\":4366:4367  c */\n      dup7\n        /* \"contracts/StableSwap_2.sol\":4362:4363  y */\n      dup4\n        /* \"contracts/StableSwap_2.sol\":4358:4359  y */\n      dup5\n        /* \"contracts/StableSwap_2.sol\":4358:4363  y * y */\n      tag_307\n      swap2\n      swap1\n      tag_87\n      jump\t// in\n    tag_307:\n        /* \"contracts/StableSwap_2.sol\":4358:4367  y * y + c */\n      tag_308\n      swap2\n      swap1\n      tag_91\n      jump\t// in\n    tag_308:\n        /* \"contracts/StableSwap_2.sol\":4357:4386  (y * y + c) / (2 * y + b - d) */\n      tag_309\n      swap2\n      swap1\n      tag_103\n      jump\t// in\n    tag_309:\n        /* \"contracts/StableSwap_2.sol\":4353:4386  y = (y * y + c) / (2 * y + b - d) */\n      swap2\n      pop\n        /* \"contracts/StableSwap_2.sol\":4427:4428  1 */\n      0x01\n        /* \"contracts/StableSwap_2.sol\":4404:4423  Math.abs(y, y_prev) */\n      tag_310\n        /* \"contracts/StableSwap_2.sol\":4413:4414  y */\n      dup4\n        /* \"contracts/StableSwap_2.sol\":4416:4422  y_prev */\n      dup6\n        /* \"contracts/StableSwap_2.sol\":4404:4412  Math.abs */\n      tag_194\n        /* \"contracts/StableSwap_2.sol\":4404:4423  Math.abs(y, y_prev) */\n      jump\t// in\n    tag_310:\n        /* \"contracts/StableSwap_2.sol\":4404:4428  Math.abs(y, y_prev) <= 1 */\n      gt\n        /* \"contracts/StableSwap_2.sol\":4400:4471  if (Math.abs(y, y_prev) <= 1) {... */\n      tag_311\n      jumpi\n        /* \"contracts/StableSwap_2.sol\":4455:4456  y */\n      dup2\n        /* \"contracts/StableSwap_2.sol\":4448:4456  return y */\n      swap10\n      pop\n      pop\n      pop\n      pop\n      pop\n      pop\n      pop\n      pop\n      pop\n      pop\n      jump(tag_277)\n        /* \"contracts/StableSwap_2.sol\":4400:4471  if (Math.abs(y, y_prev) <= 1) {... */\n    tag_311:\n        /* \"contracts/StableSwap_2.sol\":4309:4313  ++_i */\n      dup1\n      0x01\n      add\n      swap1\n      pop\n        /* \"contracts/StableSwap_2.sol\":4278:4481  for (uint256 _i = 0; _i < 255; ++_i) {... */\n      jump(tag_301)\n    tag_302:\n      pop\n        /* \"contracts/StableSwap_2.sol\":4490:4517  revert(\"y didn't converge\") */\n      mload(0x40)\n      0x08c379a000000000000000000000000000000000000000000000000000000000\n      dup2\n      mstore\n      0x04\n      add\n      tag_312\n      swap1\n      tag_313\n      jump\t// in\n    tag_312:\n      mload(0x40)\n      dup1\n      swap2\n      sub\n      swap1\n      revert\n        /* \"contracts/StableSwap_2.sol\":3599:4524  function _getY(uint256 i, uint256 j, uint256 x, uint256[N] memory xp)... */\n    tag_277:\n      swap5\n      swap4\n      pop\n      pop\n      pop\n      pop\n      jump\t// out\n        /* \"contracts/StableSwap_2.sol\":8952:9758  function _calcWithdrawOneToken(uint256 shares, uint256 i)... */\n    tag_128:\n        /* \"contracts/StableSwap_2.sol\":9056:9066  uint256 dy */\n      0x00\n        /* \"contracts/StableSwap_2.sol\":9068:9079  uint256 fee */\n      dup1\n        /* \"contracts/StableSwap_2.sol\":9095:9115  uint256 _totalSupply */\n      0x00\n        /* \"contracts/StableSwap_2.sol\":9118:9129  totalSupply */\n      sload(0x09)\n        /* \"contracts/StableSwap_2.sol\":9095:9129  uint256 _totalSupply = totalSupply */\n      swap1\n      pop\n        /* \"contracts/StableSwap_2.sol\":9139:9159  uint256[N] memory xp */\n      0x00\n        /* \"contracts/StableSwap_2.sol\":9162:9167  _xp() */\n      tag_315\n        /* \"contracts/StableSwap_2.sol\":9162:9165  _xp */\n      tag_82\n        /* \"contracts/StableSwap_2.sol\":9162:9167  _xp() */\n      jump\t// in\n    tag_315:\n        /* \"contracts/StableSwap_2.sol\":9139:9167  uint256[N] memory xp = _xp() */\n      swap1\n      pop\n        /* \"contracts/StableSwap_2.sol\":9178:9188  uint256 d0 */\n      0x00\n        /* \"contracts/StableSwap_2.sol\":9191:9200  _getD(xp) */\n      tag_316\n        /* \"contracts/StableSwap_2.sol\":9197:9199  xp */\n      dup3\n        /* \"contracts/StableSwap_2.sol\":9191:9196  _getD */\n      tag_149\n        /* \"contracts/StableSwap_2.sol\":9191:9200  _getD(xp) */\n      jump\t// in\n    tag_316:\n        /* \"contracts/StableSwap_2.sol\":9178:9200  uint256 d0 = _getD(xp) */\n      swap1\n      pop\n        /* \"contracts/StableSwap_2.sol\":9210:9220  uint256 d1 */\n      0x00\n        /* \"contracts/StableSwap_2.sol\":9244:9256  _totalSupply */\n      dup4\n        /* \"contracts/StableSwap_2.sol\":9234:9240  shares */\n      dup9\n        /* \"contracts/StableSwap_2.sol\":9229:9231  d0 */\n      dup4\n        /* \"contracts/StableSwap_2.sol\":9229:9240  d0 * shares */\n      tag_317\n      swap2\n      swap1\n      tag_87\n      jump\t// in\n    tag_317:\n        /* \"contracts/StableSwap_2.sol\":9228:9256  (d0 * shares) / _totalSupply */\n      tag_318\n      swap2\n      swap1\n      tag_103\n      jump\t// in\n    tag_318:\n        /* \"contracts/StableSwap_2.sol\":9223:9225  d0 */\n      dup3\n        /* \"contracts/StableSwap_2.sol\":9223:9256  d0 - (d0 * shares) / _totalSupply */\n      tag_319\n      swap2\n      swap1\n      tag_100\n      jump\t// in\n    tag_319:\n        /* \"contracts/StableSwap_2.sol\":9210:9256  uint256 d1 = d0 - (d0 * shares) / _totalSupply */\n      swap1\n      pop\n        /* \"contracts/StableSwap_2.sol\":9267:9277  uint256 y0 */\n      0x00\n        /* \"contracts/StableSwap_2.sol\":9280:9297  _getYD(i, xp, d1) */\n      tag_320\n        /* \"contracts/StableSwap_2.sol\":9287:9288  i */\n      dup9\n        /* \"contracts/StableSwap_2.sol\":9290:9292  xp */\n      dup6\n        /* \"contracts/StableSwap_2.sol\":9294:9296  d1 */\n      dup5\n        /* \"contracts/StableSwap_2.sol\":9280:9286  _getYD */\n      tag_321\n        /* \"contracts/StableSwap_2.sol\":9280:9297  _getYD(i, xp, d1) */\n      jump\t// in\n    tag_320:\n        /* \"contracts/StableSwap_2.sol\":9267:9297  uint256 y0 = _getYD(i, xp, d1) */\n      swap1\n      pop\n        /* \"contracts/StableSwap_2.sol\":9307:9318  uint256 dy0 */\n      0x00\n        /* \"contracts/StableSwap_2.sol\":9336:9347  multipliers */\n      0x03\n        /* \"contracts/StableSwap_2.sol\":9348:9349  i */\n      dup10\n        /* \"contracts/StableSwap_2.sol\":9336:9350  multipliers[i] */\n      0x03\n      dup2\n      lt\n      tag_322\n      jumpi\n      tag_323\n      tag_73\n      jump\t// in\n    tag_323:\n    tag_322:\n      add\n      sload\n        /* \"contracts/StableSwap_2.sol\":9330:9332  y0 */\n      dup3\n        /* \"contracts/StableSwap_2.sol\":9322:9324  xp */\n      dup7\n        /* \"contracts/StableSwap_2.sol\":9325:9326  i */\n      dup12\n        /* \"contracts/StableSwap_2.sol\":9322:9327  xp[i] */\n      0x03\n      dup2\n      lt\n      tag_325\n      jumpi\n      tag_326\n      tag_73\n      jump\t// in\n    tag_326:\n    tag_325:\n      0x20\n      mul\n      add\n      mload\n        /* \"contracts/StableSwap_2.sol\":9322:9332  xp[i] - y0 */\n      tag_327\n      swap2\n      swap1\n      tag_100\n      jump\t// in\n    tag_327:\n        /* \"contracts/StableSwap_2.sol\":9321:9350  (xp[i] - y0) / multipliers[i] */\n      tag_328\n      swap2\n      swap1\n      tag_103\n      jump\t// in\n    tag_328:\n        /* \"contracts/StableSwap_2.sol\":9307:9350  uint256 dy0 = (xp[i] - y0) / multipliers[i] */\n      swap1\n      pop\n        /* \"contracts/StableSwap_2.sol\":9361:9371  uint256 dx */\n      0x00\n        /* \"contracts/StableSwap_2.sol\":9386:9395  uint256 j */\n      dup1\n        /* \"contracts/StableSwap_2.sol\":9398:9399  0 */\n      0x00\n        /* \"contracts/StableSwap_2.sol\":9386:9399  uint256 j = 0 */\n      swap1\n      pop\n        /* \"contracts/StableSwap_2.sol\":9381:9639  for (uint256 j = 0; j < N; ++j) {... */\n    tag_329:\n        /* \"contracts/StableSwap_2.sol\":701:702  3 */\n      0x03\n        /* \"contracts/StableSwap_2.sol\":9401:9402  j */\n      dup2\n        /* \"contracts/StableSwap_2.sol\":9401:9406  j < N */\n      lt\n        /* \"contracts/StableSwap_2.sol\":9381:9639  for (uint256 j = 0; j < N; ++j) {... */\n      iszero\n      tag_330\n      jumpi\n        /* \"contracts/StableSwap_2.sol\":9436:9437  i */\n      dup11\n        /* \"contracts/StableSwap_2.sol\":9431:9432  j */\n      dup2\n        /* \"contracts/StableSwap_2.sol\":9431:9437  j == i */\n      sub\n        /* \"contracts/StableSwap_2.sol\":9427:9568  if (j == i) {... */\n      tag_332\n      jumpi\n        /* \"contracts/StableSwap_2.sol\":9482:9484  y0 */\n      dup4\n        /* \"contracts/StableSwap_2.sol\":9477:9479  d0 */\n      dup7\n        /* \"contracts/StableSwap_2.sol\":9471:9473  d1 */\n      dup7\n        /* \"contracts/StableSwap_2.sol\":9463:9465  xp */\n      dup10\n        /* \"contracts/StableSwap_2.sol\":9466:9467  j */\n      dup5\n        /* \"contracts/StableSwap_2.sol\":9463:9468  xp[j] */\n      0x03\n      dup2\n      lt\n      tag_333\n      jumpi\n      tag_334\n      tag_73\n      jump\t// in\n    tag_334:\n    tag_333:\n      0x20\n      mul\n      add\n      mload\n        /* \"contracts/StableSwap_2.sol\":9463:9473  xp[j] * d1 */\n      tag_335\n      swap2\n      swap1\n      tag_87\n      jump\t// in\n    tag_335:\n        /* \"contracts/StableSwap_2.sol\":9462:9479  (xp[j] * d1) / d0 */\n      tag_336\n      swap2\n      swap1\n      tag_103\n      jump\t// in\n    tag_336:\n        /* \"contracts/StableSwap_2.sol\":9462:9484  (xp[j] * d1) / d0 - y0 */\n      tag_337\n      swap2\n      swap1\n      tag_100\n      jump\t// in\n    tag_337:\n        /* \"contracts/StableSwap_2.sol\":9457:9484  dx = (xp[j] * d1) / d0 - y0 */\n      swap2\n      pop\n        /* \"contracts/StableSwap_2.sol\":9427:9568  if (j == i) {... */\n      jump(tag_338)\n    tag_332:\n        /* \"contracts/StableSwap_2.sol\":9551:9553  d0 */\n      dup6\n        /* \"contracts/StableSwap_2.sol\":9545:9547  d1 */\n      dup6\n        /* \"contracts/StableSwap_2.sol\":9537:9539  xp */\n      dup9\n        /* \"contracts/StableSwap_2.sol\":9540:9541  j */\n      dup4\n        /* \"contracts/StableSwap_2.sol\":9537:9542  xp[j] */\n      0x03\n      dup2\n      lt\n      tag_339\n      jumpi\n      tag_340\n      tag_73\n      jump\t// in\n    tag_340:\n    tag_339:\n      0x20\n      mul\n      add\n      mload\n        /* \"contracts/StableSwap_2.sol\":9537:9547  xp[j] * d1 */\n      tag_341\n      swap2\n      swap1\n      tag_87\n      jump\t// in\n    tag_341:\n        /* \"contracts/StableSwap_2.sol\":9536:9553  (xp[j] * d1) / d0 */\n      tag_342\n      swap2\n      swap1\n      tag_103\n      jump\t// in\n    tag_342:\n        /* \"contracts/StableSwap_2.sol\":9528:9530  xp */\n      dup8\n        /* \"contracts/StableSwap_2.sol\":9531:9532  j */\n      dup3\n        /* \"contracts/StableSwap_2.sol\":9528:9533  xp[j] */\n      0x03\n      dup2\n      lt\n      tag_343\n      jumpi\n      tag_344\n      tag_73\n      jump\t// in\n    tag_344:\n    tag_343:\n      0x20\n      mul\n      add\n      mload\n        /* \"contracts/StableSwap_2.sol\":9528:9553  xp[j] - (xp[j] * d1) / d0 */\n      tag_345\n      swap2\n      swap1\n      tag_100\n      jump\t// in\n    tag_345:\n        /* \"contracts/StableSwap_2.sol\":9523:9553  dx = xp[j] - (xp[j] * d1) / d0 */\n      swap2\n      pop\n        /* \"contracts/StableSwap_2.sol\":9427:9568  if (j == i) {... */\n    tag_338:\n        /* \"contracts/StableSwap_2.sol\":1416:1419  1e6 */\n      0x0f4240\n        /* \"contracts/StableSwap_2.sol\":9607:9609  dx */\n      dup3\n        /* \"contracts/StableSwap_2.sol\":1364:1365  1 */\n      0x01\n        /* \"contracts/StableSwap_2.sol\":701:702  3 */\n      0x03\n        /* \"contracts/StableSwap_2.sol\":1360:1365  N - 1 */\n      tag_346\n      swap2\n      swap1\n      tag_100\n      jump\t// in\n    tag_346:\n        /* \"contracts/StableSwap_2.sol\":1355:1356  4 */\n      0x04\n        /* \"contracts/StableSwap_2.sol\":1355:1366  4 * (N - 1) */\n      tag_347\n      swap2\n      swap1\n      tag_87\n      jump\t// in\n    tag_347:\n        /* \"contracts/StableSwap_2.sol\":701:702  3 */\n      0x03\n        /* \"contracts/StableSwap_2.sol\":982:985  300 */\n      0x012c\n        /* \"contracts/StableSwap_2.sol\":1338:1350  SWAP_FEE * N */\n      tag_348\n      swap2\n      swap1\n      tag_87\n      jump\t// in\n    tag_348:\n        /* \"contracts/StableSwap_2.sol\":1337:1367  (SWAP_FEE * N) / (4 * (N - 1)) */\n      tag_349\n      swap2\n      swap1\n      tag_103\n      jump\t// in\n    tag_349:\n        /* \"contracts/StableSwap_2.sol\":9591:9609  LIQUIDITY_FEE * dx */\n      tag_350\n      swap2\n      swap1\n      tag_87\n      jump\t// in\n    tag_350:\n        /* \"contracts/StableSwap_2.sol\":9590:9628  (LIQUIDITY_FEE * dx) / FEE_DENOMINATOR */\n      tag_351\n      swap2\n      swap1\n      tag_103\n      jump\t// in\n    tag_351:\n        /* \"contracts/StableSwap_2.sol\":9581:9583  xp */\n      dup8\n        /* \"contracts/StableSwap_2.sol\":9584:9585  j */\n      dup3\n        /* \"contracts/StableSwap_2.sol\":9581:9586  xp[j] */\n      0x03\n      dup2\n      lt\n      tag_352\n      jumpi\n      tag_353\n      tag_73\n      jump\t// in\n    tag_353:\n    tag_352:\n      0x20\n      mul\n      add\n        /* \"contracts/StableSwap_2.sol\":9581:9628  xp[j] -= (LIQUIDITY_FEE * dx) / FEE_DENOMINATOR */\n      dup2\n      dup2\n      mload\n      tag_354\n      swap2\n      swap1\n      tag_100\n      jump\t// in\n    tag_354:\n      swap2\n      pop\n      dup2\n      dup2\n      mstore\n      pop\n      pop\n        /* \"contracts/StableSwap_2.sol\":9408:9411  ++j */\n      dup1\n      0x01\n      add\n      swap1\n      pop\n        /* \"contracts/StableSwap_2.sol\":9381:9639  for (uint256 j = 0; j < N; ++j) {... */\n      jump(tag_329)\n    tag_330:\n      pop\n        /* \"contracts/StableSwap_2.sol\":9649:9659  uint256 y1 */\n      0x00\n        /* \"contracts/StableSwap_2.sol\":9662:9679  _getYD(i, xp, d1) */\n      tag_355\n        /* \"contracts/StableSwap_2.sol\":9669:9670  i */\n      dup12\n        /* \"contracts/StableSwap_2.sol\":9672:9674  xp */\n      dup9\n        /* \"contracts/StableSwap_2.sol\":9676:9678  d1 */\n      dup8\n        /* \"contracts/StableSwap_2.sol\":9662:9668  _getYD */\n      tag_321\n        /* \"contracts/StableSwap_2.sol\":9662:9679  _getYD(i, xp, d1) */\n      jump\t// in\n    tag_355:\n        /* \"contracts/StableSwap_2.sol\":9649:9679  uint256 y1 = _getYD(i, xp, d1) */\n      swap1\n      pop\n        /* \"contracts/StableSwap_2.sol\":9713:9724  multipliers */\n      0x03\n        /* \"contracts/StableSwap_2.sol\":9725:9726  i */\n      dup12\n        /* \"contracts/StableSwap_2.sol\":9713:9727  multipliers[i] */\n      0x03\n      dup2\n      lt\n      tag_356\n      jumpi\n      tag_357\n      tag_73\n      jump\t// in\n    tag_357:\n    tag_356:\n      add\n      sload\n        /* \"contracts/StableSwap_2.sol\":9708:9709  1 */\n      0x01\n        /* \"contracts/StableSwap_2.sol\":9703:9705  y1 */\n      dup3\n        /* \"contracts/StableSwap_2.sol\":9695:9697  xp */\n      dup10\n        /* \"contracts/StableSwap_2.sol\":9698:9699  i */\n      dup15\n        /* \"contracts/StableSwap_2.sol\":9695:9700  xp[i] */\n      0x03\n      dup2\n      lt\n      tag_359\n      jumpi\n      tag_360\n      tag_73\n      jump\t// in\n    tag_360:\n    tag_359:\n      0x20\n      mul\n      add\n      mload\n        /* \"contracts/StableSwap_2.sol\":9695:9705  xp[i] - y1 */\n      tag_361\n      swap2\n      swap1\n      tag_100\n      jump\t// in\n    tag_361:\n        /* \"contracts/StableSwap_2.sol\":9695:9709  xp[i] - y1 - 1 */\n      tag_362\n      swap2\n      swap1\n      tag_100\n      jump\t// in\n    tag_362:\n        /* \"contracts/StableSwap_2.sol\":9694:9727  (xp[i] - y1 - 1) / multipliers[i] */\n      tag_363\n      swap2\n      swap1\n      tag_103\n      jump\t// in\n    tag_363:\n        /* \"contracts/StableSwap_2.sol\":9689:9727  dy = (xp[i] - y1 - 1) / multipliers[i] */\n      swap10\n      pop\n        /* \"contracts/StableSwap_2.sol\":9749:9751  dy */\n      dup10\n        /* \"contracts/StableSwap_2.sol\":9743:9746  dy0 */\n      dup4\n        /* \"contracts/StableSwap_2.sol\":9743:9751  dy0 - dy */\n      tag_364\n      swap2\n      swap1\n      tag_100\n      jump\t// in\n    tag_364:\n        /* \"contracts/StableSwap_2.sol\":9737:9751  fee = dy0 - dy */\n      swap9\n      pop\n        /* \"contracts/StableSwap_2.sol\":9085:9758  {... */\n      pop\n      pop\n      pop\n      pop\n      pop\n      pop\n      pop\n      pop\n        /* \"contracts/StableSwap_2.sol\":8952:9758  function _calcWithdrawOneToken(uint256 shares, uint256 i)... */\n      swap3\n      pop\n      swap3\n      swap1\n      pop\n      jump\t// out\n        /* \"contracts/StableSwap_2.sol\":2032:2163  function _burn(address _from, uint256 _amount) private {... */\n    tag_137:\n        /* \"contracts/StableSwap_2.sol\":2117:2124  _amount */\n      dup1\n        /* \"contracts/StableSwap_2.sol\":2097:2106  balanceOf */\n      0x0a\n        /* \"contracts/StableSwap_2.sol\":2097:2113  balanceOf[_from] */\n      0x00\n        /* \"contracts/StableSwap_2.sol\":2107:2112  _from */\n      dup5\n        /* \"contracts/StableSwap_2.sol\":2097:2113  balanceOf[_from] */\n      0xffffffffffffffffffffffffffffffffffffffff\n      and\n      0xffffffffffffffffffffffffffffffffffffffff\n      and\n      dup2\n      mstore\n      0x20\n      add\n      swap1\n      dup2\n      mstore\n      0x20\n      add\n      0x00\n      keccak256\n      0x00\n        /* \"contracts/StableSwap_2.sol\":2097:2124  balanceOf[_from] -= _amount */\n      dup3\n      dup3\n      sload\n      tag_366\n      swap2\n      swap1\n      tag_100\n      jump\t// in\n    tag_366:\n      swap3\n      pop\n      pop\n      dup2\n      swap1\n      sstore\n      pop\n        /* \"contracts/StableSwap_2.sol\":2149:2156  _amount */\n      dup1\n        /* \"contracts/StableSwap_2.sol\":2134:2145  totalSupply */\n      0x09\n      0x00\n        /* \"contracts/StableSwap_2.sol\":2134:2156  totalSupply -= _amount */\n      dup3\n      dup3\n      sload\n      tag_367\n      swap2\n      swap1\n      tag_100\n      jump\t// in\n    tag_367:\n      swap3\n      pop\n      pop\n      dup2\n      swap1\n      sstore\n      pop\n        /* \"contracts/StableSwap_2.sol\":2032:2163  function _burn(address _from, uint256 _amount) private {... */\n      pop\n      pop\n      jump\t// out\n        /* \"contracts/StableSwap_2.sol\":2623:3331  function _getD(uint256[N] memory xp) private pure returns (uint256) {... */\n    tag_149:\n        /* \"contracts/StableSwap_2.sol\":2682:2689  uint256 */\n      0x00\n        /* \"contracts/StableSwap_2.sol\":2701:2710  uint256 a */\n      dup1\n        /* \"contracts/StableSwap_2.sol\":701:702  3 */\n      0x03\n        /* \"contracts/StableSwap_2.sol\":924:925  1 */\n      0x01\n        /* \"contracts/StableSwap_2.sol\":701:702  3 */\n      0x03\n        /* \"contracts/StableSwap_2.sol\":920:925  N - 1 */\n      tag_369\n      swap2\n      swap1\n      tag_100\n      jump\t// in\n    tag_369:\n        /* \"contracts/StableSwap_2.sol\":701:702  3 */\n      0x03\n        /* \"contracts/StableSwap_2.sol\":914:926  N ** (N - 1) */\n      tag_370\n      swap2\n      swap1\n      tag_260\n      jump\t// in\n    tag_370:\n        /* \"contracts/StableSwap_2.sol\":906:910  1000 */\n      0x03e8\n        /* \"contracts/StableSwap_2.sol\":906:927  1000 * (N ** (N - 1)) */\n      tag_371\n      swap2\n      swap1\n      tag_87\n      jump\t// in\n    tag_371:\n        /* \"contracts/StableSwap_2.sol\":2713:2718  A * N */\n      tag_372\n      swap2\n      swap1\n      tag_87\n      jump\t// in\n    tag_372:\n        /* \"contracts/StableSwap_2.sol\":2701:2718  uint256 a = A * N */\n      swap1\n      pop\n        /* \"contracts/StableSwap_2.sol\":2736:2745  uint256 s */\n      0x00\n        /* \"contracts/StableSwap_2.sol\":2789:2798  uint256 i */\n      dup1\n        /* \"contracts/StableSwap_2.sol\":2801:2802  0 */\n      0x00\n        /* \"contracts/StableSwap_2.sol\":2789:2802  uint256 i = 0 */\n      swap1\n      pop\n        /* \"contracts/StableSwap_2.sol\":2784:2851  for (uint256 i = 0; i < N; ++i) {... */\n    tag_373:\n        /* \"contracts/StableSwap_2.sol\":701:702  3 */\n      0x03\n        /* \"contracts/StableSwap_2.sol\":2804:2805  i */\n      dup2\n        /* \"contracts/StableSwap_2.sol\":2804:2809  i < N */\n      lt\n        /* \"contracts/StableSwap_2.sol\":2784:2851  for (uint256 i = 0; i < N; ++i) {... */\n      iszero\n      tag_374\n      jumpi\n        /* \"contracts/StableSwap_2.sol\":2835:2837  xp */\n      dup5\n        /* \"contracts/StableSwap_2.sol\":2838:2839  i */\n      dup2\n        /* \"contracts/StableSwap_2.sol\":2835:2840  xp[i] */\n      0x03\n      dup2\n      lt\n      tag_376\n      jumpi\n      tag_377\n      tag_73\n      jump\t// in\n    tag_377:\n    tag_376:\n      0x20\n      mul\n      add\n      mload\n        /* \"contracts/StableSwap_2.sol\":2830:2840  s += xp[i] */\n      dup3\n      tag_378\n      swap2\n      swap1\n      tag_91\n      jump\t// in\n    tag_378:\n      swap2\n      pop\n        /* \"contracts/StableSwap_2.sol\":2811:2814  ++i */\n      dup1\n      0x01\n      add\n      swap1\n      pop\n        /* \"contracts/StableSwap_2.sol\":2784:2851  for (uint256 i = 0; i < N; ++i) {... */\n      jump(tag_373)\n    tag_374:\n      pop\n        /* \"contracts/StableSwap_2.sol\":2888:2897  uint256 d */\n      0x00\n        /* \"contracts/StableSwap_2.sol\":2900:2901  s */\n      dup2\n        /* \"contracts/StableSwap_2.sol\":2888:2901  uint256 d = s */\n      swap1\n      pop\n        /* \"contracts/StableSwap_2.sol\":2911:2925  uint256 d_prev */\n      0x00\n        /* \"contracts/StableSwap_2.sol\":2940:2949  uint256 i */\n      dup1\n        /* \"contracts/StableSwap_2.sol\":2952:2953  0 */\n      0x00\n        /* \"contracts/StableSwap_2.sol\":2940:2953  uint256 i = 0 */\n      swap1\n      pop\n        /* \"contracts/StableSwap_2.sol\":2935:3288  for (uint256 i = 0; i < 255; ++i) {... */\n    tag_379:\n        /* \"contracts/StableSwap_2.sol\":2959:2962  255 */\n      0xff\n        /* \"contracts/StableSwap_2.sol\":2955:2956  i */\n      dup2\n        /* \"contracts/StableSwap_2.sol\":2955:2962  i < 255 */\n      lt\n        /* \"contracts/StableSwap_2.sol\":2935:3288  for (uint256 i = 0; i < 255; ++i) {... */\n      iszero\n      tag_380\n      jumpi\n        /* \"contracts/StableSwap_2.sol\":2983:2992  uint256 p */\n      0x00\n        /* \"contracts/StableSwap_2.sol\":2995:2996  d */\n      dup4\n        /* \"contracts/StableSwap_2.sol\":2983:2996  uint256 p = d */\n      swap1\n      pop\n        /* \"contracts/StableSwap_2.sol\":3015:3024  uint256 j */\n      0x00\n        /* \"contracts/StableSwap_2.sol\":3010:3100  for (uint256 j = 0; j < N; ++j) {... */\n    tag_382:\n        /* \"contracts/StableSwap_2.sol\":701:702  3 */\n      0x03\n        /* \"contracts/StableSwap_2.sol\":3030:3031  j */\n      dup2\n        /* \"contracts/StableSwap_2.sol\":3030:3035  j < N */\n      lt\n        /* \"contracts/StableSwap_2.sol\":3010:3100  for (uint256 j = 0; j < N; ++j) {... */\n      iszero\n      tag_383\n      jumpi\n        /* \"contracts/StableSwap_2.sol\":3079:3081  xp */\n      dup9\n        /* \"contracts/StableSwap_2.sol\":3082:3083  j */\n      dup2\n        /* \"contracts/StableSwap_2.sol\":3079:3084  xp[j] */\n      0x03\n      dup2\n      lt\n      tag_385\n      jumpi\n      tag_386\n      tag_73\n      jump\t// in\n    tag_386:\n    tag_385:\n      0x20\n      mul\n      add\n      mload\n        /* \"contracts/StableSwap_2.sol\":701:702  3 */\n      0x03\n        /* \"contracts/StableSwap_2.sol\":3075:3084  N * xp[j] */\n      tag_387\n      swap2\n      swap1\n      tag_87\n      jump\t// in\n    tag_387:\n        /* \"contracts/StableSwap_2.sol\":3069:3070  d */\n      dup6\n        /* \"contracts/StableSwap_2.sol\":3065:3066  p */\n      dup4\n        /* \"contracts/StableSwap_2.sol\":3065:3070  p * d */\n      tag_388\n      swap2\n      swap1\n      tag_87\n      jump\t// in\n    tag_388:\n        /* \"contracts/StableSwap_2.sol\":3064:3085  (p * d) / (N * xp[j]) */\n      tag_389\n      swap2\n      swap1\n      tag_103\n      jump\t// in\n    tag_389:\n        /* \"contracts/StableSwap_2.sol\":3060:3085  p = (p * d) / (N * xp[j]) */\n      swap2\n      pop\n        /* \"contracts/StableSwap_2.sol\":3037:3040  ++j */\n      dup1\n      0x01\n      add\n      swap1\n      pop\n        /* \"contracts/StableSwap_2.sol\":3010:3100  for (uint256 j = 0; j < N; ++j) {... */\n      jump(tag_382)\n    tag_383:\n      pop\n        /* \"contracts/StableSwap_2.sol\":3122:3123  d */\n      dup4\n        /* \"contracts/StableSwap_2.sol\":3113:3123  d_prev = d */\n      swap3\n      pop\n        /* \"contracts/StableSwap_2.sol\":3190:3191  p */\n      dup1\n        /* \"contracts/StableSwap_2.sol\":3185:3186  1 */\n      0x01\n        /* \"contracts/StableSwap_2.sol\":701:702  3 */\n      0x03\n        /* \"contracts/StableSwap_2.sol\":3181:3186  N + 1 */\n      tag_390\n      swap2\n      swap1\n      tag_91\n      jump\t// in\n    tag_390:\n        /* \"contracts/StableSwap_2.sol\":3180:3191  (N + 1) * p */\n      tag_391\n      swap2\n      swap1\n      tag_87\n      jump\t// in\n    tag_391:\n        /* \"contracts/StableSwap_2.sol\":3176:3177  d */\n      dup5\n        /* \"contracts/StableSwap_2.sol\":3171:3172  1 */\n      0x01\n        /* \"contracts/StableSwap_2.sol\":3167:3168  a */\n      dup9\n        /* \"contracts/StableSwap_2.sol\":3167:3172  a - 1 */\n      tag_392\n      swap2\n      swap1\n      tag_100\n      jump\t// in\n    tag_392:\n        /* \"contracts/StableSwap_2.sol\":3166:3177  (a - 1) * d */\n      tag_393\n      swap2\n      swap1\n      tag_87\n      jump\t// in\n    tag_393:\n        /* \"contracts/StableSwap_2.sol\":3166:3191  (a - 1) * d + (N + 1) * p */\n      tag_394\n      swap2\n      swap1\n      tag_91\n      jump\t// in\n    tag_394:\n        /* \"contracts/StableSwap_2.sol\":3160:3161  d */\n      dup5\n        /* \"contracts/StableSwap_2.sol\":3155:3156  p */\n      dup3\n        /* \"contracts/StableSwap_2.sol\":701:702  3 */\n      0x03\n        /* \"contracts/StableSwap_2.sol\":3151:3156  N * p */\n      tag_395\n      swap2\n      swap1\n      tag_87\n      jump\t// in\n    tag_395:\n        /* \"contracts/StableSwap_2.sol\":3147:3148  s */\n      dup8\n        /* \"contracts/StableSwap_2.sol\":3143:3144  a */\n      dup10\n        /* \"contracts/StableSwap_2.sol\":3143:3148  a * s */\n      tag_396\n      swap2\n      swap1\n      tag_87\n      jump\t// in\n    tag_396:\n        /* \"contracts/StableSwap_2.sol\":3143:3156  a * s + N * p */\n      tag_397\n      swap2\n      swap1\n      tag_91\n      jump\t// in\n    tag_397:\n        /* \"contracts/StableSwap_2.sol\":3142:3161  (a * s + N * p) * d */\n      tag_398\n      swap2\n      swap1\n      tag_87\n      jump\t// in\n    tag_398:\n        /* \"contracts/StableSwap_2.sol\":3141:3192  ((a * s + N * p) * d) / ((a - 1) * d + (N + 1) * p) */\n      tag_399\n      swap2\n      swap1\n      tag_103\n      jump\t// in\n    tag_399:\n        /* \"contracts/StableSwap_2.sol\":3137:3192  d = ((a * s + N * p) * d) / ((a - 1) * d + (N + 1) * p) */\n      swap4\n      pop\n        /* \"contracts/StableSwap_2.sol\":3234:3235  1 */\n      0x01\n        /* \"contracts/StableSwap_2.sol\":3211:3230  Math.abs(d, d_prev) */\n      tag_400\n        /* \"contracts/StableSwap_2.sol\":3220:3221  d */\n      dup6\n        /* \"contracts/StableSwap_2.sol\":3223:3229  d_prev */\n      dup6\n        /* \"contracts/StableSwap_2.sol\":3211:3219  Math.abs */\n      tag_194\n        /* \"contracts/StableSwap_2.sol\":3211:3230  Math.abs(d, d_prev) */\n      jump\t// in\n    tag_400:\n        /* \"contracts/StableSwap_2.sol\":3211:3235  Math.abs(d, d_prev) <= 1 */\n      gt\n        /* \"contracts/StableSwap_2.sol\":3207:3278  if (Math.abs(d, d_prev) <= 1) {... */\n      tag_401\n      jumpi\n        /* \"contracts/StableSwap_2.sol\":3262:3263  d */\n      dup4\n        /* \"contracts/StableSwap_2.sol\":3255:3263  return d */\n      swap7\n      pop\n      pop\n      pop\n      pop\n      pop\n      pop\n      pop\n      jump(tag_368)\n        /* \"contracts/StableSwap_2.sol\":3207:3278  if (Math.abs(d, d_prev) <= 1) {... */\n    tag_401:\n        /* \"contracts/StableSwap_2.sol\":2969:3288  {... */\n      pop\n        /* \"contracts/StableSwap_2.sol\":2964:2967  ++i */\n      dup1\n      0x01\n      add\n      swap1\n      pop\n        /* \"contracts/StableSwap_2.sol\":2935:3288  for (uint256 i = 0; i < 255; ++i) {... */\n      jump(tag_379)\n    tag_380:\n      pop\n        /* \"contracts/StableSwap_2.sol\":3297:3324  revert(\"D didn't converge\") */\n      mload(0x40)\n      0x08c379a000000000000000000000000000000000000000000000000000000000\n      dup2\n      mstore\n      0x04\n      add\n      tag_402\n      swap1\n      tag_403\n      jump\t// in\n    tag_402:\n      mload(0x40)\n      dup1\n      swap2\n      sub\n      swap1\n      revert\n        /* \"contracts/StableSwap_2.sol\":2623:3331  function _getD(uint256[N] memory xp) private pure returns (uint256) {... */\n    tag_368:\n      swap2\n      swap1\n      pop\n      jump\t// out\n        /* \"contracts/StableSwap_2.sol\":505:618  function abs(uint256 x, uint256 y) internal pure returns (uint256) {... */\n    tag_194:\n        /* \"contracts/StableSwap_2.sol\":563:570  uint256 */\n      0x00\n        /* \"contracts/StableSwap_2.sol\":594:595  y */\n      dup2\n        /* \"contracts/StableSwap_2.sol\":589:590  x */\n      dup4\n        /* \"contracts/StableSwap_2.sol\":589:595  x >= y */\n      lt\n      iszero\n        /* \"contracts/StableSwap_2.sol\":589:611  x >= y ? x - y : y - x */\n      tag_405\n      jumpi\n        /* \"contracts/StableSwap_2.sol\":610:611  x */\n      dup3\n        /* \"contracts/StableSwap_2.sol\":606:607  y */\n      dup3\n        /* \"contracts/StableSwap_2.sol\":606:611  y - x */\n      tag_406\n      swap2\n      swap1\n      tag_100\n      jump\t// in\n    tag_406:\n        /* \"contracts/StableSwap_2.sol\":589:611  x >= y ? x - y : y - x */\n      jump(tag_407)\n    tag_405:\n        /* \"contracts/StableSwap_2.sol\":602:603  y */\n      dup2\n        /* \"contracts/StableSwap_2.sol\":598:599  x */\n      dup4\n        /* \"contracts/StableSwap_2.sol\":598:603  x - y */\n      tag_408\n      swap2\n      swap1\n      tag_100\n      jump\t// in\n    tag_408:\n        /* \"contracts/StableSwap_2.sol\":589:611  x >= y ? x - y : y - x */\n    tag_407:\n        /* \"contracts/StableSwap_2.sol\":582:611  return x >= y ? x - y : y - x */\n      swap1\n      pop\n        /* \"contracts/StableSwap_2.sol\":505:618  function abs(uint256 x, uint256 y) internal pure returns (uint256) {... */\n      swap3\n      swap2\n      pop\n      pop\n      jump\t// out\n        /* \"contracts/StableSwap_2.sol\":1899:2026  function _mint(address _to, uint256 _amount) private {... */\n    tag_224:\n        /* \"contracts/StableSwap_2.sol\":1980:1987  _amount */\n      dup1\n        /* \"contracts/StableSwap_2.sol\":1962:1971  balanceOf */\n      0x0a\n        /* \"contracts/StableSwap_2.sol\":1962:1976  balanceOf[_to] */\n      0x00\n        /* \"contracts/StableSwap_2.sol\":1972:1975  _to */\n      dup5\n        /* \"contracts/StableSwap_2.sol\":1962:1976  balanceOf[_to] */\n      0xffffffffffffffffffffffffffffffffffffffff\n      and\n      0xffffffffffffffffffffffffffffffffffffffff\n      and\n      dup2\n      mstore\n      0x20\n      add\n      swap1\n      dup2\n      mstore\n      0x20\n      add\n      0x00\n      keccak256\n      0x00\n        /* \"contracts/StableSwap_2.sol\":1962:1987  balanceOf[_to] += _amount */\n      dup3\n      dup3\n      sload\n      tag_410\n      swap2\n      swap1\n      tag_91\n      jump\t// in\n    tag_410:\n      swap3\n      pop\n      pop\n      dup2\n      swap1\n      sstore\n      pop\n        /* \"contracts/StableSwap_2.sol\":2012:2019  _amount */\n      dup1\n        /* \"contracts/StableSwap_2.sol\":1997:2008  totalSupply */\n      0x09\n      0x00\n        /* \"contracts/StableSwap_2.sol\":1997:2019  totalSupply += _amount */\n      dup3\n      dup3\n      sload\n      tag_411\n      swap2\n      swap1\n      tag_91\n      jump\t// in\n    tag_411:\n      swap3\n      pop\n      pop\n      dup2\n      swap1\n      sstore\n      pop\n        /* \"contracts/StableSwap_2.sol\":1899:2026  function _mint(address _to, uint256 _amount) private {... */\n      pop\n      pop\n      jump\t// out\n        /* \"contracts/StableSwap_2.sol\":4882:5709  function _getYD(uint256 i, uint256[N] memory xp, uint256 d)... */\n    tag_321:\n        /* \"contracts/StableSwap_2.sol\":4988:4995  uint256 */\n      0x00\n        /* \"contracts/StableSwap_2.sol\":5011:5020  uint256 a */\n      dup1\n        /* \"contracts/StableSwap_2.sol\":701:702  3 */\n      0x03\n        /* \"contracts/StableSwap_2.sol\":924:925  1 */\n      0x01\n        /* \"contracts/StableSwap_2.sol\":701:702  3 */\n      0x03\n        /* \"contracts/StableSwap_2.sol\":920:925  N - 1 */\n      tag_413\n      swap2\n      swap1\n      tag_100\n      jump\t// in\n    tag_413:\n        /* \"contracts/StableSwap_2.sol\":701:702  3 */\n      0x03\n        /* \"contracts/StableSwap_2.sol\":914:926  N ** (N - 1) */\n      tag_414\n      swap2\n      swap1\n      tag_260\n      jump\t// in\n    tag_414:\n        /* \"contracts/StableSwap_2.sol\":906:910  1000 */\n      0x03e8\n        /* \"contracts/StableSwap_2.sol\":906:927  1000 * (N ** (N - 1)) */\n      tag_415\n      swap2\n      swap1\n      tag_87\n      jump\t// in\n    tag_415:\n        /* \"contracts/StableSwap_2.sol\":5023:5028  A * N */\n      tag_416\n      swap2\n      swap1\n      tag_87\n      jump\t// in\n    tag_416:\n        /* \"contracts/StableSwap_2.sol\":5011:5028  uint256 a = A * N */\n      swap1\n      pop\n        /* \"contracts/StableSwap_2.sol\":5038:5047  uint256 s */\n      0x00\n        /* \"contracts/StableSwap_2.sol\":5057:5066  uint256 c */\n      dup1\n        /* \"contracts/StableSwap_2.sol\":5069:5070  d */\n      dup5\n        /* \"contracts/StableSwap_2.sol\":5057:5070  uint256 c = d */\n      swap1\n      pop\n        /* \"contracts/StableSwap_2.sol\":5081:5091  uint256 _x */\n      0x00\n        /* \"contracts/StableSwap_2.sol\":5106:5115  uint256 k */\n      dup1\n        /* \"contracts/StableSwap_2.sol\":5118:5119  0 */\n      0x00\n        /* \"contracts/StableSwap_2.sol\":5106:5119  uint256 k = 0 */\n      swap1\n      pop\n        /* \"contracts/StableSwap_2.sol\":5101:5317  for (uint256 k = 0; k < N; ++k) {... */\n    tag_417:\n        /* \"contracts/StableSwap_2.sol\":701:702  3 */\n      0x03\n        /* \"contracts/StableSwap_2.sol\":5121:5122  k */\n      dup2\n        /* \"contracts/StableSwap_2.sol\":5121:5126  k < N */\n      lt\n        /* \"contracts/StableSwap_2.sol\":5101:5317  for (uint256 k = 0; k < N; ++k) {... */\n      iszero\n      tag_418\n      jumpi\n        /* \"contracts/StableSwap_2.sol\":5156:5157  i */\n      dup9\n        /* \"contracts/StableSwap_2.sol\":5151:5152  k */\n      dup2\n        /* \"contracts/StableSwap_2.sol\":5151:5157  k != i */\n      eq\n        /* \"contracts/StableSwap_2.sol\":5147:5249  if (k != i) {... */\n      tag_420\n      jumpi\n        /* \"contracts/StableSwap_2.sol\":5182:5184  xp */\n      dup8\n        /* \"contracts/StableSwap_2.sol\":5185:5186  k */\n      dup2\n        /* \"contracts/StableSwap_2.sol\":5182:5187  xp[k] */\n      0x03\n      dup2\n      lt\n      tag_421\n      jumpi\n      tag_422\n      tag_73\n      jump\t// in\n    tag_422:\n    tag_421:\n      0x20\n      mul\n      add\n      mload\n        /* \"contracts/StableSwap_2.sol\":5177:5187  _x = xp[k] */\n      swap2\n      pop\n        /* \"contracts/StableSwap_2.sol\":5147:5249  if (k != i) {... */\n      jump(tag_423)\n    tag_420:\n        /* \"contracts/StableSwap_2.sol\":5226:5234  continue */\n      jump(tag_419)\n        /* \"contracts/StableSwap_2.sol\":5147:5249  if (k != i) {... */\n    tag_423:\n        /* \"contracts/StableSwap_2.sol\":5268:5270  _x */\n      dup2\n        /* \"contracts/StableSwap_2.sol\":5263:5270  s += _x */\n      dup5\n      tag_424\n      swap2\n      swap1\n      tag_91\n      jump\t// in\n    tag_424:\n      swap4\n      pop\n        /* \"contracts/StableSwap_2.sol\":5303:5305  _x */\n      dup2\n        /* \"contracts/StableSwap_2.sol\":701:702  3 */\n      0x03\n        /* \"contracts/StableSwap_2.sol\":5299:5305  N * _x */\n      tag_425\n      swap2\n      swap1\n      tag_87\n      jump\t// in\n    tag_425:\n        /* \"contracts/StableSwap_2.sol\":5293:5294  d */\n      dup8\n        /* \"contracts/StableSwap_2.sol\":5289:5290  c */\n      dup5\n        /* \"contracts/StableSwap_2.sol\":5289:5294  c * d */\n      tag_426\n      swap2\n      swap1\n      tag_87\n      jump\t// in\n    tag_426:\n        /* \"contracts/StableSwap_2.sol\":5288:5306  (c * d) / (N * _x) */\n      tag_427\n      swap2\n      swap1\n      tag_103\n      jump\t// in\n    tag_427:\n        /* \"contracts/StableSwap_2.sol\":5284:5306  c = (c * d) / (N * _x) */\n      swap3\n      pop\n        /* \"contracts/StableSwap_2.sol\":5101:5317  for (uint256 k = 0; k < N; ++k) {... */\n    tag_419:\n        /* \"contracts/StableSwap_2.sol\":5128:5131  ++k */\n      dup1\n      0x01\n      add\n      swap1\n      pop\n        /* \"contracts/StableSwap_2.sol\":5101:5317  for (uint256 k = 0; k < N; ++k) {... */\n      jump(tag_417)\n    tag_418:\n      pop\n        /* \"contracts/StableSwap_2.sol\":5345:5346  a */\n      dup4\n        /* \"contracts/StableSwap_2.sol\":701:702  3 */\n      0x03\n        /* \"contracts/StableSwap_2.sol\":5341:5346  N * a */\n      tag_428\n      swap2\n      swap1\n      tag_87\n      jump\t// in\n    tag_428:\n        /* \"contracts/StableSwap_2.sol\":5335:5336  d */\n      dup7\n        /* \"contracts/StableSwap_2.sol\":5331:5332  c */\n      dup4\n        /* \"contracts/StableSwap_2.sol\":5331:5336  c * d */\n      tag_429\n      swap2\n      swap1\n      tag_87\n      jump\t// in\n    tag_429:\n        /* \"contracts/StableSwap_2.sol\":5330:5347  (c * d) / (N * a) */\n      tag_430\n      swap2\n      swap1\n      tag_103\n      jump\t// in\n    tag_430:\n        /* \"contracts/StableSwap_2.sol\":5326:5347  c = (c * d) / (N * a) */\n      swap2\n      pop\n        /* \"contracts/StableSwap_2.sol\":5357:5366  uint256 b */\n      0x00\n        /* \"contracts/StableSwap_2.sol\":5377:5378  a */\n      dup5\n        /* \"contracts/StableSwap_2.sol\":5373:5374  d */\n      dup8\n        /* \"contracts/StableSwap_2.sol\":5373:5378  d / a */\n      tag_431\n      swap2\n      swap1\n      tag_103\n      jump\t// in\n    tag_431:\n        /* \"contracts/StableSwap_2.sol\":5369:5370  s */\n      dup5\n        /* \"contracts/StableSwap_2.sol\":5369:5378  s + d / a */\n      tag_432\n      swap2\n      swap1\n      tag_91\n      jump\t// in\n    tag_432:\n        /* \"contracts/StableSwap_2.sol\":5357:5378  uint256 b = s + d / a */\n      swap1\n      pop\n        /* \"contracts/StableSwap_2.sol\":5416:5430  uint256 y_prev */\n      0x00\n        /* \"contracts/StableSwap_2.sol\":5440:5449  uint256 y */\n      dup1\n        /* \"contracts/StableSwap_2.sol\":5452:5453  d */\n      dup9\n        /* \"contracts/StableSwap_2.sol\":5440:5453  uint256 y = d */\n      swap1\n      pop\n        /* \"contracts/StableSwap_2.sol\":5468:5478  uint256 _i */\n      0x00\n        /* \"contracts/StableSwap_2.sol\":5463:5666  for (uint256 _i = 0; _i < 255; ++_i) {... */\n    tag_433:\n        /* \"contracts/StableSwap_2.sol\":5489:5492  255 */\n      0xff\n        /* \"contracts/StableSwap_2.sol\":5484:5486  _i */\n      dup2\n        /* \"contracts/StableSwap_2.sol\":5484:5492  _i < 255 */\n      lt\n        /* \"contracts/StableSwap_2.sol\":5463:5666  for (uint256 _i = 0; _i < 255; ++_i) {... */\n      iszero\n      tag_434\n      jumpi\n        /* \"contracts/StableSwap_2.sol\":5523:5524  y */\n      dup2\n        /* \"contracts/StableSwap_2.sol\":5514:5524  y_prev = y */\n      swap3\n      pop\n        /* \"contracts/StableSwap_2.sol\":5569:5570  d */\n      dup10\n        /* \"contracts/StableSwap_2.sol\":5565:5566  b */\n      dup5\n        /* \"contracts/StableSwap_2.sol\":5561:5562  y */\n      dup4\n        /* \"contracts/StableSwap_2.sol\":5557:5558  2 */\n      0x02\n        /* \"contracts/StableSwap_2.sol\":5557:5562  2 * y */\n      tag_436\n      swap2\n      swap1\n      tag_87\n      jump\t// in\n    tag_436:\n        /* \"contracts/StableSwap_2.sol\":5557:5566  2 * y + b */\n      tag_437\n      swap2\n      swap1\n      tag_91\n      jump\t// in\n    tag_437:\n        /* \"contracts/StableSwap_2.sol\":5557:5570  2 * y + b - d */\n      tag_438\n      swap2\n      swap1\n      tag_100\n      jump\t// in\n    tag_438:\n        /* \"contracts/StableSwap_2.sol\":5551:5552  c */\n      dup7\n        /* \"contracts/StableSwap_2.sol\":5547:5548  y */\n      dup4\n        /* \"contracts/StableSwap_2.sol\":5543:5544  y */\n      dup5\n        /* \"contracts/StableSwap_2.sol\":5543:5548  y * y */\n      tag_439\n      swap2\n      swap1\n      tag_87\n      jump\t// in\n    tag_439:\n        /* \"contracts/StableSwap_2.sol\":5543:5552  y * y + c */\n      tag_440\n      swap2\n      swap1\n      tag_91\n      jump\t// in\n    tag_440:\n        /* \"contracts/StableSwap_2.sol\":5542:5571  (y * y + c) / (2 * y + b - d) */\n      tag_441\n      swap2\n      swap1\n      tag_103\n      jump\t// in\n    tag_441:\n        /* \"contracts/StableSwap_2.sol\":5538:5571  y = (y * y + c) / (2 * y + b - d) */\n      swap2\n      pop\n        /* \"contracts/StableSwap_2.sol\":5612:5613  1 */\n      0x01\n        /* \"contracts/StableSwap_2.sol\":5589:5608  Math.abs(y, y_prev) */\n      tag_442\n        /* \"contracts/StableSwap_2.sol\":5598:5599  y */\n      dup4\n        /* \"contracts/StableSwap_2.sol\":5601:5607  y_prev */\n      dup6\n        /* \"contracts/StableSwap_2.sol\":5589:5597  Math.abs */\n      tag_194\n        /* \"contracts/StableSwap_2.sol\":5589:5608  Math.abs(y, y_prev) */\n      jump\t// in\n    tag_442:\n        /* \"contracts/StableSwap_2.sol\":5589:5613  Math.abs(y, y_prev) <= 1 */\n      gt\n        /* \"contracts/StableSwap_2.sol\":5585:5656  if (Math.abs(y, y_prev) <= 1) {... */\n      tag_443\n      jumpi\n        /* \"contracts/StableSwap_2.sol\":5640:5641  y */\n      dup2\n        /* \"contracts/StableSwap_2.sol\":5633:5641  return y */\n      swap9\n      pop\n      pop\n      pop\n      pop\n      pop\n      pop\n      pop\n      pop\n      pop\n      jump(tag_412)\n        /* \"contracts/StableSwap_2.sol\":5585:5656  if (Math.abs(y, y_prev) <= 1) {... */\n    tag_443:\n        /* \"contracts/StableSwap_2.sol\":5494:5498  ++_i */\n      dup1\n      0x01\n      add\n      swap1\n      pop\n        /* \"contracts/StableSwap_2.sol\":5463:5666  for (uint256 _i = 0; _i < 255; ++_i) {... */\n      jump(tag_433)\n    tag_434:\n      pop\n        /* \"contracts/StableSwap_2.sol\":5675:5702  revert(\"y didn't converge\") */\n      mload(0x40)\n      0x08c379a000000000000000000000000000000000000000000000000000000000\n      dup2\n      mstore\n      0x04\n      add\n      tag_444\n      swap1\n      tag_313\n      jump\t// in\n    tag_444:\n      mload(0x40)\n      dup1\n      swap2\n      sub\n      swap1\n      revert\n        /* \"contracts/StableSwap_2.sol\":4882:5709  function _getYD(uint256 i, uint256[N] memory xp, uint256 d)... */\n    tag_412:\n      swap4\n      swap3\n      pop\n      pop\n      pop\n      jump\t// out\n    tag_151:\n      mload(0x40)\n      dup1\n      0x60\n      add\n      0x40\n      mstore\n      dup1\n      0x03\n      swap1\n      0x20\n      dup3\n      mul\n      dup1\n      calldatasize\n      dup4\n      calldatacopy\n      dup1\n      dup3\n      add\n      swap2\n      pop\n      pop\n      swap1\n      pop\n      pop\n      swap1\n      jump\t// out\n        /* \"#utility.yul\":7:84   */\n    tag_445:\n        /* \"#utility.yul\":44:51   */\n      0x00\n        /* \"#utility.yul\":73:78   */\n      dup2\n        /* \"#utility.yul\":62:78   */\n      swap1\n      pop\n        /* \"#utility.yul\":7:84   */\n      swap2\n      swap1\n      pop\n      jump\t// out\n        /* \"#utility.yul\":90:208   */\n    tag_446:\n        /* \"#utility.yul\":177:201   */\n      tag_492\n        /* \"#utility.yul\":195:200   */\n      dup2\n        /* \"#utility.yul\":177:201   */\n      tag_445\n      jump\t// in\n    tag_492:\n        /* \"#utility.yul\":172:175   */\n      dup3\n        /* \"#utility.yul\":165:202   */\n      mstore\n        /* \"#utility.yul\":90:208   */\n      pop\n      pop\n      jump\t// out\n        /* \"#utility.yul\":214:436   */\n    tag_17:\n        /* \"#utility.yul\":307:311   */\n      0x00\n        /* \"#utility.yul\":345:347   */\n      0x20\n        /* \"#utility.yul\":334:343   */\n      dup3\n        /* \"#utility.yul\":330:348   */\n      add\n        /* \"#utility.yul\":322:348   */\n      swap1\n      pop\n        /* \"#utility.yul\":358:429   */\n      tag_494\n        /* \"#utility.yul\":426:427   */\n      0x00\n        /* \"#utility.yul\":415:424   */\n      dup4\n        /* \"#utility.yul\":411:428   */\n      add\n        /* \"#utility.yul\":402:408   */\n      dup5\n        /* \"#utility.yul\":358:429   */\n      tag_446\n      jump\t// in\n    tag_494:\n        /* \"#utility.yul\":214:436   */\n      swap3\n      swap2\n      pop\n      pop\n      jump\t// out\n        /* \"#utility.yul\":523:640   */\n    tag_448:\n        /* \"#utility.yul\":632:633   */\n      0x00\n        /* \"#utility.yul\":629:630   */\n      dup1\n        /* \"#utility.yul\":622:634   */\n      revert\n        /* \"#utility.yul\":769:891   */\n    tag_450:\n        /* \"#utility.yul\":842:866   */\n      tag_499\n        /* \"#utility.yul\":860:865   */\n      dup2\n        /* \"#utility.yul\":842:866   */\n      tag_445\n      jump\t// in\n    tag_499:\n        /* \"#utility.yul\":835:840   */\n      dup2\n        /* \"#utility.yul\":832:867   */\n      eq\n        /* \"#utility.yul\":822:885   */\n      tag_500\n      jumpi\n        /* \"#utility.yul\":881:882   */\n      0x00\n        /* \"#utility.yul\":878:879   */\n      dup1\n        /* \"#utility.yul\":871:883   */\n      revert\n        /* \"#utility.yul\":822:885   */\n    tag_500:\n        /* \"#utility.yul\":769:891   */\n      pop\n      jump\t// out\n        /* \"#utility.yul\":897:1036   */\n    tag_451:\n        /* \"#utility.yul\":943:948   */\n      0x00\n        /* \"#utility.yul\":981:987   */\n      dup2\n        /* \"#utility.yul\":968:988   */\n      calldataload\n        /* \"#utility.yul\":959:988   */\n      swap1\n      pop\n        /* \"#utility.yul\":997:1030   */\n      tag_502\n        /* \"#utility.yul\":1024:1029   */\n      dup2\n        /* \"#utility.yul\":997:1030   */\n      tag_450\n      jump\t// in\n    tag_502:\n        /* \"#utility.yul\":897:1036   */\n      swap3\n      swap2\n      pop\n      pop\n      jump\t// out\n        /* \"#utility.yul\":1042:1371   */\n    tag_20:\n        /* \"#utility.yul\":1101:1107   */\n      0x00\n        /* \"#utility.yul\":1150:1152   */\n      0x20\n        /* \"#utility.yul\":1138:1147   */\n      dup3\n        /* \"#utility.yul\":1129:1136   */\n      dup5\n        /* \"#utility.yul\":1125:1148   */\n      sub\n        /* \"#utility.yul\":1121:1153   */\n      slt\n        /* \"#utility.yul\":1118:1237   */\n      iszero\n      tag_504\n      jumpi\n        /* \"#utility.yul\":1156:1235   */\n      tag_505\n      tag_448\n      jump\t// in\n    tag_505:\n        /* \"#utility.yul\":1118:1237   */\n    tag_504:\n        /* \"#utility.yul\":1276:1277   */\n      0x00\n        /* \"#utility.yul\":1301:1354   */\n      tag_506\n        /* \"#utility.yul\":1346:1353   */\n      dup5\n        /* \"#utility.yul\":1337:1343   */\n      dup3\n        /* \"#utility.yul\":1326:1335   */\n      dup6\n        /* \"#utility.yul\":1322:1344   */\n      add\n        /* \"#utility.yul\":1301:1354   */\n      tag_451\n      jump\t// in\n    tag_506:\n        /* \"#utility.yul\":1291:1354   */\n      swap2\n      pop\n        /* \"#utility.yul\":1247:1364   */\n      pop\n        /* \"#utility.yul\":1042:1371   */\n      swap3\n      swap2\n      pop\n      pop\n      jump\t// out\n        /* \"#utility.yul\":1377:1503   */\n    tag_452:\n        /* \"#utility.yul\":1414:1421   */\n      0x00\n        /* \"#utility.yul\":1454:1496   */\n      0xffffffffffffffffffffffffffffffffffffffff\n        /* \"#utility.yul\":1447:1452   */\n      dup3\n        /* \"#utility.yul\":1443:1497   */\n      and\n        /* \"#utility.yul\":1432:1497   */\n      swap1\n      pop\n        /* \"#utility.yul\":1377:1503   */\n      swap2\n      swap1\n      pop\n      jump\t// out\n        /* \"#utility.yul\":1509:1605   */\n    tag_453:\n        /* \"#utility.yul\":1546:1553   */\n      0x00\n        /* \"#utility.yul\":1575:1599   */\n      tag_509\n        /* \"#utility.yul\":1593:1598   */\n      dup3\n        /* \"#utility.yul\":1575:1599   */\n      tag_452\n      jump\t// in\n    tag_509:\n        /* \"#utility.yul\":1564:1599   */\n      swap1\n      pop\n        /* \"#utility.yul\":1509:1605   */\n      swap2\n      swap1\n      pop\n      jump\t// out\n        /* \"#utility.yul\":1611:1729   */\n    tag_454:\n        /* \"#utility.yul\":1698:1722   */\n      tag_511\n        /* \"#utility.yul\":1716:1721   */\n      dup2\n        /* \"#utility.yul\":1698:1722   */\n      tag_453\n      jump\t// in\n    tag_511:\n        /* \"#utility.yul\":1693:1696   */\n      dup3\n        /* \"#utility.yul\":1686:1723   */\n      mstore\n        /* \"#utility.yul\":1611:1729   */\n      pop\n      pop\n      jump\t// out\n        /* \"#utility.yul\":1735:1957   */\n    tag_27:\n        /* \"#utility.yul\":1828:1832   */\n      0x00\n        /* \"#utility.yul\":1866:1868   */\n      0x20\n        /* \"#utility.yul\":1855:1864   */\n      dup3\n        /* \"#utility.yul\":1851:1869   */\n      add\n        /* \"#utility.yul\":1843:1869   */\n      swap1\n      pop\n        /* \"#utility.yul\":1879:1950   */\n      tag_513\n        /* \"#utility.yul\":1947:1948   */\n      0x00\n        /* \"#utility.yul\":1936:1945   */\n      dup4\n        /* \"#utility.yul\":1932:1949   */\n      add\n        /* \"#utility.yul\":1923:1929   */\n      dup5\n        /* \"#utility.yul\":1879:1950   */\n      tag_454\n      jump\t// in\n    tag_513:\n        /* \"#utility.yul\":1735:1957   */\n      swap3\n      swap2\n      pop\n      pop\n      jump\t// out\n        /* \"#utility.yul\":1963:2728   */\n    tag_30:\n        /* \"#utility.yul\":2049:2055   */\n      0x00\n        /* \"#utility.yul\":2057:2063   */\n      dup1\n        /* \"#utility.yul\":2065:2071   */\n      0x00\n        /* \"#utility.yul\":2073:2079   */\n      dup1\n        /* \"#utility.yul\":2122:2125   */\n      0x80\n        /* \"#utility.yul\":2110:2119   */\n      dup6\n        /* \"#utility.yul\":2101:2108   */\n      dup8\n        /* \"#utility.yul\":2097:2120   */\n      sub\n        /* \"#utility.yul\":2093:2126   */\n      slt\n        /* \"#utility.yul\":2090:2210   */\n      iszero\n      tag_515\n      jumpi\n        /* \"#utility.yul\":2129:2208   */\n      tag_516\n      tag_448\n      jump\t// in\n    tag_516:\n        /* \"#utility.yul\":2090:2210   */\n    tag_515:\n        /* \"#utility.yul\":2249:2250   */\n      0x00\n        /* \"#utility.yul\":2274:2327   */\n      tag_517\n        /* \"#utility.yul\":2319:2326   */\n      dup8\n        /* \"#utility.yul\":2310:2316   */\n      dup3\n        /* \"#utility.yul\":2299:2308   */\n      dup9\n        /* \"#utility.yul\":2295:2317   */\n      add\n        /* \"#utility.yul\":2274:2327   */\n      tag_451\n      jump\t// in\n    tag_517:\n        /* \"#utility.yul\":2264:2327   */\n      swap5\n      pop\n        /* \"#utility.yul\":2220:2337   */\n      pop\n        /* \"#utility.yul\":2376:2378   */\n      0x20\n        /* \"#utility.yul\":2402:2455   */\n      tag_518\n        /* \"#utility.yul\":2447:2454   */\n      dup8\n        /* \"#utility.yul\":2438:2444   */\n      dup3\n        /* \"#utility.yul\":2427:2436   */\n      dup9\n        /* \"#utility.yul\":2423:2445   */\n      add\n        /* \"#utility.yul\":2402:2455   */\n      tag_451\n      jump\t// in\n    tag_518:\n        /* \"#utility.yul\":2392:2455   */\n      swap4\n      pop\n        /* \"#utility.yul\":2347:2465   */\n      pop\n        /* \"#utility.yul\":2504:2506   */\n      0x40\n        /* \"#utility.yul\":2530:2583   */\n      tag_519\n        /* \"#utility.yul\":2575:2582   */\n      dup8\n        /* \"#utility.yul\":2566:2572   */\n      dup3\n        /* \"#utility.yul\":2555:2564   */\n      dup9\n        /* \"#utility.yul\":2551:2573   */\n      add\n        /* \"#utility.yul\":2530:2583   */\n      tag_451\n      jump\t// in\n    tag_519:\n        /* \"#utility.yul\":2520:2583   */\n      swap3\n      pop\n        /* \"#utility.yul\":2475:2593   */\n      pop\n        /* \"#utility.yul\":2632:2634   */\n      0x60\n        /* \"#utility.yul\":2658:2711   */\n      tag_520\n        /* \"#utility.yul\":2703:2710   */\n      dup8\n        /* \"#utility.yul\":2694:2700   */\n      dup3\n        /* \"#utility.yul\":2683:2692   */\n      dup9\n        /* \"#utility.yul\":2679:2701   */\n      add\n        /* \"#utility.yul\":2658:2711   */\n      tag_451\n      jump\t// in\n    tag_520:\n        /* \"#utility.yul\":2648:2711   */\n      swap2\n      pop\n        /* \"#utility.yul\":2603:2721   */\n      pop\n        /* \"#utility.yul\":1963:2728   */\n      swap3\n      swap6\n      swap2\n      swap5\n      pop\n      swap3\n      pop\n      jump\t// out\n        /* \"#utility.yul\":2734:3353   */\n    tag_35:\n        /* \"#utility.yul\":2811:2817   */\n      0x00\n        /* \"#utility.yul\":2819:2825   */\n      dup1\n        /* \"#utility.yul\":2827:2833   */\n      0x00\n        /* \"#utility.yul\":2876:2878   */\n      0x60\n        /* \"#utility.yul\":2864:2873   */\n      dup5\n        /* \"#utility.yul\":2855:2862   */\n      dup7\n        /* \"#utility.yul\":2851:2874   */\n      sub\n        /* \"#utility.yul\":2847:2879   */\n      slt\n        /* \"#utility.yul\":2844:2963   */\n      iszero\n      tag_522\n      jumpi\n        /* \"#utility.yul\":2882:2961   */\n      tag_523\n      tag_448\n      jump\t// in\n    tag_523:\n        /* \"#utility.yul\":2844:2963   */\n    tag_522:\n        /* \"#utility.yul\":3002:3003   */\n      0x00\n        /* \"#utility.yul\":3027:3080   */\n      tag_524\n        /* \"#utility.yul\":3072:3079   */\n      dup7\n        /* \"#utility.yul\":3063:3069   */\n      dup3\n        /* \"#utility.yul\":3052:3061   */\n      dup8\n        /* \"#utility.yul\":3048:3070   */\n      add\n        /* \"#utility.yul\":3027:3080   */\n      tag_451\n      jump\t// in\n    tag_524:\n        /* \"#utility.yul\":3017:3080   */\n      swap4\n      pop\n        /* \"#utility.yul\":2973:3090   */\n      pop\n        /* \"#utility.yul\":3129:3131   */\n      0x20\n        /* \"#utility.yul\":3155:3208   */\n      tag_525\n        /* \"#utility.yul\":3200:3207   */\n      dup7\n        /* \"#utility.yul\":3191:3197   */\n      dup3\n        /* \"#utility.yul\":3180:3189   */\n      dup8\n        /* \"#utility.yul\":3176:3198   */\n      add\n        /* \"#utility.yul\":3155:3208   */\n      tag_451\n      jump\t// in\n    tag_525:\n        /* \"#utility.yul\":3145:3208   */\n      swap3\n      pop\n        /* \"#utility.yul\":3100:3218   */\n      pop\n        /* \"#utility.yul\":3257:3259   */\n      0x40\n        /* \"#utility.yul\":3283:3336   */\n      tag_526\n        /* \"#utility.yul\":3328:3335   */\n      dup7\n        /* \"#utility.yul\":3319:3325   */\n      dup3\n        /* \"#utility.yul\":3308:3317   */\n      dup8\n        /* \"#utility.yul\":3304:3326   */\n      add\n        /* \"#utility.yul\":3283:3336   */\n      tag_451\n      jump\t// in\n    tag_526:\n        /* \"#utility.yul\":3273:3336   */\n      swap2\n      pop\n        /* \"#utility.yul\":3228:3346   */\n      pop\n        /* \"#utility.yul\":2734:3353   */\n      swap3\n      pop\n      swap3\n      pop\n      swap3\n      jump\t// out\n        /* \"#utility.yul\":3359:3481   */\n    tag_455:\n        /* \"#utility.yul\":3432:3456   */\n      tag_528\n        /* \"#utility.yul\":3450:3455   */\n      dup2\n        /* \"#utility.yul\":3432:3456   */\n      tag_453\n      jump\t// in\n    tag_528:\n        /* \"#utility.yul\":3425:3430   */\n      dup2\n        /* \"#utility.yul\":3422:3457   */\n      eq\n        /* \"#utility.yul\":3412:3475   */\n      tag_529\n      jumpi\n        /* \"#utility.yul\":3471:3472   */\n      0x00\n        /* \"#utility.yul\":3468:3469   */\n      dup1\n        /* \"#utility.yul\":3461:3473   */\n      revert\n        /* \"#utility.yul\":3412:3475   */\n    tag_529:\n        /* \"#utility.yul\":3359:3481   */\n      pop\n      jump\t// out\n        /* \"#utility.yul\":3487:3626   */\n    tag_456:\n        /* \"#utility.yul\":3533:3538   */\n      0x00\n        /* \"#utility.yul\":3571:3577   */\n      dup2\n        /* \"#utility.yul\":3558:3578   */\n      calldataload\n        /* \"#utility.yul\":3549:3578   */\n      swap1\n      pop\n        /* \"#utility.yul\":3587:3620   */\n      tag_531\n        /* \"#utility.yul\":3614:3619   */\n      dup2\n        /* \"#utility.yul\":3587:3620   */\n      tag_455\n      jump\t// in\n    tag_531:\n        /* \"#utility.yul\":3487:3626   */\n      swap3\n      swap2\n      pop\n      pop\n      jump\t// out\n        /* \"#utility.yul\":3632:3961   */\n    tag_40:\n        /* \"#utility.yul\":3691:3697   */\n      0x00\n        /* \"#utility.yul\":3740:3742   */\n      0x20\n        /* \"#utility.yul\":3728:3737   */\n      dup3\n        /* \"#utility.yul\":3719:3726   */\n      dup5\n        /* \"#utility.yul\":3715:3738   */\n      sub\n        /* \"#utility.yul\":3711:3743   */\n      slt\n        /* \"#utility.yul\":3708:3827   */\n      iszero\n      tag_533\n      jumpi\n        /* \"#utility.yul\":3746:3825   */\n      tag_534\n      tag_448\n      jump\t// in\n    tag_534:\n        /* \"#utility.yul\":3708:3827   */\n    tag_533:\n        /* \"#utility.yul\":3866:3867   */\n      0x00\n        /* \"#utility.yul\":3891:3944   */\n      tag_535\n        /* \"#utility.yul\":3936:3943   */\n      dup5\n        /* \"#utility.yul\":3927:3933   */\n      dup3\n        /* \"#utility.yul\":3916:3925   */\n      dup6\n        /* \"#utility.yul\":3912:3934   */\n      add\n        /* \"#utility.yul\":3891:3944   */\n      tag_456\n      jump\t// in\n    tag_535:\n        /* \"#utility.yul\":3881:3944   */\n      swap2\n      pop\n        /* \"#utility.yul\":3837:3954   */\n      pop\n        /* \"#utility.yul\":3632:3961   */\n      swap3\n      swap2\n      pop\n      pop\n      jump\t// out\n        /* \"#utility.yul\":3967:4084   */\n    tag_457:\n        /* \"#utility.yul\":4076:4077   */\n      0x00\n        /* \"#utility.yul\":4073:4074   */\n      dup1\n        /* \"#utility.yul\":4066:4078   */\n      revert\n        /* \"#utility.yul\":4108:4357   */\n    tag_458:\n        /* \"#utility.yul\":4179:4187   */\n      0x00\n        /* \"#utility.yul\":4210:4216   */\n      dup2\n        /* \"#utility.yul\":4198:4216   */\n      swap1\n      pop\n        /* \"#utility.yul\":4263:4266   */\n      dup3\n        /* \"#utility.yul\":4255:4259   */\n      0x20\n        /* \"#utility.yul\":4249:4253   */\n      0x03\n        /* \"#utility.yul\":4245:4260   */\n      mul\n        /* \"#utility.yul\":4235:4243   */\n      dup3\n        /* \"#utility.yul\":4231:4261   */\n      add\n        /* \"#utility.yul\":4228:4267   */\n      gt\n        /* \"#utility.yul\":4225:4351   */\n      iszero\n      tag_538\n      jumpi\n        /* \"#utility.yul\":4270:4349   */\n      tag_539\n      tag_457\n      jump\t// in\n    tag_539:\n        /* \"#utility.yul\":4225:4351   */\n    tag_538:\n        /* \"#utility.yul\":4108:4357   */\n      swap3\n      swap2\n      pop\n      pop\n      jump\t// out\n        /* \"#utility.yul\":4363:4888   */\n    tag_45:\n        /* \"#utility.yul\":4456:4462   */\n      0x00\n        /* \"#utility.yul\":4464:4470   */\n      dup1\n        /* \"#utility.yul\":4513:4516   */\n      0x80\n        /* \"#utility.yul\":4501:4510   */\n      dup4\n        /* \"#utility.yul\":4492:4499   */\n      dup6\n        /* \"#utility.yul\":4488:4511   */\n      sub\n        /* \"#utility.yul\":4484:4517   */\n      slt\n        /* \"#utility.yul\":4481:4601   */\n      iszero\n      tag_541\n      jumpi\n        /* \"#utility.yul\":4520:4599   */\n      tag_542\n      tag_448\n      jump\t// in\n    tag_542:\n        /* \"#utility.yul\":4481:4601   */\n    tag_541:\n        /* \"#utility.yul\":4640:4641   */\n      0x00\n        /* \"#utility.yul\":4665:4743   */\n      tag_543\n        /* \"#utility.yul\":4735:4742   */\n      dup6\n        /* \"#utility.yul\":4726:4732   */\n      dup3\n        /* \"#utility.yul\":4715:4724   */\n      dup7\n        /* \"#utility.yul\":4711:4733   */\n      add\n        /* \"#utility.yul\":4665:4743   */\n      tag_458\n      jump\t// in\n    tag_543:\n        /* \"#utility.yul\":4655:4743   */\n      swap3\n      pop\n        /* \"#utility.yul\":4611:4753   */\n      pop\n        /* \"#utility.yul\":4792:4794   */\n      0x60\n        /* \"#utility.yul\":4818:4871   */\n      tag_544\n        /* \"#utility.yul\":4863:4870   */\n      dup6\n        /* \"#utility.yul\":4854:4860   */\n      dup3\n        /* \"#utility.yul\":4843:4852   */\n      dup7\n        /* \"#utility.yul\":4839:4861   */\n      add\n        /* \"#utility.yul\":4818:4871   */\n      tag_451\n      jump\t// in\n    tag_544:\n        /* \"#utility.yul\":4808:4871   */\n      swap2\n      pop\n        /* \"#utility.yul\":4763:4881   */\n      pop\n        /* \"#utility.yul\":4363:4888   */\n      swap3\n      pop\n      swap3\n      swap1\n      pop\n      jump\t// out\n        /* \"#utility.yul\":4894:5368   */\n    tag_50:\n        /* \"#utility.yul\":4962:4968   */\n      0x00\n        /* \"#utility.yul\":4970:4976   */\n      dup1\n        /* \"#utility.yul\":5019:5021   */\n      0x40\n        /* \"#utility.yul\":5007:5016   */\n      dup4\n        /* \"#utility.yul\":4998:5005   */\n      dup6\n        /* \"#utility.yul\":4994:5017   */\n      sub\n        /* \"#utility.yul\":4990:5022   */\n      slt\n        /* \"#utility.yul\":4987:5106   */\n      iszero\n      tag_546\n      jumpi\n        /* \"#utility.yul\":5025:5104   */\n      tag_547\n      tag_448\n      jump\t// in\n    tag_547:\n        /* \"#utility.yul\":4987:5106   */\n    tag_546:\n        /* \"#utility.yul\":5145:5146   */\n      0x00\n        /* \"#utility.yul\":5170:5223   */\n      tag_548\n        /* \"#utility.yul\":5215:5222   */\n      dup6\n        /* \"#utility.yul\":5206:5212   */\n      dup3\n        /* \"#utility.yul\":5195:5204   */\n      dup7\n        /* \"#utility.yul\":5191:5213   */\n      add\n        /* \"#utility.yul\":5170:5223   */\n      tag_451\n      jump\t// in\n    tag_548:\n        /* \"#utility.yul\":5160:5223   */\n      swap3\n      pop\n        /* \"#utility.yul\":5116:5233   */\n      pop\n        /* \"#utility.yul\":5272:5274   */\n      0x20\n        /* \"#utility.yul\":5298:5351   */\n      tag_549\n        /* \"#utility.yul\":5343:5350   */\n      dup6\n        /* \"#utility.yul\":5334:5340   */\n      dup3\n        /* \"#utility.yul\":5323:5332   */\n      dup7\n        /* \"#utility.yul\":5319:5341   */\n      add\n        /* \"#utility.yul\":5298:5351   */\n      tag_451\n      jump\t// in\n    tag_549:\n        /* \"#utility.yul\":5288:5351   */\n      swap2\n      pop\n        /* \"#utility.yul\":5243:5361   */\n      pop\n        /* \"#utility.yul\":4894:5368   */\n      swap3\n      pop\n      swap3\n      swap1\n      pop\n      jump\t// out\n        /* \"#utility.yul\":5374:5706   */\n    tag_53:\n        /* \"#utility.yul\":5495:5499   */\n      0x00\n        /* \"#utility.yul\":5533:5535   */\n      0x40\n        /* \"#utility.yul\":5522:5531   */\n      dup3\n        /* \"#utility.yul\":5518:5536   */\n      add\n        /* \"#utility.yul\":5510:5536   */\n      swap1\n      pop\n        /* \"#utility.yul\":5546:5617   */\n      tag_551\n        /* \"#utility.yul\":5614:5615   */\n      0x00\n        /* \"#utility.yul\":5603:5612   */\n      dup4\n        /* \"#utility.yul\":5599:5616   */\n      add\n        /* \"#utility.yul\":5590:5596   */\n      dup6\n        /* \"#utility.yul\":5546:5617   */\n      tag_446\n      jump\t// in\n    tag_551:\n        /* \"#utility.yul\":5627:5699   */\n      tag_552\n        /* \"#utility.yul\":5695:5697   */\n      0x20\n        /* \"#utility.yul\":5684:5693   */\n      dup4\n        /* \"#utility.yul\":5680:5698   */\n      add\n        /* \"#utility.yul\":5671:5677   */\n      dup5\n        /* \"#utility.yul\":5627:5699   */\n      tag_446\n      jump\t// in\n    tag_552:\n        /* \"#utility.yul\":5374:5706   */\n      swap4\n      swap3\n      pop\n      pop\n      pop\n      jump\t// out\n        /* \"#utility.yul\":5712:6237   */\n    tag_56:\n        /* \"#utility.yul\":5805:5811   */\n      0x00\n        /* \"#utility.yul\":5813:5819   */\n      dup1\n        /* \"#utility.yul\":5862:5865   */\n      0x80\n        /* \"#utility.yul\":5850:5859   */\n      dup4\n        /* \"#utility.yul\":5841:5848   */\n      dup6\n        /* \"#utility.yul\":5837:5860   */\n      sub\n        /* \"#utility.yul\":5833:5866   */\n      slt\n        /* \"#utility.yul\":5830:5950   */\n      iszero\n      tag_554\n      jumpi\n        /* \"#utility.yul\":5869:5948   */\n      tag_555\n      tag_448\n      jump\t// in\n    tag_555:\n        /* \"#utility.yul\":5830:5950   */\n    tag_554:\n        /* \"#utility.yul\":5989:5990   */\n      0x00\n        /* \"#utility.yul\":6014:6067   */\n      tag_556\n        /* \"#utility.yul\":6059:6066   */\n      dup6\n        /* \"#utility.yul\":6050:6056   */\n      dup3\n        /* \"#utility.yul\":6039:6048   */\n      dup7\n        /* \"#utility.yul\":6035:6057   */\n      add\n        /* \"#utility.yul\":6014:6067   */\n      tag_451\n      jump\t// in\n    tag_556:\n        /* \"#utility.yul\":6004:6067   */\n      swap3\n      pop\n        /* \"#utility.yul\":5960:6077   */\n      pop\n        /* \"#utility.yul\":6116:6118   */\n      0x20\n        /* \"#utility.yul\":6142:6220   */\n      tag_557\n        /* \"#utility.yul\":6212:6219   */\n      dup6\n        /* \"#utility.yul\":6203:6209   */\n      dup3\n        /* \"#utility.yul\":6192:6201   */\n      dup7\n        /* \"#utility.yul\":6188:6210   */\n      add\n        /* \"#utility.yul\":6142:6220   */\n      tag_458\n      jump\t// in\n    tag_557:\n        /* \"#utility.yul\":6132:6220   */\n      swap2\n      pop\n        /* \"#utility.yul\":6087:6230   */\n      pop\n        /* \"#utility.yul\":5712:6237   */\n      swap3\n      pop\n      swap3\n      swap1\n      pop\n      jump\t// out\n        /* \"#utility.yul\":6243:6347   */\n    tag_459:\n        /* \"#utility.yul\":6308:6314   */\n      0x00\n        /* \"#utility.yul\":6336:6340   */\n      0x03\n        /* \"#utility.yul\":6326:6340   */\n      swap1\n      pop\n        /* \"#utility.yul\":6243:6347   */\n      swap2\n      swap1\n      pop\n      jump\t// out\n        /* \"#utility.yul\":6353:6496   */\n    tag_460:\n        /* \"#utility.yul\":6450:6461   */\n      0x00\n        /* \"#utility.yul\":6487:6490   */\n      dup2\n        /* \"#utility.yul\":6472:6490   */\n      swap1\n      pop\n        /* \"#utility.yul\":6353:6496   */\n      swap3\n      swap2\n      pop\n      pop\n      jump\t// out\n        /* \"#utility.yul\":6502:6600   */\n    tag_461:\n        /* \"#utility.yul\":6567:6571   */\n      0x00\n        /* \"#utility.yul\":6590:6593   */\n      dup2\n        /* \"#utility.yul\":6582:6593   */\n      swap1\n      pop\n        /* \"#utility.yul\":6502:6600   */\n      swap2\n      swap1\n      pop\n      jump\t// out\n        /* \"#utility.yul\":6606:6714   */\n    tag_462:\n        /* \"#utility.yul\":6683:6707   */\n      tag_562\n        /* \"#utility.yul\":6701:6706   */\n      dup2\n        /* \"#utility.yul\":6683:6707   */\n      tag_445\n      jump\t// in\n    tag_562:\n        /* \"#utility.yul\":6678:6681   */\n      dup3\n        /* \"#utility.yul\":6671:6708   */\n      mstore\n        /* \"#utility.yul\":6606:6714   */\n      pop\n      pop\n      jump\t// out\n        /* \"#utility.yul\":6720:6899   */\n    tag_463:\n        /* \"#utility.yul\":6789:6799   */\n      0x00\n        /* \"#utility.yul\":6810:6856   */\n      tag_564\n        /* \"#utility.yul\":6852:6855   */\n      dup4\n        /* \"#utility.yul\":6844:6850   */\n      dup4\n        /* \"#utility.yul\":6810:6856   */\n      tag_462\n      jump\t// in\n    tag_564:\n        /* \"#utility.yul\":6888:6892   */\n      0x20\n        /* \"#utility.yul\":6883:6886   */\n      dup4\n        /* \"#utility.yul\":6879:6893   */\n      add\n        /* \"#utility.yul\":6865:6893   */\n      swap1\n      pop\n        /* \"#utility.yul\":6720:6899   */\n      swap3\n      swap2\n      pop\n      pop\n      jump\t// out\n        /* \"#utility.yul\":6905:7016   */\n    tag_464:\n        /* \"#utility.yul\":6973:6977   */\n      0x00\n        /* \"#utility.yul\":7005:7009   */\n      0x20\n        /* \"#utility.yul\":7000:7003   */\n      dup3\n        /* \"#utility.yul\":6996:7010   */\n      add\n        /* \"#utility.yul\":6988:7010   */\n      swap1\n      pop\n        /* \"#utility.yul\":6905:7016   */\n      swap2\n      swap1\n      pop\n      jump\t// out\n        /* \"#utility.yul\":7054:7748   */\n    tag_465:\n        /* \"#utility.yul\":7190:7242   */\n      tag_567\n        /* \"#utility.yul\":7236:7241   */\n      dup2\n        /* \"#utility.yul\":7190:7242   */\n      tag_459\n      jump\t// in\n    tag_567:\n        /* \"#utility.yul\":7258:7342   */\n      tag_568\n        /* \"#utility.yul\":7335:7341   */\n      dup2\n        /* \"#utility.yul\":7330:7333   */\n      dup5\n        /* \"#utility.yul\":7258:7342   */\n      tag_460\n      jump\t// in\n    tag_568:\n        /* \"#utility.yul\":7251:7342   */\n      swap3\n      pop\n        /* \"#utility.yul\":7366:7420   */\n      tag_569\n        /* \"#utility.yul\":7414:7419   */\n      dup3\n        /* \"#utility.yul\":7366:7420   */\n      tag_461\n      jump\t// in\n    tag_569:\n        /* \"#utility.yul\":7443:7450   */\n      dup1\n        /* \"#utility.yul\":7474:7475   */\n      0x00\n        /* \"#utility.yul\":7459:7741   */\n    tag_570:\n        /* \"#utility.yul\":7484:7490   */\n      dup4\n        /* \"#utility.yul\":7481:7482   */\n      dup2\n        /* \"#utility.yul\":7478:7491   */\n      lt\n        /* \"#utility.yul\":7459:7741   */\n      iszero\n      tag_572\n      jumpi\n        /* \"#utility.yul\":7560:7566   */\n      dup2\n        /* \"#utility.yul\":7554:7567   */\n      mload\n        /* \"#utility.yul\":7587:7650   */\n      tag_573\n        /* \"#utility.yul\":7646:7649   */\n      dup8\n        /* \"#utility.yul\":7631:7644   */\n      dup3\n        /* \"#utility.yul\":7587:7650   */\n      tag_463\n      jump\t// in\n    tag_573:\n        /* \"#utility.yul\":7580:7650   */\n      swap7\n      pop\n        /* \"#utility.yul\":7673:7731   */\n      tag_574\n        /* \"#utility.yul\":7724:7730   */\n      dup4\n        /* \"#utility.yul\":7673:7731   */\n      tag_464\n      jump\t// in\n    tag_574:\n        /* \"#utility.yul\":7663:7731   */\n      swap3\n      pop\n        /* \"#utility.yul\":7519:7741   */\n      pop\n        /* \"#utility.yul\":7506:7507   */\n      0x01\n        /* \"#utility.yul\":7503:7504   */\n      dup2\n        /* \"#utility.yul\":7499:7508   */\n      add\n        /* \"#utility.yul\":7494:7508   */\n      swap1\n      pop\n        /* \"#utility.yul\":7459:7741   */\n      jump(tag_570)\n    tag_572:\n        /* \"#utility.yul\":7463:7477   */\n      pop\n        /* \"#utility.yul\":7166:7748   */\n      pop\n      pop\n      pop\n        /* \"#utility.yul\":7054:7748   */\n      pop\n      pop\n      jump\t// out\n        /* \"#utility.yul\":7754:8068   */\n    tag_59:\n        /* \"#utility.yul\":7893:7897   */\n      0x00\n        /* \"#utility.yul\":7931:7933   */\n      0x60\n        /* \"#utility.yul\":7920:7929   */\n      dup3\n        /* \"#utility.yul\":7916:7934   */\n      add\n        /* \"#utility.yul\":7908:7934   */\n      swap1\n      pop\n        /* \"#utility.yul\":7944:8061   */\n      tag_576\n        /* \"#utility.yul\":8058:8059   */\n      0x00\n        /* \"#utility.yul\":8047:8056   */\n      dup4\n        /* \"#utility.yul\":8043:8060   */\n      add\n        /* \"#utility.yul\":8034:8040   */\n      dup5\n        /* \"#utility.yul\":7944:8061   */\n      tag_465\n      jump\t// in\n    tag_576:\n        /* \"#utility.yul\":7754:8068   */\n      swap3\n      swap2\n      pop\n      pop\n      jump\t// out\n        /* \"#utility.yul\":8074:8243   */\n    tag_466:\n        /* \"#utility.yul\":8158:8169   */\n      0x00\n        /* \"#utility.yul\":8192:8198   */\n      dup3\n        /* \"#utility.yul\":8187:8190   */\n      dup3\n        /* \"#utility.yul\":8180:8199   */\n      mstore\n        /* \"#utility.yul\":8232:8236   */\n      0x20\n        /* \"#utility.yul\":8227:8230   */\n      dup3\n        /* \"#utility.yul\":8223:8237   */\n      add\n        /* \"#utility.yul\":8208:8237   */\n      swap1\n      pop\n        /* \"#utility.yul\":8074:8243   */\n      swap3\n      swap2\n      pop\n      pop\n      jump\t// out\n        /* \"#utility.yul\":8249:8404   */\n    tag_467:\n        /* \"#utility.yul\":8389:8396   */\n      0x69203d206a000000000000000000000000000000000000000000000000000000\n        /* \"#utility.yul\":8385:8386   */\n      0x00\n        /* \"#utility.yul\":8377:8383   */\n      dup3\n        /* \"#utility.yul\":8373:8387   */\n      add\n        /* \"#utility.yul\":8366:8397   */\n      mstore\n        /* \"#utility.yul\":8249:8404   */\n      pop\n      jump\t// out\n        /* \"#utility.yul\":8410:8775   */\n    tag_468:\n        /* \"#utility.yul\":8552:8555   */\n      0x00\n        /* \"#utility.yul\":8573:8639   */\n      tag_580\n        /* \"#utility.yul\":8637:8638   */\n      0x05\n        /* \"#utility.yul\":8632:8635   */\n      dup4\n        /* \"#utility.yul\":8573:8639   */\n      tag_466\n      jump\t// in\n    tag_580:\n        /* \"#utility.yul\":8566:8639   */\n      swap2\n      pop\n        /* \"#utility.yul\":8648:8741   */\n      tag_581\n        /* \"#utility.yul\":8737:8740   */\n      dup3\n        /* \"#utility.yul\":8648:8741   */\n      tag_467\n      jump\t// in\n    tag_581:\n        /* \"#utility.yul\":8766:8768   */\n      0x20\n        /* \"#utility.yul\":8761:8764   */\n      dup3\n        /* \"#utility.yul\":8757:8769   */\n      add\n        /* \"#utility.yul\":8750:8769   */\n      swap1\n      pop\n        /* \"#utility.yul\":8410:8775   */\n      swap2\n      swap1\n      pop\n      jump\t// out\n        /* \"#utility.yul\":8781:9200   */\n    tag_70:\n        /* \"#utility.yul\":8947:8951   */\n      0x00\n        /* \"#utility.yul\":8985:8987   */\n      0x20\n        /* \"#utility.yul\":8974:8983   */\n      dup3\n        /* \"#utility.yul\":8970:8988   */\n      add\n        /* \"#utility.yul\":8962:8988   */\n      swap1\n      pop\n        /* \"#utility.yul\":9034:9043   */\n      dup2\n        /* \"#utility.yul\":9028:9032   */\n      dup2\n        /* \"#utility.yul\":9024:9044   */\n      sub\n        /* \"#utility.yul\":9020:9021   */\n      0x00\n        /* \"#utility.yul\":9009:9018   */\n      dup4\n        /* \"#utility.yul\":9005:9022   */\n      add\n        /* \"#utility.yul\":8998:9045   */\n      mstore\n        /* \"#utility.yul\":9062:9193   */\n      tag_583\n        /* \"#utility.yul\":9188:9192   */\n      dup2\n        /* \"#utility.yul\":9062:9193   */\n      tag_468\n      jump\t// in\n    tag_583:\n        /* \"#utility.yul\":9054:9193   */\n      swap1\n      pop\n        /* \"#utility.yul\":8781:9200   */\n      swap2\n      swap1\n      pop\n      jump\t// out\n        /* \"#utility.yul\":9206:9386   */\n    tag_73:\n        /* \"#utility.yul\":9254:9331   */\n      0x4e487b7100000000000000000000000000000000000000000000000000000000\n        /* \"#utility.yul\":9251:9252   */\n      0x00\n        /* \"#utility.yul\":9244:9332   */\n      mstore\n        /* \"#utility.yul\":9351:9355   */\n      0x32\n        /* \"#utility.yul\":9348:9349   */\n      0x04\n        /* \"#utility.yul\":9341:9356   */\n      mstore\n        /* \"#utility.yul\":9375:9379   */\n      0x24\n        /* \"#utility.yul\":9372:9373   */\n      0x00\n        /* \"#utility.yul\":9365:9380   */\n      revert\n        /* \"#utility.yul\":9392:9834   */\n    tag_76:\n        /* \"#utility.yul\":9541:9545   */\n      0x00\n        /* \"#utility.yul\":9579:9581   */\n      0x60\n        /* \"#utility.yul\":9568:9577   */\n      dup3\n        /* \"#utility.yul\":9564:9582   */\n      add\n        /* \"#utility.yul\":9556:9582   */\n      swap1\n      pop\n        /* \"#utility.yul\":9592:9663   */\n      tag_586\n        /* \"#utility.yul\":9660:9661   */\n      0x00\n        /* \"#utility.yul\":9649:9658   */\n      dup4\n        /* \"#utility.yul\":9645:9662   */\n      add\n        /* \"#utility.yul\":9636:9642   */\n      dup7\n        /* \"#utility.yul\":9592:9663   */\n      tag_454\n      jump\t// in\n    tag_586:\n        /* \"#utility.yul\":9673:9745   */\n      tag_587\n        /* \"#utility.yul\":9741:9743   */\n      0x20\n        /* \"#utility.yul\":9730:9739   */\n      dup4\n        /* \"#utility.yul\":9726:9744   */\n      add\n        /* \"#utility.yul\":9717:9723   */\n      dup6\n        /* \"#utility.yul\":9673:9745   */\n      tag_454\n      jump\t// in\n    tag_587:\n        /* \"#utility.yul\":9755:9827   */\n      tag_588\n        /* \"#utility.yul\":9823:9825   */\n      0x40\n        /* \"#utility.yul\":9812:9821   */\n      dup4\n        /* \"#utility.yul\":9808:9826   */\n      add\n        /* \"#utility.yul\":9799:9805   */\n      dup5\n        /* \"#utility.yul\":9755:9827   */\n      tag_446\n      jump\t// in\n    tag_588:\n        /* \"#utility.yul\":9392:9834   */\n      swap5\n      swap4\n      pop\n      pop\n      pop\n      pop\n      jump\t// out\n        /* \"#utility.yul\":9840:9930   */\n    tag_469:\n        /* \"#utility.yul\":9874:9881   */\n      0x00\n        /* \"#utility.yul\":9917:9922   */\n      dup2\n        /* \"#utility.yul\":9910:9923   */\n      iszero\n        /* \"#utility.yul\":9903:9924   */\n      iszero\n        /* \"#utility.yul\":9892:9924   */\n      swap1\n      pop\n        /* \"#utility.yul\":9840:9930   */\n      swap2\n      swap1\n      pop\n      jump\t// out\n        /* \"#utility.yul\":9936:10052   */\n    tag_470:\n        /* \"#utility.yul\":10006:10027   */\n      tag_591\n        /* \"#utility.yul\":10021:10026   */\n      dup2\n        /* \"#utility.yul\":10006:10027   */\n      tag_469\n      jump\t// in\n    tag_591:\n        /* \"#utility.yul\":9999:10004   */\n      dup2\n        /* \"#utility.yul\":9996:10028   */\n      eq\n        /* \"#utility.yul\":9986:10046   */\n      tag_592\n      jumpi\n        /* \"#utility.yul\":10042:10043   */\n      0x00\n        /* \"#utility.yul\":10039:10040   */\n      dup1\n        /* \"#utility.yul\":10032:10044   */\n      revert\n        /* \"#utility.yul\":9986:10046   */\n    tag_592:\n        /* \"#utility.yul\":9936:10052   */\n      pop\n      jump\t// out\n        /* \"#utility.yul\":10058:10195   */\n    tag_471:\n        /* \"#utility.yul\":10112:10117   */\n      0x00\n        /* \"#utility.yul\":10143:10149   */\n      dup2\n        /* \"#utility.yul\":10137:10150   */\n      mload\n        /* \"#utility.yul\":10128:10150   */\n      swap1\n      pop\n        /* \"#utility.yul\":10159:10189   */\n      tag_594\n        /* \"#utility.yul\":10183:10188   */\n      dup2\n        /* \"#utility.yul\":10159:10189   */\n      tag_470\n      jump\t// in\n    tag_594:\n        /* \"#utility.yul\":10058:10195   */\n      swap3\n      swap2\n      pop\n      pop\n      jump\t// out\n        /* \"#utility.yul\":10201:10546   */\n    tag_80:\n        /* \"#utility.yul\":10268:10274   */\n      0x00\n        /* \"#utility.yul\":10317:10319   */\n      0x20\n        /* \"#utility.yul\":10305:10314   */\n      dup3\n        /* \"#utility.yul\":10296:10303   */\n      dup5\n        /* \"#utility.yul\":10292:10315   */\n      sub\n        /* \"#utility.yul\":10288:10320   */\n      slt\n        /* \"#utility.yul\":10285:10404   */\n      iszero\n      tag_596\n      jumpi\n        /* \"#utility.yul\":10323:10402   */\n      tag_597\n      tag_448\n      jump\t// in\n    tag_597:\n        /* \"#utility.yul\":10285:10404   */\n    tag_596:\n        /* \"#utility.yul\":10443:10444   */\n      0x00\n        /* \"#utility.yul\":10468:10529   */\n      tag_598\n        /* \"#utility.yul\":10521:10528   */\n      dup5\n        /* \"#utility.yul\":10512:10518   */\n      dup3\n        /* \"#utility.yul\":10501:10510   */\n      dup6\n        /* \"#utility.yul\":10497:10519   */\n      add\n        /* \"#utility.yul\":10468:10529   */\n      tag_471\n      jump\t// in\n    tag_598:\n        /* \"#utility.yul\":10458:10529   */\n      swap2\n      pop\n        /* \"#utility.yul\":10414:10539   */\n      pop\n        /* \"#utility.yul\":10201:10546   */\n      swap3\n      swap2\n      pop\n      pop\n      jump\t// out\n        /* \"#utility.yul\":10552:10732   */\n    tag_472:\n        /* \"#utility.yul\":10600:10677   */\n      0x4e487b7100000000000000000000000000000000000000000000000000000000\n        /* \"#utility.yul\":10597:10598   */\n      0x00\n        /* \"#utility.yul\":10590:10678   */\n      mstore\n        /* \"#utility.yul\":10697:10701   */\n      0x11\n        /* \"#utility.yul\":10694:10695   */\n      0x04\n        /* \"#utility.yul\":10687:10702   */\n      mstore\n        /* \"#utility.yul\":10721:10725   */\n      0x24\n        /* \"#utility.yul\":10718:10719   */\n      0x00\n        /* \"#utility.yul\":10711:10726   */\n      revert\n        /* \"#utility.yul\":10738:11148   */\n    tag_87:\n        /* \"#utility.yul\":10778:10785   */\n      0x00\n        /* \"#utility.yul\":10801:10821   */\n      tag_601\n        /* \"#utility.yul\":10819:10820   */\n      dup3\n        /* \"#utility.yul\":10801:10821   */\n      tag_445\n      jump\t// in\n    tag_601:\n        /* \"#utility.yul\":10796:10821   */\n      swap2\n      pop\n        /* \"#utility.yul\":10835:10855   */\n      tag_602\n        /* \"#utility.yul\":10853:10854   */\n      dup4\n        /* \"#utility.yul\":10835:10855   */\n      tag_445\n      jump\t// in\n    tag_602:\n        /* \"#utility.yul\":10830:10855   */\n      swap3\n      pop\n        /* \"#utility.yul\":10890:10891   */\n      dup3\n        /* \"#utility.yul\":10887:10888   */\n      dup3\n        /* \"#utility.yul\":10883:10892   */\n      mul\n        /* \"#utility.yul\":10912:10942   */\n      tag_603\n        /* \"#utility.yul\":10930:10941   */\n      dup2\n        /* \"#utility.yul\":10912:10942   */\n      tag_445\n      jump\t// in\n    tag_603:\n        /* \"#utility.yul\":10901:10942   */\n      swap2\n      pop\n        /* \"#utility.yul\":11091:11092   */\n      dup3\n        /* \"#utility.yul\":11082:11089   */\n      dup3\n        /* \"#utility.yul\":11078:11093   */\n      div\n        /* \"#utility.yul\":11075:11076   */\n      dup5\n        /* \"#utility.yul\":11072:11094   */\n      eq\n        /* \"#utility.yul\":11052:11053   */\n      dup4\n        /* \"#utility.yul\":11045:11054   */\n      iszero\n        /* \"#utility.yul\":11025:11108   */\n      or\n        /* \"#utility.yul\":11002:11141   */\n      tag_604\n      jumpi\n        /* \"#utility.yul\":11121:11139   */\n      tag_605\n      tag_472\n      jump\t// in\n    tag_605:\n        /* \"#utility.yul\":11002:11141   */\n    tag_604:\n        /* \"#utility.yul\":10786:11148   */\n      pop\n        /* \"#utility.yul\":10738:11148   */\n      swap3\n      swap2\n      pop\n      pop\n      jump\t// out\n        /* \"#utility.yul\":11154:11345   */\n    tag_91:\n        /* \"#utility.yul\":11194:11197   */\n      0x00\n        /* \"#utility.yul\":11213:11233   */\n      tag_607\n        /* \"#utility.yul\":11231:11232   */\n      dup3\n        /* \"#utility.yul\":11213:11233   */\n      tag_445\n      jump\t// in\n    tag_607:\n        /* \"#utility.yul\":11208:11233   */\n      swap2\n      pop\n        /* \"#utility.yul\":11247:11267   */\n      tag_608\n        /* \"#utility.yul\":11265:11266   */\n      dup4\n        /* \"#utility.yul\":11247:11267   */\n      tag_445\n      jump\t// in\n    tag_608:\n        /* \"#utility.yul\":11242:11267   */\n      swap3\n      pop\n        /* \"#utility.yul\":11290:11291   */\n      dup3\n        /* \"#utility.yul\":11287:11288   */\n      dup3\n        /* \"#utility.yul\":11283:11292   */\n      add\n        /* \"#utility.yul\":11276:11292   */\n      swap1\n      pop\n        /* \"#utility.yul\":11311:11314   */\n      dup1\n        /* \"#utility.yul\":11308:11309   */\n      dup3\n        /* \"#utility.yul\":11305:11315   */\n      gt\n        /* \"#utility.yul\":11302:11338   */\n      iszero\n      tag_609\n      jumpi\n        /* \"#utility.yul\":11318:11336   */\n      tag_610\n      tag_472\n      jump\t// in\n    tag_610:\n        /* \"#utility.yul\":11302:11338   */\n    tag_609:\n        /* \"#utility.yul\":11154:11345   */\n      swap3\n      swap2\n      pop\n      pop\n      jump\t// out\n        /* \"#utility.yul\":11351:11545   */\n    tag_100:\n        /* \"#utility.yul\":11391:11395   */\n      0x00\n        /* \"#utility.yul\":11411:11431   */\n      tag_612\n        /* \"#utility.yul\":11429:11430   */\n      dup3\n        /* \"#utility.yul\":11411:11431   */\n      tag_445\n      jump\t// in\n    tag_612:\n        /* \"#utility.yul\":11406:11431   */\n      swap2\n      pop\n        /* \"#utility.yul\":11445:11465   */\n      tag_613\n        /* \"#utility.yul\":11463:11464   */\n      dup4\n        /* \"#utility.yul\":11445:11465   */\n      tag_445\n      jump\t// in\n    tag_613:\n        /* \"#utility.yul\":11440:11465   */\n      swap3\n      pop\n        /* \"#utility.yul\":11489:11490   */\n      dup3\n        /* \"#utility.yul\":11486:11487   */\n      dup3\n        /* \"#utility.yul\":11482:11491   */\n      sub\n        /* \"#utility.yul\":11474:11491   */\n      swap1\n      pop\n        /* \"#utility.yul\":11513:11514   */\n      dup2\n        /* \"#utility.yul\":11507:11511   */\n      dup2\n        /* \"#utility.yul\":11504:11515   */\n      gt\n        /* \"#utility.yul\":11501:11538   */\n      iszero\n      tag_614\n      jumpi\n        /* \"#utility.yul\":11518:11536   */\n      tag_615\n      tag_472\n      jump\t// in\n    tag_615:\n        /* \"#utility.yul\":11501:11538   */\n    tag_614:\n        /* \"#utility.yul\":11351:11545   */\n      swap3\n      swap2\n      pop\n      pop\n      jump\t// out\n        /* \"#utility.yul\":11551:11731   */\n    tag_473:\n        /* \"#utility.yul\":11599:11676   */\n      0x4e487b7100000000000000000000000000000000000000000000000000000000\n        /* \"#utility.yul\":11596:11597   */\n      0x00\n        /* \"#utility.yul\":11589:11677   */\n      mstore\n        /* \"#utility.yul\":11696:11700   */\n      0x12\n        /* \"#utility.yul\":11693:11694   */\n      0x04\n        /* \"#utility.yul\":11686:11701   */\n      mstore\n        /* \"#utility.yul\":11720:11724   */\n      0x24\n        /* \"#utility.yul\":11717:11718   */\n      0x00\n        /* \"#utility.yul\":11710:11725   */\n      revert\n        /* \"#utility.yul\":11737:11922   */\n    tag_103:\n        /* \"#utility.yul\":11777:11778   */\n      0x00\n        /* \"#utility.yul\":11794:11814   */\n      tag_618\n        /* \"#utility.yul\":11812:11813   */\n      dup3\n        /* \"#utility.yul\":11794:11814   */\n      tag_445\n      jump\t// in\n    tag_618:\n        /* \"#utility.yul\":11789:11814   */\n      swap2\n      pop\n        /* \"#utility.yul\":11828:11848   */\n      tag_619\n        /* \"#utility.yul\":11846:11847   */\n      dup4\n        /* \"#utility.yul\":11828:11848   */\n      tag_445\n      jump\t// in\n    tag_619:\n        /* \"#utility.yul\":11823:11848   */\n      swap3\n      pop\n        /* \"#utility.yul\":11867:11868   */\n      dup3\n        /* \"#utility.yul\":11857:11892   */\n      tag_620\n      jumpi\n        /* \"#utility.yul\":11872:11890   */\n      tag_621\n      tag_473\n      jump\t// in\n    tag_621:\n        /* \"#utility.yul\":11857:11892   */\n    tag_620:\n        /* \"#utility.yul\":11914:11915   */\n      dup3\n        /* \"#utility.yul\":11911:11912   */\n      dup3\n        /* \"#utility.yul\":11907:11916   */\n      div\n        /* \"#utility.yul\":11902:11916   */\n      swap1\n      pop\n        /* \"#utility.yul\":11737:11922   */\n      swap3\n      swap2\n      pop\n      pop\n      jump\t// out\n        /* \"#utility.yul\":11928:12086   */\n    tag_474:\n        /* \"#utility.yul\":12068:12078   */\n      0x6479203c206d696e000000000000000000000000000000000000000000000000\n        /* \"#utility.yul\":12064:12065   */\n      0x00\n        /* \"#utility.yul\":12056:12062   */\n      dup3\n        /* \"#utility.yul\":12052:12066   */\n      add\n        /* \"#utility.yul\":12045:12079   */\n      mstore\n        /* \"#utility.yul\":11928:12086   */\n      pop\n      jump\t// out\n        /* \"#utility.yul\":12092:12457   */\n    tag_475:\n        /* \"#utility.yul\":12234:12237   */\n      0x00\n        /* \"#utility.yul\":12255:12321   */\n      tag_624\n        /* \"#utility.yul\":12319:12320   */\n      0x08\n        /* \"#utility.yul\":12314:12317   */\n      dup4\n        /* \"#utility.yul\":12255:12321   */\n      tag_466\n      jump\t// in\n    tag_624:\n        /* \"#utility.yul\":12248:12321   */\n      swap2\n      pop\n        /* \"#utility.yul\":12330:12423   */\n      tag_625\n        /* \"#utility.yul\":12419:12422   */\n      dup3\n        /* \"#utility.yul\":12330:12423   */\n      tag_474\n      jump\t// in\n    tag_625:\n        /* \"#utility.yul\":12448:12450   */\n      0x20\n        /* \"#utility.yul\":12443:12446   */\n      dup3\n        /* \"#utility.yul\":12439:12451   */\n      add\n        /* \"#utility.yul\":12432:12451   */\n      swap1\n      pop\n        /* \"#utility.yul\":12092:12457   */\n      swap2\n      swap1\n      pop\n      jump\t// out\n        /* \"#utility.yul\":12463:12882   */\n    tag_109:\n        /* \"#utility.yul\":12629:12633   */\n      0x00\n        /* \"#utility.yul\":12667:12669   */\n      0x20\n        /* \"#utility.yul\":12656:12665   */\n      dup3\n        /* \"#utility.yul\":12652:12670   */\n      add\n        /* \"#utility.yul\":12644:12670   */\n      swap1\n      pop\n        /* \"#utility.yul\":12716:12725   */\n      dup2\n        /* \"#utility.yul\":12710:12714   */\n      dup2\n        /* \"#utility.yul\":12706:12726   */\n      sub\n        /* \"#utility.yul\":12702:12703   */\n      0x00\n        /* \"#utility.yul\":12691:12700   */\n      dup4\n        /* \"#utility.yul\":12687:12704   */\n      add\n        /* \"#utility.yul\":12680:12727   */\n      mstore\n        /* \"#utility.yul\":12744:12875   */\n      tag_627\n        /* \"#utility.yul\":12870:12874   */\n      dup2\n        /* \"#utility.yul\":12744:12875   */\n      tag_475\n      jump\t// in\n    tag_627:\n        /* \"#utility.yul\":12736:12875   */\n      swap1\n      pop\n        /* \"#utility.yul\":12463:12882   */\n      swap2\n      swap1\n      pop\n      jump\t// out\n        /* \"#utility.yul\":12888:13220   */\n    tag_122:\n        /* \"#utility.yul\":13009:13013   */\n      0x00\n        /* \"#utility.yul\":13047:13049   */\n      0x40\n        /* \"#utility.yul\":13036:13045   */\n      dup3\n        /* \"#utility.yul\":13032:13050   */\n      add\n        /* \"#utility.yul\":13024:13050   */\n      swap1\n      pop\n        /* \"#utility.yul\":13060:13131   */\n      tag_629\n        /* \"#utility.yul\":13128:13129   */\n      0x00\n        /* \"#utility.yul\":13117:13126   */\n      dup4\n        /* \"#utility.yul\":13113:13130   */\n      add\n        /* \"#utility.yul\":13104:13110   */\n      dup6\n        /* \"#utility.yul\":13060:13131   */\n      tag_454\n      jump\t// in\n    tag_629:\n        /* \"#utility.yul\":13141:13213   */\n      tag_630\n        /* \"#utility.yul\":13209:13211   */\n      0x20\n        /* \"#utility.yul\":13198:13207   */\n      dup4\n        /* \"#utility.yul\":13194:13212   */\n      add\n        /* \"#utility.yul\":13185:13191   */\n      dup5\n        /* \"#utility.yul\":13141:13213   */\n      tag_446\n      jump\t// in\n    tag_630:\n        /* \"#utility.yul\":12888:13220   */\n      swap4\n      swap3\n      pop\n      pop\n      pop\n      jump\t// out\n        /* \"#utility.yul\":13226:13385   */\n    tag_476:\n        /* \"#utility.yul\":13366:13377   */\n      0x6f7574203c206d696e0000000000000000000000000000000000000000000000\n        /* \"#utility.yul\":13362:13363   */\n      0x00\n        /* \"#utility.yul\":13354:13360   */\n      dup3\n        /* \"#utility.yul\":13350:13364   */\n      add\n        /* \"#utility.yul\":13343:13378   */\n      mstore\n        /* \"#utility.yul\":13226:13385   */\n      pop\n      jump\t// out\n        /* \"#utility.yul\":13391:13756   */\n    tag_477:\n        /* \"#utility.yul\":13533:13536   */\n      0x00\n        /* \"#utility.yul\":13554:13620   */\n      tag_633\n        /* \"#utility.yul\":13618:13619   */\n      0x09\n        /* \"#utility.yul\":13613:13616   */\n      dup4\n        /* \"#utility.yul\":13554:13620   */\n      tag_466\n      jump\t// in\n    tag_633:\n        /* \"#utility.yul\":13547:13620   */\n      swap2\n      pop\n        /* \"#utility.yul\":13629:13722   */\n      tag_634\n        /* \"#utility.yul\":13718:13721   */\n      dup3\n        /* \"#utility.yul\":13629:13722   */\n      tag_476\n      jump\t// in\n    tag_634:\n        /* \"#utility.yul\":13747:13749   */\n      0x20\n        /* \"#utility.yul\":13742:13745   */\n      dup3\n        /* \"#utility.yul\":13738:13750   */\n      add\n        /* \"#utility.yul\":13731:13750   */\n      swap1\n      pop\n        /* \"#utility.yul\":13391:13756   */\n      swap2\n      swap1\n      pop\n      jump\t// out\n        /* \"#utility.yul\":13762:14181   */\n    tag_131:\n        /* \"#utility.yul\":13928:13932   */\n      0x00\n        /* \"#utility.yul\":13966:13968   */\n      0x20\n        /* \"#utility.yul\":13955:13964   */\n      dup3\n        /* \"#utility.yul\":13951:13969   */\n      add\n        /* \"#utility.yul\":13943:13969   */\n      swap1\n      pop\n        /* \"#utility.yul\":14015:14024   */\n      dup2\n        /* \"#utility.yul\":14009:14013   */\n      dup2\n        /* \"#utility.yul\":14005:14025   */\n      sub\n        /* \"#utility.yul\":14001:14002   */\n      0x00\n        /* \"#utility.yul\":13990:13999   */\n      dup4\n        /* \"#utility.yul\":13986:14003   */\n      add\n        /* \"#utility.yul\":13979:14026   */\n      mstore\n        /* \"#utility.yul\":14043:14174   */\n      tag_636\n        /* \"#utility.yul\":14169:14173   */\n      dup2\n        /* \"#utility.yul\":14043:14174   */\n      tag_477\n      jump\t// in\n    tag_636:\n        /* \"#utility.yul\":14035:14174   */\n      swap1\n      pop\n        /* \"#utility.yul\":13762:14181   */\n      swap2\n      swap1\n      pop\n      jump\t// out\n        /* \"#utility.yul\":14187:14362   */\n    tag_478:\n        /* \"#utility.yul\":14327:14354   */\n      0x6c6971756964697479206469646e277420696e63726561736500000000000000\n        /* \"#utility.yul\":14323:14324   */\n      0x00\n        /* \"#utility.yul\":14315:14321   */\n      dup3\n        /* \"#utility.yul\":14311:14325   */\n      add\n        /* \"#utility.yul\":14304:14355   */\n      mstore\n        /* \"#utility.yul\":14187:14362   */\n      pop\n      jump\t// out\n        /* \"#utility.yul\":14368:14734   */\n    tag_479:\n        /* \"#utility.yul\":14510:14513   */\n      0x00\n        /* \"#utility.yul\":14531:14598   */\n      tag_639\n        /* \"#utility.yul\":14595:14597   */\n      0x19\n        /* \"#utility.yul\":14590:14593   */\n      dup4\n        /* \"#utility.yul\":14531:14598   */\n      tag_466\n      jump\t// in\n    tag_639:\n        /* \"#utility.yul\":14524:14598   */\n      swap2\n      pop\n        /* \"#utility.yul\":14607:14700   */\n      tag_640\n        /* \"#utility.yul\":14696:14699   */\n      dup3\n        /* \"#utility.yul\":14607:14700   */\n      tag_478\n      jump\t// in\n    tag_640:\n        /* \"#utility.yul\":14725:14727   */\n      0x20\n        /* \"#utility.yul\":14720:14723   */\n      dup3\n        /* \"#utility.yul\":14716:14728   */\n      add\n        /* \"#utility.yul\":14709:14728   */\n      swap1\n      pop\n        /* \"#utility.yul\":14368:14734   */\n      swap2\n      swap1\n      pop\n      jump\t// out\n        /* \"#utility.yul\":14740:15159   */\n    tag_182:\n        /* \"#utility.yul\":14906:14910   */\n      0x00\n        /* \"#utility.yul\":14944:14946   */\n      0x20\n        /* \"#utility.yul\":14933:14942   */\n      dup3\n        /* \"#utility.yul\":14929:14947   */\n      add\n        /* \"#utility.yul\":14921:14947   */\n      swap1\n      pop\n        /* \"#utility.yul\":14993:15002   */\n      dup2\n        /* \"#utility.yul\":14987:14991   */\n      dup2\n        /* \"#utility.yul\":14983:15003   */\n      sub\n        /* \"#utility.yul\":14979:14980   */\n      0x00\n        /* \"#utility.yul\":14968:14977   */\n      dup4\n        /* \"#utility.yul\":14964:14981   */\n      add\n        /* \"#utility.yul\":14957:15004   */\n      mstore\n        /* \"#utility.yul\":15021:15152   */\n      tag_642\n        /* \"#utility.yul\":15147:15151   */\n      dup2\n        /* \"#utility.yul\":15021:15152   */\n      tag_479\n      jump\t// in\n    tag_642:\n        /* \"#utility.yul\":15013:15152   */\n      swap1\n      pop\n        /* \"#utility.yul\":14740:15159   */\n      swap2\n      swap1\n      pop\n      jump\t// out\n        /* \"#utility.yul\":15165:15327   */\n    tag_480:\n        /* \"#utility.yul\":15305:15319   */\n      0x736861726573203c206d696e0000000000000000000000000000000000000000\n        /* \"#utility.yul\":15301:15302   */\n      0x00\n        /* \"#utility.yul\":15293:15299   */\n      dup3\n        /* \"#utility.yul\":15289:15303   */\n      add\n        /* \"#utility.yul\":15282:15320   */\n      mstore\n        /* \"#utility.yul\":15165:15327   */\n      pop\n      jump\t// out\n        /* \"#utility.yul\":15333:15699   */\n    tag_481:\n        /* \"#utility.yul\":15475:15478   */\n      0x00\n        /* \"#utility.yul\":15496:15563   */\n      tag_645\n        /* \"#utility.yul\":15560:15562   */\n      0x0c\n        /* \"#utility.yul\":15555:15558   */\n      dup4\n        /* \"#utility.yul\":15496:15563   */\n      tag_466\n      jump\t// in\n    tag_645:\n        /* \"#utility.yul\":15489:15563   */\n      swap2\n      pop\n        /* \"#utility.yul\":15572:15665   */\n      tag_646\n        /* \"#utility.yul\":15661:15664   */\n      dup3\n        /* \"#utility.yul\":15572:15665   */\n      tag_480\n      jump\t// in\n    tag_646:\n        /* \"#utility.yul\":15690:15692   */\n      0x20\n        /* \"#utility.yul\":15685:15688   */\n      dup3\n        /* \"#utility.yul\":15681:15693   */\n      add\n        /* \"#utility.yul\":15674:15693   */\n      swap1\n      pop\n        /* \"#utility.yul\":15333:15699   */\n      swap2\n      swap1\n      pop\n      jump\t// out\n        /* \"#utility.yul\":15705:16124   */\n    tag_222:\n        /* \"#utility.yul\":15871:15875   */\n      0x00\n        /* \"#utility.yul\":15909:15911   */\n      0x20\n        /* \"#utility.yul\":15898:15907   */\n      dup3\n        /* \"#utility.yul\":15894:15912   */\n      add\n        /* \"#utility.yul\":15886:15912   */\n      swap1\n      pop\n        /* \"#utility.yul\":15958:15967   */\n      dup2\n        /* \"#utility.yul\":15952:15956   */\n      dup2\n        /* \"#utility.yul\":15948:15968   */\n      sub\n        /* \"#utility.yul\":15944:15945   */\n      0x00\n        /* \"#utility.yul\":15933:15942   */\n      dup4\n        /* \"#utility.yul\":15929:15946   */\n      add\n        /* \"#utility.yul\":15922:15969   */\n      mstore\n        /* \"#utility.yul\":15986:16117   */\n      tag_648\n        /* \"#utility.yul\":16112:16116   */\n      dup2\n        /* \"#utility.yul\":15986:16117   */\n      tag_481\n      jump\t// in\n    tag_648:\n        /* \"#utility.yul\":15978:16117   */\n      swap1\n      pop\n        /* \"#utility.yul\":15705:16124   */\n      swap2\n      swap1\n      pop\n      jump\t// out\n        /* \"#utility.yul\":16130:16232   */\n    tag_482:\n        /* \"#utility.yul\":16172:16180   */\n      0x00\n        /* \"#utility.yul\":16219:16224   */\n      dup2\n        /* \"#utility.yul\":16216:16217   */\n      0x01\n        /* \"#utility.yul\":16212:16225   */\n      shr\n        /* \"#utility.yul\":16191:16225   */\n      swap1\n      pop\n        /* \"#utility.yul\":16130:16232   */\n      swap2\n      swap1\n      pop\n      jump\t// out\n        /* \"#utility.yul\":16238:17086   */\n    tag_483:\n        /* \"#utility.yul\":16299:16304   */\n      0x00\n        /* \"#utility.yul\":16306:16310   */\n      dup1\n        /* \"#utility.yul\":16330:16336   */\n      dup3\n        /* \"#utility.yul\":16321:16336   */\n      swap2\n      pop\n        /* \"#utility.yul\":16354:16359   */\n      dup4\n        /* \"#utility.yul\":16345:16359   */\n      swap1\n      pop\n        /* \"#utility.yul\":16368:17080   */\n    tag_651:\n        /* \"#utility.yul\":16389:16390   */\n      0x01\n        /* \"#utility.yul\":16379:16387   */\n      dup6\n        /* \"#utility.yul\":16376:16391   */\n      gt\n        /* \"#utility.yul\":16368:17080   */\n      iszero\n      tag_653\n      jumpi\n        /* \"#utility.yul\":16484:16488   */\n      dup1\n        /* \"#utility.yul\":16479:16482   */\n      dup7\n        /* \"#utility.yul\":16475:16489   */\n      div\n        /* \"#utility.yul\":16469:16473   */\n      dup2\n        /* \"#utility.yul\":16466:16490   */\n      gt\n        /* \"#utility.yul\":16463:16513   */\n      iszero\n      tag_654\n      jumpi\n        /* \"#utility.yul\":16493:16511   */\n      tag_655\n      tag_472\n      jump\t// in\n    tag_655:\n        /* \"#utility.yul\":16463:16513   */\n    tag_654:\n        /* \"#utility.yul\":16543:16544   */\n      0x01\n        /* \"#utility.yul\":16533:16541   */\n      dup6\n        /* \"#utility.yul\":16529:16545   */\n      and\n        /* \"#utility.yul\":16526:16977   */\n      iszero\n      tag_656\n      jumpi\n        /* \"#utility.yul\":16958:16962   */\n      dup1\n        /* \"#utility.yul\":16951:16956   */\n      dup3\n        /* \"#utility.yul\":16947:16963   */\n      mul\n        /* \"#utility.yul\":16938:16963   */\n      swap2\n      pop\n        /* \"#utility.yul\":16526:16977   */\n    tag_656:\n        /* \"#utility.yul\":17008:17012   */\n      dup1\n        /* \"#utility.yul\":17002:17006   */\n      dup2\n        /* \"#utility.yul\":16998:17013   */\n      mul\n        /* \"#utility.yul\":16990:17013   */\n      swap1\n      pop\n        /* \"#utility.yul\":17038:17070   */\n      tag_657\n        /* \"#utility.yul\":17061:17069   */\n      dup6\n        /* \"#utility.yul\":17038:17070   */\n      tag_482\n      jump\t// in\n    tag_657:\n        /* \"#utility.yul\":17026:17070   */\n      swap5\n      pop\n        /* \"#utility.yul\":16368:17080   */\n      jump(tag_651)\n    tag_653:\n        /* \"#utility.yul\":16238:17086   */\n      swap5\n      pop\n      swap5\n      swap3\n      pop\n      pop\n      pop\n      jump\t// out\n        /* \"#utility.yul\":17092:18165   */\n    tag_484:\n        /* \"#utility.yul\":17146:17151   */\n      0x00\n        /* \"#utility.yul\":17337:17345   */\n      dup3\n        /* \"#utility.yul\":17327:17367   */\n      tag_659\n      jumpi\n        /* \"#utility.yul\":17358:17359   */\n      0x01\n        /* \"#utility.yul\":17349:17359   */\n      swap1\n      pop\n        /* \"#utility.yul\":17360:17365   */\n      jump(tag_658)\n        /* \"#utility.yul\":17327:17367   */\n    tag_659:\n        /* \"#utility.yul\":17386:17390   */\n      dup2\n        /* \"#utility.yul\":17376:17412   */\n      tag_660\n      jumpi\n        /* \"#utility.yul\":17403:17404   */\n      0x00\n        /* \"#utility.yul\":17394:17404   */\n      swap1\n      pop\n        /* \"#utility.yul\":17405:17410   */\n      jump(tag_658)\n        /* \"#utility.yul\":17376:17412   */\n    tag_660:\n        /* \"#utility.yul\":17472:17476   */\n      dup2\n        /* \"#utility.yul\":17520:17521   */\n      0x01\n        /* \"#utility.yul\":17515:17542   */\n      dup2\n      eq\n      tag_662\n      jumpi\n        /* \"#utility.yul\":17556:17557   */\n      0x02\n        /* \"#utility.yul\":17551:17742   */\n      dup2\n      eq\n      tag_663\n      jumpi\n        /* \"#utility.yul\":17465:17742   */\n      jump(tag_661)\n        /* \"#utility.yul\":17515:17542   */\n    tag_662:\n        /* \"#utility.yul\":17533:17534   */\n      0x01\n        /* \"#utility.yul\":17524:17534   */\n      swap2\n      pop\n        /* \"#utility.yul\":17535:17540   */\n      pop\n      jump(tag_658)\n        /* \"#utility.yul\":17551:17742   */\n    tag_663:\n        /* \"#utility.yul\":17596:17599   */\n      0xff\n        /* \"#utility.yul\":17586:17594   */\n      dup5\n        /* \"#utility.yul\":17583:17600   */\n      gt\n        /* \"#utility.yul\":17580:17623   */\n      iszero\n      tag_664\n      jumpi\n        /* \"#utility.yul\":17603:17621   */\n      tag_665\n      tag_472\n      jump\t// in\n    tag_665:\n        /* \"#utility.yul\":17580:17623   */\n    tag_664:\n        /* \"#utility.yul\":17652:17660   */\n      dup4\n        /* \"#utility.yul\":17649:17650   */\n      0x02\n        /* \"#utility.yul\":17645:17661   */\n      exp\n        /* \"#utility.yul\":17636:17661   */\n      swap2\n      pop\n        /* \"#utility.yul\":17687:17690   */\n      dup5\n        /* \"#utility.yul\":17680:17685   */\n      dup3\n        /* \"#utility.yul\":17677:17691   */\n      gt\n        /* \"#utility.yul\":17674:17714   */\n      iszero\n      tag_666\n      jumpi\n        /* \"#utility.yul\":17694:17712   */\n      tag_667\n      tag_472\n      jump\t// in\n    tag_667:\n        /* \"#utility.yul\":17674:17714   */\n    tag_666:\n        /* \"#utility.yul\":17727:17732   */\n      pop\n      jump(tag_658)\n        /* \"#utility.yul\":17465:17742   */\n    tag_661:\n      pop\n        /* \"#utility.yul\":17851:17853   */\n      0x20\n        /* \"#utility.yul\":17841:17849   */\n      dup4\n        /* \"#utility.yul\":17838:17854   */\n      lt\n        /* \"#utility.yul\":17832:17835   */\n      0x0133\n        /* \"#utility.yul\":17826:17830   */\n      dup4\n        /* \"#utility.yul\":17823:17836   */\n      lt\n        /* \"#utility.yul\":17819:17855   */\n      and\n        /* \"#utility.yul\":17801:17803   */\n      0x4e\n        /* \"#utility.yul\":17791:17799   */\n      dup5\n        /* \"#utility.yul\":17788:17804   */\n      lt\n        /* \"#utility.yul\":17783:17785   */\n      0x0b\n        /* \"#utility.yul\":17777:17781   */\n      dup5\n        /* \"#utility.yul\":17774:17786   */\n      lt\n        /* \"#utility.yul\":17770:17805   */\n      and\n        /* \"#utility.yul\":17754:17865   */\n      or\n        /* \"#utility.yul\":17751:17997   */\n      iszero\n      tag_668\n      jumpi\n        /* \"#utility.yul\":17907:17915   */\n      dup3\n        /* \"#utility.yul\":17901:17905   */\n      dup3\n        /* \"#utility.yul\":17897:17916   */\n      exp\n        /* \"#utility.yul\":17888:17916   */\n      swap1\n      pop\n        /* \"#utility.yul\":17942:17945   */\n      dup4\n        /* \"#utility.yul\":17935:17940   */\n      dup2\n        /* \"#utility.yul\":17932:17946   */\n      gt\n        /* \"#utility.yul\":17929:17969   */\n      iszero\n      tag_669\n      jumpi\n        /* \"#utility.yul\":17949:17967   */\n      tag_670\n      tag_472\n      jump\t// in\n    tag_670:\n        /* \"#utility.yul\":17929:17969   */\n    tag_669:\n        /* \"#utility.yul\":17982:17987   */\n      jump(tag_658)\n        /* \"#utility.yul\":17751:17997   */\n    tag_668:\n        /* \"#utility.yul\":18022:18064   */\n      tag_671\n        /* \"#utility.yul\":18060:18063   */\n      dup5\n        /* \"#utility.yul\":18050:18058   */\n      dup5\n        /* \"#utility.yul\":18044:18048   */\n      dup5\n        /* \"#utility.yul\":18041:18042   */\n      0x01\n        /* \"#utility.yul\":18022:18064   */\n      tag_483\n      jump\t// in\n    tag_671:\n        /* \"#utility.yul\":18007:18064   */\n      swap3\n      pop\n      swap1\n      pop\n        /* \"#utility.yul\":18096:18100   */\n      dup2\n        /* \"#utility.yul\":18091:18094   */\n      dup5\n        /* \"#utility.yul\":18087:18101   */\n      div\n        /* \"#utility.yul\":18080:18085   */\n      dup2\n        /* \"#utility.yul\":18077:18102   */\n      gt\n        /* \"#utility.yul\":18074:18125   */\n      iszero\n      tag_672\n      jumpi\n        /* \"#utility.yul\":18105:18123   */\n      tag_673\n      tag_472\n      jump\t// in\n    tag_673:\n        /* \"#utility.yul\":18074:18125   */\n    tag_672:\n        /* \"#utility.yul\":18154:18158   */\n      dup2\n        /* \"#utility.yul\":18147:18152   */\n      dup2\n        /* \"#utility.yul\":18143:18159   */\n      mul\n        /* \"#utility.yul\":18134:18159   */\n      swap1\n      pop\n        /* \"#utility.yul\":17092:18165   */\n    tag_658:\n      swap4\n      swap3\n      pop\n      pop\n      pop\n      jump\t// out\n        /* \"#utility.yul\":18171:18456   */\n    tag_260:\n        /* \"#utility.yul\":18231:18236   */\n      0x00\n        /* \"#utility.yul\":18255:18278   */\n      tag_675\n        /* \"#utility.yul\":18273:18277   */\n      dup3\n        /* \"#utility.yul\":18255:18278   */\n      tag_445\n      jump\t// in\n    tag_675:\n        /* \"#utility.yul\":18247:18278   */\n      swap2\n      pop\n        /* \"#utility.yul\":18299:18326   */\n      tag_676\n        /* \"#utility.yul\":18317:18325   */\n      dup4\n        /* \"#utility.yul\":18299:18326   */\n      tag_445\n      jump\t// in\n    tag_676:\n        /* \"#utility.yul\":18287:18326   */\n      swap3\n      pop\n        /* \"#utility.yul\":18345:18449   */\n      tag_677\n        /* \"#utility.yul\":18382:18448   */\n      0xffffffffffffffffffffffffffffffffffffffffffffffffffffffffffffffff\n        /* \"#utility.yul\":18372:18380   */\n      dup5\n        /* \"#utility.yul\":18366:18370   */\n      dup5\n        /* \"#utility.yul\":18345:18449   */\n      tag_484\n      jump\t// in\n    tag_677:\n        /* \"#utility.yul\":18336:18449   */\n      swap1\n      pop\n        /* \"#utility.yul\":18171:18456   */\n      swap3\n      swap2\n      pop\n      pop\n      jump\t// out\n        /* \"#utility.yul\":18462:18629   */\n    tag_485:\n        /* \"#utility.yul\":18602:18621   */\n      0x79206469646e277420636f6e7665726765000000000000000000000000000000\n        /* \"#utility.yul\":18598:18599   */\n      0x00\n        /* \"#utility.yul\":18590:18596   */\n      dup3\n        /* \"#utility.yul\":18586:18600   */\n      add\n        /* \"#utility.yul\":18579:18622   */\n      mstore\n        /* \"#utility.yul\":18462:18629   */\n      pop\n      jump\t// out\n        /* \"#utility.yul\":18635:19001   */\n    tag_486:\n        /* \"#utility.yul\":18777:18780   */\n      0x00\n        /* \"#utility.yul\":18798:18865   */\n      tag_680\n        /* \"#utility.yul\":18862:18864   */\n      0x11\n        /* \"#utility.yul\":18857:18860   */\n      dup4\n        /* \"#utility.yul\":18798:18865   */\n      tag_466\n      jump\t// in\n    tag_680:\n        /* \"#utility.yul\":18791:18865   */\n      swap2\n      pop\n        /* \"#utility.yul\":18874:18967   */\n      tag_681\n        /* \"#utility.yul\":18963:18966   */\n      dup3\n        /* \"#utility.yul\":18874:18967   */\n      tag_485\n      jump\t// in\n    tag_681:\n        /* \"#utility.yul\":18992:18994   */\n      0x20\n        /* \"#utility.yul\":18987:18990   */\n      dup3\n        /* \"#utility.yul\":18983:18995   */\n      add\n        /* \"#utility.yul\":18976:18995   */\n      swap1\n      pop\n        /* \"#utility.yul\":18635:19001   */\n      swap2\n      swap1\n      pop\n      jump\t// out\n        /* \"#utility.yul\":19007:19426   */\n    tag_313:\n        /* \"#utility.yul\":19173:19177   */\n      0x00\n        /* \"#utility.yul\":19211:19213   */\n      0x20\n        /* \"#utility.yul\":19200:19209   */\n      dup3\n        /* \"#utility.yul\":19196:19214   */\n      add\n        /* \"#utility.yul\":19188:19214   */\n      swap1\n      pop\n        /* \"#utility.yul\":19260:19269   */\n      dup2\n        /* \"#utility.yul\":19254:19258   */\n      dup2\n        /* \"#utility.yul\":19250:19270   */\n      sub\n        /* \"#utility.yul\":19246:19247   */\n      0x00\n        /* \"#utility.yul\":19235:19244   */\n      dup4\n        /* \"#utility.yul\":19231:19248   */\n      add\n        /* \"#utility.yul\":19224:19271   */\n      mstore\n        /* \"#utility.yul\":19288:19419   */\n      tag_683\n        /* \"#utility.yul\":19414:19418   */\n      dup2\n        /* \"#utility.yul\":19288:19419   */\n      tag_486\n      jump\t// in\n    tag_683:\n        /* \"#utility.yul\":19280:19419   */\n      swap1\n      pop\n        /* \"#utility.yul\":19007:19426   */\n      swap2\n      swap1\n      pop\n      jump\t// out\n        /* \"#utility.yul\":19432:19599   */\n    tag_487:\n        /* \"#utility.yul\":19572:19591   */\n      0x44206469646e277420636f6e7665726765000000000000000000000000000000\n        /* \"#utility.yul\":19568:19569   */\n      0x00\n        /* \"#utility.yul\":19560:19566   */\n      dup3\n        /* \"#utility.yul\":19556:19570   */\n      add\n        /* \"#utility.yul\":19549:19592   */\n      mstore\n        /* \"#utility.yul\":19432:19599   */\n      pop\n      jump\t// out\n        /* \"#utility.yul\":19605:19971   */\n    tag_488:\n        /* \"#utility.yul\":19747:19750   */\n      0x00\n        /* \"#utility.yul\":19768:19835   */\n      tag_686\n        /* \"#utility.yul\":19832:19834   */\n      0x11\n        /* \"#utility.yul\":19827:19830   */\n      dup4\n        /* \"#utility.yul\":19768:19835   */\n      tag_466\n      jump\t// in\n    tag_686:\n        /* \"#utility.yul\":19761:19835   */\n      swap2\n      pop\n        /* \"#utility.yul\":19844:19937   */\n      tag_687\n        /* \"#utility.yul\":19933:19936   */\n      dup3\n        /* \"#utility.yul\":19844:19937   */\n      tag_487\n      jump\t// in\n    tag_687:\n        /* \"#utility.yul\":19962:19964   */\n      0x20\n        /* \"#utility.yul\":19957:19960   */\n      dup3\n        /* \"#utility.yul\":19953:19965   */\n      add\n        /* \"#utility.yul\":19946:19965   */\n      swap1\n      pop\n        /* \"#utility.yul\":19605:19971   */\n      swap2\n      swap1\n      pop\n      jump\t// out\n        /* \"#utility.yul\":19977:20396   */\n    tag_403:\n        /* \"#utility.yul\":20143:20147   */\n      0x00\n        /* \"#utility.yul\":20181:20183   */\n      0x20\n        /* \"#utility.yul\":20170:20179   */\n      dup3\n        /* \"#utility.yul\":20166:20184   */\n      add\n        /* \"#utility.yul\":20158:20184   */\n      swap1\n      pop\n        /* \"#utility.yul\":20230:20239   */\n      dup2\n        /* \"#utility.yul\":20224:20228   */\n      dup2\n        /* \"#utility.yul\":20220:20240   */\n      sub\n        /* \"#utility.yul\":20216:20217   */\n      0x00\n        /* \"#utility.yul\":20205:20214   */\n      dup4\n        /* \"#utility.yul\":20201:20218   */\n      add\n        /* \"#utility.yul\":20194:20241   */\n      mstore\n        /* \"#utility.yul\":20258:20389   */\n      tag_689\n        /* \"#utility.yul\":20384:20388   */\n      dup2\n        /* \"#utility.yul\":20258:20389   */\n      tag_488\n      jump\t// in\n    tag_689:\n        /* \"#utility.yul\":20250:20389   */\n      swap1\n      pop\n        /* \"#utility.yul\":19977:20396   */\n      swap2\n      swap1\n      pop\n      jump\t// out\n\n    auxdata: 0xa264697066735822122069e820403466e1aa441d4162d914e0b87d17b0a4400641c614f5e45ca284e78264736f6c634300081a0033\n}\n",
				"bytecode": {
					"linkReferences": {},
					"object": "60806040526040518060600160405280600164ffffffffff16815260200164e8d4a5100064ffffffffff16815260200164e8d4a5100064ffffffffff16815250600390600361004f929190610094565b5034801561005b575f80fd5b50604051612422380380612422833981810160405281019061007d9190610319565b805f90600361008d9291906100dd565b5050610344565b82600381019282156100cc579160200282015b828111156100cb578251829064ffffffffff169055916020019190600101906100a7565b5b5090506100d99190610159565b5090565b8260038101928215610148579160200282015b82811115610147578251825f6101000a81548173ffffffffffffffffffffffffffffffffffffffff021916908373ffffffffffffffffffffffffffffffffffffffff160217905550916020019190600101906100f0565b5b5090506101559190610159565b5090565b5b80821115610170575f815f90555060010161015a565b5090565b5f604051905090565b5f80fd5b5f80fd5b5f601f19601f8301169050919050565b7f4e487b71000000000000000000000000000000000000000000000000000000005f52604160045260245ffd5b6101cb82610185565b810181811067ffffffffffffffff821117156101ea576101e9610195565b5b80604052505050565b5f6101fc610174565b905061020882826101c2565b919050565b5f67ffffffffffffffff82111561022757610226610195565b5b602082029050919050565b5f80fd5b5f73ffffffffffffffffffffffffffffffffffffffff82169050919050565b5f61025f82610236565b9050919050565b61026f81610255565b8114610279575f80fd5b50565b5f8151905061028a81610266565b92915050565b5f6102a261029d8461020d565b6101f3565b905080602084028301858111156102bc576102bb610232565b5b835b818110156102e557806102d1888261027c565b8452602084019350506020810190506102be565b5050509392505050565b5f82601f83011261030357610302610181565b5b6003610310848285610290565b91505092915050565b5f6060828403121561032e5761032d61017d565b5b5f61033b848285016102ef565b91505092915050565b6120d1806103515f395ff3fe608060405234801561000f575f80fd5b506004361061009c575f3560e01c806370a082311161006457806370a082311461017e578063a4bf0446146101ae578063a60dc3b1146101de578063d035862c1461020f578063e25aa5fa1461023f5761009c565b806318160ddd146100a05780634903b0d1146100be5780634f64b2be146100ee5780635673b02d1461011e5780637066b5b21461014e575b5f80fd5b6100a861025d565b6040516100b59190611689565b60405180910390f35b6100d860048036038101906100d391906116d0565b610263565b6040516100e59190611689565b60405180910390f35b610108600480360381019061010391906116d0565b61027c565b604051610115919061173a565b60405180910390f35b61013860048036038101906101339190611753565b6102af565b6040516101459190611689565b60405180910390f35b610168600480360381019061016391906117b7565b6105da565b6040516101759190611689565b60405180910390f35b61019860048036038101906101939190611831565b610718565b6040516101a59190611689565b60405180910390f35b6101c860048036038101906101c39190611881565b61072d565b6040516101d59190611689565b60405180910390f35b6101f860048036038101906101f391906118bf565b610b18565b6040516102069291906118fd565b60405180910390f35b61022960048036038101906102249190611924565b610b2f565b6040516102369190611a07565b60405180910390f35b610247610ce6565b6040516102549190611689565b60405180910390f35b60095481565b60068160038110610272575f80fd5b015f915090505481565b5f816003811061028a575f80fd5b015f915054906101000a900473ffffffffffffffffffffffffffffffffffffffff1681565b5f8385036102f2576040517f08c379a00000000000000000000000000000000000000000000000000000000081526004016102e990611a7a565b60405180910390fd5b5f856003811061030557610304611a98565b5b015f9054906101000a900473ffffffffffffffffffffffffffffffffffffffff1673ffffffffffffffffffffffffffffffffffffffff166323b872dd3330866040518463ffffffff1660e01b815260040161036293929190611ac5565b6020604051808303815f875af115801561037e573d5f803e3d5ffd5b505050506040513d601f19601f820116820180604052508101906103a29190611b2f565b505f6103ac610d3a565b90505f600387600381106103c3576103c2611a98565b5b0154856103d09190611b87565b8288600381106103e3576103e2611a98565b5b60200201516103f29190611bc8565b90505f82876003811061040857610407611a98565b5b602002015190505f61041c89898587610dae565b90506003886003811061043257610431611a98565b5b0154600182846104429190611bfb565b61044c9190611bfb565b6104569190611c5b565b94505f620f424061012c8761046b9190611b87565b6104759190611c5b565b905080866104839190611bfb565b9550868610156104c8576040517f08c379a00000000000000000000000000000000000000000000000000000000081526004016104bf90611cd5565b60405180910390fd5b8760068b600381106104dd576104dc611a98565b5b015f8282546104ec9190611bc8565b925050819055508560068a6003811061050857610507611a98565b5b015f8282546105179190611bfb565b925050819055505f896003811061053157610530611a98565b5b015f9054906101000a900473ffffffffffffffffffffffffffffffffffffffff1673ffffffffffffffffffffffffffffffffffffffff1663a9059cbb33886040518363ffffffff1660e01b815260040161058c929190611cf3565b6020604051808303815f875af11580156105a8573d5f803e3d5ffd5b505050506040513d601f19601f820116820180604052508101906105cc9190611b2f565b505050505050949350505050565b5f6105e58484610f80565b50809150508181101561062d576040517f08c379a000000000000000000000000000000000000000000000000000000000815260040161062490611d64565b60405180910390fd5b806006846003811061064257610641611a98565b5b015f8282546106519190611bfb565b9250508190555061066233856111c0565b5f836003811061067557610674611a98565b5b015f9054906101000a900473ffffffffffffffffffffffffffffffffffffffff1673ffffffffffffffffffffffffffffffffffffffff1663a9059cbb33836040518363ffffffff1660e01b81526004016106d0929190611cf3565b6020604051808303815f875af11580156106ec573d5f803e3d5ffd5b505050506040513d601f19601f820116820180604052508101906107109190611b2f565b509392505050565b600a602052805f5260405f205f915090505481565b5f8060095490505f8061073e610d3a565b90505f831115610754576107518161122f565b91505b61075c61164f565b5f5b60038110156108e0575f88826003811061077b5761077a611a98565b5b602002013590505f81111561089f575f826003811061079d5761079c611a98565b5b015f9054906101000a900473ffffffffffffffffffffffffffffffffffffffff1673ffffffffffffffffffffffffffffffffffffffff166323b872dd3330846040518463ffffffff1660e01b81526004016107fa93929190611ac5565b6020604051808303815f875af1158015610816573d5f803e3d5ffd5b505050506040513d601f19601f8201168201806040525081019061083a9190611b2f565b506003826003811061084f5761084e611a98565b5b01548161085c9190611b87565b84836003811061086f5761086e611a98565b5b602002015161087e9190611bc8565b83836003811061089157610890611a98565b5b6020020181815250506108d4565b8382600381106108b2576108b1611a98565b5b60200201518383600381106108ca576108c9611a98565b5b6020020181815250505b5080600101905061075e565b505f6108eb8261122f565b905083811161092f576040517f08c379a000000000000000000000000000000000000000000000000000000000815260040161092690611dcc565b60405180910390fd5b5f80861115610a2d575f5b6003811015610a1c575f868487846003811061095957610958611a98565b5b60200201516109689190611b87565b6109729190611c5b565b90505f61099686846003811061098b5761098a611a98565b5b6020020151836113f4565b9050620f424081600160036109ab9190611bfb565b60046109b79190611b87565b600361012c6109c69190611b87565b6109d09190611c5b565b6109da9190611b87565b6109e49190611c5b565b8684600381106109f7576109f6611a98565b5b60200201818151610a089190611bfb565b91508181525050505080600101905061093a565b50610a268361122f565b9050610a31565b8190505b5f5b6003811015610a8957898160038110610a4f57610a4e611a98565b5b602002013560068260038110610a6857610a67611a98565b5b015f828254610a779190611bc8565b92505081905550806001019050610a33565b505f861115610abb5784868683610aa09190611bfb565b610aaa9190611b87565b610ab49190611c5b565b9650610abf565b8096505b87871015610b02576040517f08c379a0000000000000000000000000000000000000000000000000000000008152600401610af990611e34565b60405180910390fd5b610b0c3388611423565b50505050505092915050565b5f80610b248484610f80565b915091509250929050565b610b3761164f565b5f60095490505f5b6003811015610cd4575f828660068460038110610b5f57610b5e611a98565b5b0154610b6b9190611b87565b610b759190611c5b565b9050848260038110610b8a57610b89611a98565b5b6020020135811015610bd1576040517f08c379a0000000000000000000000000000000000000000000000000000000008152600401610bc890611d64565b60405180910390fd5b8060068360038110610be657610be5611a98565b5b015f828254610bf59190611bfb565b9250508190555080848360038110610c1057610c0f611a98565b5b6020020181815250505f8260038110610c2c57610c2b611a98565b5b015f9054906101000a900473ffffffffffffffffffffffffffffffffffffffff1673ffffffffffffffffffffffffffffffffffffffff1663a9059cbb33836040518363ffffffff1660e01b8152600401610c87929190611cf3565b6020604051808303815f875af1158015610ca3573d5f803e3d5ffd5b505050506040513d601f19601f82011682018060405250810190610cc79190611b2f565b5050806001019050610b3f565b50610cdf33856111c0565b5092915050565b5f80610cf8610cf3610d3a565b61122f565b90505f6009541115610d32576009546012600a610d159190611f81565b82610d209190611b87565b610d2a9190611c5b565b915050610d37565b5f9150505b90565b610d4261164f565b5f5b6003811015610daa5760038160038110610d6157610d60611a98565b5b015460068260038110610d7757610d76611a98565b5b0154610d839190611b87565b828260038110610d9657610d95611a98565b5b602002018181525050806001019050610d44565b5090565b5f80600360016003610dc09190611bfb565b6003610dcc9190611f81565b6103e8610dd99190611b87565b610de39190611b87565b90505f610def8461122f565b90505f808290505f805f90505b6003811015610e76578a8103610e1457889150610e37565b89810315610e6b57878160038110610e2f57610e2e611a98565b5b602002015191505b8184610e439190611bc8565b9350816003610e529190611b87565b8584610e5e9190611b87565b610e689190611c5b565b92505b806001019050610dfc565b50846003610e849190611b87565b8483610e909190611b87565b610e9a9190611c5b565b91505f8585610ea99190611c5b565b84610eb49190611bc8565b90505f808690505f5b60ff811015610f3c578192508784836002610ed89190611b87565b610ee29190611bc8565b610eec9190611bfb565b868384610ef99190611b87565b610f039190611bc8565b610f0d9190611c5b565b91506001610f1b83856113f4565b11610f3157819950505050505050505050610f78565b806001019050610ebd565b506040517f08c379a0000000000000000000000000000000000000000000000000000000008152600401610f6f90612015565b60405180910390fd5b949350505050565b5f805f60095490505f610f91610d3a565b90505f610f9d8261122f565b90505f838883610fad9190611b87565b610fb79190611c5b565b82610fc29190611bfb565b90505f610fd0888584611492565b90505f60038960038110610fe757610fe6611a98565b5b015482868b60038110610ffd57610ffc611a98565b5b602002015161100c9190611bfb565b6110169190611c5b565b90505f805f90505b6003811015611143578a810361106e5783868689846003811061104457611043611a98565b5b60200201516110539190611b87565b61105d9190611c5b565b6110679190611bfb565b91506110c1565b858588836003811061108357611082611a98565b5b60200201516110929190611b87565b61109c9190611c5b565b8782600381106110af576110ae611a98565b5b60200201516110be9190611bfb565b91505b620f424082600160036110d49190611bfb565b60046110e09190611b87565b600361012c6110ef9190611b87565b6110f99190611c5b565b6111039190611b87565b61110d9190611c5b565b8782600381106111205761111f611a98565b5b602002018181516111319190611bfb565b9150818152505080600101905061101e565b505f6111508b8887611492565b905060038b6003811061116657611165611a98565b5b0154600182898e6003811061117e5761117d611a98565b5b602002015161118d9190611bfb565b6111979190611bfb565b6111a19190611c5b565b995089836111af9190611bfb565b985050505050505050509250929050565b80600a5f8473ffffffffffffffffffffffffffffffffffffffff1673ffffffffffffffffffffffffffffffffffffffff1681526020019081526020015f205f82825461120c9190611bfb565b925050819055508060095f8282546112249190611bfb565b925050819055505050565b5f806003600160036112419190611bfb565b600361124d9190611f81565b6103e861125a9190611b87565b6112649190611b87565b90505f805f90505b60038110156112a55784816003811061128857611287611a98565b5b6020020151826112989190611bc8565b915080600101905061126c565b505f8190505f805f90505b60ff8110156113b3575f8390505f5b600381101561130f578881600381106112db576112da611a98565b5b602002015160036112ec9190611b87565b85836112f89190611b87565b6113029190611c5b565b91508060010190506112bf565b5083925080600160036113229190611bc8565b61132c9190611b87565b8460018861133a9190611bfb565b6113449190611b87565b61134e9190611bc8565b8482600361135c9190611b87565b87896113689190611b87565b6113729190611bc8565b61137c9190611b87565b6113869190611c5b565b9350600161139485856113f4565b116113a7578396505050505050506113ef565b508060010190506112b0565b506040517f08c379a00000000000000000000000000000000000000000000000000000000081526004016113e69061207d565b60405180910390fd5b919050565b5f8183101561140e5782826114099190611bfb565b61141b565b818361141a9190611bfb565b5b905092915050565b80600a5f8473ffffffffffffffffffffffffffffffffffffffff1673ffffffffffffffffffffffffffffffffffffffff1681526020019081526020015f205f82825461146f9190611bc8565b925050819055508060095f8282546114879190611bc8565b925050819055505050565b5f806003600160036114a49190611bfb565b60036114b09190611f81565b6103e86114bd9190611b87565b6114c79190611b87565b90505f808490505f805f90505b600381101561154757888114611503578781600381106114f7576114f6611a98565b5b60200201519150611508565b61153c565b81846115149190611bc8565b93508160036115239190611b87565b878461152f9190611b87565b6115399190611c5b565b92505b8060010190506114d4565b508360036115559190611b87565b86836115619190611b87565b61156b9190611c5b565b91505f848761157a9190611c5b565b846115859190611bc8565b90505f808890505f5b60ff81101561160c5781925089848360026115a99190611b87565b6115b39190611bc8565b6115bd9190611bfb565b8683846115ca9190611b87565b6115d49190611bc8565b6115de9190611c5b565b915060016115ec83856113f4565b11611601578198505050505050505050611648565b80600101905061158e565b506040517f08c379a000000000000000000000000000000000000000000000000000000000815260040161163f90612015565b60405180910390fd5b9392505050565b6040518060600160405280600390602082028036833780820191505090505090565b5f819050919050565b61168381611671565b82525050565b5f60208201905061169c5f83018461167a565b92915050565b5f80fd5b6116af81611671565b81146116b9575f80fd5b50565b5f813590506116ca816116a6565b92915050565b5f602082840312156116e5576116e46116a2565b5b5f6116f2848285016116bc565b91505092915050565b5f73ffffffffffffffffffffffffffffffffffffffff82169050919050565b5f611724826116fb565b9050919050565b6117348161171a565b82525050565b5f60208201905061174d5f83018461172b565b92915050565b5f805f806080858703121561176b5761176a6116a2565b5b5f611778878288016116bc565b9450506020611789878288016116bc565b935050604061179a878288016116bc565b92505060606117ab878288016116bc565b91505092959194509250565b5f805f606084860312156117ce576117cd6116a2565b5b5f6117db868287016116bc565b93505060206117ec868287016116bc565b92505060406117fd868287016116bc565b9150509250925092565b6118108161171a565b811461181a575f80fd5b50565b5f8135905061182b81611807565b92915050565b5f60208284031215611846576118456116a2565b5b5f6118538482850161181d565b91505092915050565b5f80fd5b5f8190508260206003028201111561187b5761187a61185c565b5b92915050565b5f8060808385031215611897576118966116a2565b5b5f6118a485828601611860565b92505060606118b5858286016116bc565b9150509250929050565b5f80604083850312156118d5576118d46116a2565b5b5f6118e2858286016116bc565b92505060206118f3858286016116bc565b9150509250929050565b5f6040820190506119105f83018561167a565b61191d602083018461167a565b9392505050565b5f806080838503121561193a576119396116a2565b5b5f611947858286016116bc565b925050602061195885828601611860565b9150509250929050565b5f60039050919050565b5f81905092915050565b5f819050919050565b61198881611671565b82525050565b5f611999838361197f565b60208301905092915050565b5f602082019050919050565b6119ba81611962565b6119c4818461196c565b92506119cf82611976565b805f5b838110156119ff5781516119e6878261198e565b96506119f1836119a5565b9250506001810190506119d2565b505050505050565b5f606082019050611a1a5f8301846119b1565b92915050565b5f82825260208201905092915050565b7f69203d206a0000000000000000000000000000000000000000000000000000005f82015250565b5f611a64600583611a20565b9150611a6f82611a30565b602082019050919050565b5f6020820190508181035f830152611a9181611a58565b9050919050565b7f4e487b71000000000000000000000000000000000000000000000000000000005f52603260045260245ffd5b5f606082019050611ad85f83018661172b565b611ae5602083018561172b565b611af2604083018461167a565b949350505050565b5f8115159050919050565b611b0e81611afa565b8114611b18575f80fd5b50565b5f81519050611b2981611b05565b92915050565b5f60208284031215611b4457611b436116a2565b5b5f611b5184828501611b1b565b91505092915050565b7f4e487b71000000000000000000000000000000000000000000000000000000005f52601160045260245ffd5b5f611b9182611671565b9150611b9c83611671565b9250828202611baa81611671565b91508282048414831517611bc157611bc0611b5a565b5b5092915050565b5f611bd282611671565b9150611bdd83611671565b9250828201905080821115611bf557611bf4611b5a565b5b92915050565b5f611c0582611671565b9150611c1083611671565b9250828203905081811115611c2857611c27611b5a565b5b92915050565b7f4e487b71000000000000000000000000000000000000000000000000000000005f52601260045260245ffd5b5f611c6582611671565b9150611c7083611671565b925082611c8057611c7f611c2e565b5b828204905092915050565b7f6479203c206d696e0000000000000000000000000000000000000000000000005f82015250565b5f611cbf600883611a20565b9150611cca82611c8b565b602082019050919050565b5f6020820190508181035f830152611cec81611cb3565b9050919050565b5f604082019050611d065f83018561172b565b611d13602083018461167a565b9392505050565b7f6f7574203c206d696e00000000000000000000000000000000000000000000005f82015250565b5f611d4e600983611a20565b9150611d5982611d1a565b602082019050919050565b5f6020820190508181035f830152611d7b81611d42565b9050919050565b7f6c6971756964697479206469646e277420696e637265617365000000000000005f82015250565b5f611db6601983611a20565b9150611dc182611d82565b602082019050919050565b5f6020820190508181035f830152611de381611daa565b9050919050565b7f736861726573203c206d696e00000000000000000000000000000000000000005f82015250565b5f611e1e600c83611a20565b9150611e2982611dea565b602082019050919050565b5f6020820190508181035f830152611e4b81611e12565b9050919050565b5f8160011c9050919050565b5f808291508390505b6001851115611ea757808604811115611e8357611e82611b5a565b5b6001851615611e925780820291505b8081029050611ea085611e52565b9450611e67565b94509492505050565b5f82611ebf5760019050611f7a565b81611ecc575f9050611f7a565b8160018114611ee25760028114611eec57611f1b565b6001915050611f7a565b60ff841115611efe57611efd611b5a565b5b8360020a915084821115611f1557611f14611b5a565b5b50611f7a565b5060208310610133831016604e8410600b8410161715611f505782820a905083811115611f4b57611f4a611b5a565b5b611f7a565b611f5d8484846001611e5e565b92509050818404811115611f7457611f73611b5a565b5b81810290505b9392505050565b5f611f8b82611671565b9150611f9683611671565b9250611fc37fffffffffffffffffffffffffffffffffffffffffffffffffffffffffffffffff8484611eb0565b905092915050565b7f79206469646e277420636f6e76657267650000000000000000000000000000005f82015250565b5f611fff601183611a20565b915061200a82611fcb565b602082019050919050565b5f6020820190508181035f83015261202c81611ff3565b9050919050565b7f44206469646e277420636f6e76657267650000000000000000000000000000005f82015250565b5f612067601183611a20565b915061207282612033565b602082019050919050565b5f6020820190508181035f8301526120948161205b565b905091905056fea264697066735822122069e820403466e1aa441d4162d914e0b87d17b0a4400641c614f5e45ca284e78264736f6c634300081a0033",
					"opcodes": "PUSH1 0x80 PUSH1 0x40 MSTORE PUSH1 0x40 MLOAD DUP1 PUSH1 0x60 ADD PUSH1 0x40 MSTORE DUP1 PUSH1 0x1 PUSH5 0xFFFFFFFFFF AND DUP2 MSTORE PUSH1 0x20 ADD PUSH5 0xE8D4A51000 PUSH5 0xFFFFFFFFFF AND DUP2 MSTORE PUSH1 0x20 ADD PUSH5 0xE8D4A51000 PUSH5 0xFFFFFFFFFF AND DUP2 MSTORE POP PUSH1 0x3 SWAP1 PUSH1 0x3 PUSH2 0x4F SWAP3 SWAP2 SWAP1 PUSH2 0x94 JUMP JUMPDEST POP CALLVALUE DUP1 ISZERO PUSH2 0x5B JUMPI PUSH0 DUP1 REVERT JUMPDEST POP PUSH1 0x40 MLOAD PUSH2 0x2422 CODESIZE SUB DUP1 PUSH2 0x2422 DUP4 CODECOPY DUP2 DUP2 ADD PUSH1 0x40 MSTORE DUP2 ADD SWAP1 PUSH2 0x7D SWAP2 SWAP1 PUSH2 0x319 JUMP JUMPDEST DUP1 PUSH0 SWAP1 PUSH1 0x3 PUSH2 0x8D SWAP3 SWAP2 SWAP1 PUSH2 0xDD JUMP JUMPDEST POP POP PUSH2 0x344 JUMP JUMPDEST DUP3 PUSH1 0x3 DUP2 ADD SWAP3 DUP3 ISZERO PUSH2 0xCC JUMPI SWAP2 PUSH1 0x20 MUL DUP3 ADD JUMPDEST DUP3 DUP2 GT ISZERO PUSH2 0xCB JUMPI DUP3 MLOAD DUP3 SWAP1 PUSH5 0xFFFFFFFFFF AND SWAP1 SSTORE SWAP2 PUSH1 0x20 ADD SWAP2 SWAP1 PUSH1 0x1 ADD SWAP1 PUSH2 0xA7 JUMP JUMPDEST JUMPDEST POP SWAP1 POP PUSH2 0xD9 SWAP2 SWAP1 PUSH2 0x159 JUMP JUMPDEST POP SWAP1 JUMP JUMPDEST DUP3 PUSH1 0x3 DUP2 ADD SWAP3 DUP3 ISZERO PUSH2 0x148 JUMPI SWAP2 PUSH1 0x20 MUL DUP3 ADD JUMPDEST DUP3 DUP2 GT ISZERO PUSH2 0x147 JUMPI DUP3 MLOAD DUP3 PUSH0 PUSH2 0x100 EXP DUP2 SLOAD DUP2 PUSH20 0xFFFFFFFFFFFFFFFFFFFFFFFFFFFFFFFFFFFFFFFF MUL NOT AND SWAP1 DUP4 PUSH20 0xFFFFFFFFFFFFFFFFFFFFFFFFFFFFFFFFFFFFFFFF AND MUL OR SWAP1 SSTORE POP SWAP2 PUSH1 0x20 ADD SWAP2 SWAP1 PUSH1 0x1 ADD SWAP1 PUSH2 0xF0 JUMP JUMPDEST JUMPDEST POP SWAP1 POP PUSH2 0x155 SWAP2 SWAP1 PUSH2 0x159 JUMP JUMPDEST POP SWAP1 JUMP JUMPDEST JUMPDEST DUP1 DUP3 GT ISZERO PUSH2 0x170 JUMPI PUSH0 DUP2 PUSH0 SWAP1 SSTORE POP PUSH1 0x1 ADD PUSH2 0x15A JUMP JUMPDEST POP SWAP1 JUMP JUMPDEST PUSH0 PUSH1 0x40 MLOAD SWAP1 POP SWAP1 JUMP JUMPDEST PUSH0 DUP1 REVERT JUMPDEST PUSH0 DUP1 REVERT JUMPDEST PUSH0 PUSH1 0x1F NOT PUSH1 0x1F DUP4 ADD AND SWAP1 POP SWAP2 SWAP1 POP JUMP JUMPDEST PUSH32 0x4E487B7100000000000000000000000000000000000000000000000000000000 PUSH0 MSTORE PUSH1 0x41 PUSH1 0x4 MSTORE PUSH1 0x24 PUSH0 REVERT JUMPDEST PUSH2 0x1CB DUP3 PUSH2 0x185 JUMP JUMPDEST DUP2 ADD DUP2 DUP2 LT PUSH8 0xFFFFFFFFFFFFFFFF DUP3 GT OR ISZERO PUSH2 0x1EA JUMPI PUSH2 0x1E9 PUSH2 0x195 JUMP JUMPDEST JUMPDEST DUP1 PUSH1 0x40 MSTORE POP POP POP JUMP JUMPDEST PUSH0 PUSH2 0x1FC PUSH2 0x174 JUMP JUMPDEST SWAP1 POP PUSH2 0x208 DUP3 DUP3 PUSH2 0x1C2 JUMP JUMPDEST SWAP2 SWAP1 POP JUMP JUMPDEST PUSH0 PUSH8 0xFFFFFFFFFFFFFFFF DUP3 GT ISZERO PUSH2 0x227 JUMPI PUSH2 0x226 PUSH2 0x195 JUMP JUMPDEST JUMPDEST PUSH1 0x20 DUP3 MUL SWAP1 POP SWAP2 SWAP1 POP JUMP JUMPDEST PUSH0 DUP1 REVERT JUMPDEST PUSH0 PUSH20 0xFFFFFFFFFFFFFFFFFFFFFFFFFFFFFFFFFFFFFFFF DUP3 AND SWAP1 POP SWAP2 SWAP1 POP JUMP JUMPDEST PUSH0 PUSH2 0x25F DUP3 PUSH2 0x236 JUMP JUMPDEST SWAP1 POP SWAP2 SWAP1 POP JUMP JUMPDEST PUSH2 0x26F DUP2 PUSH2 0x255 JUMP JUMPDEST DUP2 EQ PUSH2 0x279 JUMPI PUSH0 DUP1 REVERT JUMPDEST POP JUMP JUMPDEST PUSH0 DUP2 MLOAD SWAP1 POP PUSH2 0x28A DUP2 PUSH2 0x266 JUMP JUMPDEST SWAP3 SWAP2 POP POP JUMP JUMPDEST PUSH0 PUSH2 0x2A2 PUSH2 0x29D DUP5 PUSH2 0x20D JUMP JUMPDEST PUSH2 0x1F3 JUMP JUMPDEST SWAP1 POP DUP1 PUSH1 0x20 DUP5 MUL DUP4 ADD DUP6 DUP2 GT ISZERO PUSH2 0x2BC JUMPI PUSH2 0x2BB PUSH2 0x232 JUMP JUMPDEST JUMPDEST DUP4 JUMPDEST DUP2 DUP2 LT ISZERO PUSH2 0x2E5 JUMPI DUP1 PUSH2 0x2D1 DUP9 DUP3 PUSH2 0x27C JUMP JUMPDEST DUP5 MSTORE PUSH1 0x20 DUP5 ADD SWAP4 POP POP PUSH1 0x20 DUP2 ADD SWAP1 POP PUSH2 0x2BE JUMP JUMPDEST POP POP POP SWAP4 SWAP3 POP POP POP JUMP JUMPDEST PUSH0 DUP3 PUSH1 0x1F DUP4 ADD SLT PUSH2 0x303 JUMPI PUSH2 0x302 PUSH2 0x181 JUMP JUMPDEST JUMPDEST PUSH1 0x3 PUSH2 0x310 DUP5 DUP3 DUP6 PUSH2 0x290 JUMP JUMPDEST SWAP2 POP POP SWAP3 SWAP2 POP POP JUMP JUMPDEST PUSH0 PUSH1 0x60 DUP3 DUP5 SUB SLT ISZERO PUSH2 0x32E JUMPI PUSH2 0x32D PUSH2 0x17D JUMP JUMPDEST JUMPDEST PUSH0 PUSH2 0x33B DUP5 DUP3 DUP6 ADD PUSH2 0x2EF JUMP JUMPDEST SWAP2 POP POP SWAP3 SWAP2 POP POP JUMP JUMPDEST PUSH2 0x20D1 DUP1 PUSH2 0x351 PUSH0 CODECOPY PUSH0 RETURN INVALID PUSH1 0x80 PUSH1 0x40 MSTORE CALLVALUE DUP1 ISZERO PUSH2 0xF JUMPI PUSH0 DUP1 REVERT JUMPDEST POP PUSH1 0x4 CALLDATASIZE LT PUSH2 0x9C JUMPI PUSH0 CALLDATALOAD PUSH1 0xE0 SHR DUP1 PUSH4 0x70A08231 GT PUSH2 0x64 JUMPI DUP1 PUSH4 0x70A08231 EQ PUSH2 0x17E JUMPI DUP1 PUSH4 0xA4BF0446 EQ PUSH2 0x1AE JUMPI DUP1 PUSH4 0xA60DC3B1 EQ PUSH2 0x1DE JUMPI DUP1 PUSH4 0xD035862C EQ PUSH2 0x20F JUMPI DUP1 PUSH4 0xE25AA5FA EQ PUSH2 0x23F JUMPI PUSH2 0x9C JUMP JUMPDEST DUP1 PUSH4 0x18160DDD EQ PUSH2 0xA0 JUMPI DUP1 PUSH4 0x4903B0D1 EQ PUSH2 0xBE JUMPI DUP1 PUSH4 0x4F64B2BE EQ PUSH2 0xEE JUMPI DUP1 PUSH4 0x5673B02D EQ PUSH2 0x11E JUMPI DUP1 PUSH4 0x7066B5B2 EQ PUSH2 0x14E JUMPI JUMPDEST PUSH0 DUP1 REVERT JUMPDEST PUSH2 0xA8 PUSH2 0x25D JUMP JUMPDEST PUSH1 0x40 MLOAD PUSH2 0xB5 SWAP2 SWAP1 PUSH2 0x1689 JUMP JUMPDEST PUSH1 0x40 MLOAD DUP1 SWAP2 SUB SWAP1 RETURN JUMPDEST PUSH2 0xD8 PUSH1 0x4 DUP1 CALLDATASIZE SUB DUP2 ADD SWAP1 PUSH2 0xD3 SWAP2 SWAP1 PUSH2 0x16D0 JUMP JUMPDEST PUSH2 0x263 JUMP JUMPDEST PUSH1 0x40 MLOAD PUSH2 0xE5 SWAP2 SWAP1 PUSH2 0x1689 JUMP JUMPDEST PUSH1 0x40 MLOAD DUP1 SWAP2 SUB SWAP1 RETURN JUMPDEST PUSH2 0x108 PUSH1 0x4 DUP1 CALLDATASIZE SUB DUP2 ADD SWAP1 PUSH2 0x103 SWAP2 SWAP1 PUSH2 0x16D0 JUMP JUMPDEST PUSH2 0x27C JUMP JUMPDEST PUSH1 0x40 MLOAD PUSH2 0x115 SWAP2 SWAP1 PUSH2 0x173A JUMP JUMPDEST PUSH1 0x40 MLOAD DUP1 SWAP2 SUB SWAP1 RETURN JUMPDEST PUSH2 0x138 PUSH1 0x4 DUP1 CALLDATASIZE SUB DUP2 ADD SWAP1 PUSH2 0x133 SWAP2 SWAP1 PUSH2 0x1753 JUMP JUMPDEST PUSH2 0x2AF JUMP JUMPDEST PUSH1 0x40 MLOAD PUSH2 0x145 SWAP2 SWAP1 PUSH2 0x1689 JUMP JUMPDEST PUSH1 0x40 MLOAD DUP1 SWAP2 SUB SWAP1 RETURN JUMPDEST PUSH2 0x168 PUSH1 0x4 DUP1 CALLDATASIZE SUB DUP2 ADD SWAP1 PUSH2 0x163 SWAP2 SWAP1 PUSH2 0x17B7 JUMP JUMPDEST PUSH2 0x5DA JUMP JUMPDEST PUSH1 0x40 MLOAD PUSH2 0x175 SWAP2 SWAP1 PUSH2 0x1689 JUMP JUMPDEST PUSH1 0x40 MLOAD DUP1 SWAP2 SUB SWAP1 RETURN JUMPDEST PUSH2 0x198 PUSH1 0x4 DUP1 CALLDATASIZE SUB DUP2 ADD SWAP1 PUSH2 0x193 SWAP2 SWAP1 PUSH2 0x1831 JUMP JUMPDEST PUSH2 0x718 JUMP JUMPDEST PUSH1 0x40 MLOAD PUSH2 0x1A5 SWAP2 SWAP1 PUSH2 0x1689 JUMP JUMPDEST PUSH1 0x40 MLOAD DUP1 SWAP2 SUB SWAP1 RETURN JUMPDEST PUSH2 0x1C8 PUSH1 0x4 DUP1 CALLDATASIZE SUB DUP2 ADD SWAP1 PUSH2 0x1C3 SWAP2 SWAP1 PUSH2 0x1881 JUMP JUMPDEST PUSH2 0x72D JUMP JUMPDEST PUSH1 0x40 MLOAD PUSH2 0x1D5 SWAP2 SWAP1 PUSH2 0x1689 JUMP JUMPDEST PUSH1 0x40 MLOAD DUP1 SWAP2 SUB SWAP1 RETURN JUMPDEST PUSH2 0x1F8 PUSH1 0x4 DUP1 CALLDATASIZE SUB DUP2 ADD SWAP1 PUSH2 0x1F3 SWAP2 SWAP1 PUSH2 0x18BF JUMP JUMPDEST PUSH2 0xB18 JUMP JUMPDEST PUSH1 0x40 MLOAD PUSH2 0x206 SWAP3 SWAP2 SWAP1 PUSH2 0x18FD JUMP JUMPDEST PUSH1 0x40 MLOAD DUP1 SWAP2 SUB SWAP1 RETURN JUMPDEST PUSH2 0x229 PUSH1 0x4 DUP1 CALLDATASIZE SUB DUP2 ADD SWAP1 PUSH2 0x224 SWAP2 SWAP1 PUSH2 0x1924 JUMP JUMPDEST PUSH2 0xB2F JUMP JUMPDEST PUSH1 0x40 MLOAD PUSH2 0x236 SWAP2 SWAP1 PUSH2 0x1A07 JUMP JUMPDEST PUSH1 0x40 MLOAD DUP1 SWAP2 SUB SWAP1 RETURN JUMPDEST PUSH2 0x247 PUSH2 0xCE6 JUMP JUMPDEST PUSH1 0x40 MLOAD PUSH2 0x254 SWAP2 SWAP1 PUSH2 0x1689 JUMP JUMPDEST PUSH1 0x40 MLOAD DUP1 SWAP2 SUB SWAP1 RETURN JUMPDEST PUSH1 0x9 SLOAD DUP2 JUMP JUMPDEST PUSH1 0x6 DUP2 PUSH1 0x3 DUP2 LT PUSH2 0x272 JUMPI PUSH0 DUP1 REVERT JUMPDEST ADD PUSH0 SWAP2 POP SWAP1 POP SLOAD DUP2 JUMP JUMPDEST PUSH0 DUP2 PUSH1 0x3 DUP2 LT PUSH2 0x28A JUMPI PUSH0 DUP1 REVERT JUMPDEST ADD PUSH0 SWAP2 POP SLOAD SWAP1 PUSH2 0x100 EXP SWAP1 DIV PUSH20 0xFFFFFFFFFFFFFFFFFFFFFFFFFFFFFFFFFFFFFFFF AND DUP2 JUMP JUMPDEST PUSH0 DUP4 DUP6 SUB PUSH2 0x2F2 JUMPI PUSH1 0x40 MLOAD PUSH32 0x8C379A000000000000000000000000000000000000000000000000000000000 DUP2 MSTORE PUSH1 0x4 ADD PUSH2 0x2E9 SWAP1 PUSH2 0x1A7A JUMP JUMPDEST PUSH1 0x40 MLOAD DUP1 SWAP2 SUB SWAP1 REVERT JUMPDEST PUSH0 DUP6 PUSH1 0x3 DUP2 LT PUSH2 0x305 JUMPI PUSH2 0x304 PUSH2 0x1A98 JUMP JUMPDEST JUMPDEST ADD PUSH0 SWAP1 SLOAD SWAP1 PUSH2 0x100 EXP SWAP1 DIV PUSH20 0xFFFFFFFFFFFFFFFFFFFFFFFFFFFFFFFFFFFFFFFF AND PUSH20 0xFFFFFFFFFFFFFFFFFFFFFFFFFFFFFFFFFFFFFFFF AND PUSH4 0x23B872DD CALLER ADDRESS DUP7 PUSH1 0x40 MLOAD DUP5 PUSH4 0xFFFFFFFF AND PUSH1 0xE0 SHL DUP2 MSTORE PUSH1 0x4 ADD PUSH2 0x362 SWAP4 SWAP3 SWAP2 SWAP1 PUSH2 0x1AC5 JUMP JUMPDEST PUSH1 0x20 PUSH1 0x40 MLOAD DUP1 DUP4 SUB DUP2 PUSH0 DUP8 GAS CALL ISZERO DUP1 ISZERO PUSH2 0x37E JUMPI RETURNDATASIZE PUSH0 DUP1 RETURNDATACOPY RETURNDATASIZE PUSH0 REVERT JUMPDEST POP POP POP POP PUSH1 0x40 MLOAD RETURNDATASIZE PUSH1 0x1F NOT PUSH1 0x1F DUP3 ADD AND DUP3 ADD DUP1 PUSH1 0x40 MSTORE POP DUP2 ADD SWAP1 PUSH2 0x3A2 SWAP2 SWAP1 PUSH2 0x1B2F JUMP JUMPDEST POP PUSH0 PUSH2 0x3AC PUSH2 0xD3A JUMP JUMPDEST SWAP1 POP PUSH0 PUSH1 0x3 DUP8 PUSH1 0x3 DUP2 LT PUSH2 0x3C3 JUMPI PUSH2 0x3C2 PUSH2 0x1A98 JUMP JUMPDEST JUMPDEST ADD SLOAD DUP6 PUSH2 0x3D0 SWAP2 SWAP1 PUSH2 0x1B87 JUMP JUMPDEST DUP3 DUP9 PUSH1 0x3 DUP2 LT PUSH2 0x3E3 JUMPI PUSH2 0x3E2 PUSH2 0x1A98 JUMP JUMPDEST JUMPDEST PUSH1 0x20 MUL ADD MLOAD PUSH2 0x3F2 SWAP2 SWAP1 PUSH2 0x1BC8 JUMP JUMPDEST SWAP1 POP PUSH0 DUP3 DUP8 PUSH1 0x3 DUP2 LT PUSH2 0x408 JUMPI PUSH2 0x407 PUSH2 0x1A98 JUMP JUMPDEST JUMPDEST PUSH1 0x20 MUL ADD MLOAD SWAP1 POP PUSH0 PUSH2 0x41C DUP10 DUP10 DUP6 DUP8 PUSH2 0xDAE JUMP JUMPDEST SWAP1 POP PUSH1 0x3 DUP9 PUSH1 0x3 DUP2 LT PUSH2 0x432 JUMPI PUSH2 0x431 PUSH2 0x1A98 JUMP JUMPDEST JUMPDEST ADD SLOAD PUSH1 0x1 DUP3 DUP5 PUSH2 0x442 SWAP2 SWAP1 PUSH2 0x1BFB JUMP JUMPDEST PUSH2 0x44C SWAP2 SWAP1 PUSH2 0x1BFB JUMP JUMPDEST PUSH2 0x456 SWAP2 SWAP1 PUSH2 0x1C5B JUMP JUMPDEST SWAP5 POP PUSH0 PUSH3 0xF4240 PUSH2 0x12C DUP8 PUSH2 0x46B SWAP2 SWAP1 PUSH2 0x1B87 JUMP JUMPDEST PUSH2 0x475 SWAP2 SWAP1 PUSH2 0x1C5B JUMP JUMPDEST SWAP1 POP DUP1 DUP7 PUSH2 0x483 SWAP2 SWAP1 PUSH2 0x1BFB JUMP JUMPDEST SWAP6 POP DUP7 DUP7 LT ISZERO PUSH2 0x4C8 JUMPI PUSH1 0x40 MLOAD PUSH32 0x8C379A000000000000000000000000000000000000000000000000000000000 DUP2 MSTORE PUSH1 0x4 ADD PUSH2 0x4BF SWAP1 PUSH2 0x1CD5 JUMP JUMPDEST PUSH1 0x40 MLOAD DUP1 SWAP2 SUB SWAP1 REVERT JUMPDEST DUP8 PUSH1 0x6 DUP12 PUSH1 0x3 DUP2 LT PUSH2 0x4DD JUMPI PUSH2 0x4DC PUSH2 0x1A98 JUMP JUMPDEST JUMPDEST ADD PUSH0 DUP3 DUP3 SLOAD PUSH2 0x4EC SWAP2 SWAP1 PUSH2 0x1BC8 JUMP JUMPDEST SWAP3 POP POP DUP2 SWAP1 SSTORE POP DUP6 PUSH1 0x6 DUP11 PUSH1 0x3 DUP2 LT PUSH2 0x508 JUMPI PUSH2 0x507 PUSH2 0x1A98 JUMP JUMPDEST JUMPDEST ADD PUSH0 DUP3 DUP3 SLOAD PUSH2 0x517 SWAP2 SWAP1 PUSH2 0x1BFB JUMP JUMPDEST SWAP3 POP POP DUP2 SWAP1 SSTORE POP PUSH0 DUP10 PUSH1 0x3 DUP2 LT PUSH2 0x531 JUMPI PUSH2 0x530 PUSH2 0x1A98 JUMP JUMPDEST JUMPDEST ADD PUSH0 SWAP1 SLOAD SWAP1 PUSH2 0x100 EXP SWAP1 DIV PUSH20 0xFFFFFFFFFFFFFFFFFFFFFFFFFFFFFFFFFFFFFFFF AND PUSH20 0xFFFFFFFFFFFFFFFFFFFFFFFFFFFFFFFFFFFFFFFF AND PUSH4 0xA9059CBB CALLER DUP9 PUSH1 0x40 MLOAD DUP4 PUSH4 0xFFFFFFFF AND PUSH1 0xE0 SHL DUP2 MSTORE PUSH1 0x4 ADD PUSH2 0x58C SWAP3 SWAP2 SWAP1 PUSH2 0x1CF3 JUMP JUMPDEST PUSH1 0x20 PUSH1 0x40 MLOAD DUP1 DUP4 SUB DUP2 PUSH0 DUP8 GAS CALL ISZERO DUP1 ISZERO PUSH2 0x5A8 JUMPI RETURNDATASIZE PUSH0 DUP1 RETURNDATACOPY RETURNDATASIZE PUSH0 REVERT JUMPDEST POP POP POP POP PUSH1 0x40 MLOAD RETURNDATASIZE PUSH1 0x1F NOT PUSH1 0x1F DUP3 ADD AND DUP3 ADD DUP1 PUSH1 0x40 MSTORE POP DUP2 ADD SWAP1 PUSH2 0x5CC SWAP2 SWAP1 PUSH2 0x1B2F JUMP JUMPDEST POP POP POP POP POP POP SWAP5 SWAP4 POP POP POP POP JUMP JUMPDEST PUSH0 PUSH2 0x5E5 DUP5 DUP5 PUSH2 0xF80 JUMP JUMPDEST POP DUP1 SWAP2 POP POP DUP2 DUP2 LT ISZERO PUSH2 0x62D JUMPI PUSH1 0x40 MLOAD PUSH32 0x8C379A000000000000000000000000000000000000000000000000000000000 DUP2 MSTORE PUSH1 0x4 ADD PUSH2 0x624 SWAP1 PUSH2 0x1D64 JUMP JUMPDEST PUSH1 0x40 MLOAD DUP1 SWAP2 SUB SWAP1 REVERT JUMPDEST DUP1 PUSH1 0x6 DUP5 PUSH1 0x3 DUP2 LT PUSH2 0x642 JUMPI PUSH2 0x641 PUSH2 0x1A98 JUMP JUMPDEST JUMPDEST ADD PUSH0 DUP3 DUP3 SLOAD PUSH2 0x651 SWAP2 SWAP1 PUSH2 0x1BFB JUMP JUMPDEST SWAP3 POP POP DUP2 SWAP1 SSTORE POP PUSH2 0x662 CALLER DUP6 PUSH2 0x11C0 JUMP JUMPDEST PUSH0 DUP4 PUSH1 0x3 DUP2 LT PUSH2 0x675 JUMPI PUSH2 0x674 PUSH2 0x1A98 JUMP JUMPDEST JUMPDEST ADD PUSH0 SWAP1 SLOAD SWAP1 PUSH2 0x100 EXP SWAP1 DIV PUSH20 0xFFFFFFFFFFFFFFFFFFFFFFFFFFFFFFFFFFFFFFFF AND PUSH20 0xFFFFFFFFFFFFFFFFFFFFFFFFFFFFFFFFFFFFFFFF AND PUSH4 0xA9059CBB CALLER DUP4 PUSH1 0x40 MLOAD DUP4 PUSH4 0xFFFFFFFF AND PUSH1 0xE0 SHL DUP2 MSTORE PUSH1 0x4 ADD PUSH2 0x6D0 SWAP3 SWAP2 SWAP1 PUSH2 0x1CF3 JUMP JUMPDEST PUSH1 0x20 PUSH1 0x40 MLOAD DUP1 DUP4 SUB DUP2 PUSH0 DUP8 GAS CALL ISZERO DUP1 ISZERO PUSH2 0x6EC JUMPI RETURNDATASIZE PUSH0 DUP1 RETURNDATACOPY RETURNDATASIZE PUSH0 REVERT JUMPDEST POP POP POP POP PUSH1 0x40 MLOAD RETURNDATASIZE PUSH1 0x1F NOT PUSH1 0x1F DUP3 ADD AND DUP3 ADD DUP1 PUSH1 0x40 MSTORE POP DUP2 ADD SWAP1 PUSH2 0x710 SWAP2 SWAP1 PUSH2 0x1B2F JUMP JUMPDEST POP SWAP4 SWAP3 POP POP POP JUMP JUMPDEST PUSH1 0xA PUSH1 0x20 MSTORE DUP1 PUSH0 MSTORE PUSH1 0x40 PUSH0 KECCAK256 PUSH0 SWAP2 POP SWAP1 POP SLOAD DUP2 JUMP JUMPDEST PUSH0 DUP1 PUSH1 0x9 SLOAD SWAP1 POP PUSH0 DUP1 PUSH2 0x73E PUSH2 0xD3A JUMP JUMPDEST SWAP1 POP PUSH0 DUP4 GT ISZERO PUSH2 0x754 JUMPI PUSH2 0x751 DUP2 PUSH2 0x122F JUMP JUMPDEST SWAP2 POP JUMPDEST PUSH2 0x75C PUSH2 0x164F JUMP JUMPDEST PUSH0 JUMPDEST PUSH1 0x3 DUP2 LT ISZERO PUSH2 0x8E0 JUMPI PUSH0 DUP9 DUP3 PUSH1 0x3 DUP2 LT PUSH2 0x77B JUMPI PUSH2 0x77A PUSH2 0x1A98 JUMP JUMPDEST JUMPDEST PUSH1 0x20 MUL ADD CALLDATALOAD SWAP1 POP PUSH0 DUP2 GT ISZERO PUSH2 0x89F JUMPI PUSH0 DUP3 PUSH1 0x3 DUP2 LT PUSH2 0x79D JUMPI PUSH2 0x79C PUSH2 0x1A98 JUMP JUMPDEST JUMPDEST ADD PUSH0 SWAP1 SLOAD SWAP1 PUSH2 0x100 EXP SWAP1 DIV PUSH20 0xFFFFFFFFFFFFFFFFFFFFFFFFFFFFFFFFFFFFFFFF AND PUSH20 0xFFFFFFFFFFFFFFFFFFFFFFFFFFFFFFFFFFFFFFFF AND PUSH4 0x23B872DD CALLER ADDRESS DUP5 PUSH1 0x40 MLOAD DUP5 PUSH4 0xFFFFFFFF AND PUSH1 0xE0 SHL DUP2 MSTORE PUSH1 0x4 ADD PUSH2 0x7FA SWAP4 SWAP3 SWAP2 SWAP1 PUSH2 0x1AC5 JUMP JUMPDEST PUSH1 0x20 PUSH1 0x40 MLOAD DUP1 DUP4 SUB DUP2 PUSH0 DUP8 GAS CALL ISZERO DUP1 ISZERO PUSH2 0x816 JUMPI RETURNDATASIZE PUSH0 DUP1 RETURNDATACOPY RETURNDATASIZE PUSH0 REVERT JUMPDEST POP POP POP POP PUSH1 0x40 MLOAD RETURNDATASIZE PUSH1 0x1F NOT PUSH1 0x1F DUP3 ADD AND DUP3 ADD DUP1 PUSH1 0x40 MSTORE POP DUP2 ADD SWAP1 PUSH2 0x83A SWAP2 SWAP1 PUSH2 0x1B2F JUMP JUMPDEST POP PUSH1 0x3 DUP3 PUSH1 0x3 DUP2 LT PUSH2 0x84F JUMPI PUSH2 0x84E PUSH2 0x1A98 JUMP JUMPDEST JUMPDEST ADD SLOAD DUP2 PUSH2 0x85C SWAP2 SWAP1 PUSH2 0x1B87 JUMP JUMPDEST DUP5 DUP4 PUSH1 0x3 DUP2 LT PUSH2 0x86F JUMPI PUSH2 0x86E PUSH2 0x1A98 JUMP JUMPDEST JUMPDEST PUSH1 0x20 MUL ADD MLOAD PUSH2 0x87E SWAP2 SWAP1 PUSH2 0x1BC8 JUMP JUMPDEST DUP4 DUP4 PUSH1 0x3 DUP2 LT PUSH2 0x891 JUMPI PUSH2 0x890 PUSH2 0x1A98 JUMP JUMPDEST JUMPDEST PUSH1 0x20 MUL ADD DUP2 DUP2 MSTORE POP POP PUSH2 0x8D4 JUMP JUMPDEST DUP4 DUP3 PUSH1 0x3 DUP2 LT PUSH2 0x8B2 JUMPI PUSH2 0x8B1 PUSH2 0x1A98 JUMP JUMPDEST JUMPDEST PUSH1 0x20 MUL ADD MLOAD DUP4 DUP4 PUSH1 0x3 DUP2 LT PUSH2 0x8CA JUMPI PUSH2 0x8C9 PUSH2 0x1A98 JUMP JUMPDEST JUMPDEST PUSH1 0x20 MUL ADD DUP2 DUP2 MSTORE POP POP JUMPDEST POP DUP1 PUSH1 0x1 ADD SWAP1 POP PUSH2 0x75E JUMP JUMPDEST POP PUSH0 PUSH2 0x8EB DUP3 PUSH2 0x122F JUMP JUMPDEST SWAP1 POP DUP4 DUP2 GT PUSH2 0x92F JUMPI PUSH1 0x40 MLOAD PUSH32 0x8C379A000000000000000000000000000000000000000000000000000000000 DUP2 MSTORE PUSH1 0x4 ADD PUSH2 0x926 SWAP1 PUSH2 0x1DCC JUMP JUMPDEST PUSH1 0x40 MLOAD DUP1 SWAP2 SUB SWAP1 REVERT JUMPDEST PUSH0 DUP1 DUP7 GT ISZERO PUSH2 0xA2D JUMPI PUSH0 JUMPDEST PUSH1 0x3 DUP2 LT ISZERO PUSH2 0xA1C JUMPI PUSH0 DUP7 DUP5 DUP8 DUP5 PUSH1 0x3 DUP2 LT PUSH2 0x959 JUMPI PUSH2 0x958 PUSH2 0x1A98 JUMP JUMPDEST JUMPDEST PUSH1 0x20 MUL ADD MLOAD PUSH2 0x968 SWAP2 SWAP1 PUSH2 0x1B87 JUMP JUMPDEST PUSH2 0x972 SWAP2 SWAP1 PUSH2 0x1C5B JUMP JUMPDEST SWAP1 POP PUSH0 PUSH2 0x996 DUP7 DUP5 PUSH1 0x3 DUP2 LT PUSH2 0x98B JUMPI PUSH2 0x98A PUSH2 0x1A98 JUMP JUMPDEST JUMPDEST PUSH1 0x20 MUL ADD MLOAD DUP4 PUSH2 0x13F4 JUMP JUMPDEST SWAP1 POP PUSH3 0xF4240 DUP2 PUSH1 0x1 PUSH1 0x3 PUSH2 0x9AB SWAP2 SWAP1 PUSH2 0x1BFB JUMP JUMPDEST PUSH1 0x4 PUSH2 0x9B7 SWAP2 SWAP1 PUSH2 0x1B87 JUMP JUMPDEST PUSH1 0x3 PUSH2 0x12C PUSH2 0x9C6 SWAP2 SWAP1 PUSH2 0x1B87 JUMP JUMPDEST PUSH2 0x9D0 SWAP2 SWAP1 PUSH2 0x1C5B JUMP JUMPDEST PUSH2 0x9DA SWAP2 SWAP1 PUSH2 0x1B87 JUMP JUMPDEST PUSH2 0x9E4 SWAP2 SWAP1 PUSH2 0x1C5B JUMP JUMPDEST DUP7 DUP5 PUSH1 0x3 DUP2 LT PUSH2 0x9F7 JUMPI PUSH2 0x9F6 PUSH2 0x1A98 JUMP JUMPDEST JUMPDEST PUSH1 0x20 MUL ADD DUP2 DUP2 MLOAD PUSH2 0xA08 SWAP2 SWAP1 PUSH2 0x1BFB JUMP JUMPDEST SWAP2 POP DUP2 DUP2 MSTORE POP POP POP POP DUP1 PUSH1 0x1 ADD SWAP1 POP PUSH2 0x93A JUMP JUMPDEST POP PUSH2 0xA26 DUP4 PUSH2 0x122F JUMP JUMPDEST SWAP1 POP PUSH2 0xA31 JUMP JUMPDEST DUP2 SWAP1 POP JUMPDEST PUSH0 JUMPDEST PUSH1 0x3 DUP2 LT ISZERO PUSH2 0xA89 JUMPI DUP10 DUP2 PUSH1 0x3 DUP2 LT PUSH2 0xA4F JUMPI PUSH2 0xA4E PUSH2 0x1A98 JUMP JUMPDEST JUMPDEST PUSH1 0x20 MUL ADD CALLDATALOAD PUSH1 0x6 DUP3 PUSH1 0x3 DUP2 LT PUSH2 0xA68 JUMPI PUSH2 0xA67 PUSH2 0x1A98 JUMP JUMPDEST JUMPDEST ADD PUSH0 DUP3 DUP3 SLOAD PUSH2 0xA77 SWAP2 SWAP1 PUSH2 0x1BC8 JUMP JUMPDEST SWAP3 POP POP DUP2 SWAP1 SSTORE POP DUP1 PUSH1 0x1 ADD SWAP1 POP PUSH2 0xA33 JUMP JUMPDEST POP PUSH0 DUP7 GT ISZERO PUSH2 0xABB JUMPI DUP5 DUP7 DUP7 DUP4 PUSH2 0xAA0 SWAP2 SWAP1 PUSH2 0x1BFB JUMP JUMPDEST PUSH2 0xAAA SWAP2 SWAP1 PUSH2 0x1B87 JUMP JUMPDEST PUSH2 0xAB4 SWAP2 SWAP1 PUSH2 0x1C5B JUMP JUMPDEST SWAP7 POP PUSH2 0xABF JUMP JUMPDEST DUP1 SWAP7 POP JUMPDEST DUP8 DUP8 LT ISZERO PUSH2 0xB02 JUMPI PUSH1 0x40 MLOAD PUSH32 0x8C379A000000000000000000000000000000000000000000000000000000000 DUP2 MSTORE PUSH1 0x4 ADD PUSH2 0xAF9 SWAP1 PUSH2 0x1E34 JUMP JUMPDEST PUSH1 0x40 MLOAD DUP1 SWAP2 SUB SWAP1 REVERT JUMPDEST PUSH2 0xB0C CALLER DUP9 PUSH2 0x1423 JUMP JUMPDEST POP POP POP POP POP POP SWAP3 SWAP2 POP POP JUMP JUMPDEST PUSH0 DUP1 PUSH2 0xB24 DUP5 DUP5 PUSH2 0xF80 JUMP JUMPDEST SWAP2 POP SWAP2 POP SWAP3 POP SWAP3 SWAP1 POP JUMP JUMPDEST PUSH2 0xB37 PUSH2 0x164F JUMP JUMPDEST PUSH0 PUSH1 0x9 SLOAD SWAP1 POP PUSH0 JUMPDEST PUSH1 0x3 DUP2 LT ISZERO PUSH2 0xCD4 JUMPI PUSH0 DUP3 DUP7 PUSH1 0x6 DUP5 PUSH1 0x3 DUP2 LT PUSH2 0xB5F JUMPI PUSH2 0xB5E PUSH2 0x1A98 JUMP JUMPDEST JUMPDEST ADD SLOAD PUSH2 0xB6B SWAP2 SWAP1 PUSH2 0x1B87 JUMP JUMPDEST PUSH2 0xB75 SWAP2 SWAP1 PUSH2 0x1C5B JUMP JUMPDEST SWAP1 POP DUP5 DUP3 PUSH1 0x3 DUP2 LT PUSH2 0xB8A JUMPI PUSH2 0xB89 PUSH2 0x1A98 JUMP JUMPDEST JUMPDEST PUSH1 0x20 MUL ADD CALLDATALOAD DUP2 LT ISZERO PUSH2 0xBD1 JUMPI PUSH1 0x40 MLOAD PUSH32 0x8C379A000000000000000000000000000000000000000000000000000000000 DUP2 MSTORE PUSH1 0x4 ADD PUSH2 0xBC8 SWAP1 PUSH2 0x1D64 JUMP JUMPDEST PUSH1 0x40 MLOAD DUP1 SWAP2 SUB SWAP1 REVERT JUMPDEST DUP1 PUSH1 0x6 DUP4 PUSH1 0x3 DUP2 LT PUSH2 0xBE6 JUMPI PUSH2 0xBE5 PUSH2 0x1A98 JUMP JUMPDEST JUMPDEST ADD PUSH0 DUP3 DUP3 SLOAD PUSH2 0xBF5 SWAP2 SWAP1 PUSH2 0x1BFB JUMP JUMPDEST SWAP3 POP POP DUP2 SWAP1 SSTORE POP DUP1 DUP5 DUP4 PUSH1 0x3 DUP2 LT PUSH2 0xC10 JUMPI PUSH2 0xC0F PUSH2 0x1A98 JUMP JUMPDEST JUMPDEST PUSH1 0x20 MUL ADD DUP2 DUP2 MSTORE POP POP PUSH0 DUP3 PUSH1 0x3 DUP2 LT PUSH2 0xC2C JUMPI PUSH2 0xC2B PUSH2 0x1A98 JUMP JUMPDEST JUMPDEST ADD PUSH0 SWAP1 SLOAD SWAP1 PUSH2 0x100 EXP SWAP1 DIV PUSH20 0xFFFFFFFFFFFFFFFFFFFFFFFFFFFFFFFFFFFFFFFF AND PUSH20 0xFFFFFFFFFFFFFFFFFFFFFFFFFFFFFFFFFFFFFFFF AND PUSH4 0xA9059CBB CALLER DUP4 PUSH1 0x40 MLOAD DUP4 PUSH4 0xFFFFFFFF AND PUSH1 0xE0 SHL DUP2 MSTORE PUSH1 0x4 ADD PUSH2 0xC87 SWAP3 SWAP2 SWAP1 PUSH2 0x1CF3 JUMP JUMPDEST PUSH1 0x20 PUSH1 0x40 MLOAD DUP1 DUP4 SUB DUP2 PUSH0 DUP8 GAS CALL ISZERO DUP1 ISZERO PUSH2 0xCA3 JUMPI RETURNDATASIZE PUSH0 DUP1 RETURNDATACOPY RETURNDATASIZE PUSH0 REVERT JUMPDEST POP POP POP POP PUSH1 0x40 MLOAD RETURNDATASIZE PUSH1 0x1F NOT PUSH1 0x1F DUP3 ADD AND DUP3 ADD DUP1 PUSH1 0x40 MSTORE POP DUP2 ADD SWAP1 PUSH2 0xCC7 SWAP2 SWAP1 PUSH2 0x1B2F JUMP JUMPDEST POP POP DUP1 PUSH1 0x1 ADD SWAP1 POP PUSH2 0xB3F JUMP JUMPDEST POP PUSH2 0xCDF CALLER DUP6 PUSH2 0x11C0 JUMP JUMPDEST POP SWAP3 SWAP2 POP POP JUMP JUMPDEST PUSH0 DUP1 PUSH2 0xCF8 PUSH2 0xCF3 PUSH2 0xD3A JUMP JUMPDEST PUSH2 0x122F JUMP JUMPDEST SWAP1 POP PUSH0 PUSH1 0x9 SLOAD GT ISZERO PUSH2 0xD32 JUMPI PUSH1 0x9 SLOAD PUSH1 0x12 PUSH1 0xA PUSH2 0xD15 SWAP2 SWAP1 PUSH2 0x1F81 JUMP JUMPDEST DUP3 PUSH2 0xD20 SWAP2 SWAP1 PUSH2 0x1B87 JUMP JUMPDEST PUSH2 0xD2A SWAP2 SWAP1 PUSH2 0x1C5B JUMP JUMPDEST SWAP2 POP POP PUSH2 0xD37 JUMP JUMPDEST PUSH0 SWAP2 POP POP JUMPDEST SWAP1 JUMP JUMPDEST PUSH2 0xD42 PUSH2 0x164F JUMP JUMPDEST PUSH0 JUMPDEST PUSH1 0x3 DUP2 LT ISZERO PUSH2 0xDAA JUMPI PUSH1 0x3 DUP2 PUSH1 0x3 DUP2 LT PUSH2 0xD61 JUMPI PUSH2 0xD60 PUSH2 0x1A98 JUMP JUMPDEST JUMPDEST ADD SLOAD PUSH1 0x6 DUP3 PUSH1 0x3 DUP2 LT PUSH2 0xD77 JUMPI PUSH2 0xD76 PUSH2 0x1A98 JUMP JUMPDEST JUMPDEST ADD SLOAD PUSH2 0xD83 SWAP2 SWAP1 PUSH2 0x1B87 JUMP JUMPDEST DUP3 DUP3 PUSH1 0x3 DUP2 LT PUSH2 0xD96 JUMPI PUSH2 0xD95 PUSH2 0x1A98 JUMP JUMPDEST JUMPDEST PUSH1 0x20 MUL ADD DUP2 DUP2 MSTORE POP POP DUP1 PUSH1 0x1 ADD SWAP1 POP PUSH2 0xD44 JUMP JUMPDEST POP SWAP1 JUMP JUMPDEST PUSH0 DUP1 PUSH1 0x3 PUSH1 0x1 PUSH1 0x3 PUSH2 0xDC0 SWAP2 SWAP1 PUSH2 0x1BFB JUMP JUMPDEST PUSH1 0x3 PUSH2 0xDCC SWAP2 SWAP1 PUSH2 0x1F81 JUMP JUMPDEST PUSH2 0x3E8 PUSH2 0xDD9 SWAP2 SWAP1 PUSH2 0x1B87 JUMP JUMPDEST PUSH2 0xDE3 SWAP2 SWAP1 PUSH2 0x1B87 JUMP JUMPDEST SWAP1 POP PUSH0 PUSH2 0xDEF DUP5 PUSH2 0x122F JUMP JUMPDEST SWAP1 POP PUSH0 DUP1 DUP3 SWAP1 POP PUSH0 DUP1 PUSH0 SWAP1 POP JUMPDEST PUSH1 0x3 DUP2 LT ISZERO PUSH2 0xE76 JUMPI DUP11 DUP2 SUB PUSH2 0xE14 JUMPI DUP9 SWAP2 POP PUSH2 0xE37 JUMP JUMPDEST DUP10 DUP2 SUB ISZERO PUSH2 0xE6B JUMPI DUP8 DUP2 PUSH1 0x3 DUP2 LT PUSH2 0xE2F JUMPI PUSH2 0xE2E PUSH2 0x1A98 JUMP JUMPDEST JUMPDEST PUSH1 0x20 MUL ADD MLOAD SWAP2 POP JUMPDEST DUP2 DUP5 PUSH2 0xE43 SWAP2 SWAP1 PUSH2 0x1BC8 JUMP JUMPDEST SWAP4 POP DUP2 PUSH1 0x3 PUSH2 0xE52 SWAP2 SWAP1 PUSH2 0x1B87 JUMP JUMPDEST DUP6 DUP5 PUSH2 0xE5E SWAP2 SWAP1 PUSH2 0x1B87 JUMP JUMPDEST PUSH2 0xE68 SWAP2 SWAP1 PUSH2 0x1C5B JUMP JUMPDEST SWAP3 POP JUMPDEST DUP1 PUSH1 0x1 ADD SWAP1 POP PUSH2 0xDFC JUMP JUMPDEST POP DUP5 PUSH1 0x3 PUSH2 0xE84 SWAP2 SWAP1 PUSH2 0x1B87 JUMP JUMPDEST DUP5 DUP4 PUSH2 0xE90 SWAP2 SWAP1 PUSH2 0x1B87 JUMP JUMPDEST PUSH2 0xE9A SWAP2 SWAP1 PUSH2 0x1C5B JUMP JUMPDEST SWAP2 POP PUSH0 DUP6 DUP6 PUSH2 0xEA9 SWAP2 SWAP1 PUSH2 0x1C5B JUMP JUMPDEST DUP5 PUSH2 0xEB4 SWAP2 SWAP1 PUSH2 0x1BC8 JUMP JUMPDEST SWAP1 POP PUSH0 DUP1 DUP7 SWAP1 POP PUSH0 JUMPDEST PUSH1 0xFF DUP2 LT ISZERO PUSH2 0xF3C JUMPI DUP2 SWAP3 POP DUP8 DUP5 DUP4 PUSH1 0x2 PUSH2 0xED8 SWAP2 SWAP1 PUSH2 0x1B87 JUMP JUMPDEST PUSH2 0xEE2 SWAP2 SWAP1 PUSH2 0x1BC8 JUMP JUMPDEST PUSH2 0xEEC SWAP2 SWAP1 PUSH2 0x1BFB JUMP JUMPDEST DUP7 DUP4 DUP5 PUSH2 0xEF9 SWAP2 SWAP1 PUSH2 0x1B87 JUMP JUMPDEST PUSH2 0xF03 SWAP2 SWAP1 PUSH2 0x1BC8 JUMP JUMPDEST PUSH2 0xF0D SWAP2 SWAP1 PUSH2 0x1C5B JUMP JUMPDEST SWAP2 POP PUSH1 0x1 PUSH2 0xF1B DUP4 DUP6 PUSH2 0x13F4 JUMP JUMPDEST GT PUSH2 0xF31 JUMPI DUP2 SWAP10 POP POP POP POP POP POP POP POP POP POP PUSH2 0xF78 JUMP JUMPDEST DUP1 PUSH1 0x1 ADD SWAP1 POP PUSH2 0xEBD JUMP JUMPDEST POP PUSH1 0x40 MLOAD PUSH32 0x8C379A000000000000000000000000000000000000000000000000000000000 DUP2 MSTORE PUSH1 0x4 ADD PUSH2 0xF6F SWAP1 PUSH2 0x2015 JUMP JUMPDEST PUSH1 0x40 MLOAD DUP1 SWAP2 SUB SWAP1 REVERT JUMPDEST SWAP5 SWAP4 POP POP POP POP JUMP JUMPDEST PUSH0 DUP1 PUSH0 PUSH1 0x9 SLOAD SWAP1 POP PUSH0 PUSH2 0xF91 PUSH2 0xD3A JUMP JUMPDEST SWAP1 POP PUSH0 PUSH2 0xF9D DUP3 PUSH2 0x122F JUMP JUMPDEST SWAP1 POP PUSH0 DUP4 DUP9 DUP4 PUSH2 0xFAD SWAP2 SWAP1 PUSH2 0x1B87 JUMP JUMPDEST PUSH2 0xFB7 SWAP2 SWAP1 PUSH2 0x1C5B JUMP JUMPDEST DUP3 PUSH2 0xFC2 SWAP2 SWAP1 PUSH2 0x1BFB JUMP JUMPDEST SWAP1 POP PUSH0 PUSH2 0xFD0 DUP9 DUP6 DUP5 PUSH2 0x1492 JUMP JUMPDEST SWAP1 POP PUSH0 PUSH1 0x3 DUP10 PUSH1 0x3 DUP2 LT PUSH2 0xFE7 JUMPI PUSH2 0xFE6 PUSH2 0x1A98 JUMP JUMPDEST JUMPDEST ADD SLOAD DUP3 DUP7 DUP12 PUSH1 0x3 DUP2 LT PUSH2 0xFFD JUMPI PUSH2 0xFFC PUSH2 0x1A98 JUMP JUMPDEST JUMPDEST PUSH1 0x20 MUL ADD MLOAD PUSH2 0x100C SWAP2 SWAP1 PUSH2 0x1BFB JUMP JUMPDEST PUSH2 0x1016 SWAP2 SWAP1 PUSH2 0x1C5B JUMP JUMPDEST SWAP1 POP PUSH0 DUP1 PUSH0 SWAP1 POP JUMPDEST PUSH1 0x3 DUP2 LT ISZERO PUSH2 0x1143 JUMPI DUP11 DUP2 SUB PUSH2 0x106E JUMPI DUP4 DUP7 DUP7 DUP10 DUP5 PUSH1 0x3 DUP2 LT PUSH2 0x1044 JUMPI PUSH2 0x1043 PUSH2 0x1A98 JUMP JUMPDEST JUMPDEST PUSH1 0x20 MUL ADD MLOAD PUSH2 0x1053 SWAP2 SWAP1 PUSH2 0x1B87 JUMP JUMPDEST PUSH2 0x105D SWAP2 SWAP1 PUSH2 0x1C5B JUMP JUMPDEST PUSH2 0x1067 SWAP2 SWAP1 PUSH2 0x1BFB JUMP JUMPDEST SWAP2 POP PUSH2 0x10C1 JUMP JUMPDEST DUP6 DUP6 DUP9 DUP4 PUSH1 0x3 DUP2 LT PUSH2 0x1083 JUMPI PUSH2 0x1082 PUSH2 0x1A98 JUMP JUMPDEST JUMPDEST PUSH1 0x20 MUL ADD MLOAD PUSH2 0x1092 SWAP2 SWAP1 PUSH2 0x1B87 JUMP JUMPDEST PUSH2 0x109C SWAP2 SWAP1 PUSH2 0x1C5B JUMP JUMPDEST DUP8 DUP3 PUSH1 0x3 DUP2 LT PUSH2 0x10AF JUMPI PUSH2 0x10AE PUSH2 0x1A98 JUMP JUMPDEST JUMPDEST PUSH1 0x20 MUL ADD MLOAD PUSH2 0x10BE SWAP2 SWAP1 PUSH2 0x1BFB JUMP JUMPDEST SWAP2 POP JUMPDEST PUSH3 0xF4240 DUP3 PUSH1 0x1 PUSH1 0x3 PUSH2 0x10D4 SWAP2 SWAP1 PUSH2 0x1BFB JUMP JUMPDEST PUSH1 0x4 PUSH2 0x10E0 SWAP2 SWAP1 PUSH2 0x1B87 JUMP JUMPDEST PUSH1 0x3 PUSH2 0x12C PUSH2 0x10EF SWAP2 SWAP1 PUSH2 0x1B87 JUMP JUMPDEST PUSH2 0x10F9 SWAP2 SWAP1 PUSH2 0x1C5B JUMP JUMPDEST PUSH2 0x1103 SWAP2 SWAP1 PUSH2 0x1B87 JUMP JUMPDEST PUSH2 0x110D SWAP2 SWAP1 PUSH2 0x1C5B JUMP JUMPDEST DUP8 DUP3 PUSH1 0x3 DUP2 LT PUSH2 0x1120 JUMPI PUSH2 0x111F PUSH2 0x1A98 JUMP JUMPDEST JUMPDEST PUSH1 0x20 MUL ADD DUP2 DUP2 MLOAD PUSH2 0x1131 SWAP2 SWAP1 PUSH2 0x1BFB JUMP JUMPDEST SWAP2 POP DUP2 DUP2 MSTORE POP POP DUP1 PUSH1 0x1 ADD SWAP1 POP PUSH2 0x101E JUMP JUMPDEST POP PUSH0 PUSH2 0x1150 DUP12 DUP9 DUP8 PUSH2 0x1492 JUMP JUMPDEST SWAP1 POP PUSH1 0x3 DUP12 PUSH1 0x3 DUP2 LT PUSH2 0x1166 JUMPI PUSH2 0x1165 PUSH2 0x1A98 JUMP JUMPDEST JUMPDEST ADD SLOAD PUSH1 0x1 DUP3 DUP10 DUP15 PUSH1 0x3 DUP2 LT PUSH2 0x117E JUMPI PUSH2 0x117D PUSH2 0x1A98 JUMP JUMPDEST JUMPDEST PUSH1 0x20 MUL ADD MLOAD PUSH2 0x118D SWAP2 SWAP1 PUSH2 0x1BFB JUMP JUMPDEST PUSH2 0x1197 SWAP2 SWAP1 PUSH2 0x1BFB JUMP JUMPDEST PUSH2 0x11A1 SWAP2 SWAP1 PUSH2 0x1C5B JUMP JUMPDEST SWAP10 POP DUP10 DUP4 PUSH2 0x11AF SWAP2 SWAP1 PUSH2 0x1BFB JUMP JUMPDEST SWAP9 POP POP POP POP POP POP POP POP POP SWAP3 POP SWAP3 SWAP1 POP JUMP JUMPDEST DUP1 PUSH1 0xA PUSH0 DUP5 PUSH20 0xFFFFFFFFFFFFFFFFFFFFFFFFFFFFFFFFFFFFFFFF AND PUSH20 0xFFFFFFFFFFFFFFFFFFFFFFFFFFFFFFFFFFFFFFFF AND DUP2 MSTORE PUSH1 0x20 ADD SWAP1 DUP2 MSTORE PUSH1 0x20 ADD PUSH0 KECCAK256 PUSH0 DUP3 DUP3 SLOAD PUSH2 0x120C SWAP2 SWAP1 PUSH2 0x1BFB JUMP JUMPDEST SWAP3 POP POP DUP2 SWAP1 SSTORE POP DUP1 PUSH1 0x9 PUSH0 DUP3 DUP3 SLOAD PUSH2 0x1224 SWAP2 SWAP1 PUSH2 0x1BFB JUMP JUMPDEST SWAP3 POP POP DUP2 SWAP1 SSTORE POP POP POP JUMP JUMPDEST PUSH0 DUP1 PUSH1 0x3 PUSH1 0x1 PUSH1 0x3 PUSH2 0x1241 SWAP2 SWAP1 PUSH2 0x1BFB JUMP JUMPDEST PUSH1 0x3 PUSH2 0x124D SWAP2 SWAP1 PUSH2 0x1F81 JUMP JUMPDEST PUSH2 0x3E8 PUSH2 0x125A SWAP2 SWAP1 PUSH2 0x1B87 JUMP JUMPDEST PUSH2 0x1264 SWAP2 SWAP1 PUSH2 0x1B87 JUMP JUMPDEST SWAP1 POP PUSH0 DUP1 PUSH0 SWAP1 POP JUMPDEST PUSH1 0x3 DUP2 LT ISZERO PUSH2 0x12A5 JUMPI DUP5 DUP2 PUSH1 0x3 DUP2 LT PUSH2 0x1288 JUMPI PUSH2 0x1287 PUSH2 0x1A98 JUMP JUMPDEST JUMPDEST PUSH1 0x20 MUL ADD MLOAD DUP3 PUSH2 0x1298 SWAP2 SWAP1 PUSH2 0x1BC8 JUMP JUMPDEST SWAP2 POP DUP1 PUSH1 0x1 ADD SWAP1 POP PUSH2 0x126C JUMP JUMPDEST POP PUSH0 DUP2 SWAP1 POP PUSH0 DUP1 PUSH0 SWAP1 POP JUMPDEST PUSH1 0xFF DUP2 LT ISZERO PUSH2 0x13B3 JUMPI PUSH0 DUP4 SWAP1 POP PUSH0 JUMPDEST PUSH1 0x3 DUP2 LT ISZERO PUSH2 0x130F JUMPI DUP9 DUP2 PUSH1 0x3 DUP2 LT PUSH2 0x12DB JUMPI PUSH2 0x12DA PUSH2 0x1A98 JUMP JUMPDEST JUMPDEST PUSH1 0x20 MUL ADD MLOAD PUSH1 0x3 PUSH2 0x12EC SWAP2 SWAP1 PUSH2 0x1B87 JUMP JUMPDEST DUP6 DUP4 PUSH2 0x12F8 SWAP2 SWAP1 PUSH2 0x1B87 JUMP JUMPDEST PUSH2 0x1302 SWAP2 SWAP1 PUSH2 0x1C5B JUMP JUMPDEST SWAP2 POP DUP1 PUSH1 0x1 ADD SWAP1 POP PUSH2 0x12BF JUMP JUMPDEST POP DUP4 SWAP3 POP DUP1 PUSH1 0x1 PUSH1 0x3 PUSH2 0x1322 SWAP2 SWAP1 PUSH2 0x1BC8 JUMP JUMPDEST PUSH2 0x132C SWAP2 SWAP1 PUSH2 0x1B87 JUMP JUMPDEST DUP5 PUSH1 0x1 DUP9 PUSH2 0x133A SWAP2 SWAP1 PUSH2 0x1BFB JUMP JUMPDEST PUSH2 0x1344 SWAP2 SWAP1 PUSH2 0x1B87 JUMP JUMPDEST PUSH2 0x134E SWAP2 SWAP1 PUSH2 0x1BC8 JUMP JUMPDEST DUP5 DUP3 PUSH1 0x3 PUSH2 0x135C SWAP2 SWAP1 PUSH2 0x1B87 JUMP JUMPDEST DUP8 DUP10 PUSH2 0x1368 SWAP2 SWAP1 PUSH2 0x1B87 JUMP JUMPDEST PUSH2 0x1372 SWAP2 SWAP1 PUSH2 0x1BC8 JUMP JUMPDEST PUSH2 0x137C SWAP2 SWAP1 PUSH2 0x1B87 JUMP JUMPDEST PUSH2 0x1386 SWAP2 SWAP1 PUSH2 0x1C5B JUMP JUMPDEST SWAP4 POP PUSH1 0x1 PUSH2 0x1394 DUP6 DUP6 PUSH2 0x13F4 JUMP JUMPDEST GT PUSH2 0x13A7 JUMPI DUP4 SWAP7 POP POP POP POP POP POP POP PUSH2 0x13EF JUMP JUMPDEST POP DUP1 PUSH1 0x1 ADD SWAP1 POP PUSH2 0x12B0 JUMP JUMPDEST POP PUSH1 0x40 MLOAD PUSH32 0x8C379A000000000000000000000000000000000000000000000000000000000 DUP2 MSTORE PUSH1 0x4 ADD PUSH2 0x13E6 SWAP1 PUSH2 0x207D JUMP JUMPDEST PUSH1 0x40 MLOAD DUP1 SWAP2 SUB SWAP1 REVERT JUMPDEST SWAP2 SWAP1 POP JUMP JUMPDEST PUSH0 DUP2 DUP4 LT ISZERO PUSH2 0x140E JUMPI DUP3 DUP3 PUSH2 0x1409 SWAP2 SWAP1 PUSH2 0x1BFB JUMP JUMPDEST PUSH2 0x141B JUMP JUMPDEST DUP2 DUP4 PUSH2 0x141A SWAP2 SWAP1 PUSH2 0x1BFB JUMP JUMPDEST JUMPDEST SWAP1 POP SWAP3 SWAP2 POP POP JUMP JUMPDEST DUP1 PUSH1 0xA PUSH0 DUP5 PUSH20 0xFFFFFFFFFFFFFFFFFFFFFFFFFFFFFFFFFFFFFFFF AND PUSH20 0xFFFFFFFFFFFFFFFFFFFFFFFFFFFFFFFFFFFFFFFF AND DUP2 MSTORE PUSH1 0x20 ADD SWAP1 DUP2 MSTORE PUSH1 0x20 ADD PUSH0 KECCAK256 PUSH0 DUP3 DUP3 SLOAD PUSH2 0x146F SWAP2 SWAP1 PUSH2 0x1BC8 JUMP JUMPDEST SWAP3 POP POP DUP2 SWAP1 SSTORE POP DUP1 PUSH1 0x9 PUSH0 DUP3 DUP3 SLOAD PUSH2 0x1487 SWAP2 SWAP1 PUSH2 0x1BC8 JUMP JUMPDEST SWAP3 POP POP DUP2 SWAP1 SSTORE POP POP POP JUMP JUMPDEST PUSH0 DUP1 PUSH1 0x3 PUSH1 0x1 PUSH1 0x3 PUSH2 0x14A4 SWAP2 SWAP1 PUSH2 0x1BFB JUMP JUMPDEST PUSH1 0x3 PUSH2 0x14B0 SWAP2 SWAP1 PUSH2 0x1F81 JUMP JUMPDEST PUSH2 0x3E8 PUSH2 0x14BD SWAP2 SWAP1 PUSH2 0x1B87 JUMP JUMPDEST PUSH2 0x14C7 SWAP2 SWAP1 PUSH2 0x1B87 JUMP JUMPDEST SWAP1 POP PUSH0 DUP1 DUP5 SWAP1 POP PUSH0 DUP1 PUSH0 SWAP1 POP JUMPDEST PUSH1 0x3 DUP2 LT ISZERO PUSH2 0x1547 JUMPI DUP9 DUP2 EQ PUSH2 0x1503 JUMPI DUP8 DUP2 PUSH1 0x3 DUP2 LT PUSH2 0x14F7 JUMPI PUSH2 0x14F6 PUSH2 0x1A98 JUMP JUMPDEST JUMPDEST PUSH1 0x20 MUL ADD MLOAD SWAP2 POP PUSH2 0x1508 JUMP JUMPDEST PUSH2 0x153C JUMP JUMPDEST DUP2 DUP5 PUSH2 0x1514 SWAP2 SWAP1 PUSH2 0x1BC8 JUMP JUMPDEST SWAP4 POP DUP2 PUSH1 0x3 PUSH2 0x1523 SWAP2 SWAP1 PUSH2 0x1B87 JUMP JUMPDEST DUP8 DUP5 PUSH2 0x152F SWAP2 SWAP1 PUSH2 0x1B87 JUMP JUMPDEST PUSH2 0x1539 SWAP2 SWAP1 PUSH2 0x1C5B JUMP JUMPDEST SWAP3 POP JUMPDEST DUP1 PUSH1 0x1 ADD SWAP1 POP PUSH2 0x14D4 JUMP JUMPDEST POP DUP4 PUSH1 0x3 PUSH2 0x1555 SWAP2 SWAP1 PUSH2 0x1B87 JUMP JUMPDEST DUP7 DUP4 PUSH2 0x1561 SWAP2 SWAP1 PUSH2 0x1B87 JUMP JUMPDEST PUSH2 0x156B SWAP2 SWAP1 PUSH2 0x1C5B JUMP JUMPDEST SWAP2 POP PUSH0 DUP5 DUP8 PUSH2 0x157A SWAP2 SWAP1 PUSH2 0x1C5B JUMP JUMPDEST DUP5 PUSH2 0x1585 SWAP2 SWAP1 PUSH2 0x1BC8 JUMP JUMPDEST SWAP1 POP PUSH0 DUP1 DUP9 SWAP1 POP PUSH0 JUMPDEST PUSH1 0xFF DUP2 LT ISZERO PUSH2 0x160C JUMPI DUP2 SWAP3 POP DUP10 DUP5 DUP4 PUSH1 0x2 PUSH2 0x15A9 SWAP2 SWAP1 PUSH2 0x1B87 JUMP JUMPDEST PUSH2 0x15B3 SWAP2 SWAP1 PUSH2 0x1BC8 JUMP JUMPDEST PUSH2 0x15BD SWAP2 SWAP1 PUSH2 0x1BFB JUMP JUMPDEST DUP7 DUP4 DUP5 PUSH2 0x15CA SWAP2 SWAP1 PUSH2 0x1B87 JUMP JUMPDEST PUSH2 0x15D4 SWAP2 SWAP1 PUSH2 0x1BC8 JUMP JUMPDEST PUSH2 0x15DE SWAP2 SWAP1 PUSH2 0x1C5B JUMP JUMPDEST SWAP2 POP PUSH1 0x1 PUSH2 0x15EC DUP4 DUP6 PUSH2 0x13F4 JUMP JUMPDEST GT PUSH2 0x1601 JUMPI DUP2 SWAP9 POP POP POP POP POP POP POP POP POP PUSH2 0x1648 JUMP JUMPDEST DUP1 PUSH1 0x1 ADD SWAP1 POP PUSH2 0x158E JUMP JUMPDEST POP PUSH1 0x40 MLOAD PUSH32 0x8C379A000000000000000000000000000000000000000000000000000000000 DUP2 MSTORE PUSH1 0x4 ADD PUSH2 0x163F SWAP1 PUSH2 0x2015 JUMP JUMPDEST PUSH1 0x40 MLOAD DUP1 SWAP2 SUB SWAP1 REVERT JUMPDEST SWAP4 SWAP3 POP POP POP JUMP JUMPDEST PUSH1 0x40 MLOAD DUP1 PUSH1 0x60 ADD PUSH1 0x40 MSTORE DUP1 PUSH1 0x3 SWAP1 PUSH1 0x20 DUP3 MUL DUP1 CALLDATASIZE DUP4 CALLDATACOPY DUP1 DUP3 ADD SWAP2 POP POP SWAP1 POP POP SWAP1 JUMP JUMPDEST PUSH0 DUP2 SWAP1 POP SWAP2 SWAP1 POP JUMP JUMPDEST PUSH2 0x1683 DUP2 PUSH2 0x1671 JUMP JUMPDEST DUP3 MSTORE POP POP JUMP JUMPDEST PUSH0 PUSH1 0x20 DUP3 ADD SWAP1 POP PUSH2 0x169C PUSH0 DUP4 ADD DUP5 PUSH2 0x167A JUMP JUMPDEST SWAP3 SWAP2 POP POP JUMP JUMPDEST PUSH0 DUP1 REVERT JUMPDEST PUSH2 0x16AF DUP2 PUSH2 0x1671 JUMP JUMPDEST DUP2 EQ PUSH2 0x16B9 JUMPI PUSH0 DUP1 REVERT JUMPDEST POP JUMP JUMPDEST PUSH0 DUP2 CALLDATALOAD SWAP1 POP PUSH2 0x16CA DUP2 PUSH2 0x16A6 JUMP JUMPDEST SWAP3 SWAP2 POP POP JUMP JUMPDEST PUSH0 PUSH1 0x20 DUP3 DUP5 SUB SLT ISZERO PUSH2 0x16E5 JUMPI PUSH2 0x16E4 PUSH2 0x16A2 JUMP JUMPDEST JUMPDEST PUSH0 PUSH2 0x16F2 DUP5 DUP3 DUP6 ADD PUSH2 0x16BC JUMP JUMPDEST SWAP2 POP POP SWAP3 SWAP2 POP POP JUMP JUMPDEST PUSH0 PUSH20 0xFFFFFFFFFFFFFFFFFFFFFFFFFFFFFFFFFFFFFFFF DUP3 AND SWAP1 POP SWAP2 SWAP1 POP JUMP JUMPDEST PUSH0 PUSH2 0x1724 DUP3 PUSH2 0x16FB JUMP JUMPDEST SWAP1 POP SWAP2 SWAP1 POP JUMP JUMPDEST PUSH2 0x1734 DUP2 PUSH2 0x171A JUMP JUMPDEST DUP3 MSTORE POP POP JUMP JUMPDEST PUSH0 PUSH1 0x20 DUP3 ADD SWAP1 POP PUSH2 0x174D PUSH0 DUP4 ADD DUP5 PUSH2 0x172B JUMP JUMPDEST SWAP3 SWAP2 POP POP JUMP JUMPDEST PUSH0 DUP1 PUSH0 DUP1 PUSH1 0x80 DUP6 DUP8 SUB SLT ISZERO PUSH2 0x176B JUMPI PUSH2 0x176A PUSH2 0x16A2 JUMP JUMPDEST JUMPDEST PUSH0 PUSH2 0x1778 DUP8 DUP3 DUP9 ADD PUSH2 0x16BC JUMP JUMPDEST SWAP5 POP POP PUSH1 0x20 PUSH2 0x1789 DUP8 DUP3 DUP9 ADD PUSH2 0x16BC JUMP JUMPDEST SWAP4 POP POP PUSH1 0x40 PUSH2 0x179A DUP8 DUP3 DUP9 ADD PUSH2 0x16BC JUMP JUMPDEST SWAP3 POP POP PUSH1 0x60 PUSH2 0x17AB DUP8 DUP3 DUP9 ADD PUSH2 0x16BC JUMP JUMPDEST SWAP2 POP POP SWAP3 SWAP6 SWAP2 SWAP5 POP SWAP3 POP JUMP JUMPDEST PUSH0 DUP1 PUSH0 PUSH1 0x60 DUP5 DUP7 SUB SLT ISZERO PUSH2 0x17CE JUMPI PUSH2 0x17CD PUSH2 0x16A2 JUMP JUMPDEST JUMPDEST PUSH0 PUSH2 0x17DB DUP7 DUP3 DUP8 ADD PUSH2 0x16BC JUMP JUMPDEST SWAP4 POP POP PUSH1 0x20 PUSH2 0x17EC DUP7 DUP3 DUP8 ADD PUSH2 0x16BC JUMP JUMPDEST SWAP3 POP POP PUSH1 0x40 PUSH2 0x17FD DUP7 DUP3 DUP8 ADD PUSH2 0x16BC JUMP JUMPDEST SWAP2 POP POP SWAP3 POP SWAP3 POP SWAP3 JUMP JUMPDEST PUSH2 0x1810 DUP2 PUSH2 0x171A JUMP JUMPDEST DUP2 EQ PUSH2 0x181A JUMPI PUSH0 DUP1 REVERT JUMPDEST POP JUMP JUMPDEST PUSH0 DUP2 CALLDATALOAD SWAP1 POP PUSH2 0x182B DUP2 PUSH2 0x1807 JUMP JUMPDEST SWAP3 SWAP2 POP POP JUMP JUMPDEST PUSH0 PUSH1 0x20 DUP3 DUP5 SUB SLT ISZERO PUSH2 0x1846 JUMPI PUSH2 0x1845 PUSH2 0x16A2 JUMP JUMPDEST JUMPDEST PUSH0 PUSH2 0x1853 DUP5 DUP3 DUP6 ADD PUSH2 0x181D JUMP JUMPDEST SWAP2 POP POP SWAP3 SWAP2 POP POP JUMP JUMPDEST PUSH0 DUP1 REVERT JUMPDEST PUSH0 DUP2 SWAP1 POP DUP3 PUSH1 0x20 PUSH1 0x3 MUL DUP3 ADD GT ISZERO PUSH2 0x187B JUMPI PUSH2 0x187A PUSH2 0x185C JUMP JUMPDEST JUMPDEST SWAP3 SWAP2 POP POP JUMP JUMPDEST PUSH0 DUP1 PUSH1 0x80 DUP4 DUP6 SUB SLT ISZERO PUSH2 0x1897 JUMPI PUSH2 0x1896 PUSH2 0x16A2 JUMP JUMPDEST JUMPDEST PUSH0 PUSH2 0x18A4 DUP6 DUP3 DUP7 ADD PUSH2 0x1860 JUMP JUMPDEST SWAP3 POP POP PUSH1 0x60 PUSH2 0x18B5 DUP6 DUP3 DUP7 ADD PUSH2 0x16BC JUMP JUMPDEST SWAP2 POP POP SWAP3 POP SWAP3 SWAP1 POP JUMP JUMPDEST PUSH0 DUP1 PUSH1 0x40 DUP4 DUP6 SUB SLT ISZERO PUSH2 0x18D5 JUMPI PUSH2 0x18D4 PUSH2 0x16A2 JUMP JUMPDEST JUMPDEST PUSH0 PUSH2 0x18E2 DUP6 DUP3 DUP7 ADD PUSH2 0x16BC JUMP JUMPDEST SWAP3 POP POP PUSH1 0x20 PUSH2 0x18F3 DUP6 DUP3 DUP7 ADD PUSH2 0x16BC JUMP JUMPDEST SWAP2 POP POP SWAP3 POP SWAP3 SWAP1 POP JUMP JUMPDEST PUSH0 PUSH1 0x40 DUP3 ADD SWAP1 POP PUSH2 0x1910 PUSH0 DUP4 ADD DUP6 PUSH2 0x167A JUMP JUMPDEST PUSH2 0x191D PUSH1 0x20 DUP4 ADD DUP5 PUSH2 0x167A JUMP JUMPDEST SWAP4 SWAP3 POP POP POP JUMP JUMPDEST PUSH0 DUP1 PUSH1 0x80 DUP4 DUP6 SUB SLT ISZERO PUSH2 0x193A JUMPI PUSH2 0x1939 PUSH2 0x16A2 JUMP JUMPDEST JUMPDEST PUSH0 PUSH2 0x1947 DUP6 DUP3 DUP7 ADD PUSH2 0x16BC JUMP JUMPDEST SWAP3 POP POP PUSH1 0x20 PUSH2 0x1958 DUP6 DUP3 DUP7 ADD PUSH2 0x1860 JUMP JUMPDEST SWAP2 POP POP SWAP3 POP SWAP3 SWAP1 POP JUMP JUMPDEST PUSH0 PUSH1 0x3 SWAP1 POP SWAP2 SWAP1 POP JUMP JUMPDEST PUSH0 DUP2 SWAP1 POP SWAP3 SWAP2 POP POP JUMP JUMPDEST PUSH0 DUP2 SWAP1 POP SWAP2 SWAP1 POP JUMP JUMPDEST PUSH2 0x1988 DUP2 PUSH2 0x1671 JUMP JUMPDEST DUP3 MSTORE POP POP JUMP JUMPDEST PUSH0 PUSH2 0x1999 DUP4 DUP4 PUSH2 0x197F JUMP JUMPDEST PUSH1 0x20 DUP4 ADD SWAP1 POP SWAP3 SWAP2 POP POP JUMP JUMPDEST PUSH0 PUSH1 0x20 DUP3 ADD SWAP1 POP SWAP2 SWAP1 POP JUMP JUMPDEST PUSH2 0x19BA DUP2 PUSH2 0x1962 JUMP JUMPDEST PUSH2 0x19C4 DUP2 DUP5 PUSH2 0x196C JUMP JUMPDEST SWAP3 POP PUSH2 0x19CF DUP3 PUSH2 0x1976 JUMP JUMPDEST DUP1 PUSH0 JUMPDEST DUP4 DUP2 LT ISZERO PUSH2 0x19FF JUMPI DUP2 MLOAD PUSH2 0x19E6 DUP8 DUP3 PUSH2 0x198E JUMP JUMPDEST SWAP7 POP PUSH2 0x19F1 DUP4 PUSH2 0x19A5 JUMP JUMPDEST SWAP3 POP POP PUSH1 0x1 DUP2 ADD SWAP1 POP PUSH2 0x19D2 JUMP JUMPDEST POP POP POP POP POP POP JUMP JUMPDEST PUSH0 PUSH1 0x60 DUP3 ADD SWAP1 POP PUSH2 0x1A1A PUSH0 DUP4 ADD DUP5 PUSH2 0x19B1 JUMP JUMPDEST SWAP3 SWAP2 POP POP JUMP JUMPDEST PUSH0 DUP3 DUP3 MSTORE PUSH1 0x20 DUP3 ADD SWAP1 POP SWAP3 SWAP2 POP POP JUMP JUMPDEST PUSH32 0x69203D206A000000000000000000000000000000000000000000000000000000 PUSH0 DUP3 ADD MSTORE POP JUMP JUMPDEST PUSH0 PUSH2 0x1A64 PUSH1 0x5 DUP4 PUSH2 0x1A20 JUMP JUMPDEST SWAP2 POP PUSH2 0x1A6F DUP3 PUSH2 0x1A30 JUMP JUMPDEST PUSH1 0x20 DUP3 ADD SWAP1 POP SWAP2 SWAP1 POP JUMP JUMPDEST PUSH0 PUSH1 0x20 DUP3 ADD SWAP1 POP DUP2 DUP2 SUB PUSH0 DUP4 ADD MSTORE PUSH2 0x1A91 DUP2 PUSH2 0x1A58 JUMP JUMPDEST SWAP1 POP SWAP2 SWAP1 POP JUMP JUMPDEST PUSH32 0x4E487B7100000000000000000000000000000000000000000000000000000000 PUSH0 MSTORE PUSH1 0x32 PUSH1 0x4 MSTORE PUSH1 0x24 PUSH0 REVERT JUMPDEST PUSH0 PUSH1 0x60 DUP3 ADD SWAP1 POP PUSH2 0x1AD8 PUSH0 DUP4 ADD DUP7 PUSH2 0x172B JUMP JUMPDEST PUSH2 0x1AE5 PUSH1 0x20 DUP4 ADD DUP6 PUSH2 0x172B JUMP JUMPDEST PUSH2 0x1AF2 PUSH1 0x40 DUP4 ADD DUP5 PUSH2 0x167A JUMP JUMPDEST SWAP5 SWAP4 POP POP POP POP JUMP JUMPDEST PUSH0 DUP2 ISZERO ISZERO SWAP1 POP SWAP2 SWAP1 POP JUMP JUMPDEST PUSH2 0x1B0E DUP2 PUSH2 0x1AFA JUMP JUMPDEST DUP2 EQ PUSH2 0x1B18 JUMPI PUSH0 DUP1 REVERT JUMPDEST POP JUMP JUMPDEST PUSH0 DUP2 MLOAD SWAP1 POP PUSH2 0x1B29 DUP2 PUSH2 0x1B05 JUMP JUMPDEST SWAP3 SWAP2 POP POP JUMP JUMPDEST PUSH0 PUSH1 0x20 DUP3 DUP5 SUB SLT ISZERO PUSH2 0x1B44 JUMPI PUSH2 0x1B43 PUSH2 0x16A2 JUMP JUMPDEST JUMPDEST PUSH0 PUSH2 0x1B51 DUP5 DUP3 DUP6 ADD PUSH2 0x1B1B JUMP JUMPDEST SWAP2 POP POP SWAP3 SWAP2 POP POP JUMP JUMPDEST PUSH32 0x4E487B7100000000000000000000000000000000000000000000000000000000 PUSH0 MSTORE PUSH1 0x11 PUSH1 0x4 MSTORE PUSH1 0x24 PUSH0 REVERT JUMPDEST PUSH0 PUSH2 0x1B91 DUP3 PUSH2 0x1671 JUMP JUMPDEST SWAP2 POP PUSH2 0x1B9C DUP4 PUSH2 0x1671 JUMP JUMPDEST SWAP3 POP DUP3 DUP3 MUL PUSH2 0x1BAA DUP2 PUSH2 0x1671 JUMP JUMPDEST SWAP2 POP DUP3 DUP3 DIV DUP5 EQ DUP4 ISZERO OR PUSH2 0x1BC1 JUMPI PUSH2 0x1BC0 PUSH2 0x1B5A JUMP JUMPDEST JUMPDEST POP SWAP3 SWAP2 POP POP JUMP JUMPDEST PUSH0 PUSH2 0x1BD2 DUP3 PUSH2 0x1671 JUMP JUMPDEST SWAP2 POP PUSH2 0x1BDD DUP4 PUSH2 0x1671 JUMP JUMPDEST SWAP3 POP DUP3 DUP3 ADD SWAP1 POP DUP1 DUP3 GT ISZERO PUSH2 0x1BF5 JUMPI PUSH2 0x1BF4 PUSH2 0x1B5A JUMP JUMPDEST JUMPDEST SWAP3 SWAP2 POP POP JUMP JUMPDEST PUSH0 PUSH2 0x1C05 DUP3 PUSH2 0x1671 JUMP JUMPDEST SWAP2 POP PUSH2 0x1C10 DUP4 PUSH2 0x1671 JUMP JUMPDEST SWAP3 POP DUP3 DUP3 SUB SWAP1 POP DUP2 DUP2 GT ISZERO PUSH2 0x1C28 JUMPI PUSH2 0x1C27 PUSH2 0x1B5A JUMP JUMPDEST JUMPDEST SWAP3 SWAP2 POP POP JUMP JUMPDEST PUSH32 0x4E487B7100000000000000000000000000000000000000000000000000000000 PUSH0 MSTORE PUSH1 0x12 PUSH1 0x4 MSTORE PUSH1 0x24 PUSH0 REVERT JUMPDEST PUSH0 PUSH2 0x1C65 DUP3 PUSH2 0x1671 JUMP JUMPDEST SWAP2 POP PUSH2 0x1C70 DUP4 PUSH2 0x1671 JUMP JUMPDEST SWAP3 POP DUP3 PUSH2 0x1C80 JUMPI PUSH2 0x1C7F PUSH2 0x1C2E JUMP JUMPDEST JUMPDEST DUP3 DUP3 DIV SWAP1 POP SWAP3 SWAP2 POP POP JUMP JUMPDEST PUSH32 0x6479203C206D696E000000000000000000000000000000000000000000000000 PUSH0 DUP3 ADD MSTORE POP JUMP JUMPDEST PUSH0 PUSH2 0x1CBF PUSH1 0x8 DUP4 PUSH2 0x1A20 JUMP JUMPDEST SWAP2 POP PUSH2 0x1CCA DUP3 PUSH2 0x1C8B JUMP JUMPDEST PUSH1 0x20 DUP3 ADD SWAP1 POP SWAP2 SWAP1 POP JUMP JUMPDEST PUSH0 PUSH1 0x20 DUP3 ADD SWAP1 POP DUP2 DUP2 SUB PUSH0 DUP4 ADD MSTORE PUSH2 0x1CEC DUP2 PUSH2 0x1CB3 JUMP JUMPDEST SWAP1 POP SWAP2 SWAP1 POP JUMP JUMPDEST PUSH0 PUSH1 0x40 DUP3 ADD SWAP1 POP PUSH2 0x1D06 PUSH0 DUP4 ADD DUP6 PUSH2 0x172B JUMP JUMPDEST PUSH2 0x1D13 PUSH1 0x20 DUP4 ADD DUP5 PUSH2 0x167A JUMP JUMPDEST SWAP4 SWAP3 POP POP POP JUMP JUMPDEST PUSH32 0x6F7574203C206D696E0000000000000000000000000000000000000000000000 PUSH0 DUP3 ADD MSTORE POP JUMP JUMPDEST PUSH0 PUSH2 0x1D4E PUSH1 0x9 DUP4 PUSH2 0x1A20 JUMP JUMPDEST SWAP2 POP PUSH2 0x1D59 DUP3 PUSH2 0x1D1A JUMP JUMPDEST PUSH1 0x20 DUP3 ADD SWAP1 POP SWAP2 SWAP1 POP JUMP JUMPDEST PUSH0 PUSH1 0x20 DUP3 ADD SWAP1 POP DUP2 DUP2 SUB PUSH0 DUP4 ADD MSTORE PUSH2 0x1D7B DUP2 PUSH2 0x1D42 JUMP JUMPDEST SWAP1 POP SWAP2 SWAP1 POP JUMP JUMPDEST PUSH32 0x6C6971756964697479206469646E277420696E63726561736500000000000000 PUSH0 DUP3 ADD MSTORE POP JUMP JUMPDEST PUSH0 PUSH2 0x1DB6 PUSH1 0x19 DUP4 PUSH2 0x1A20 JUMP JUMPDEST SWAP2 POP PUSH2 0x1DC1 DUP3 PUSH2 0x1D82 JUMP JUMPDEST PUSH1 0x20 DUP3 ADD SWAP1 POP SWAP2 SWAP1 POP JUMP JUMPDEST PUSH0 PUSH1 0x20 DUP3 ADD SWAP1 POP DUP2 DUP2 SUB PUSH0 DUP4 ADD MSTORE PUSH2 0x1DE3 DUP2 PUSH2 0x1DAA JUMP JUMPDEST SWAP1 POP SWAP2 SWAP1 POP JUMP JUMPDEST PUSH32 0x736861726573203C206D696E0000000000000000000000000000000000000000 PUSH0 DUP3 ADD MSTORE POP JUMP JUMPDEST PUSH0 PUSH2 0x1E1E PUSH1 0xC DUP4 PUSH2 0x1A20 JUMP JUMPDEST SWAP2 POP PUSH2 0x1E29 DUP3 PUSH2 0x1DEA JUMP JUMPDEST PUSH1 0x20 DUP3 ADD SWAP1 POP SWAP2 SWAP1 POP JUMP JUMPDEST PUSH0 PUSH1 0x20 DUP3 ADD SWAP1 POP DUP2 DUP2 SUB PUSH0 DUP4 ADD MSTORE PUSH2 0x1E4B DUP2 PUSH2 0x1E12 JUMP JUMPDEST SWAP1 POP SWAP2 SWAP1 POP JUMP JUMPDEST PUSH0 DUP2 PUSH1 0x1 SHR SWAP1 POP SWAP2 SWAP1 POP JUMP JUMPDEST PUSH0 DUP1 DUP3 SWAP2 POP DUP4 SWAP1 POP JUMPDEST PUSH1 0x1 DUP6 GT ISZERO PUSH2 0x1EA7 JUMPI DUP1 DUP7 DIV DUP2 GT ISZERO PUSH2 0x1E83 JUMPI PUSH2 0x1E82 PUSH2 0x1B5A JUMP JUMPDEST JUMPDEST PUSH1 0x1 DUP6 AND ISZERO PUSH2 0x1E92 JUMPI DUP1 DUP3 MUL SWAP2 POP JUMPDEST DUP1 DUP2 MUL SWAP1 POP PUSH2 0x1EA0 DUP6 PUSH2 0x1E52 JUMP JUMPDEST SWAP5 POP PUSH2 0x1E67 JUMP JUMPDEST SWAP5 POP SWAP5 SWAP3 POP POP POP JUMP JUMPDEST PUSH0 DUP3 PUSH2 0x1EBF JUMPI PUSH1 0x1 SWAP1 POP PUSH2 0x1F7A JUMP JUMPDEST DUP2 PUSH2 0x1ECC JUMPI PUSH0 SWAP1 POP PUSH2 0x1F7A JUMP JUMPDEST DUP2 PUSH1 0x1 DUP2 EQ PUSH2 0x1EE2 JUMPI PUSH1 0x2 DUP2 EQ PUSH2 0x1EEC JUMPI PUSH2 0x1F1B JUMP JUMPDEST PUSH1 0x1 SWAP2 POP POP PUSH2 0x1F7A JUMP JUMPDEST PUSH1 0xFF DUP5 GT ISZERO PUSH2 0x1EFE JUMPI PUSH2 0x1EFD PUSH2 0x1B5A JUMP JUMPDEST JUMPDEST DUP4 PUSH1 0x2 EXP SWAP2 POP DUP5 DUP3 GT ISZERO PUSH2 0x1F15 JUMPI PUSH2 0x1F14 PUSH2 0x1B5A JUMP JUMPDEST JUMPDEST POP PUSH2 0x1F7A JUMP JUMPDEST POP PUSH1 0x20 DUP4 LT PUSH2 0x133 DUP4 LT AND PUSH1 0x4E DUP5 LT PUSH1 0xB DUP5 LT AND OR ISZERO PUSH2 0x1F50 JUMPI DUP3 DUP3 EXP SWAP1 POP DUP4 DUP2 GT ISZERO PUSH2 0x1F4B JUMPI PUSH2 0x1F4A PUSH2 0x1B5A JUMP JUMPDEST JUMPDEST PUSH2 0x1F7A JUMP JUMPDEST PUSH2 0x1F5D DUP5 DUP5 DUP5 PUSH1 0x1 PUSH2 0x1E5E JUMP JUMPDEST SWAP3 POP SWAP1 POP DUP2 DUP5 DIV DUP2 GT ISZERO PUSH2 0x1F74 JUMPI PUSH2 0x1F73 PUSH2 0x1B5A JUMP JUMPDEST JUMPDEST DUP2 DUP2 MUL SWAP1 POP JUMPDEST SWAP4 SWAP3 POP POP POP JUMP JUMPDEST PUSH0 PUSH2 0x1F8B DUP3 PUSH2 0x1671 JUMP JUMPDEST SWAP2 POP PUSH2 0x1F96 DUP4 PUSH2 0x1671 JUMP JUMPDEST SWAP3 POP PUSH2 0x1FC3 PUSH32 0xFFFFFFFFFFFFFFFFFFFFFFFFFFFFFFFFFFFFFFFFFFFFFFFFFFFFFFFFFFFFFFFF DUP5 DUP5 PUSH2 0x1EB0 JUMP JUMPDEST SWAP1 POP SWAP3 SWAP2 POP POP JUMP JUMPDEST PUSH32 0x79206469646E277420636F6E7665726765000000000000000000000000000000 PUSH0 DUP3 ADD MSTORE POP JUMP JUMPDEST PUSH0 PUSH2 0x1FFF PUSH1 0x11 DUP4 PUSH2 0x1A20 JUMP JUMPDEST SWAP2 POP PUSH2 0x200A DUP3 PUSH2 0x1FCB JUMP JUMPDEST PUSH1 0x20 DUP3 ADD SWAP1 POP SWAP2 SWAP1 POP JUMP JUMPDEST PUSH0 PUSH1 0x20 DUP3 ADD SWAP1 POP DUP2 DUP2 SUB PUSH0 DUP4 ADD MSTORE PUSH2 0x202C DUP2 PUSH2 0x1FF3 JUMP JUMPDEST SWAP1 POP SWAP2 SWAP1 POP JUMP JUMPDEST PUSH32 0x44206469646E277420636F6E7665726765000000000000000000000000000000 PUSH0 DUP3 ADD MSTORE POP JUMP JUMPDEST PUSH0 PUSH2 0x2067 PUSH1 0x11 DUP4 PUSH2 0x1A20 JUMP JUMPDEST SWAP2 POP PUSH2 0x2072 DUP3 PUSH2 0x2033 JUMP JUMPDEST PUSH1 0x20 DUP3 ADD SWAP1 POP SWAP2 SWAP1 POP JUMP JUMPDEST PUSH0 PUSH1 0x20 DUP3 ADD SWAP1 POP DUP2 DUP2 SUB PUSH0 DUP4 ADD MSTORE PUSH2 0x2094 DUP2 PUSH2 0x205B JUMP JUMPDEST SWAP1 POP SWAP2 SWAP1 POP JUMP INVALID LOG2 PUSH5 0x6970667358 0x22 SLT KECCAK256 PUSH10 0xE820403466E1AA441D41 PUSH3 0xD914E0 0xB8 PUSH30 0x17B0A4400641C614F5E45CA284E78264736F6C634300081A003300000000 "
				},
				"gasEstimates": {
					"creation": {
						"codeDepositCost": "1680200",
						"executionCost": "infinite",
						"totalCost": "infinite"
					},
					"external": {
						"addLiquidity(uint256[3],uint256)": "infinite",
						"balanceOf(address)": "2802",
						"balances(uint256)": "infinite",
						"calcWithdrawOneToken(uint256,uint256)": "infinite",
						"getVirtualPrice()": "infinite",
						"removeLiquidity(uint256,uint256[3])": "infinite",
						"removeLiquidityOneToken(uint256,uint256,uint256)": "infinite",
						"swap(uint256,uint256,uint256,uint256)": "infinite",
						"tokens(uint256)": "2839",
						"totalSupply()": "2426"
					},
					"internal": {
						"_burn(address,uint256)": "infinite",
						"_calcWithdrawOneToken(uint256,uint256)": "infinite",
						"_getD(uint256[3] memory)": "infinite",
						"_getY(uint256,uint256,uint256,uint256[3] memory)": "infinite",
						"_getYD(uint256,uint256[3] memory,uint256)": "infinite",
						"_mint(address,uint256)": "infinite",
						"_xp()": "infinite"
					}
				},
				"methodIdentifiers": {
					"addLiquidity(uint256[3],uint256)": "a4bf0446",
					"balanceOf(address)": "70a08231",
					"balances(uint256)": "4903b0d1",
					"calcWithdrawOneToken(uint256,uint256)": "a60dc3b1",
					"getVirtualPrice()": "e25aa5fa",
					"removeLiquidity(uint256,uint256[3])": "d035862c",
					"removeLiquidityOneToken(uint256,uint256,uint256)": "7066b5b2",
					"swap(uint256,uint256,uint256,uint256)": "5673b02d",
					"tokens(uint256)": "4f64b2be",
					"totalSupply()": "18160ddd"
				}
			},
			"storageLayout": {
				"storage": [
					{
						"astId": 61,
						"contract": "contracts/StableSwap_2.sol:StableSwap",
						"label": "tokens",
						"offset": 0,
						"slot": "0",
						"type": "t_array(t_address)3_storage"
					},
					{
						"astId": 69,
						"contract": "contracts/StableSwap_2.sol:StableSwap",
						"label": "multipliers",
						"offset": 0,
						"slot": "3",
						"type": "t_array(t_uint256)3_storage"
					},
					{
						"astId": 73,
						"contract": "contracts/StableSwap_2.sol:StableSwap",
						"label": "balances",
						"offset": 0,
						"slot": "6",
						"type": "t_array(t_uint256)3_storage"
					},
					{
						"astId": 78,
						"contract": "contracts/StableSwap_2.sol:StableSwap",
						"label": "totalSupply",
						"offset": 0,
						"slot": "9",
						"type": "t_uint256"
					},
					{
						"astId": 82,
						"contract": "contracts/StableSwap_2.sol:StableSwap",
						"label": "balanceOf",
						"offset": 0,
						"slot": "10",
						"type": "t_mapping(t_address,t_uint256)"
					}
				],
				"types": {
					"t_address": {
						"encoding": "inplace",
						"label": "address",
						"numberOfBytes": "20"
					},
					"t_array(t_address)3_storage": {
						"base": "t_address",
						"encoding": "inplace",
						"label": "address[3]",
						"numberOfBytes": "96"
					},
					"t_array(t_uint256)3_storage": {
						"base": "t_uint256",
						"encoding": "inplace",
						"label": "uint256[3]",
						"numberOfBytes": "96"
					},
					"t_mapping(t_address,t_uint256)": {
						"encoding": "mapping",
						"key": "t_address",
						"label": "mapping(address => uint256)",
						"numberOfBytes": "32",
						"value": "t_uint256"
					},
					"t_uint256": {
						"encoding": "inplace",
						"label": "uint256",
						"numberOfBytes": "32"
					}
				}
			},
			"userdoc": {
				"kind": "user",
				"methods": {
					"swap(uint256,uint256,uint256,uint256)": {
						"notice": "Swap dx amount of token i for token j"
					}
				},
				"version": 1
			}
		}
	}
}